:02000002D0002C
:1040000000400D00F4800D00000006000C000501CA
:084010000401E80500000000B6
:0440180040770D00E0
:10401C0009480A49884208B505D0094A824202D0AB
:10402C00121A03F033FA0748074A0021121A03F058
:10403C0053FA014808BD00BF08E4032054800D006A
:10404C0080E4032080E40320F0E7032070B502F045
:10405C0099F8074C074BE41AA40800251E46A54204
:10406C0004D056F8253098470135F8E770BD00BFED
:10407C0044800D0008800D0000F06AB808B500F00F
:10408C0075F8BDE8084002F03FB800F03BBE00F008
:10409C0041BE00F03FBE000008B5034A00210C20D1
:1040AC0000F06CFDFEE700BFD9490D000078B0FAB6
:1040BC0080F0400970470123037070477047006A15
:1040CC000368DB68184710B50446006808B100F0B7
:1040DC0021FE204610BD00000A4B10B504460360BB
:1040EC0001F03AF9214601F027FB02F017FC02F02F
:1040FC0009FC2046044B40F8043B01F023FA20460F
:10410C0010BD00BF74770D005C770D0010B5044630
:10411C00FFF7E2FF2046242103F04EF8204610BDA5
:10412C000EB400B58CB00DAA202352F8041B0392D8
:10413C008DE8060004930168002304AA1E20059351
:10414C0000F024FD0CB05DF804EB03B070470000E8
:10415C0008B540F6B83001F089FF3C210248BDE8B3
:10416C00084002F083B800BF48E7032010B5084CA4
:10417C002368012B05DC00F071FA06490648FFF7AD
:10418C00CFFF236801332360BDE8104000F058BB1B
:10419C0008E4032084770D0008E5032070B504685B
:1041AC0043681426054606FB0346A64204D0204667
:1041BC0000F048FE1434F8E7286800F0ABFD284600
:1041CC0070BD8842F8B506460C46154616D9904285
:1041DC0015D2A2F114056C1AA1F114070444AF42D4
:1041EC001CD02CB12946204600F01CFE2B7C2374DD
:1041FC00284600F027FE143D143CF0E70ED0AC42EC
:10420C000CD02EB12146304600F00CFE237C3374CA
:10421C00204600F017FE14341436F0E7F8BD2DE9F3
:10422C00F04100230360436083604E689E42044665
:10423C000F4624DD4FF0140808FB06F000F062FD79
:10424C000546E0B194E8060008FB0212FFF7B9FF3F
:10425C00206800F05FFD2560A6603E687B6808FB67
:10426C000368464509D02DB13146284600F040FE82
:10427C00337C2B7414361435F3E77B68636020466B
:10428C00BDE8F081F0B52A4D2A4E8DB000F08EFBC2
:10429C0000244FF6FF736B812C60AC80AC712C81C9
:1042AC00012000F08BFC32462349284602F077FFB0
:1042BC0000940194029402F031FB204C07466946AD
:1042CC0003A8FFF7ACFF254603A906A8FFF7A7FF35
:1042DC001B4B45F8043B06A909A8FFF7A0FF09AA48
:1042EC001E21284601F08FFB09A8FFF757FF06A8EF
:1042FC00FFF754FF134B2360276203A8FFF74EFF11
:10430C00114B236002F00AFB4FF4165102F0F6FA3F
:10431C0001F022F8214601F009FB6846FFF73EFF49
:10432C0032460A49204602F03AFF0DB0F0BD00BFFC
:10433C00A8E4032080E40320D3400D0084E4032090
:10434C005C770D00E47C0D0074770D00E5400D00EA
:10435C0010B58AB08DE80C000C462021029100218A
:10436C0003910B4602AA0168204600F00FFC0AB02C
:10437C0010BD0EB403B503AB322153F8042B0193DB
:10438C00FFF7E6FF02B05DF804EB03B070470EB424
:10439C0003B503AB282153F8042B0193FFF7D8FF87
:1043AC0002B05DF804EB03B07047437802781B044D
:1043BC0003EB02638278C07803EB02231844704746
:1043CC002DE9F0434FF0000887B0054601AE474693
:1043DC00CC2337608DF8043001238DF80530F82399
:1043EC008DF80730CD238DF809308DF8085002F088
:1043FC001DFB03680622DB68314698470024335DB9
:10440C003149324822460134FFF78AFE062CF6D198
:10441C0002F00CFB03681B69984758B1002402F0AA
:10442C0005FB03685B69984703AB185501340A2CEC
:10443C00F5D1EDE702F0FAFA03681B6998470446D8
:10444C0028B102F0F3FA03685B699847F2E70A2097
:10445C0001F00CFE9DF80F30F62B2A461CD19DF86E
:10446C001030AB4218D11A491848FFF759FE0DF11C
:10447C00150818F8013D0DF804302246154913486B
:10448C000134FFF74DFE042CF3D16846FFF78DFF86
:10449C004FF00109804605E00F490C48FFF740FE3C
:1044AC004FF0FF39002403AB22461B5D0B49074834
:1044BC000134FFF735FE0A2CF5D1B9F1FF3F87D057
:1044CC00404607B0BDE8F0839B770D0008E503205C
:1044DC00BE770D00F0770D000B780D0039780D00CC
:1044EC00F8B505460F4600F079FA064600F076FA64
:1044FC00801BB84217D20620FFF762FF1049024614
:10450C0004461048FFF70CFE35EA04032A4605D191
:10451C000D490C48FFF73BFF2046F8BD0B490948F5
:10452C00FFF735FFE2E700F059FA801B874205D20E
:10453C002B463A4606490348FFF71BFF0020F8BDFF
:10454C005D780D0008E5032079780D0098780D0052
:10455C00C0780D002DE9F04387B006460F460DF1EB
:10456C000C084FF00009CC23C8F800908DF80C30E3
:10457C0005238DF80D30F9238DF80F30FB788DF86D
:10458C001130BB788DF812307B788DF813303B7876
:10459C008DF81430CD238DF815308DF8106002F0A5
:1045AC0045FA03680A22DB6841469847002418F84C
:1045BC0004302549254822460134FFF7B1FD0A2C69
:1045CC00F5D102F033FA03681B69984758B10024FF
:1045DC0002F02CFA03685B6998470DF8040001346B
:1045EC000A2CF5D1EDE702F021FA03681B69984714
:1045FC00044628B102F01AFA03685B699847F2E79F
:10460C009DF80330F52B324608D19DF80430B342A7
:10461C0004D10F490D48FFF783FD04E00D490B4809
:10462C00FFF77EFD012400251DF805300A490748D7
:10463C002A460135FFF774FD0A2DF5D1012C92D0D5
:10464C00002007B0BDE8F083FC780D0008E50320DE
:10465C0020790D0050790D007D790D0030B589B0B1
:10466C0002F0E4F94FF4E13102F0DAF902F056F914
:10467C004FF4E13102F042F960496148FFF750FD17
:10468C0008AD60495E48FFF782FE002345F8203DE7
:10469C0029460320FFF75EFF04460028F8D14FF4AB
:1046AC00FA7001F0E3FC58495548FFF770FE0423FB
:1046BC008DF804408DF805408DF806408DF80730D4
:1046CC0001A90320FFF746FF04460028F8D14F4903
:1046DC004B48FFF75CFE04238DF808408DF8094029
:1046EC008DF80A308DF80B4002A90220FFF732FF3B
:1046FC0004460028F8D146494148FFF748FEB42348
:10470C008DF80C408DF80D408DF80E408DF80F3063
:10471C0003A92020FFF71EFF0028F9D138483C4997
:10472C00FFF735FE3B4B08AC186844F8100D2146DA
:10473C002120FFF70FFF0028F9D131483649FFF748
:10474C0026FE364B08AD186845F80C0D294640205E
:10475C00FFF700FF04460028F8D131492848FFF73D
:10476C0016FE14238DF818408DF819408DF81A4058
:10477C008DF81B3006A94220FFF7ECFE04460028FA
:10478C00F8D128491E48FFF702FE03238DF81C4080
:10479C008DF81D408DF81E408DF81F3007A90320A1
:1047AC00FFF7D8FE0028F9D11F491548FFF7EFFD98
:1047BC0040F6B8310320FFF793FE20B11B49104897
:1047CC00FFF7E5FD03E01A490D48FFF7D2FD812004
:1047DC00FFF7F6FD174902460948FFF7D8FD82207E
:1047EC00FFF7EEFD144902460548FFF7D0FD1349CB
:1047FC000348FFF7CCFD09B030BD00BFA2790D0016
:10480C0008E50320B7790D00C4790D00E1790D009E
:10481C00F3790D0093770D00117A0D0097770D0049
:10482C001F7A0D003A7A0D00487A0D00737A0D004C
:10483C00907A0D00AB7A0D00C47A0D00DE7A0D0073
:10484C00F0B5424DADF21C4D00F0C8F82B68C01A03
:10485C0040F2DC53984276D93D493E48FFF797FD2C
:10486C0000238DF80C308DF80D308DF80E300423AC
:10487C008DF80F3003A90320FFF76CFE0028F9D147
:10488C0035493448FFF783FD40F6B8314FF480705A
:10489C00FFF726FE20B131492E48FFF778FD03E0E3
:1048AC002F492C48FFF765FDB020FFF789FDB0F1CB
:1048BC00FF3F14BF06460126B120FFF781FD0746D6
:1048CC00B220FFF77DFD3246044626492148FFF70A
:1048DC005EFD3A4624491F48FFF759FD0A23234938
:1048EC00B4FBF3F41B482246FFF751FD0194334609
:1048FC001F4A00974FF4806106A800F01BFA1D4B6D
:10490C001D491B788DF8003006AA3C2304A801F041
:10491C00ABFD059C7CB16368013B63605BB92368AC
:10492C0020469B689847A368013BA3601BB923688A
:10493C002046DB68984701F0F1FF06A900F06DFBFB
:10494C0000F04CF828600DF21C4DF0BDB4E40320CF
:10495C00C4790D0008E50320F37A0D00187B0D00D7
:10496C00237B0D00327B0D00417B0D004C7B0D0039
:10497C005F7B0D00B8E40320917B0D00024B0122FC
:10498C001A7000F013B800BFB8E4032008B5024B4E
:10499C001B689B68019308BD6802030008B5024BB5
:1049AC001B68DB68019308BD6802030008B5024B65
:1049BC001B681B68019308BD2C02030008B5024B51
:1049CC001B685B68019308BD1802030008B5024B15
:1049DC001B68DB68019308BD1802030008B5024B85
:1049EC001B685B69019308BD1802030008B5024BF4
:1049FC001B689B68019308BD4802030008B5024B75
:104A0C001B681B69019308BD4802030008B5024BE3
:104A1C001B685B69019308BD4802030008B5024B93
:104A2C001B685B6C019308BD4802030008B5024B80
:104A3C001B689B6C019308BD4802030008B5024B30
:104A4C001B68DB6C019308BD4802030008B5024BE0
:104A5C001B685B6D019308BD4802030008B5024B4F
:104A6C001B685B69019308BD6402030008B5024B27
:104A7C001B681B68019308BD3C02030008B5024B80
:104A8C001B689B68019308BD3C02030008B5024BF0
:104A9C001B68DB68019308BD3C02030008B5024BA0
:104AAC001B681B69019308BD3C02030008B5024B4F
:104ABC001B685B69019308BD3C02030008B5024BFF
:104ACC001B689B69019308BD3C02030008B5024BAF
:104ADC001B68DB69019308BD3C02030008B5024B5F
:104AEC001B689B6A019308BD3C02030008B5024B8E
:104AFC001B68DB6A019308BD3C02030008B5024B3E
:104B0C001B681B68019308BD4C02030008B5024BDF
:104B1C001B685B68019308BD4C02030008B5024B8F
:104B2C001B689B68019308BD4C02030008B5024B3F
:104B3C001B681B69019308BD4C02030008B5024BAE
:104B4C001B685B69019308BD4C02030008B5024B5E
:104B5C001B689B69019308BD4C02030008B5024B0E
:104B6C001B68DB69019308BD4C02030008B5024BBE
:104B7C001B681B6A019308BD4C02030008B5024B6D
:104B8C001B685B6B019308BD6002030008B5024B08
:104B9C001B685B6D019308BD6002030008B5024BF6
:104BAC001B68DB6E019308BD6002030008B5024B65
:104BBC001B681B6F019308BD6002030008B5024B14
:104BCC001B685B68019308BD2002030008B5024B0B
:104BDC001B685B69019308BD2002030008B5024BFA
:104BEC001B68DB6C019308BD2002030008B5024B67
:104BFC001B685B6D019308BD2002030008B5034BD5
:104C0C001B68D3F88830019308BD00002002030014
:104C1C0008B5034B1B68D3F89430019308BD000012
:104C2C002002030008B5024B1B685B68019308BDAA
:104C3C004002030008B5024B1B689B68019308BD3A
:104C4C004002030008B5024B1B68DB68019308BDEA
:104C5C004002030008B5024B1B681B69019308BD99
:104C6C004002030008B5024B1B685B69019308BD49
:104C7C004002030008B5024B1B689B69019308BDF9
:104C8C004002030008B5024B1B68DB69019308BDA9
:104C9C004002030008B5024B1B681B6A019308BD58
:104CAC004002030008B5024B1B681B6B019308BD47
:104CBC004002030008B5024B1B685B6B019308BDF7
:104CCC004002030008B5024B1B685B69019308BDE9
:104CDC004402030008B5024B1B681B6A019308BD14
:104CEC004402030008B5024B1B68DB6B019308BD43
:104CFC004402030008B5024B1B681B6C019308BDF2
:104D0C004402030008B5024B1B681B68019308BDE5
:104D1C001C02030008B5024B1B685B68019308BDBD
:104D2C001C02030008B5024B1B689B68019308BD6D
:104D3C001C02030008B5024B1B68DB69019308BD1C
:104D4C001C02030008B5024B1B685B6A019308BD8B
:104D5C001C02030008B5024B1B68DB6A019308BDFB
:104D6C001C02030008B5024B1B681B6B019308BDAA
:104D7C001C020300002211464068FFF78BBF002283
:104D8C0011464068FFF796BF00224068FFF78ABFC4
:104D9C00002281F001014068FFF774BF00231A461E
:104DAC0019464068FFF766BF00231A46194640684B
:104DBC00FFF758BF002211464068FFF74BBF002297
:104DCC0011464068FFF736BF002202214068FFF70A
:104DDC0039BF00231A464068FFF724BF024B032259
:104DEC005A60024A1A607047BCE40320A07B0D0095
:104DFC0010B5094C00204FF6FF732060A080A07105
:104E0C0020816381FFF7DAFE2046044A0449BDE89D
:104E1C00104002F0C4B900BFC4E4032080E40320B6
:104E2C00D3400D000023036043608360037310B50F
:104E3C000C6804604C6844608C6884600B604B6048
:104E4C008B6010BD10B504460068FFF763FF204669
:104E5C0010BD10B50446006808B1FFF75BFF0023D6
:104E6C002360A360636010BD38B504460D4600682E
:104E7C000131FFF757FF10B184E82100012038BD44
:104E8C0010B50368044613B143688B4207D2204621
:104E9C00FFF7EAFF20B1A3680BB922681370012059
:104EAC0010BD70B50E46114604461546FFF7E8FFD7
:104EBC0018B92046FFF7CDFF09E02A463146A56018
:104ECC00206802F0E3FA2268A3680021D15420463E
:104EDC0070BD884210B50B46044607D0096819B15D
:104EEC009A68FFF7DEFF01E0FFF7B3FF204610BD25
:104EFC0010B5002304460360436083600373FFF71F
:104F0C00E8FF204610BD10B50446006808B1FFF755
:104F1C008DFD204610BD10B5036804469B6898476C
:104F2C00A368013BA3602BB923682046DB68BDE86E
:104F3C001040184710BD0B68036013B15A6801325A
:104F4C005A60704710B50446006828B14368013BAD
:104F5C0043600BB9FFF7DFFF204610BD38B50C6876
:104F6C0003689C4205460CD014B16368013363603E
:104F7C00286828B14368013B43600BB9FFF7CBFFAE
:104F8C002C60284638BD000010B5064C0023204686
:104F9C002360FFF743FD2046034A0449BDE8104057
:104FAC0002F0FDB8D0E4032080E40320134F0D0081
:104FBC00F8B506460D468F180024BD420CD0336858
:104FCC0015F8011B9B6830469847002801DB044408
:104FDC00F3E7002C08BF04462046F8BD70B5054623
:104FEC000C46084649B102F0E4FA2B680246214609
:104FFC002846DB68BDE87040184770BD03689B68A5
:10500C00184738B50D210546FFF7F8FF0A2104466D
:10501C002846FFF7F3FF204438BD38B50546FFF7A7
:10502C00DDFF04462846FFF7ECFF204438BD30B5C1
:10503C008BB00B4600218DF82410012A98BF0A2250
:10504C000DF12304B3FBF2F505FB123303F0FF0360
:10505C00092B94BF30333733DBB2214604F80139C6
:10506C002B46002DEED1FFF7B9FF0BB030BD0CB4C1
:10507C002DE9F04387B000AF07F13804054654F82A
:10508C00049B3C600E4623464A461421381DFFF70C
:10509C0059FE132805D8391D2846FFF79FFF0446F3
:1050AC0013E000F1080323F00703E846ADEB030D12
:1050BC00411C23464A4668463C60FFF743FE69465E
:1050CC002846FFF78BFF0446C5461EB12846FFF75E
:1050DC0098FF044420461C37BD46BDE8F04302B09F
:1050EC00704780680368DB681847704719B10B6814
:1050FC0008465B681847704719B10B6808465B682F
:10510C001847704770477047704738B504460D46CE
:10511C0000682E2102F01EFA2368C31A2B6023B1FB
:10512C00037803B1013023682060184638BD10B5F0
:10513C000C21044602F040F8204610BD10B50421A5
:10514C00044602F039F8204610BD10B5042104467F
:10515C0002F032F8204610BD38B50C46054601F079
:10516C00DDFB84420DD001F061FC844205D101F0DD
:10517C005DFCBDE8384001F056BC21462846FFF7DF
:10518C00BBFF38BD08B502F0EFF9B0FA80F040096A
:10519C0008BD38B5054608460C4602F00AFA214609
:1051AC0002462846BDE8384001F097BF0068FFF77B
:1051BC0045BC70B5044608460D4602F0FAF9236862
:1051CC00024629462046DB68BDE87040184713B5F7
:1051DC0002AB026803F8011DD46819460122A047EE
:1051EC0002B010BD2DE9F04F4568076885B09146B7
:1051FC00142255430193AB10194D02925D438B461B
:10520C003C460123002D039323DD029B6E1003FB10
:10521C0006F004EB00084A46B8F804A02058D14523
:10522C0028BF5246594602F0CCF9039B48B9D145E8
:10523C0003D1019A13703546E4E78CBF012000209E
:10524C0000E0C00F0028F6D0AE1B08F11404013E9C
:10525C00F1E7E41B0248A410604305B0BDE8F08FF1
:10526C00CDCCCCCCF0B585B003690191067E13B3DF
:10527C0009B304AF002347F8043D00F10C041D46AC
:10528C00394601A8FFF741FF0146A0B104AB039AD0
:10529C0003F8055D2046FFF7A5FF9DF80B3053B1D1
:1052AC002368142404FB0034083434F9023C002B2A
:1052BC00A8BFDEB2E4E7304605B0F0BD10B5094C2E
:1052CC002368DB070BD42046FEF7F0FE38B12046EE
:1052DC00FEF7F1FE044A0549054801F060FF044859
:1052EC0010BD00BFD4E4032080E4032013510D0053
:1052FC0010E4032010B5094C2368DB070BD42046BF
:10530C00FEF7D4FE38B12046FEF7D5FE044A054917
:10531C00054801F044FF044810BD00BF04E503201C
:10532C0080E4032011510D000CE4032038B5002556
:10533C00044605604560856005614561856140F8FE
:10534C00245FFFF76BFBFFF7B9FFE061FFF7D2FFBC
:10535C0025732062204638BD10B50A4C2368DB0744
:10536C000ED42046FEF7A2FE50B10748FFF7DEFF31
:10537C002046FEF7A0FE054A0549034801F00FFF41
:10538C00014810BDD8E40320DCE4032080E40320B2
:10539C00CF570D000023024A02490348FFF706BC11
:1053AC00B1560D0041560D00C9550D0000231A468B
:1053BC0019461846FFF7FABB73B502AC8E6851F864
:1053CC00043B44F8083D054601A8FFF7B4FD22460E
:1053DC003146284601F0B8FE01A8FFF7B3FD284678
:1053EC0002B070BD73B502AC0E6951F8043B44F8C1
:1053FC00083D054601A8FFF79EFD2246314628468A
:10540C0001F0BDFE01A8FFF79DFD284602B070BD5E
:10541C0073B502ACCE6851F8043B44F8083D054620
:10542C0001A8FFF788FD22463146284601F064FEAC
:10543C0001A8FFF787FD284602B070BD30B58BB0D0
:10544C000D46014604A8FFF7B7FF04A801F087FD3D
:10545C00E8B104A96846FFF7DBFF0F490298FFF794
:10546C0091FE044610B12C1C18BF012401A8FFF7B3
:10547C0069FD002CE9D004A96846FFF7B3FF684624
:10548C0001F04DFD286001A8FFF75CFDDDE705A8E4
:10549C00FFF758FD0BB030BDFC7B0D0037B50C464B
:1054AC0020461349154602F05FF840B901F036FA70
:1054BC004FF4165101F022FA01F030FA15E00D49C3
:1054CC00204602F051F878B902A94FF4165341F86E
:1054DC00043D2846FFF7B2FF01F0A8FA019901F04C
:1054EC009FFA01F0A3FA00E0002003B030BD00BF2A
:1054FC00017C0D00087C0D0070B50468436814260F
:10550C00054606FB0346A64205D004F10800FFF74A
:10551C00F3FF1434F7E72868FFF7FCFB284670BD4F
:10552C0070B504684368054604EB0316A64204D024
:10553C002046FFF787FC1034F8E72868FFF7EAFBF2
:10554C00284670BD10B504460C30FFF7D5FF204639
:10555C00FFF7E6FF204610BD10B5044B044640F89B
:10556C00043BFFF7EFFF204610BD00BF5C770D003A
:10557C0010B50446FFF7F0FF2046242101F01CFE75
:10558C00204610BD10B5034B03600446FFF7E4FF43
:10559C00204610BDEC7B0D0010B50446FFF7F2FF62
:1055AC002046242101F008FE204610BD10B50368EA
:1055BC0004461868FFF74AFA204610BD2DE9F04F53
:1055CC009B461B4B5B68C3F3080385B082460E46B3
:1055DC00904653BBFFF7C0FE044624300390FFF700
:1055EC00E5FD237BF3B90123237325686368F6B2C9
:1055FC0005EB83094D4513D055F8047B4146381D06
:10560C00FFF730FE8642F5D33B68CDF800B09B68BF
:10561C009E4638464346324651467746B847E9E7F8
:10562C000023237303A8FFF7C1FF05B0BDE8F08F7B
:10563C0000ED00E02DE9F74F9946194B5B68C3F379
:10564C00080307468846164633BBFFF785FE04461B
:10565C0024300190FFF7AAFD237BD3B901232373D8
:10566C00256863685FFA86FB05EB830A55450ED007
:10567C0055F8046B4946301DFFF7F4FD8345F5D30F
:10568C0033684246DB68394630469847EEE70023DC
:10569C00237301A8FFF78AFF03B0BDE8F08F00BFAA
:1056AC0000ED00E02DE9F341154B5B68C3F30803F3
:1056BC0004468846FBB9FFF74FFE0646243001909E
:1056CC00FFF774FD96E8A000462605EB8707AF426E
:1056DC0007D101A8FFF76AFFB442B4BF0020012034
:1056EC000AE055F8040B41460430FFF7BBFD864237
:1056FC00A8BF0646EBE7002002B0BDE8F08100BF72
:10570C0000ED00E070B503684268044603EB8202CA
:10571C009A4218460ED006680D68AE4203F1040397
:10572C00F6D1011D521A01F0BCFE6368013B6360A7
:10573C00012070BD002070BD1FB5044624300191BE
:10574C000390FFF733FD01A92046FFF7DBFF20B9DB
:10575C0003A8FFF72BFF04B010BD6368002BF7D133
:10576C00FFF724FEF4E770B5056943691826044673
:10577C0006FB0356AE4215D005F110012046FFF78B
:10578C00C1FF63680BB9FFF711FEE0692969036873
:10579C00DB689847696919B1206A0368DB68984728
:1057AC001835E7E725696369182606FB0356B542E9
:1057BC0004D02846FFF746FB1835F8E70023636151
:1057CC0070BD73B5044602ADFFF7F0FD04F1240083
:1057DC0045F8040DFFF7EAFC2046FFF7C4FF284606
:1057EC00FFF7E4FE606A08B1FFF720F925696369E9
:1057FC00182606FB0356B54204D02846FFF722FBB9
:10580C001835F8E72069FFF785FA2068FFF782FA68
:10581C00204602B070BD03680A6802600B604368E2
:10582C004A6842604B6083688A6882608B6070470C
:10583C0010B500230446036043608360FFF7EBFF61
:10584C00204610BD8842F8B50446164625D990422C
:10585C0024D2551A143D2C44A1F11407A2F10C05C5
:10586C000026A5F108039F4237D084B155F8083CB7
:10587C00236035F8043CA38035F9023CE380A66034
:10588C00E6602661294604F10800FFF7C4FF2846AC
:10589C00FFF732FE143C143DE3E71ED001F108057E
:1058AC000027A5F108039E4217D084B155F8083C97
:1058BC00236035F8043CA38035F9023CE380A760F3
:1058CC00E7602761294604F10800FFF7A4FF28468A
:1058DC00FFF712FE14341435E3E7F8BDF8B545684C
:1058EC0083689D4204460E4617460EDB0135002D9B
:1058FC0005DDA9000068FFF715FA20B9F8BD0068AE
:10590C00FFF708FA00202060A5602568626805EBA7
:10591C00860105EB8202521A081D01F0C2FD45F802
:10592C0026706368013363600120F8BD37B5044607
:10593C0024300D460190FFF739FC2368616803EBB6
:10594C00810083421A4609D01268AA4203F104036B
:10595C00F7D101A8FFF72AFE00250EE02A462046C3
:10596C00FFF7BCFF05460028F3D06368012B01D17B
:10597C00FFF710FD01A8FFF719FE284603B030BD54
:10598C008842F8B506460C46154614D9904213D2F7
:10599C00A2F110056C1AA1F110070444AF4218D003
:1059AC001CB129462046FFF73DFA2846FFF74AFA74
:1059BC00103D103CF2E70CD0AC420AD01EB121468F
:1059CC003046FFF72FFA2046FFF73CFA103410361A
:1059DC00F2E7F8BD70B50E1E05460BDD3001FFF782
:1059EC0091F9044670B195E8060001EB0212FFF73D
:1059FC00C7FF00E000242868FFF78CF92C60AE602C
:105A0C00012070BD70BD2DE9F04F002395B092467A
:105A1C004622036043608360C36003614361027686
:105A2C000291DAF8041008939942054609930A93F7
:105A3C0040F39D8008A8FFF7CDFF002840F0978029
:105A4C008EE021460BA8FFF7EDF90BA90FA8099ED4
:105A5C00FFF7E8F909990A9B9942C0F2CE8001310F
:105A6C0008A8FFF7B7FF002840F0C7800FA8FFF782
:105A7C00E9F90BA8FFF7E6F91434A742E1D10026A7
:105A8C000B960C960D96B146099B9E4280F2A8800F
:105A9C003301089AD3580693002B00F09F801423EF
:105AAC007343CDF81C9001930BAC07A906A8FFF724
:105ABC002CFB0746002800F0918014AB014603F83C
:105ACC00399D079A2046FFF78DFB9DF817800090B3
:105ADC00B8F1000F53D1BDF81C30ADF840304FF683
:105AEC00FF730F97ADF84230CDF84480CDF8488065
:105AFC00CDF84C806768A3689F424FDA009BD4F8BE
:105B0C0000B06168142253430BEB030702FB01B294
:105B1C0007F1140039460393FFF794FEA7B1039BDA
:105B2C000F9A4BF80320BDF84030BB80BDF94230D2
:105B3C00FB80C7F80890C7F80C90C7F8109011A913
:105B4C0007F10800FFF767FE63680133636011A873
:105B5C00FFF7D2FCB8F1000F11D00BA8FFF7CCFC6B
:105B6C0008A8FFF7DDFC284615B0BDE8F08FDAF881
:105B7C000040DAF80430142707FB03477DE723685D
:105B8C00009A142404FB0234069B1B7823BBDAF81E
:105B9C000030019A13441B7CE3801DE00137002F79
:105BAC000FDD142303FB07F00393FFF7ABF88346D9
:105BBC0078B194E80600039B03FB0212FFF742FE48
:105BCC0000E0C3462068FFF7A5F8C4F800B0A76052
:105BDC0094E74FF00108BAE7083466E7013653E75B
:105BEC0008A92846FFF717FE0BA905F10C00FFF7D3
:105BFC0012FE9DF808302B76AFE7089B099A03EB51
:105C0C00061603EB0212314606F11000FFF7B8FE40
:105C1C001EB10FA93046FFF705F9099B0133099313
:105C2C0024E700007FB50446094B44F8043B0546C5
:105C3C000E4601A81146FEF7F2FA01AA314620469B
:105C4C00FFF7E1FE01A8FEF7A9FA284604B070BDE3
:105C5C005C770D00F0B50F468BB02B49109C384685
:105C6C0016461D4601F080FC28BB002C49D0294665
:105C7C0001A8FFF7DDFD2549242001F09FFA054618
:105C8C00B8B101A904A8FFF7D3FD04A907A8FEF732
:105C9C00C6FA07AA31462846FFF7C4FF07A8FEF745
:105CAC007DFA1B4B2B602C6204A8FEF777FA194B7C
:105CBC002B6001A81FE01849384601F055FCF0B9DB
:105CCC00FCB1294604A8FFF7B3FD1049242001F0CC
:105CDC0075FA054670B104A907A8FEF7A0FA07AA41
:105CEC0031462846FFF79EFF07A8FEF757FA084BE8
:105CFC002B602C6204A8FEF751FA284602E0002023
:105D0C0000E020460BB0F0BD5A7C0D009F7E0D00CC
:105D1C00E47C0D00EC7B0D005E7C0D00014B024A17
:105D2C001A60704708E503206F7C0D002DE9F047E1
:105D3C00089DD0F8209004460E461746984600F071
:105D4C00EDFD814505D15A4800F0EFFF002840F0E9
:105D5C00AC802B791B0705D56B69564A206A00214C
:105D6C00FFF785F9B8F1000F0DD05B212046FFF746
:105D7C002EFA41462046FFF71CFA23684E49DB6891
:105D8C000222204698472B79D90725D5D5F80880CB
:105D9C002F21404601F02AFC08B100F101084146D0
:105DAC002046FFF706FA2B799A0709D53A212046A7
:105DBC00FFF70DFAEB68414A206A0021FFF757F90B
:105DCC002B7913F0040F236818BF3D49DB6808BF1B
:105DDC003C490222204698472B795B0718D5296944
:105DEC000A46134613F8010B38B1202801D1194685
:105DFC0001E0282801D01A46F3E72368521ADB6821
:105E0C002046984723683049DB680422204698478F
:105E1C0000213846FEF7C2FE01462046FFF7C9F9BD
:105E2C0023682849DB680222204698471EB1314678
:105E3C002046FFF7BEF92B7913F0300F2DD02368D5
:105E4C002249DB682046022298472B79D8060BD5CD
:105E5C0023681F49DB68072220469847AB691D4A17
:105E6C00206A0021FFF703F92B79990611D5DA0680
:105E7C0005D523681249DB6802222046984723681F
:105E8C001549DB6820460A229847E9692046FFF746
:105E9C0090F95D212046FFF79AF923680F49DB68DA
:105EAC0020460222BDE8F0471847BDE8F08700BF46
:105EBC003CE70320737C0D007A7C0D007D7C0D008B
:105ECC00807C0D00857C0D00837C0D00887C0D0092
:105EDC008B7C0D00937C0D00967C0D00A17C0D003D
:105EEC002DE9F04385B0D0F820800C9C06460F4677
:105EFC0091461D4600F012FD804505D14A4800F040
:105F0C0014FF002840F08C80336A484A01924FF00D
:105F1C00000801A803938DF8088001F04AF8414667
:105F2C004846FEF73BFE42498046012201A801F09B
:105F3C00C5F84146FFF72DF93FB13E49012201A8B2
:105F4C0001F0BCF83946FFF724F93DB13A4901227A
:105F5C0001A801F0B3F82946FFF71BF92379DF07F5
:105F6C000ED5A5682F21284601F040FB00B1451C39
:105F7C003249012201A801F0A1F82946FFF709F9DD
:105F8C0023799D0707D52E49022201A801F096F826
:105F9C00E16801F01BF82379580716D525692F46BF
:105FAC003B4613F8012B3AB1202A01D11D4601E0E2
:105FBC00282A01D01F46F3E70222224901A801F04A
:105FCC007DF87A1B294601F088F82379190707D543
:105FDC001D49012201A801F071F8616901F008F86E
:105FEC002379DA0608D5042218490DEB020001F0DA
:105FFC0065F8A16900F0EAFF23799B0607D51449DF
:10600C00062201A801F05AF8E169FFF7C2F801A8CD
:10601C0000F0B9FF306A0F4903680222DB68984729
:10602C0005B0BDE8F08300BF3CE70320D47B0D0036
:10603C00067C0D00197C0D00D57C0D008F7E0D00AB
:10604C00A47C0D00A77C0D002E7C0D00AA7C0D00FD
:10605C00AF7C0D00A17C0D00024B1A68024B1A603C
:10606C00704700BF14E403200CE503200021FEF769
:10607C00ADBD10B58368044613B1032201469847A1
:10608C00204610BD10B50446FFF7F3FF204610BDA7
:10609C0013B50B46044603C88DE8030093E80300D0
:1060AC0084E803009DE8030083E8030002B010BD00
:1060BC000348044A04490023836001F070B800BF10
:1060CC0010E5032080E4032091600D0008B50C4B13
:1060DC0033B100F023FC03681B699847002809DCE6
:1060EC00084B63B100F0A2FC03681B6998470028B9
:1060FC0003DC08BDAFF30080F2E7AFF3008008BD0E
:10610C00000000000000000008B5FFF7DFFFFEF7FD
:10611C0065FC014B186008BD44E703200248034AA4
:10612C000349121A01F0B2B900F4032004F403205D
:10613C0050800D0007B5002300931A466FF07701CD
:10614C00FEF766FD03B05DF804FB000007B543885D
:10615C000A2B08D0502B09D1094B1B683BB103B05B
:10616C005DF804EB1847FFF7E5FF06E0002300930A
:10617C001A466FF07701FEF74BFD03B05DF804FB98
:10618C0020E5032038B5104C104D2368AB42104B62
:10619C000CBF012200221A7002D0FFF7BFFF25604E
:1061AC00FEF70CFC044601F09FF90A4B13B1204694
:1061BC00AFF3008000210748FEF794FD002106484C
:1061CC00BDE83840FEF71ABD00F403201E1C279AC8
:1061DC0024E503200000000059610D0070470020E9
:1061EC00704710B51021044600F0E6FF204610BDA4
:1061FC0008B508B1FFF7F5FF08BD0022026010B525
:10620C004FF69C728280B1F9044084808A800268C7
:10621C000C6804600A6010BD10B504460068FEF7F7
:10622C0079FD204610BD38B5C468F4B12378022B33
:10623C0003D104F10C00FFF7EFFF656835B1284678
:10624C00FFF717FF1021284600F0B6FFA56835B1FF
:10625C002846FFF70EFF1021284600F0ADFF204620
:10626C001421BDE8384000F0A7BF38BD0846002116
:10627C00FEF740BD13B5044691E8050000234B60C2
:10628C000B602060626001A801930093FEF75AFE38
:10629C00204602B010BDF7B50C4602AD54F8043BD5
:1062AC0045F8083D06460F4601A82146FEF743FE79
:1062BC0029463046FFF7DEFF01A8FEF743FE2046D5
:1062CC00FEF740FE3846082100F076FF304603B05A
:1062DC00F0BD000038B500230446036010200D46C5
:1062EC00FDF7D3FE28B1012343608360024B0360AA
:1062FC00C5602060204638BD587D0D00826810B501
:10630C000AB900F06AFFC368BDE81040184708B529
:10631C00006800F11001FFF7F1FF08BD826810B5AD
:10632C000AB900F05AFFC368BDE81040184708B519
:10633C00006800F11001FFF7F1FF08BD38B500232C
:10634C0083608B6804460D462BB102229847EB689C
:10635C00E360AB68A360204638BD0000F0B589B09F
:10636C0004686846FFF749FF00238DF808304FF0AA
:10637C000202D4E84F3F002B03D1C4E8412F00297F
:10638C00F7D102D08DF8083063E014F10C0503D07E
:10639C0069462846FFF731FFBFF35F8F0123637017
:1063AC00002004F10803BFF35F8F53E8006F43E84C
:1063BC000002002AF9D1BFF35F8F002E49D0FEF7FF
:1063CC000DFC20B129463046FFF798FF3AE03146E4
:1063DC0002A8FFF7B3FFE068B4F9105008B101F060
:1063EC00CDF806901020ADF81C50FDF74EFE05467A
:1063FC00E8B1002787601820FDF747FE044688B1F6
:10640C000146876002A8FFF743FE049BA268A360C5
:10641C00059B049206A9E268E36004F11000059262
:10642C00FFF7EBFE0D4BEB600D4B2C60AB6006A841
:10643C00FFF7F2FE02A8FFF71CFE002229460948CE
:10644C00FEF7D4FB3046FFF714FE1021304600F067
:10645C00B3FE6846FFF7E0FE09B0F0BD1B630D000C
:10646C0091650D00B96A0D002DE9F04F8BB0064611
:10647C000F46904699469DF850A0FEF723FC07ADB9
:10648C00834630BB4FF62E73059005A92846ADF810
:10649C001830FFF7B2FE1420FDF7F7FD044658B193
:1064AC000223037001234370C0F804B0C0F808B095
:1064BC0029460C30FFF7A1FE3046214640F8044B2C
:1064CC00FFF708FF2846FFF7A7FE05A8FFF7A4FE75
:1064DC0052E000240C2314206C60AC600793FDF791
:1064EC00D4FD014618B1047044704460846004A863
:1064FC000391FFF7EFFE224B08930820FDF7C5FD33
:10650C00044628B1039B40F8043B04A9FEF713FD95
:10651C0000955FFA8AF34A46414638460994FEF7DD
:10652C00D9FB20B9039B5B7803F0FF0283B1039B7B
:10653C00059304A906A8FEF7FEFC05A93046FFF753
:10654C0099FE06A8FEF7FEFC04A8FEF7FBFC13E080
:10655C004FF69C7305A903A80592ADF81830FFF708
:10656C00FDFE05A8FFF758FE05A80999FFF793FE55
:10657C0006A8FEF7E7FCDAE730460BB0BDE8F08F73
:10658C0001670D00022AF8B5044606D0032A17D07D
:10659C00012A22D10B6803601FE018200E68FDF75A
:1065AC0074FD054650B13146FFF7C8FE3069B6F9A7
:1065BC00147008B100F0E2FF2861AF8225600CE096
:1065CC00046854B104F11000FFF726FE2046FFF7D3
:1065DC0050FD1821204600F0EFFD0020F8BD38B525
:1065EC00002383608B6804460D462BB1022298472A
:1065FC00EB68E360AB68A360204638BD022A70B537
:10660C00044606D0032A11D0012A18D10B68036066
:10661C0015E014200E68FDF738FD054620B1314613
:10662C00FFF7DDFF337C2B74256008E0046834B180
:10663C002046FFF71EFD1421204600F0BDFD002072
:10664C0070BD0000F0B5002387B00C46BFF35F8F20
:10665C0050E8006F40E80032002AF9D1BFF35F8F99
:10666C00002E3FD01846FEF7B9FA074620B1214656
:10667C003046FFF753FE2EE0314601A8FFF7AFFF7F
:10668C0023788DF814301020FDF7FFFC0546D0B1AF
:10669C0087601420FDF7F9FC044678B18760014649
:1066AC0001A8FFF7F5FC039BA268A360049B03926F
:1066BC00E268E3609DF81430049223740A4BEB609B
:1066CC000A4B2C60AB6001A8FFF7D3FC00222946D3
:1066DC000748FEF78BFA3046FFF7CBFC102130460B
:1066EC0000F06AFD07B0F0BD3B630D0009660D00BC
:1066FC00B96A0D0030B585B004460D4668461146A2
:10670C00FFF7C9FD7CB124B228460DB100F036FF6D
:10671C00029002A96846ADF80C40FFF71FFE02A8D4
:10672C00FFF77AFD1DE000988DF808404FF001024C
:10673C00D0E84F3FA34203D1C0E8412F0029F7D145
:10674C0002D08DF808300CE010F10C014FF0010371
:10675C0018BF0373BFF35F8F043000F8033CFFF7DF
:10676C0071FF01A8FEF7EEFB05B030BD704710B508
:10677C001821044600F020FD204610BDF0B5037D25
:10678C00062B8DB00E4600F104074FF0000402D02A
:10679C0000F1080518E00CAD394605F8304D2F23F3
:1067AC002A460A20FEF75AF9284600F002FF336801
:1067BC000246DB682946304698470FE024B12E216B
:1067CC003046FEF71BFC044415F8011D0A22304626
:1067DC00FEF72DFCBD420444F0D120460DB0F0BDB7
:1067EC0010B5054B0446112240F8043B002100F083
:1067FC0073FE204610BD00BF747D0D000346074A92
:10680C0010B543F8042B01F1100251F8044B43F876
:10681C00044B9142F9D10A781A7010BD747D0D00A9
:10682C0010B59DF8084044EA032343EA024242EAC9
:10683C00016104234160037510BD37B50D788B7869
:10684C004A78C97800912946FFF7EAFF03B030BDBA
:10685C0041747047704708B50021007CFEF776F94B
:10686C0030EA200028BF4FF0FF3008BD08B50121E9
:10687C00007CFEF76BF930EA200028BF4FF0FF30A8
:10688C0008BD08B5007CFEF759F920EAE07008BD98
:10689C0008B5007CFEF74AF920EAE07008BD007CE0
:1068AC00FEF764B910B51421044600F085FC2046AF
:1068BC0010BD38B50446007C0D46FEF73FF90028A4
:1068CC0001DC607C28B12946207CFEF747F920EAE0
:1068DC00E07038BD10B50446002363604FF47A7342
:1068EC00A360054B23600123084621746374114691
:1068FC00FEF704F9204610BD887D0D000022007CB7
:10690C00FEF704B9007CFEF709B910B51422044651
:10691C00002100F0E1FD204610BD000030B50E4D09
:10692C0087B001A8FFF7F1FF296811F0010410D11D
:10693C002846FDF7BBFB60B101AA21460748FFF7CB
:10694C00C9FF2846FDF7B7FB054A0649034800F086
:10695C0026FC024807B030BD28E503202CE50320B7
:10696C0080E4032061680D0070474174704708B5DE
:10697C00007CFEF7B3F820EAE07008BD08B5007C97
:10698C00FEF78CF820EAE07008BD08B5007CFEF735
:10699C0095F830EA200028BF4FF0FF3008BD08B54D
:1069AC00007CFEF783F830EA200028BF4FF0FF3060
:1069BC0008BD007CFEF78AB810B51421044600F01F
:1069CC00FBFB204610BD70B5457C04460E4625B930
:1069DC00007CFEF783F8002805DD3146207CBDE8FD
:1069EC007040FEF753B8284670BD000010B5044641
:1069FC0008461146002262604FF47A72A260054A82
:106A0C0022600122207462741A46FEF72FF8204689
:106A1C0010BD00BFB87D0D000023007CFEF766B8EA
:106A2C000022FFF7F9BF007CFEF728B8F8B5194C27
:106A3C0025684DB98420FDF728FB064618B1842241
:106A4C00294600F049FD2660134D2E684EB984206E
:106A5C00FDF71BFB074618B18422314600F03CFDC4
:106A6C002F600E4F396811F0010611D13846FDF731
:106A7C001DFB68B122682B6809483146FFF7B6FF49
:106A8C003846FDF718FB074A0749054800F087FB15
:106A9C000348F8BD5CE5032054E5032058E50320CA
:106AAC0040E5032080E4032075690D0010B5836870
:106ABC0004460BB900F091FBC3689847A3681BB15F
:106ACC00032221462046984720461021BDE810405D
:106ADC0000F072BB002211464068FEF7DBB80022C2
:106AEC0011464068FEF7E6B800224068FEF7DAB8B7
:106AFC00002281F001014068FEF7C4B800231A4659
:106B0C0001214068FEF7B6B800231A4619464068C2
:106B1C00FEF7A8B8002211464068FEF79BB8002289
:106B2C0011464068FEF786B8002202214068FEF745
:106B3C0089B800231A464068FEF774B838B5054684
:106B4C0088B104684CB1A3681BB1032221462046CE
:106B5C0098471021204600F02FFB28461421BDE851
:106B6C00384000F029BB38BD10B103685B6818478A
:106B7C00704710B503680446BBB15868FDF736FF83
:106B8C0078B923685A7C12B95868FDF737FF236827
:106B9C005868FDF73BFF20680023236028B1FFF7FE
:106BAC00CDFF206808B1FFF7C9FF204610BD38B5EE
:106BBC000446D0F8C40108B1FDF76BFAD4F8C00153
:106BCC0008B1FDF733FFD4F8BC5135B12846FFF7B7
:106BDC00D0FF0421284600F0EFFA206808B1FFF737
:106BEC00C3FF204638BD000010B5044B044640F8E6
:106BFC00083BFFF7DCFF204610BD00BFE87D0D0011
:106C0C0038B50E4C0E4B23600025022304F5E470BE
:106C1C006360A560C4F8C451C4F8C851FDF7FEFE0A
:106C2C00084BC4F8CC5184F8D05123602046064A56
:106C3C000649BDE8384000F0B2BA00BF60E5032059
:106C4C00507E0D00E87D0D0080E40320F56B0D00F7
:106C5C00002211464068FDF7FDBF00221146406836
:106C6C00FEF718B8002211464068FEF723B8002240
:106C7C004068FEF717B8002281F001014068FEF76A
:106C8C0001B800231A4619464068FDF7F3BF0023EC
:106C9C001A4619464068FDF7E5BF002211464068C8
:106CAC00FDF7C8BF002202214068FDF7CBBF0023CF
:106CBC001A464068FDF7B6BF024B04225A60024ADE
:106CCC001A60704734E703201C7E0D0000231A461F
:106CDC004068FDF7A7BF002202214068FDF7B2BF54
:106CEC00002211464068FDF7A5BF002211464068FE
:106CFC00FDF7B0BF00231A4619464068FDF7B2BF36
:106D0C0000231A4619464068FDF7B4BF002281F0F3
:106D1C0001014068FDF7B6BF00224068FDF7C2BF15
:106D2C00002211464068FDF7C5BF0022114640689D
:106D3C00FDF7B0BF2DE9F043002495B016460D4683
:106D4C000746FFF74DFD214620220CA8009400F0C9
:106D5C00C3FB40230C9321466B460CAA3046FDF72F
:106D6C001DFE0446002844D1024601216868FDF747
:106D7C0071FF0221804622466868FDF76BFF009E7A
:106D8C0081462146002E34D0002932D17368022B63
:106D9C0002D00A2B09D02AE0B8F1000F27D0716974
:106DAC0038460431FFF749FD20E0B9F1000F1ED041
:106DBC007469112201A800F08FFB06238DF81430A2
:106DCC0001AD04F108031834186859682A4603C247
:106DDC000833A3421546F7D101A906A807ADFFF762
:106DEC000DFD0FCD3C1D0FC42B6823700121F669DE
:106DFC00C8E70098FDF7CAFD384615B0BDE8F0832A
:106E0C00024B034A1A6000225A6070473CE7032089
:106E1C00507E0D0000F11002012312F8101C012904
:106E2C00104604D152F8041C03EB410304E0022980
:106E3C0004BF52F8041C5B18013B02F11002ECD1A8
:106E4C0070470EB42DE9F04187B000AF07F1340460
:106E5C00054654F8046B7C6023463246102107F13A
:106E6C000800FDF76FFF0F2816D900F1080323F077
:106E7C000703E846ADEB030D3246411C234668463A
:106E8C007C60FDF75FFF021E04DD2B6869469B6882
:106E9C0028469847C54607E030B12B6802469B68E8
:106EAC0007F10801284698471C37BD46BDE8F0415C
:106EBC0003B0704713B502AB026803F8011D946868
:106ECC0019460122A04702B010BD8368FBB11A78A5
:106EDC00032A1AD8DFE802F00417021D05207047B8
:106EEC0002685B685268D05C2D2814D0A0F1300386
:106EFC00092B10D9742810D066280ED0A0F16E037F
:106F0C005842584170470620704700207047184679
:106F1C00704704207047032070470220704710B55B
:106F2C000446FFF7D2FF02280DD016D3042814D83C
:106F3C002268A36850685B680A2200211844BDE8E7
:106F4C00104000F0EDBB2268A36852685B68D05C0F
:106F5C00A0F174035842584110BD002010BD10B56B
:106F6C00436904465BB18068E060013B1030A0606F
:106F7C00206163612BB1FFF74DFFA06001E0184663
:106F8C0010BD012010BD10B57D210446FFF792FF06
:106F9C0001232371204610BD08B50379012B02D0C3
:106FAC00022B02D008BD2C2100E03A21FFF782FF12
:106FBC0008BD10B50446FFF7EFFF20467B21FFF715
:106FCC0079FF00232371204610BD000038B504461C
:106FDC000D46FFF7E1FF23680449DB6820462A468B
:106FEC00984701232371204638BD00BF7D7C0D00DE
:106FFC0038B504460D46FFF7CFFF23680449DB681C
:10700C0020462A46984701232371204638BD00BFED
:10701C005C7B0D00F8B50D461746222104462F4423
:10702C00FFF748FF2A462946BA4238D0164616F8CA
:10703C00015B222D03D05C2D01D01F2D2DD8236890
:10704C00521A9B68204698475C212046FFF732FF76
:10705C000C2D19D007D8092D0FD00A2D12D0082DC0
:10706C0014D162210AE0222D05D05C2D03D00D2D08
:10707C000CD1722102E0294600E074212046FFF772
:10708C0019FF09E06E21F9E76621F7E723680A4941
:10709C00DB682A462046984731463246C4E791427F
:1070AC0004D02368521A9D682046A8472221204606
:1070BC00FFF700FFF8BD00BF997E0D0070B50446C8
:1070CC000D461646FFF768FF204632462946FFF765
:1070DC00A1FF02232371204670BD70B504460D46F6
:1070EC001646FFF759FF204632462946FFF792FF16
:1070FC0001232371204670BD10B5002304460360A4
:10710C0043601048A060E360D1B10B78032B06D02C
:10711C00B3B9136858684B68C35C6E2B08D01368FE
:10712C0058684B680344A3608B6849685B1AE3603A
:10713C001146204651F8043B40F8043BFDF70EFF86
:10714C00204610BDA37C0D00002310B5044603603F
:10715C0043608360C3600361436171B10B78012BA1
:10716C000BD101F110038360CB684361114651F8D8
:10717C00043B40F8043BFDF7F1FE204610BD002314
:10718C0010B5044603604360816031B1114651F87B
:10719C00043B40F8043BFDF7E1FE204610BD0B46D6
:1071AC000146184600F064B9024B1868BFF35F8FB4
:1071BC00704700BF4CE70320FCF769BF10B50028EF
:1071CC0014BF044601242046FDF79CFD20B9FFF7AF
:1071DC00EBFF08B18047F6E710BD08B5FDF7BAFD27
:1071EC00184B1A68D1075CBF01221A60164B1A683B
:1071FC00D2075CBF01221A60144B1A68D0075CBF1F
:10720C0001221A60124B1A68D1075CBF01221A6066
:10721C00104B1A68D2075CBF01221A600E4B1A6819
:10722C00D0075CBF01221A600C4B1A68D1075CBFF7
:10723C0001221A600A4B1A68D2075CBF01221A603D
:10724C00704700BF6CE7032068E7032064E7032066
:10725C0060E703205CE7032058E7032054E7032092
:10726C0050E70320244B1A68D0075CBF01221A6038
:10727C00224B1A68D1075CBF01221A60204B1A6896
:10728C00D2075CBF01221A601E4B1A68D0075CBF84
:10729C0001221A601C4B1A68D1075CBF01221A60CC
:1072AC001A4B1A68D2075CBF01221A60184B1A6875
:1072BC00D0075CBF01221A60164B1A68D1075CBF5D
:1072CC0001221A60144B1A68D2075CBF01221A60A3
:1072DC00124B1A68D0075CBF01221A60104B1A6857
:1072EC00D1075CBF01221A600E4B1A68D2075CBF33
:1072FC0001221A60704700BF9CE7032098E7032027
:10730C0094E7032090E703208CE7032088E7032011
:10731C0084E7032080E703207CE7032078E7032041
:10732C0074E7032070E70320244B1A68D0075CBF76
:10733C0001221A60224B1A68D1075CBF01221A6025
:10734C00204B1A68D2075CBF01221A601E4B1A68C8
:10735C00D0075CBF01221A601C4B1A68D1075CBFB6
:10736C0001221A601A4B1A68D2075CBF01221A60FC
:10737C00184B1A68D0075CBF01221A60164B1A68AA
:10738C00D1075CBF01221A60144B1A68D2075CBF8C
:10739C0001221A60124B1A68D0075CBF01221A60D6
:1073AC00104B1A68D1075CBF01221A600E4B1A6889
:1073BC00D2075CBF01221A60704700BFCCE70320E4
:1073CC00C8E70320C4E70320C0E70320BCE7032081
:1073DC00B8E70320B4E70320B0E70320ACE70320B1
:1073EC00A8E70320A4E70320A0E70320184B1A68A2
:1073FC00D1075CBF01221A60164B1A68D2075CBF1A
:10740C0001221A60144B1A68D0075CBF01221A6063
:10741C00124B1A68D1075CBF01221A60104B1A6814
:10742C00D2075CBF01221A600E4B1A68D0075CBFF2
:10743C0001221A600C4B1A68D1075CBF01221A603A
:10744C000A4B1A68D2075CBF01221A60704700BF52
:10745C00ECE70320E8E70320E4E70320E0E7032060
:10746C00DCE70320D8E70320D4E70320D0E7032090
:10747C0010B5054C13462CB10A4601460220AFF359
:10748C00008010BD204610BD0000000010B5431E4A
:10749C000A44914204D011F8014B03F8014FF8E76C
:1074AC0010BD884210B501EB020301D8421E0BE05F
:1074BC009842FBD28118D21AD34204D013F8014D52
:1074CC0001F8014DF8E710BD994204D011F8014BB9
:1074DC0002F8014FF8E710BD02440346934202D074
:1074EC0003F8011BFAE7704738B5124B1C68A36B05
:1074FC000546D3B91820FDF705FC43F20E33A06303
:10750C0003804AF6CD33438041F2342383804EF21C
:10751C006D63C3804DF6EC630381052343810B231C
:10752C00838101220023C0E90423A36B00221D6187
:10753C005A6138BD7CE40320C9B2034610F8012B14
:10754C001AB19142F9D11846704700290CBF184660
:10755C000020704710B50446FFF7EEFF18B920461F
:10756C0000F027F8204410BD10F8012B11F8013B56
:10757C00012A28BF9A42F7D0D01A7047024B014615
:10758C00186800F003B800BF7CE4032070B5064611
:10759C0008460C4600F00DF8451C29463046FDF710
:1075AC00E1FB064618B12A462146FFF76FFF30462D
:1075BC0070BD034613F8012B002AFBD1181A0138B1
:1075CC00704730B582B1451E013915F8013F11F8ED
:1075DC00014FA34206D1EC431444E04201D0002BEE
:1075EC00F3D11C46181B30BD104630BD38B50346D0
:1075FC000D4641B1002429461846FFF79DFF30B1D6
:10760C00431C0446F7E7BDE83840FFF795BF20461A
:10761C0038BD00002DE9F04780464048D0F8009076
:10762C000F463D4615F8014B09EB0400407800F07D
:10763C00080000F0FF0608B12F46F2E72D2C03D10D
:10764C00BD1C7C78012603E02B2C04BF7C78BD1C70
:10765C0013B1102B0AD15BE0302C57D1287800F0F5
:10766C00DF0058284DD16C7810230235002E14BF42
:10767C004FF0004C6FF0004C0027BCFBF3FA38467F
:10768C0003FB1ACC09EB040E9EF801E01EF0040F6C
:10769C0001D0303C0BE01EF0030E1BD0BEF1010FED
:1076AC000CBF4FF0370E4FF0570ECEEB0404A34235
:1076BC0010DDB7F1FF3F0AD0504506D801D1644523
:1076CC0003DC03FB0040012701E04FF0FF3715F806
:1076DC00014BD7E77B1C0CD1002E4FF0220314BFBB
:1076EC004FF000406FF00040C8F800302AB9BDE8F8
:1076FC00F08706B1404272B107B1691E1160BDE856
:10770C00F0873024002BB1D10823AFE70A23ADE773
:10771C00302CA3D0AAE7BDE8F08700BF18E4032003
:10772C0013460A46014602480068FFF773BF00BFC4
:10773C007CE403201D400D0059400D0085400D00D8
:10774C0089400D0000000000000000000000000057
:10775C000000000000000000A5400D00C9400D0015
:10776C000000000000000000E5400D0019410D0074
:10777C00395D0D00CB400D00796F75277265206C5B
:10778C006F6F70696E670000000BB8000007D07255
:10779C00656769737465725F726561645F72657148
:1077AC00756573745B25645D203D2030782530321F
:1077BC0058005375636365737366756C6C792072CE
:1077CC006561642066726F6D20726567697374659C
:1077DC00722061646472657373203D2030782530AB
:1077EC0032583A0072656769737465725F646174CC
:1077FC00615B25645D203D20307825303258004691
:10780C0061696C656420746F2072656164206672B6
:10781C006F6D207265676973746572206164647240
:10782C00657373203D2030782530325800726567BF
:10783C0069737465725F726561645F726573706F92
:10784C006E73655B25645D203D20307825303258A1
:10785C000041637475616C2073746174757320726C
:10786C00656164203D2030782530385800446573BC
:10787C006972656420737461747573203078253077
:10788C003858207265636569766564005761697460
:10789C00696E6720666F7220646573697265642017
:1078AC0073746174757320666C61673A2030782547
:1078BC003038580054696D656F7574206F662025DB
:1078CC0064206D696C6C697365636F6E64732C20D6
:1078DC0064657369726564207374617475732030A8
:1078EC007825303858206E6F7420666F756E640082
:1078FC0072656769737465725F77726974655F72BC
:10790C006571756573745B25645D203D2030782549
:10791C00303258005375636365737366756C6C799C
:10792C002077726F746520746F2072656769737449
:10793C0065722061646472657373203D2030782514
:10794C00303258004661696C656420746F20777220
:10795C0069746520746F2072656769737465722031
:10796C0061646472657373203D2030782530325821
:10797C000072656769737465725F77726974655FAD
:10798C00726573706F6E73655B25645D203D20308E
:10799C00782530325800456E746572656420584DF8
:1079AC00313332205365747570200053746F70201E
:1079BC005365727669636500436C6561722065720C
:1079CC00726F727320616E642073746174757320AE
:1079DC0062697473005365742070726573656E63AD
:1079EC0065206D6F6465005365742072616E676508
:1079FC002073746172742072656769737465722088
:107A0C006D6F646500536574207468726573686F7C
:107A1C006C640053657420696E74657220667261C3
:107A2C006D652074696D6520636F6E73740053749B
:107A3C00617274207365727669636500436865636F
:107A4C006B207374617475732072656769737465E8
:107A5C007220666F7220736572766963652063723B
:107A6C00656174696F6E004D6F64756C652063722F
:107A7C00656174656420616E64206163746976610C
:107A8C00746564004D6F64756C65206661696C6526
:107A9C006420746F2061637469766174652100538E
:107AAC0074617274206F6620737765657020286D21
:107ABC006D29203D202575004C656E677468206F1C
:107ACC006620737765657020286D6D29203D202513
:107ADC007500584D31333220736574757020636FA7
:107AEC006D706C65746500436865636B20737461BD
:107AFC0074757320726567697374657220666F7232
:107B0C002064617461207265616479004461746100
:107B1C002052656164790044617461204E6F742059
:107B2C00526561647900446574656374696F6E2095
:107B3C003D2025750053636F7265203D202575002F
:107B4C0044697374616E63652028636D29203D2040
:107B5C002575007B22646574656374696F6E223AC7
:107B6C00222575222C202273636F7265223A2225FE
:107B7C0075222C202264697374616E6365223A222B
:107B8C002575227D00584D31333200000000000075
:107B9C0000000000DF4D0D00D54D0D00CB4D0D004C
:107BAC00C14D0D00B54D0D00A94D0D009D4D0D00A5
:107BBC00954D0D008B4D0D00814D0D00416D0D004F
:107BCC00000000000000000015510D003B510D009D
:107BDC00EF500D004F6E0D00000000000000000083
:107BEC0091550D00A5550D00ED5E0D00F7500D00E3
:107BFC00626175640053657269616C0053657269EA
:107C0C00616C31007479706500706172616D006334
:107C1C006D6400696400686E64007374726D006654
:107C2C00696C74006C766C0061646448616E646CA1
:107C3C0065720072656D6F766548616E646C657215
:107C4C0000656E756D48616E646C657273004A53A5
:107C5C004F4E53747265616D4C6F6748616E646C06
:107C6C0065720061707000253031307520005D2028
:107C7C00002564002C200028293A2000205B00639A
:107C8C006F6465203D200025690064657461696C32
:107C9C0073203D20000D0A006C6E00666E00636F51
:107CAC0064650064657461696C006E6F6E65007468
:107CBC007261636500696E666F007761726E006554
:107CCC0072726F720070616E696300616C6C00009F
:107CDC00000000000000000065550D007D550D00F2
:107CEC00395D0D00CB400D000000000000000000CD
:107CFC0013510D0049510D00615C0D00F9500D0040
:107D0C00000000000000000011510D0057510D0043
:107D1C00A9540D0065510D005A00252B3033643ADF
:107D2C00253032750025592D256D2D256454254897
:107D3C003A254D3A2553257A0061736374696D6554
:107D4C00000000000000000000000000E9610D00D0
:107D5C00EF610D0033620D00FD610D00EB610D0054
:107D6C00000000000000000089670D0079670D001D
:107D7C007B670D00000000000000000061680D0032
:107D8C00B1680D00BF680D00BD4F0D009D680D0062
:107D9C0063680D0079680D00AB680D008F680D00ED
:107DAC005D680D00000000000000000075690D000A
:107DBC00C5690D00D3690D00BD4F0D0089690D001B
:107DCC00AB690D0097690D00BF690D0077690D0057
:107DDC007B690D0000000000000000003F6B0D00EF
:107DEC00356B0D002B6B0D00216B0D00156B0D0011
:107DFC00096B0D00FD6A0D00F56A0D00EB6A0D00B4
:107E0C00E16A0D00416D0D00000000000000000053
:107E1C00BB6C0D00B16C0D00A76C0D005D6C0D0002
:107E2C009B6C0D008F6C0D00836C0D007B6C0D003A
:107E3C00716C0D00676C0D00416D0D0000000000B1
:107E4C0000000000D96C0D00E36C0D00ED6C0D0012
:107E5C00F76C0D00016D0D000D6D0D00196D0D0011
:107E6C00256D0D002D6D0D00376D0D00416D0D0054
:107E7C00302E300066616C73650074727565002578
:107E8C002E2A6C66002567006E756C6C00752530AB
:107E9C0034780000002020202020202020202828BA
:107EAC0028282820202020202020202020202020AE
:107EBC0020202020208810101010101010101010EE
:107ECC00101010101004040404040404040404101E
:107EDC0010101010101041414141414101010101AC
:107EEC000101010101010101010101010101010176
:107EFC001010101010104242424242420202020282
:107F0C000202020202020202020202020202020245
:107F1C0010101010200000000000000000000000F5
:107F2C000000000000000000000000000000000045
:107F3C000000000000000000000000000000000035
:107F4C000000000000000000000000000000000025
:107F5C000000000000000000000000000000000015
:107F6C000000000000000000000000000000000005
:107F7C0000000000000000000000000000000000F5
:107F8C0000000000000000000000000000000000E5
:107F9C0000000000000000000000000000000000D5
:107FAC0000000000000000000000000000000000C5
:107FBC0000000000000000000000000000000000B5
:107FCC0000000000000000000000000000000000A5
:107FDC000000000000000000000000000000000095
:107FEC000000000000000000000000000000000085
:107FFC0000000000000000004300000091420D0052
:10800C0089490D00E94D0D00FD4D0D00954F0D00FA
:10801C00295D0D0065600D00BD600D000D6C0D003F
:10802C00C56C0D000D6E0D00ED710D0071720D0023
:10803C0035730D00F9730D00000000000000000006
:04804C000000000030
:04805000000000002C
:1080540001000000147D0D00FC7C0D00457D0D0029
:10806400A07E0D0000000000A47F0D00C47F0D0061
:10807400E47F0D000000000000000000000000008C
:108084000000000004800D0000000000000000005B
:1080940000000000000000000000000000000000DC
:1080A40000000000000000000000000000000000CC
:1080B40000000000000000000000000000000000BC
:0880C400000000001CE4032091
:1080CC00FFFFFFFF00000102030405060708090A71
:1080DC000B0C0D0E0F101112131415161718191A6C
:0880EC001B1C1D1E1F202800B3
:0480F4007856341274
:04000003D000401CCD
:00000001FF
