:02000002D0002C
:1040000000400D0064720D00000006000C00050168
:084010000401BC0B00000000DC
:04401800C06D0D006A
:10401C0009480A49884208B505D0094A824202D0AB
:10402C00121A02F02FFE0748074A0021121A02F05A
:10403C0051FE014808BD00BFE8E60320D4710D0015
:10404C0050E7032050E70320F0E7032070B5074E3C
:10405C00074C01F079FFA41BA4080025A54200D150
:10406C0070BD56F8043B98470135F7E7A4710D0075
:10407C00C8710D0000F038B808B500F0E5F8BDE8DF
:10408C00084001F023BF00F099BA00F09FBA007805
:10409C00B0FA80F0400970470123037070470EB4EA
:1040AC0003B503AB002153F8042B019301F08FFEF1
:1040BC0002B05DF804EB03B070470EB410B58DB0D0
:1040CC000FAA016852F8044B039200232020CDE97B
:1040DC000403CDE900421E2004AA00F0C3F90DB080
:1040EC00BDE8104003B0704708B502F0CFFABDE848
:1040FC0008404FF4E13102F0BDBA000030B5A7B072
:10410C00837903934379029303790193C3780093E2
:10411C00837842781349044606A800F067FA124BDC
:10412C0012491B788DF8003006AA3C2304A802F033
:10413C0063F8059D7DB16B68013B6B605BB92B68C7
:10414C0028469B689847AB68013BAB601BB92B6852
:10415C002846DB689847A27905490648FFF7ADFF6A
:10416C0027B030BDD46D0D005CE70320356E0D001B
:10417C003F6E0D0084E703202DE9F04FADF55D7D1A
:10418C000AAE35460A247F27284600F0FCFC05F1D0
:10419C00080000F073FD05F12C0000F06FFD013CF0
:1041AC0085F8507005F15405EED100F075FE0A2229
:1041BC00314600F05BFFDFF88490DFF884A0DFF875
:1041CC0084B080462746444526DA4946304600F0FE
:1041DC00C6FC0546E8B11F2302AAFF2106F1080020
:1041EC0000F065FD02A8FFF789FF02AF00230193E1
:1041FC0002F04CFA17F8012B5146FFF750FF02F072
:10420C0045FA594601F0A8FD019B01331F2BEED155
:10421C002F4601345436D6E747B102F037FA054938
:10422C0001F0ADFD0DF55D7DBDE8F08F02F02EFACD
:10423C000149F5E7566E0D005B6E0D0054E7032047
:10424C004F6E0D00546E0D00FFF796BF034B0449E3
:10425C00044801221A70002200F06EBC5CE70320B7
:10426C00616E0D0054E7032008B5024B1B689B6878
:10427C00019308BD6802030008B5024B1B68DB689C
:10428C00019308BD6802030008B5024B1B685B680C
:10429C00019308BD1802030008B5024B1B68DB68CC
:1042AC00019308BD1802030008B5024B1B685B693B
:1042BC00019308BD1802030008B5024B1B689B68EC
:1042CC00019308BD7802030008B5024B1B68DB6F35
:1042DC00019308BD7802030008B5034B1B68D3F8A3
:1042EC008430019308BD00007802030008B5034B2D
:1042FC001B68D3F89830019308BD000078020300C6
:10430C0008B5034B1B68D3F8F030019308BD0000CF
:10431C007802030008B5024B1B685B6C019308BD67
:10432C004802030008B5024B1B689B6C019308BD47
:10433C004802030008B5024B1B68DB6C019308BDF7
:10434C004802030008B5024B1B685B6D019308BD66
:10435C004802030008B5024B1B685B69019308BD5A
:10436C006402030008B5024B1B681B68019308BD6F
:10437C003C02030008B5024B1B68DB68019308BDC7
:10438C003C02030008B5024B1B681B69019308BD76
:10439C003C02030008B5024B1B685B69019308BD26
:1043AC003C02030008B5024B1B689B69019308BDD6
:1043BC003C02030008B5024B1B68DB69019308BD86
:1043CC003C02030008B5024B1B689B6A019308BDB5
:1043DC003C02030008B5024B1B681B68019308BD27
:1043EC004C02030008B5024B1B685B68019308BDC7
:1043FC004C02030008B5024B1B681B69019308BDF6
:10440C004C02030008B5024B1B685B69019308BDA5
:10441C004C02030008B5024B1B689B69019308BD55
:10442C004C02030008B5024B1B68DB69019308BD05
:10443C004C02030008B5024B1B681B6A019308BDB4
:10444C004C02030008B5024B1B685B6B019308BD63
:10445C006002030008B5024B1B681B6D019308BD7D
:10446C006002030008B5024B1B685B6D019308BD2D
:10447C006002030008B5024B1B685B68019308BD22
:10448C002002030008B5024B1B68DB6C019308BDCE
:10449C002002030008B5024B1B685B6D019308BD3D
:1044AC002002030008B5034B1B68D3F88830019336
:1044BC0008BD00002002030008B5034B1B68D3F8AD
:1044CC009430019308BD00002002030008B5024B94
:1044DC001B685B68019308BD4002030008B5024BE2
:1044EC001B689B68019308BD4002030008B5024B92
:1044FC001B68DB68019308BD4002030008B5024B42
:10450C001B681B69019308BD4002030008B5024BF0
:10451C001B685B69019308BD4002030008B5024BA0
:10452C001B689B69019308BD4002030008B5024B50
:10453C001B68DB69019308BD4002030008B5024B00
:10454C001B681B6A019308BD4002030008B5024BAF
:10455C001B681B6B019308BD4002030008B5024B9E
:10456C001B685B6B019308BD4002030008B5024B4E
:10457C001B681B6C019308BD4002030008B5024B7D
:10458C001B685B6C019308BD4002030008B5024B2D
:10459C001B685B69019308BD4402030008B5024B1C
:1045AC001B681B6A019308BD4402030008B5024B4B
:1045BC001B68DB6B019308BD4402030008B5024B7A
:1045CC001B681B68019308BD1C02030008B5024B55
:1045DC001B685B68019308BD1C02030008B5024B05
:1045EC001B689B68019308BD1C02030008B5024BB5
:1045FC001B68DB68019308BD1C02030008B5024B65
:10460C001B685B6A019308BD1C02030008B5024BD2
:10461C001B68DB6A019308BD1C02030008B5024B42
:10462C001B681B6B019308BD1C02030008B5024BF1
:10463C001B685B6C019308BD1C02030000224068E0
:10464C001146FFF77BBF002240681146FFF786BF7B
:10465C0040680022FFF77ABF4068002281F0010118
:10466C00FFF764BF002340681A461946FFF756BF90
:10467C00002340681A461946FFF748BF00224068DD
:10468C001146FFF73BBF002240681146FFF726BFDB
:10469C00406800220221FFF729BF002340681A4618
:1046AC00FFF714BF024B03225A60024A1A6070478C
:1046BC0060E703207C6E0D0010B50446006818B14D
:1046CC00FFF784FF0023236010BD10B50446FFF7ED
:1046DC00F3FF204610BD000010B5094B094C022217
:1046EC0000201A60084B2060A080A071A360FFF727
:1046FC00C1FE2046054A0649BDE8104002F08AB9C1
:10470C0074E7032068E703200000FFFF50E7032055
:10471C00D7460D0010B504460068FFF757FF20463A
:10472C0010BD10B50446006808B1FFF74FFF002319
:10473C00C4E90133236010BD38B504460D4600684A
:10474C000131FFF74BFF10B1C4E90005012038BD62
:10475C0010B50368044623B143688B4201D3012092
:10476C0010BD2046FFF7E8FF0028F9D0A368002B06
:10477C00F5D122681370F2E737B50D461146019258
:10478C000446FFF7E5FF019A28B92046FFF7C9FF59
:10479C00204603B030BDA2602946206802F072FAB0
:1047AC002268A3680021D154F2E7002313B5C0E9B5
:1047BC00003304468360037341B10846019102F053
:1047CC00E4FA019902462046FFF7D6FF204602B0D4
:1047DC0010BD38B5054600680C4668B16A688B6830
:1047EC009A4207D3096802F0ABFAA368AB600023C6
:1047FC00A36038BDFFF7EAFE23682B6063686B602B
:10480C00A368AB600023C4E90033F1E710B50023C3
:10481C00C0E90033044683600373FFF7DAFF2046D8
:10482C0010BD884210B5044605D00B682BB18A68C0
:10483C001946FFF7A1FF204610BDFFF772FFFAE7FC
:10484C0010B500230446C0E9003383600373FFF7FF
:10485C00E8FF204610BD70B505460E4609B900208C
:10486C0070BD6AB1846814442146FFF771FF0028BB
:10487C00F5D02868AB683146184402F061FAAC6098
:10488C000120EDE707B500238DF80410012201A9E2
:10489C008DF80530FFF7DFFF03B05DF804FB02680D
:1048AC000B46096862B141B9806860B110787047F5
:1048BC00986840B1097848427047104602F036BA01
:1048CC000029F5D10846704708B582688B689A4272
:1048DC0005D1FFF7E4FFB0FA80F0400908BD0020D5
:1048EC00FCE77047064B994210B500F10C0405D05B
:1048FC00084602F099F8002808BF0024204610BD95
:10490C00706F0D0010B53021044602F088F8204677
:10491C0010BDFFF7BABB10B5036804469B689847F7
:10492C00A368013BA3602BB923682046DB68BDE874
:10493C001040184710BD10B50446006808B1FFF7C9
:10494C00F1FC204610BD000010B5044B044618685D
:10495C00FFF7F0FC0123237010BD00BF7CE70320A0
:10496C0010B5044B04461868FFF7ECFC00232370C9
:10497C0010BD00BF7CE70320F0B50025EC1C8C4279
:10498C000DD86E1C445D875D974205D12644B1421B
:10499C0005D31D60601CF0BD01342544EEE70020FA
:1049AC00F9E72DE9F34704469DF828701E46894621
:1049BC0001AB90460A46016AFFF7DEFF256AB31C7D
:1049CC0017BB08B35F193F1A1F2F19D8DDF80490D5
:1049DC0009F1020AA5EB0902121A00EB090106EB18
:1049EC000A0092B22144204402F05AF9731C04F8D4
:1049FC0009303246414604EB0A0002F043F92762C3
:104A0C00206A02B0BDE8F0872B441F2BF8D8731C2A
:104A1C006355A81C25442062324685F80190414616
:104A2C00204402F02FF9236A33442362E8E710B5DF
:104A3C00836804462BB10322014698470023C4E93E
:104A4C000233204610BD10B5836804462BB10322F7
:104A5C00014698470023C4E90233204610BD10B527
:104A6C008368044613B1032201469847204610BDC3
:104A7C00A0F13003DAB2092A01D818467047A0F128
:104A8C006103052B01D857387047A0F14103052B62
:104A9C0094BF37384FF0FF30704710B500230446F1
:104AAC000370FFF751FF204610BD10B50378044684
:104ABC000BB1FFF755FF204610BD00002DE9F84360
:104ACC00064690460F4699B34FF000090624112173
:104ADC00384602F062F9484506D834440023B44203
:104AEC0021D004F8013DFAE7ECB117F80900FFF703
:104AFC00BFFF030614D40001013CC5B2355511218A
:104B0C00384602F04AF909F10109814508D217F833
:104B1C000900FFF7ADFF40B20028A4BF2843305571
:104B2C0009F10109D3E786F806800020BDE8F88377
:104B3C000048FBE7F2FEFFFF10B50446FFF7BEFF8F
:104B4C00204610BD82B00346086849686A4603C215
:104B5C006A4603CA18601846596002B0704708B517
:104B6C0082798B799A4206D1062202F07DF8B0FA4E
:104B7C0080F0400908BD0020FCE74FF0FF330360D4
:104B8C00838000207047002108B501604160024617
:104B9C00FFF7F3FF9171104608BD0000012202617E
:104BAC00064A11680160516841601189927A8272DB
:104BBC0000220181C0F80B20C2737047786F0D0082
:104BCC0010B50B69036101F11002034651F8044B57
:104BDC0043F8044B9142F9D110BD10B50B46044675
:104BEC00B1B1012A01F110020AD1014653F8040BAC
:104BFC0041F8040B9342F9D101232361204610BDE7
:104C0C00411E12F8010D01F8010F9A42F9D1F3E798
:104C1C00102202F05FF8F1E710B503460C46FFF7DF
:104C2C00BDFF00221A619C81184610BD08B50269AF
:104C3C000B699A4206D1102202F016F8B0FA80F0F5
:104C4C00400908BD0020FCE738B5054601B11AB98A
:104C5C0000242C62204638BD1F2A28BF1F22144670
:104C6C0002F010F8F5E730B49DF8085012B9006A5C
:104C7C0030BC7047029530BCFFF793BE1FB504469D
:104C8C00024600F11F01002302F8013B9142FBD1C7
:104C9C0023620093062201238DF80F2019460DF193
:104CAC000F022046FFF7DFFF204604B010BDF7B51A
:104CBC0015461F460A4601AB016A0646FFF75CFE25
:104CCC0030F002040BD0841EBC4228BF3C4635B1E8
:104CDC000199023122463144284601F0D3FF204687
:104CEC0003B0F0BD37B513460C4601920A460821B5
:104CFC000546FFF7DCFF40B9019B224609212846F7
:104D0C0003B0BDE83040FFF7D2BF03B030BD0000A8
:104D1C00F0B50C4689B00C490546FFF746FD1F223D
:104D2C0069462046FFF7DEFF064650B16C46002769
:104D3C0014F8011B2846FFF7A5FD10B10137BE4240
:104D4C00F6D1284609B0F0BD556E0D0007B502230B
:104D5C0001AA1921FFF7ABFF28B19DF805309DF88A
:104D6C00040040EA032003B05DF804FB10B5D0E961
:104D7C00063203EBC2029342184606D0046824881C
:104D8C008C4203F10803F6D110BD0020FCE70000B3
:104D9C0070B50025056006463020FFF774F904460F
:104DAC0088B10123C0E90133094B03604FF6FF734F
:104DBC0083810E30FFF7E7FEC4E90655C4E90855B8
:104DCC00C4E90A55A57574600C343460304670BD66
:104DDC005C6F0D0037B50D46044601A8FFF75DFE6C
:104DEC002A6852F8023F23605368636001A8FFF7FA
:104DFC005CFE204603B030BD30B5054687B00C468E
:104E0C0001A8FFF74AFE2A68236812881B889A4279
:104E1C000DD1294602A8FFF7DDFF214604A8FFF7B4
:104E2C00D9FF04A902A8FFF79AFE044600B9002492
:104E3C0001A8FFF73AFE204607B030BD10B5044676
:104E4C005420FFF720F9014660B10023C0E900337C
:104E5C00C0E90233C0E90433C0E906330362C3621C
:104E6C00C363C364216019B9094A0A20FFF7EAFA3F
:104E7C000020FFF721FA20B1054A00210A20FFF794
:104E8C00E1FA216803480022FFF73AFA204610BDE8
:104E9C00A5420D00F5540D0010B50B4C2378BFF353
:104EAC005B8FDB070ED42046FFF7F1F850B10748B3
:104EBC00FFF7C4FF2046FFF7EFF8054A0549034802
:104ECC0001F0A8FD014810BD78E7032080E703201E
:104EDC0050E7032043510D00002247F67F71C0E9D3
:104EEC000022C0E90222C0E90422C0E90E22C0E976
:104EFC001022C0E91222C0E91422C0E91622C0E92E
:104F0C001822C0E91B2202620263A0F868107047E5
:104F1C0070B5044618300E461546FFF794FD04F1A3
:104F2C002800FFF784FDC4E90365002221460348ED
:104F3C00FFF7CAF90028A8BF606970BD155B0D00AA
:104F4C002DE9F043D0F86C808BB00E46B8F1000F11
:104F5C0003D101200BB0BDE8F083056F002DF8D014
:104F6C0001F12C0904230022FF214846FFF79FFE84
:104F7C000836044604230022FF213046FFF797FE33
:104F8C00AC42074613D0AF420FD12846FFF716FBB1
:104F9C00044600BB2023CDE90234164B009316497E
:104FAC00234602AA3220FFF755FA0020D2E720460A
:104FBC00FFF704FB04460028ECD00246FF212B46E9
:104FCC004846FFF774FE2A464146204601F04CFE47
:104FDC000028D8D1BDE702462B46FF213046FFF70B
:104FEC0066FE2A464146204601F03EFEB0FA80F0AD
:104FFC004009AFE7D76E0D00B06E0D0070B5D0E96B
:10500C000053044605EB0316AE4204D02846FFF7C6
:10501C0081FB1035F8E72068FFF7D8FA204670BD01
:10502C0010B504460068FFF7D1FA204610BD38B51C
:10503C000446C06DFFF7CAFA206DFFF7C7FA04F1FA
:10504C00380504F14400FFF7EBFF2846FFF7D6FFC5
:10505C0004F12800FFF703FD04F11800FFF7FFFC33
:10506C002068FFF7B3FA204638BD000030B515466E
:10507C009FB00C4679B172B101A8FFF72DFF214604
:10508C002A4601A8FFF744FF044601A8FFF7CFFF0B
:10509C0020461FB030BD014CFAE700BFF2FEFFFF07
:1050AC000B68036013B15A6801325A60704710B52F
:1050BC0051F8043B044640F8043BFFF7F1FF20464F
:1050CC0010BD10B50446006828B14368013B43602D
:1050DC000BB9FFF720FC204610BD70B5D0E900538A
:1050EC00044605EBC306AE4204D0281DFFF7E9FFCA
:1050FC000835F8E72068FFF769FA204670BD70B5EF
:10510C00D0E90053044605EBC306AE4204D0281D7B
:10511C00FFF7D7FF0835F8E72068FFF757FA204666
:10512C0070BD10B504462430FFF7E9FF04F11800F8
:10513C00FFF7D3FF10BDF8B50468064624B304F19D
:10514C004400FFF78CFC04F13400FFF788FC04F1F9
:10515C002400FFF784FCD4E9065305EBC307AF42E8
:10516C0004D0281DFFF7ADFF0835F8E7A069FFF75D
:10517C002DFA04F10C00FFF7C2FF2046FFF7ADFF3C
:10518C005421204601F04BFC3046F8BD826810B526
:10519C000AB901F046FCBDE81040C36818472DE978
:1051AC00F0470023C0E900338360D1F804809845B0
:1051BC0005460F4647DD4FEA0810FFF7FFF9064694
:1051CC00002840D0D5E90041A04204EB011A16D9C1
:1051DC00504515D2AAF1100AA4F11009AAEB040447
:1051EC000444D1451AD01CB151462046FFF70EFBA2
:1051FC005046FFF78FFAAAF1100A103CF1E70DD0D8
:10520C00B146A2450AD021464846FFF7FFFA204690
:10521C00FFF780FA103409F11009F2E72868FFF75C
:10522C00D5F9C5F808802E60D7E9004304EB0318C4
:10523C00A04506D021463046FFF702FB103410364D
:10524C00F6E77B686B602846BDE8F08730B58DB01B
:10525C000C4600F1380101A8FFF7A1FF029B002BBF
:10526C002FDD04F12C0104A8FFF752FD04F1080115
:10527C0008A8FFF74DFD069A0A9B13431FD0DDE9E2
:10528C00014504EB0515AC4219D004A92046FFF7E3
:10529C001BFB60B1012408A8FFF73CFA04A8FFF738
:1052AC0039FA01A8FFF7AAFE20460DB030BD204602
:1052BC0008A9FFF709FB10340028E4D0EAE7002422
:1052CC00E9E70124EDE7F8B50023C0E9003383607A
:1052DC004F689F4205460E4639DDF800FFF76EF920
:1052EC000446A0B3D5E90032984203EBC20210D9B0
:1052FC0090420FD2083AA3F10800D31A23449042EB
:10530C0012D01BB11168196051685960083A083BFA
:10531C00F5E709D021469A4206D01868086058680B
:10532C00486008330831F6E72868FFF74FF92C601E
:10533C00AF60D6E9003103EBC100984206D01A6881
:10534C0022605A68626008330834F6E769602846C0
:10535C00F8BD70B504460020C4E90000A0604E689A
:10536C0086420D4612DD7100FFF738F970B12060EE
:10537C00A660D5E9003203EB42029A4204D033F81E
:10538C00021B20F8021BF8E76B686360204670BDB7
:10539C00F0B50B6803604B68436001F108050646E5
:1053AC000F4600F108040FCD0FC40FCD0FC42B68AE
:1053BC00236007F12C050FCD06F12C040FC40FCD83
:1053CC000FC42B68236097F8503086F85030304665
:1053DC00F0BD8842F8B504460D46164614D99042E5
:1053EC0013D2A2F10806751AA1F108072C44B74292
:1053FC0018D01CB131462046FFF759FE301DFFF77F
:10540C0060FE083E083CF2E70CD0B5420AD01CB155
:10541C0029462046FFF74BFE281DFFF752FE0835A4
:10542C000834F2E7F8BD2DE9F041D0E90043054618
:10543C00884604EBC307A74203D100263046BDE8DB
:10544C00F08141462046FFF7D7FC064608B90834E0
:10545C00F1E7002CF1D0201DFFF733FED5E9003227
:10546C0004F1080103EBC2022046FFF7B2FF6B68A0
:10547C00013B6B60E2E7F7B5044646686846FFF708
:10548C0016FED4E901739F4212DB0137002F29DD90
:10549C00F800FFF793F80546F0B1D4E9001201EBE0
:1054AC00C202FFF796FF2068FFF790F82560A7600F
:1054BC002368626803EBC60603EBC202314606F1B1
:1054CC000800FFF786FF1EB169463046FFF7EFFD77
:1054DC00636801336360012501A8FFF7F2FD2846DC
:1054EC0003B0F0BD0025DEE72DE9F04105468EB096
:1054FC0003A80C46FFF7D1FA2E68042E6BD007D800
:10550C00032E28D003A8FFF7D0FA0EB0BDE8F08127
:10551C00A6F10C03032BF5D8A9892046FFF726FC2E
:10552C0007460028EED0E36C002BEBD010220021B4
:10553C0007A801F0CFFB0D2E06978DF81C6040F0EC
:10554C0092806B68099306230893236D06A904F1D6
:10555C0044009847D6E704A8FFF71AFC049BAA89D5
:10556C001A806968049808310230FFF7EBFA04A935
:10557C0006A8FFF79CFD06A904F11800FFF77BFFB6
:10558C00054607A8FFF79DFD202306938DB93E4BDA
:10559C003E49009332202B4606AA0795FEF75AFF88
:1055AC00049B29461888FEF7A1FE05A8FFF789FD84
:1055BC00A8E7374A009200233449079306AA012032
:1055CC00FEF748FFE36A002BEFD004A904F1240096
:1055DC00FFF7DCFDE9E7A9892046FFF7C7FB064684
:1055EC0000288FD00568D5E906314FF6FF722A8066
:1055FC0003EBC101994203D053F8080B4280F9E741
:10560C00D5E9037307EBC308B84504D0381DFFF781
:10561C0058FD0837F8E700232B61D5E9067307EB33
:10562C00C308B84504D0381DFFF74BFD0837F8E721
:10563C000023EB61AB72E36B23B1314604F1340010
:10564C00FFF7A4FD00232022CDE90623114A009286
:10565C000E4906AA0120FEF7FDFE314604F11800A2
:10566C00FFF7E1FE4EE70F2E7FF46FAF6B680993E7
:10567C002B7A03F00102C3F340038DF829308DF827
:10568C002820082360E700BFF26E0D00B06E0D00FD
:10569C00186F0D00356F0D0013B50B460246D0E99F
:1056AC0000016C4684E8030093E8030082E80300E1
:1056BC0094E8030083E8030002B010BD8842F8B5FB
:1056CC0004460D46164611D9904210D2A2F114068A
:1056DC00751AA1F114072C44B74212D01CB13146F3
:1056EC002046FFF76DFA143E143CF5E709D0B5429D
:1056FC0007D01CB129462046FFF762FA1435143442
:10570C00F5E7F8BDF8B50E1E054613DD142707FBAB
:10571C0006F0FEF753FF044658B1D5E9001207FB1B
:10572C000212FFF7CBFF2868FEF750FF2C60AE602B
:10573C000120F8BD0024F6E72DE9F0410023C0E973
:10574C00003383600D4649689942044615DDFFF726
:10575C00D9FF90B1D5E900634FF01408276808FB16
:10576C000368B04507D01FB131463846FFF728FA19
:10577C0014361437F5E76B6863602046BDE8F0819A
:10578C0030B587B04568044601A8FFF719FAD4E98B
:10579C000113994211DA23686168142202FB053562
:1057AC0005F1140002FB01322946FFF787FF65B9AA
:1057BC00636801336360012005E001312046FFF787
:1057CC00A1FF0028E7D107B030BD01A92846FFF79B
:1057DC00F7F9EDE72DE9F04F0024C0E90044A2F100
:1057EC0002098DB005460F46904684605FFA89F930
:1057FC00396AA1424FD901AB4246091B3819FFF750
:10580C00BBF80646002846D0B9F1010F1ED8A0F10E
:10581C00020B4FEA5B0B4FF0000AD345019B36D0CD
:10582C00234403EB4A033B4402A8D9789B7843EA10
:10583C000121FFF7F1F902A907A8FFF7C1F907A9A0
:10584C002846FFF79DFF0AF1010AE6E7A8F10603D7
:10585C00012B1CD8A0F1020B4FEA1B1B4FF0000AC6
:10586C00D345019913D00231214401EB0A110122D5
:10587C00394402A8FFF7B1F902A907A8FFF7A0F96C
:10588C0007A92846FFF77CFF0AF1010AE8E701980F
:10589C0006443444ACE728460DB0BDE8F08F2DE942
:1058AC00F041D1E900684468836804EB080199422F
:1058BC00054617DC2A686968142303FB042403FBE0
:1058CC0008F703FB0122E0192146FFF7F7FE3744E6
:1058DC00B7420DD01CB131462046FFF771F9143692
:1058EC001434F5E7FFF70EFF0028E3D1BDE8F08193
:1058FC006B6843446B600120F8E730B5002385B03A
:10590C00C0E9003383600446022201A80D46FFF76C
:10591C0061FF01A92046FFF7C2FF01A8FFF780FB3A
:10592C000222294601A8FFF755FF01A92046FFF7DF
:10593C00B6FF01A8FFF774FB0322294601A8FFF765
:10594C0049FF01A92046FFF7AAFF01A8FFF768FB52
:10595C000622294601A8FFF73DFF01A92046FFF7C3
:10596C009EFF01A8FFF75CFB0722294601A8FFF761
:10597C0031FF01A92046FFF792FF01A8FFF750FB6A
:10598C00204605B030BD2DE9F04F8BB00C4600F130
:10599C00440101A8FFF7D0FE029B002B4ADD04F165
:1059AC002C0104A8FFF7A9FF04F1080107A8FFF7D1
:1059BC00A4FF059D002D02DC089B002B38DDDDE9E2
:1059CC000797019A029EDDF81080142303FB06262C
:1059DC0003FB058503FB07979246B24528D0C346C7
:1059EC00AB4515D059465046FFF720F90BF1140B77
:1059FC0004460028F4D007A8FFF712FB04A8FFF711
:105A0C000FFB01A8FFF70CFB20460BB0BDE8F08F95
:105A1C00CB46BB4509D059465046FFF707F90BF169
:105A2C00140B04460028F4D0E5E70AF1140AD4E775
:105A3C000024E0E70124E4E78842F8B504460D466B
:105A4C00164611D9904210D2A2F15406751AA1F142
:105A5C0054072C44B74212D01CB131462046FFF7F4
:105A6C0097FC543E543CF5E709D0B54207D01CB125
:105A7C0029462046FFF78CFC54355434F5E7F8BD25
:105A8C00F8B50E1E054613DD542707FB06F0FEF78E
:105A9C0095FD044658B1D5E9001207FB0212FFF739
:105AAC00CBFF2868FEF792FD2C60AE600120F8BD9C
:105ABC000024F6E730B597B04568044601A8FFF717
:105ACC0067FCD4E90113994211DA23686168542206
:105ADC0002FB053505F1540002FB01322946FFF7A4
:105AEC00ABFF65B9636801336360012005E00131E8
:105AFC002046FFF7C5FF0028E7D117B030BD01A93C
:105B0C002846FFF745FCEDE72DE9F043ABB06D46B9
:105B1C00064628460C46FFF736F802A8FFF7AEF803
:105B2C000BA8FFF7ABF8324615AB52F8100F5168C3
:105B3C00F28903C385E803003378B1688DF85030DF
:105B4C000BA8FFF781F8B289716802A8FFF77CF8FF
:105B5C0094F968307F2B15AF03D09DF950209A42F1
:105B6C005CDB94F969307F2B03D09DF950209A426D
:105B7C0054DC04F150013846FFF7A5FB169B002BB3
:105B8C004FDD159E06EBC309B1454DD03046294675
:105B9C00FEF7E5FF083680460028F5D01598FEF78D
:105BAC0015FDB8F1000F39D029462046FFF74EFB02
:105BBC00A0B329462046FFF7E6FE064670B304F173
:105BCC005C013846FFF7C5FB169B002B12DD0BA8BA
:105BDC00FFF7BCF8804602A8FFF7B8F8DDE91532EC
:105BEC0003EB4202934222D033F8021B884501D0CA
:105BFC008842F7D11598FEF7E9FC7EB1294620467C
:105C0C00FFF79EF950B1236A9BB163691595013377
:105C1C006361636A394604F1180098472BB0BDE8FC
:105C2C00F0834FF00108B9E74FF00008B6E7002603
:105C3C00E0E7D4F830C0BCF1000F07D06369013342
:105C4C0063612946636B04F12800E6E7E66856B306
:105C5C0063695A1C236962619A42DFD8542303CDCD
:105C6C005343543BF718F050796002AE0FCE07F156
:105C7C0008050FC50FCE0FC533682B600BAE0FCECA
:105C8C0007F12C050FC50FCE0FC533682B609DF99E
:105C9C00503087F85030D4E904329A42BED3604673
:105CAC00FEF71AFBBAE795E8030002AD87E803009C
:105CBC000FCD17AE0FC60FCD0FC62B6833600BADD3
:105CCC000FCD20AE0FC60FCD0FC62B6833603946F3
:105CDC009DF850308DF8A4302046FFF7EBFE9DE781
:105CEC0010B5064C002320462360FEF713FB20461C
:105CFC00034A0449BDE8104000F08CBE7CE7032049
:105D0C0050E7032043490D00F8B506460D468F18A1
:105D1C000024BD420CD0336815F8011B9B6830463B
:105D2C009847031E01DB1C44F3E7002C08BF1C46FC
:105D3C002046F8BD13B50446084659B1019101F04F
:105D4C0024F823680199DB680246204602B0BDE8BE
:105D5C001040184702B010BD08B5FFF7EBFF08BDA7
:105D6C0003689B68184738B50D210546FFF7F8FF07
:105D7C000A2104462846FFF7F3FF204438BD38B506
:105D8C000546FFF7D7FF04462846FFF7ECFF2044F3
:105D9C0038BD30B58BB000238DF82430012A98BF64
:105DAC000A2209AC0D46B1FBF2F101FB125303F0D0
:105DBC00FF03092B94BF30333733DBB2AA4204F80C
:105DCC00013DEFD92146FFF7B5FF0BB030BD2DE9F2
:105DDC00F04186B000AF05460E46381D142114461E
:105DEC003B60FEF70BFC13280ED8391D2846FFF735
:105DFC00A1FF04461EB12846FFF7B5FF0444204618
:105E0C001837BD46BDE8F08100F1080323F0070305
:105E1C00E846ADEB030D2246411C3B686846FEF795
:105E2C00EDFB69462846FFF785FF0446C546E1E7CA
:105E3C00002340681A461946FEF768BB014B024A1C
:105E4C001A60704784E70320886F0D00024B1A68B4
:105E5C00024B1A60704700BFE8E6032088E7032076
:105E6C0010B50446FEF7FBFD204610BD0348044A5E
:105E7C0004490023836000F0CDBD00BF8CE70320F4
:105E8C0050E703206D5E0D00014B1860704700BF9A
:105E9C00ECE6032008B50B4B43B100F0F7FB0368AD
:105EAC001B699847002801DDAFF30080064B43B116
:105EBC0000F06AFC03681B699847002801DDAFF30A
:105ECC00008008BD000000000000000008B5FFF7CE
:105EDC00E1FFFEF7E9F9014B186008BDECE7032080
:105EEC000248034A0349121A00F0CCBE00F4032006
:105EFC0004F40320D0710D0007B5002300931A465B
:105F0C006FF07701FEF7D8FA03B05DF804FB0000E0
:105F1C0007B543880A2B08D0502B0BD1094B1B68B3
:105F2C004BB103B05DF804EB1847FFF7E5FF03B086
:105F3C005DF804FB002300931A466FF07701FEF71F
:105F4C00BBFAF4E7A0E7032038B5124C1248134D06
:105F5C000021FEF76BFB2368AB42114B0CBF0122F7
:105F6C0000221A7002D0FFF7BBFF2560FEF78CF9F8
:105F7C00044600F0B7FE0B4B13B12046AFF3008084
:105F8C0000210848FEF712FBBDE838400648002106
:105F9C00FEF788BA00F40320955E0D001E1C279AAC
:105FAC009CE70320000000001D5F0D0070470020DF
:105FBC00704710B51021044600F031FD204610BD8D
:105FCC0008B5FFF7F6FF08BD30B500224FF69C74FC
:105FDC00026084808D888C800C68858004600A60E7
:105FEC0030BD10B504460068FEF7F0FA204610BD2F
:105FFC0038B5C468F4B12378022B03D104F10C003A
:10600C00FFF7EFFF656835B12846FEF728FD102134
:10601C00284600F004FDA56835B12846FEF71FFDA3
:10602C001021284600F0FBFC20461421BDE8384026
:10603C0000F0F5BC38BD73B50E46044656F8043B6B
:10604C0000930D4601A83146FFF72AF8019A009BF0
:10605C006260236001A8002301930093FFF731F8DD
:10606C003046FFF72EF82846082100F0D8FC2046D1
:10607C0002B070BD826810B50AB900F0D2FCBDE860
:10608C001040C368184708B5006800F11001FFF70D
:10609C00F1FF08BD826810B50AB900F0C2FCBDE87A
:1060AC001040C368184708B5006800F11001FFF7ED
:1060BC00F1FF08BD38B500230446036010200D46DF
:1060CC00FDF7E1FF28B10123C0E90133024B036066
:1060DC00C5602060204638BDB06F0D0038B5002378
:1060EC0083608B6804460D462BB102229847EB68FF
:1060FC00E360AB68A360204638BD0000F0B589B002
:10610C0004686846FFF760FF4FF00203D4E84F2F96
:10611C00002A03D1C4E8413F0029F7D125D104F16D
:10612C000C0569462846FFF74FFFBFF35B8F012331
:10613C006370002004F10803BFF35B8F53E8006F1A
:10614C0043E80002002AF9D1BFF35B8F6EB1FEF772
:10615C0099F978B129463046FFF78CFF3046FEF7A7
:10616C007EFC1021304600F05AFC6846FFF739FFE0
:10617C0009B0F0BD314602A8FFF7B0FFE068B4F9F2
:10618C00105008B100F0E4FD06901020ADF81C5042
:10619C00FDF779FF0546E8B1002787601820FDF769
:1061AC0072FF044688B10146876002A8FFF774FAB3
:1061BC00049BA268A360059B049206A9E268E360B5
:1061CC0004F110000592FFF7FFFE084BEB60084B43
:1061DC002C60AB6006A8FFF704FF02A8FEF73FFC9B
:1061EC00002229460348FEF755F9B7E793600D00E6
:1061FC0029630D001D680D002DE9F0478AB0054696
:10620C009DF848900C4617469846FEF7BFF907AE26
:10621C00824638BB4FF62E73059005A93046ADF873
:10622C001830FFF7D1FE1420FDF72DFF044648B1BE
:10623C00022303700123C0E901AA437031460C30DC
:10624C00FFF7C2FE2846214640F8044BFFF732FF09
:10625C003046FFF7C6FE05A8FFF7C3FE28460AB076
:10626C00BDE8F0870C234FF0000A1420CDE908AAF2
:10627C000793FDF708FF014628B1C0E901AA80F891
:10628C0000A080F801A004A80391FFF713FF224B94
:10629C0008930820FDF7F7FE824628B1039B40F8CF
:1062AC00043B04A9FEF7FCFE00965FFA89F3424614
:1062BC0039462046CDF824A0FEF770F9B8B9039BF7
:1062CC005B7803F0FF0293B94FF69C7305A903A802
:1062DC000592ADF81830FFF711FF05A8FFF781FE06
:1062EC0005A80999FFF7A7FE06A8FEF7EAFE039B8F
:1062FC00059304A906A8FEF7D3FE059B069A2B600E
:10630C006A60002306A806930593FEF7DAFE04A83C
:10631C00FEF7D7FEA2E700BFED630D00022AF8B529
:10632C00054607D0032A18D0012A01D10B68036057
:10633C000020F8BD18200E68FDF7A5FE044650B1EC
:10634C003146FFF7CBFE3069B6F9147008B100F096
:10635C00FFFC2061A7822C60EAE70468002CE7D0E0
:10636C0004F11000FFF73DFE2046FEF778FB1821E4
:10637C00204600F054FBDBE738B5002383608B68C4
:10638C0004460D462BB102229847EB68E360AB68DC
:10639C00A360204638BD022A70B5044607D0032AF4
:1063AC0012D0012A01D10B680360002070BD1420AB
:1063BC000E68FDF768FE054620B13146FFF7DCFF9D
:1063CC00337C2B742560F0E70468002CEDD020465C
:1063DC00FEF745FB1421204600F021FBE5E7000009
:1063EC00F0B589B004460D4601A81146FFF723FE0F
:1063FC00A4B124B21DB1284600F0AAFC054601A8A0
:10640C0003A90395ADF81040FFF778FE03A8FFF73A
:10641C00E8FD02A8FEF755FE09B0F0BD019D012371
:10642C00D5E84F2F002A03D1C5E8413F0029F7D109
:10643C00EFD12B73BFF35B8F6B702B1DBFF35B8F97
:10644C0053E8006F43E80042002AF9D1BFF35B8F99
:10645C00002EDED02046FEF715F8074660B105F198
:10646C000C013046FFF716FE3046FEF7F8FA102105
:10647C00304600F0D4FACCE7314603A8FFF77CFF96
:10648C002B7B8DF81C301020FDF7FDFD0546D0B19F
:10649C0087601420FDF7F7FD044678B1876001464C
:1064AC0003A8FFF7F9F8059BA268A360069B059269
:1064BC00E268E3609DF81C3006922374064BEB6097
:1064CC00064B2C60AB6003A8FEF7C9FA00222946E4
:1064DC000348FDF7DFFFC7E7B3600D00A3630D00B2
:1064EC001D680D00704710B51821044600F097FA8E
:1064FC00204610BDF0B5037D062B8DB00E4600F185
:10650C0004074FF0000412D000F1080515F8011D26
:10651C000A223046FFF73DFCAF42044419D0002C50
:10652C00F4D02E213046FFF71BFC0444EEE72F235A
:10653C006A4639460A208DF80040FDF70BFF684685
:10654C0000F023FC33680246DB6869463046984706
:10655C00044620460DB0F0BD10B5054B0446112283
:10656C0040F8043B002100F0B5FB204610BD00BFF5
:10657C00CC6F0D000346074A10B543F8042B01F10C
:10658C00100251F8044B43F8044B9142F9D10A78AC
:10659C001A7010BDCC6F0D0010B59DF8084044EA80
:1065AC00032343EA024242EA01610423416003757A
:1065BC0010BD000013B5054B0360CB7800938B78AE
:1065CC004A780978FFF7E8FF02B010BDCC6F0D00D8
:1065DC0041747047704708B50021007CFDF71AFF25
:1065EC0040EAE07008BD08B50121007CFDF712FF00
:1065FC0040EAE07008BD08B5007CFDF703FF20EA17
:10660C00E07008BD08B5007CFDF7F4FE20EAE070F0
:10661C0008BD13B50446007C0191FDF7F3FE00287C
:10662C00019901DC607C20B1207CFDF7FBFE20EAA7
:10663C00E07002B010BD007CFDF7FCBE10B514215B
:10664C00044600F0ECF9204610BD000010B54FF4E4
:10665C007A73044608460021C4E90113044B2360F5
:10666C000123207463741146FDF7B4FE204610BD5F
:10667C00E06F0D00007C0022FDF7B4BE10B51422B3
:10668C000446002100F026FB204610BD10B5104C2E
:10669C0088B003A8FFF7F2FF2178BFF35B8F11F0EE
:1066AC00010111D120460191FDF7F1FC019958B17E
:1066BC0003AA0848FFF7CAFF2046FDF7EDFC064A7F
:1066CC000649044800F0A6F9024808B010BD00BF06
:1066DC00A4E70320A8E7032050E70320E1650D00A1
:1066EC0070474174704708B5007CFDF76BFE20EADB
:1066FC00E07008BD08B5007CFDF744FE20EAE070B0
:10670C0008BD08B5007CFDF74DFE40EAE07008BD01
:10671C0008B5007CFDF73EFE40EAE07008BD007C49
:10672C00FDF748BE37B5457C04462DB1207C03B03F
:10673C00BDE83040FDF71EBE007C0191FDF742FE26
:10674C0000280199F2DC284603B030BD10B51421A5
:10675C00044600F064F9204610BD000010B54FF05F
:10676C00000C0446084611464FF47A72C4E901C283
:10677C00044A22600122207462741A46FDF7F2FD6D
:10678C00204610BD10700D00F7B51B4C26684EB995
:10679C008420FDF778FC054618B18422314600F0C0
:1067AC0099FA2560154D2F684FB98420FDF76BFCC5
:1067BC00064618B18422394600F08CFA2E60104E31
:1067CC003178BFF35B8F11F0010112D1304601918A
:1067DC00FDF75DFC019960B122682B680948FFF751
:1067EC00BDFF3046FDF758FC074A0849054800F044
:1067FC0011F9044803B0F0BDC0E70320C4E703203F
:10680C00BCE70320C8E7032050E70320ED660D002A
:10681C0010B5836804460BB900F003F9C3689847B8
:10682C00A3681BB10322214620469847204610211D
:10683C00BDE8104000F0F3B8002240681146FDF7A7
:10684C005DBE002240681146FDF778BE002240680C
:10685C001146FDF783BE40680022FDF777BE406805
:10686C00002281F00101FDF761BE002340681A4649
:10687C001946FDF753BE002240681146FDF72EBEA7
:10688C00406800220221FDF731BE002340681A4601
:10689C00FDF71CBE024B04225A60024A1A60704774
:1068AC00DCE7032040700D00002340681A46FDF71A
:1068BC000DBE406800220221FDF718BE0022406880
:1068CC001146FDF70BBE002240681146FDF716BEBF
:1068DC00002340681A461946FDF718BE002340688D
:1068EC001A461946FDF71ABE40680021FDF73EBE58
:1068FC0040680021FDF742BE4068002281F0010192
:10690C00FDF714BE40680022FDF720BE002240684F
:10691C001146FDF723BE002240681146FDF70EBE5E
:10692C002DE9F043002495B016460D460746FFF7B7
:10693C0013FE214618220EA8009400F0CBF9402338
:10694C00CDE90C3421466B460CAA3046FDF794FC7D
:10695C00044600284CD1024601216868FDF7CEFDA3
:10696C000221804622466868FDF7C8FD009E8146DC
:10697C002146002E3CD000293AD17368022B03D05B
:10698C000A2B11D0F669F4E7B8F1000F0AD071693F
:10699C0006A8043107ADFFF70DFE0FCD3C1D0FC44B
:1069AC002B6823704146EDE7B9F1000F01D1494640
:1069BC00E8E77469102201A800F08CF906238DF821
:1069CC00143001AD04F108031834186859682A46CC
:1069DC0003C20833A3421546F7D101A906A807AD97
:1069EC00FFF7C8FD0FCD3C1D0FC42B682370DEE7ED
:1069FC000098FDF739FC384615B0BDE8F08300006F
:106A0C00024B034A1A6000225A607047E4E70320E5
:106A1C007C700D000B460146184600F017B9FDF7C7
:106A2C0034BB08B5FDF7F2FD014900F0F9B800BF21
:106A3C00C8700D007FB500241023CDE90234036823
:106A4C0000949E698DF8044015466B461268B04759
:106A5C009DF8043003F00603062B03BF009B2B604C
:106A6C000120204604B070BD0098904214BF012054
:106A7C000620704710B5034B0360044600F0CDF8B8
:106A8C00204610BD08710D0010B50446FFF7F2FF4B
:106A9C0020460821FFF7C3FF204610BD2DE9F04129
:106AAC001F46DDE90834DDF8188098450646154682
:106ABC0007D1079900F0B4F818B165710020BDE852
:106ACC00F0813946304600F0ABF80028F6D00123AF
:106ADC00C4F800802571A371F0E738B515461C4643
:106AEC0000F09EF820B10823E36006232560237193
:106AFC0038BD73B505460C4601921E4600F090F861
:106B0C0050B9032E08D82368019A5B6929462046A0
:106B1C0002B0BDE87040184702B070BD10B5034B11
:106B2C0003600446FFF7A6FF204610BD68710D00F8
:106B3C0010B50446FFF7F2FF20460C21FFF76FFF5C
:106B4C00204610BDF7B5089F974205460E461446E1
:106B5C000AD0A86802680897156A31462246AC46E6
:106B6C0003B0BDE8F04060471946019300F058F8B7
:106B7C00019B0028EDD0062003B0F0BD2DE9F14FAC
:106B8C000D461946DDE90A4BDDE90CA68146174690
:106B9C00984600F045F890B1002D3460377109DB50
:106BAC0061198A450CBF06210121B171002001B089
:106BBC00BDE8F08F0235F9D10123B371F6E75445E6
:106BCC0006D15946484600F02BF808B17771EDE72D
:106BDC00D9F808000368CDE90CA6CDE90A4BDC69AD
:106BEC003A4643462946A44601B0BDE8F04F6047FB
:106BFC002DE9F04107460C4615461E46FFF76DFF82
:106C0C0048B9B86803689F692A4633462146BC4692
:106C1C00BDE8F0416047BDE8F08170470020704747
:106C2C00814208B50ED0406803782A2B0CD04968F5
:106C3C000B782A2B08BF013100F078F8B0FA80F0FD
:106C4C00400908BD0120FCE70020FAE710B5054C0F
:106C5C0013462CB10A4601460220AFF3008010BD4A
:106C6C002046FCE70000000030B501390024A242A8
:106C7C0001D1002005E0035D01340D5DAB42F6D07F
:106C8C00581B30BD0A44914200F1FF3300D17047CC
:106C9C0010B511F8014B03F8014F9142F9D110BD19
:106CAC00884210B501EB020402D98442234607D86E
:106CBC00431EA14208D011F8012B03F8012FF8E76D
:106CCC00024401468A4200D110BD13F8014D02F86E
:106CDC00014DF7E702440346934200D1704703F895
:106CEC00011BF9E738B50D4B1D68AB6B04467BB93E
:106CFC001820FDF763FC0A4A0A4BA863C0E900237D
:106D0C00094B83600B23838101220023C0E90423F8
:106D1C00AB6B00221C615A6138BD00BFECE603204E
:106D2C000E33CDAB34126DE6ECDE050010F8012B02
:106D3C0011F8013B012A28BF9A42F7D0D01A7047AC
:106D4C00034611F8012B03F8012B002AF9D17047E7
:106D5C00024B0146186800F003B800BFECE60320B4
:106D6C0037B5044608460D4600F00FF8421C114694
:106D7C0020460192FDF752FC044618B1019A2946AF
:106D8C00FFF780FF204603B030BD034613F8012BFC
:106D9C00002AFBD1181A0138704710B5024601447D
:106DAC008A42134601D1181A10BD1C780132002CEE
:106DBC00F6D1F8E71D400D0059400D0081400D0043
:106DCC0085400D00000000007B202264657669631D
:106DDC00656964223A2022253032582025303258F9
:106DEC002025303258222C202254797065204944B9
:106DFC00223A202225303258222C20224576656EEC
:106E0C00742044617461223A202225303258222C9D
:106E1C002022436F6E74726F6C2044617461223A4D
:106E2C00202225303258227D0052423530204461D8
:106E3C007461007075626C69736865642C20253010
:106E4C00325800252E3278002000547275650046A9
:106E5C00616C73650042383A37433A36463A3141F1
:106E6C003A45333A333100000000000000000000C6
:106E7C00A7460D009D460D0093460D0089460D005A
:106E8C007D460D0071460D00F5680D00FD680D0086
:106E9C0065460D005D460D0053460D0049460D003C
:106EAC002D690D00776972696E672E626C650053EF
:106EBC007461727420646973636F766572696E674E
:106ECC002073657276696365732E004661696C6523
:106EDC006420746F20616C6C6F63617465206D65E8
:106EEC006D6F727921004661696C656420746F2046
:106EFC00617070656E6420706565722043656E7498
:106F0C0072616C206465766963652E00436F6E6EEA
:106F1C0065637465642062792043656E7472616C7C
:106F2C00206465766963652E00446973636F6E6EC9
:106F3C0065637465642062792072656D6F74652079
:106F4C006465766963652E00000000000000000097
:106F5C00EF480D0011490D002F510D001F490D0078
:106F6C00F1480D000000000000000000FB349B5FA6
:106F7C0080000080001000000000000061707000B4
:106F8C0025592D256D2D25645425483A254D3A2536
:106F9C0053257A0061736374696D6500000000000D
:106FAC0000000000B95F0D00BF5F0D00FD5F0D001C
:106FBC00CD5F0D00BB5F0D00000000000000000065
:106FCC0001650D00F1640D00F3640D00000000007C
:106FDC0000000000E1650D0049660D001F660D0004
:106FEC00155D0D0011660D00E3650D00F3650D00D8
:106FFC0043660D0003660D00DD650D00000000000A
:10700C0000000000ED660D0059670D0031670D00A2
:10701C00155D0D0001670D001D670D000F670D005C
:10702C002B670D00EF660D00F3660D0000000000ED
:10703C000000000097680D008D680D0083680D003E
:10704C0045680D003D5E0D0077680D00F5680D007C
:10705C00FD680D006B680D0063680D0059680D002C
:10706C004F680D002D690D000000000000000000AD
:10707C00B5680D00BF680D00C9680D00D3680D0020
:10708C00DD680D00E9680D00F5680D00FD680D0068
:10709C0005690D0011690D0019690D0023690D00BA
:1070AC002D690D00537431395F53705F6D616B65E1
:1070BC005F7368617265645F7461670008710D00CD
:1070CC00B0700D0068710D00DC700D008C710D003E
:1070DC004E31305F5F637878616269763131375F4A
:1070EC005F636C6173735F747970655F696E666FF3
:1070FC004500000000000000D0700D00816A0D00FA
:10710C00956A0D00296C0D00296C0D00FF6A0D00AD
:10711C00416A0D00E76A0D00A96A0D00756A0D0041
:10712C0068710D0038710D00D0700D004E31305F5C
:10713C005F637878616269763132305F5F73695F63
:10714C00636C6173735F747970655F696E666F45AC
:10715C0000000000000000002C710D00296B0D00D8
:10716C003D6B0D00296C0D00296C0D00FF6A0D00A4
:10717C00416A0D00FD6B0D00896B0D00516B0D000C
:10718C0008710D0094710D00537439747970655F3A
:10719C00696E666F0000000059420D00B1460D008B
:1071AC00E5460D00ED5C0D00495E0D00595E0D00CD
:1071BC00795E0D00A1680D000D6A0D000000000045
:0471CC0000000000BF
:0471D00000000000BB
:1071D400A06F0D00F0E60320000000000000000096
:1071E400000000000000000000000000000000009B
:1071F400000000000000000000000000000000008B
:10720400000000000000000000000000000000007A
:10721400000000000000000000000000000000006A
:10722400000000000000000000000000000000005A
:08723400000000000000000052
:10723C00FFFFFFFF00000102030405060708090A0F
:10724C000B0C0D0E0F101112131415161718191A0A
:08725C001B1C1D1E1F20280051
:047264007856341212
:04000003D000401CCD
:00000001FF
