:02000002D0002C
:1040000000400D0048B00D00000006000D00050145
:084010000401E80500000000B6
:04401800A09E0D0059
:10401C0009480A49884208B505D0094A824202D0AB
:10402C00121A05F0E2FD0748074A0021121A05F0A2
:10403C0002FE014808BD00BFC4E1032084AF0D009F
:10404C005CE203205CE20320F0E7032070B504F08F
:10405C00C7F8074C074BE41AA40800251E46A542D6
:10406C0004D056F8253098470135F8E770BD00BFED
:10407C007CAF0D0030AF0D0000F0C4BA08B500F0F5
:10408C00DFFABDE8084004F06DB802F013BA02F094
:10409C0019BA02F017BA000008B5034A00210C2027
:1040AC0002F02CF9FEE700BF9D5F0D000078B0FA1E
:1040BC0080F0400970470123037070470EB400B5BF
:1040CC008CB00DAA202352F8041B03928DE8060035
:1040DC0004930168002304AA1E20059302F01EF924
:1040EC000CB05DF804EB03B070470EB400B58CB0A7
:1040FC000DAA202352F8041B03928DE806000493AA
:10410C000168002304AA2820059302F007F90CB0DB
:10411C005DF804EB03B0704707B50121062005F0EC
:10412C009DF902A8002240F8042D114601F060FF11
:10413C00019B142B03D103490348FFF7BFFF03B0C6
:10414C005DF804FBB49E0D00B8E4032010B50E4CD2
:10415C0001F026FF2368C01A0C4B984213D901F0CA
:10416C001FFF0B4920600B48FFF7BFFF0121062002
:10417C0005F085F9012001F00BFF00210620BDE8B8
:10418C00104005F07CB910BD60E20320BFD40100E3
:10419C00EE9E0D00B8E4032001F0BABE10B5012369
:1041AC000374836804460BB1C06806E0006828B14C
:1041BC0083680BB905F0F4F9C3689847012363745D
:1041CC000020BDE8104001F0C1BF0000F0B5ADF516
:1041DC005D7D0CACDEADA4F1080002F023FB2046A3
:1041EC0002F0A1FB04F12400543402F09CFBAC421D
:1041FC00F1D102F02FFC052102F04EFC1B4D1C4EA0
:10420C0002F028FC0A220AA902F064FC00240746EA
:10421C00BC4228DA0AAB542000FB043002AA1F234C
:10422C00FF21083002F099FB9DF809202B789A4267
:10423C0017D19DF80A206B789A4212D19DF80B2069
:10424C00AB789A420DD19DF80D308DF800309DF869
:10425C000E308DF8013000231A466946306801F0A3
:10426C0065FF0134D4E701F021FFC9E7C8E1032061
:10427C0070E2032010B58AB08DE80C000C462021AA
:10428C000291002103910B4602AA0168204602F01C
:10429C0045F80AB010BD0EB403B503AB322153F888
:1042AC00042B0193FFF7E6FF02B05DF804EB03B0BB
:1042BC007047000037B5002319220821224801F06D
:1042CC002DFF0420FFF7E1FE0546002839D01F49D9
:1042DC00142005F053F9044630B100230374036035
:1042EC0043608360C36043742C60A4B1184BA3601B
:1042FC000023E3604FF4406301930094154B16497F
:10430C000222201D01F0C2FE28B9237CCBB901206A
:10431C0001F036FEF9E700232B6094B125684DB10E
:10432C00AB681BB103222946284698471021284622
:10433C0005F020F91421204603B0BDE8304005F00B
:10434C0019B903B030BD00BF70E20320CEAD0D0033
:10435C00D9410D00A9410D00FF9E0D0073B505F06C
:10436C00A7F802220DEB0201104601F029FEBDF860
:10437C00022026492648FFF7A1FEBDF8023048F678
:10438C008806B34226D002ACAA2505F091F844F871
:10439C00045D04222146142001F01AFE05F088F871
:1043AC00042221461520019501F012FE05F080F83B
:1043BC00042221461620019501F00AFEADF8026098
:1043CC0005F076F802220DEB0201104601F000FE1A
:1043DC00104915E005F06CF801220F49142001F08A
:1043EC00EFFD05F065F801220C49152001F0E8FD00
:1043FC0005F05EF80A490122162001F0E1FD094999
:10440C000348FFF75BFE02B070BD00BF0D9F0D00AF
:10441C00B8E40320249F0D00C8E10320C9E1032068
:10442C00CAE103204C9F0D0038B5046805467CB1E9
:10443C006368013B63605BB9236820469B689847BF
:10444C00A368013BA3601BB923682046DB6898472F
:10445C00284638BD30B5ABB006AC84E8030004A9DF
:10446C0081E80C0011499DF819409DF811504B78CA
:10447C000A7802950194897800910AA80C4902F0F7
:10448C0031F80C4B0C491B788DF800300AAA3C23F0
:10449C0008A804F043F809A8FFF7C6FF2B462246EC
:1044AC0006490748FFF721FE2BB030BDC8E10320B9
:1044BC00D39F0D0075E203202EA00D003BA00D0034
:1044CC00B8E403202DE9F0418046264C2648274DC0
:1044DC00006800231A46214601F030FE00283AD12C
:1044EC002378234AC3F380011B07117003D501F015
:1044FC0057FD204B1860204B204E1A6812B1002239
:10450C001A6005E073786278164F591C8A4202D102
:10451C0094E8030010E014DD19491A48FFF7BBFEBC
:10452C00194A13680133136096E8030097E80C00EE
:10453C00FFF790FF97E8030085E8030086E8030087
:10454C0006E00AB9FF2BE3D010490E48FFF7B6FD81
:10455C0001F026FD686095E8030088E803004046FA
:10456C00BDE8F08168E2032070E20320CCE1032077
:10457C0074E2032064E20320C4E103207CE2032004
:10458C0084A00D00B8E4032078E20320C1A00D0044
:10459C0008B5054B01221A7001F0BAFC01F000FDC0
:1045AC00024B186008BD00BF75E2032064E20320D3
:1045BC007047006A0368DB68184700000A4B10B5A7
:1045CC000446036002F0F6FE214603F0E3F804F023
:1045DC00FFF904F0F1F92046044B40F8043B02F0DB
:1045EC00DFFF204610BD00BFF0A00D00D8A00D00CD
:1045FC0010B50446FFF7E2FF2046242104F0BAFF71
:10460C00204610BD08B50121042001F0E9FC02F0A0
:10461C0021FA022102F03CFAFFF74CFE01F0A4FA59
:10462C0000F086FA00F0D6FAFFF776FD4FF46171D0
:10463C000248BDE8084003F074BE00BF31E7032018
:10464C0010B5114B00221146586801F0D3FE08B189
:10465C00FFF77CFD0D4C237833B10D4B1B6898474D
:10466C00BDE8104000F060BC01F004FF18B92378DD
:10467C00002BF2D110BD00F0C5FAFFF76FFE01F070
:10468C001DFB01232370F2E7F0E40320A8E20320D2
:10469C00E4E1032070B5046843681426054606FB64
:1046AC000346A64204D0204601F0C8FF1434F8E7B4
:1046BC00286801F007FF284670BD8842F8B5064609
:1046CC000C46154616D9904215D2A2F114056C1A57
:1046DC00A1F114070444AF421CD02CB1294620464A
:1046EC0001F09CFF2B7C2374284601F0A7FF143D9E
:1046FC00143CF0E70ED0AC420CD02EB12146304623
:10470C0001F08CFF237C3374204601F097FF1434A6
:10471C001436F0E7F8BD2DE9F04100230360436047
:10472C0083604E689E4204460F4624DD4FF0140809
:10473C0008FB06F001F0BEFE0546E0B194E8060069
:10474C0008FB0212FFF7B9FF206801F0BBFE2560E1
:10475C00A6603E687B6808FB0368464509D02DB10E
:10476C003146284601F0D3FF337C2B7414361435B4
:10477C00F3E77B6863602046BDE8F08170B58CB0D0
:10478C0001F0C6FB04F01CFE00231A4643F67741E9
:10479C0004F01EFE04F014FE00231A464FF4FA61D6
:1047AC0004F01EFE0021012001F0E0FD0023009327
:1047BC000193029304F00CF91C4C0646694603A8BD
:1047CC00FFF7A9FF254603A906A8FFF7A4FF184B7E
:1047DC0045F8043B06A909A8FFF79DFF09AA282163
:1047EC00284603F03EF909A8FFF754FF06A8FFF787
:1047FC0051FF104B236003A82662FFF74BFF0E4BB3
:10480C00236004F0E5F84FF4165104F0D1F802F0EF
:10481C00D1FD214603F0B8F86846FFF73BFF074A85
:10482C000749204604F098FE0CB070BD84E20320CA
:10483C00D8A00D00D0AB0D00F0A00D005CE2032061
:10484C00C9450D000368587840B91B78302B02D04D
:10485C00312B03D10120034B187070474FF0FF3000
:10486C00704700BFDCE2032013B503681B78652B8F
:10487C000DD1134C04F01CFE0C200422214601F037
:10488C009FFB23684FF47A70B3FBF0F016E001F055
:10489C007BFF4FF47A746043019068B104F008FE1A
:1048AC0004220C200DEB020101F092FB044B019849
:1048BC001860B0FBF4F001E04FF0FF3002B010BD17
:1048CC00D8E1032013B503681B78652B09D10F4C75
:1048DC0004F0EEFD04221046214601F071FB206825
:1048EC0011E001F051FF019058B104F0E1FD0422F8
:1048FC0010460DEB020101F06BFB044B01981860A4
:10490C0001E04FF0FF3002B010BD00BFE0E103202A
:10491C0013B503681B78652B0DD1134C04F0C8FD3F
:10492C0010200422214601F04BFB23684FF47A70CF
:10493C00B3FBF0F016E001F027FF4FF47A746043FC
:10494C00019068B104F0B4FD042210200DEB0201BB
:10495C0001F03EFB044B01981860B0FBF4F001E051
:10496C004FF0FF3002B010BDDCE1032013B503683B
:10497C001B78652B0DD1134C04F09AFD08200422F2
:10498C00214601F01DFB23684FF47A70B3FBF0F065
:10499C0016E001F0F9FE4FF47A746043019068B1AF
:1049AC0004F086FD042208200DEB020101F010FB3F
:1049BC00044B01981860B0FBF4F001E04FF0FF30AD
:1049CC0002B010BDD4E10320F0B503681B78652B51
:1049DC0097B0054643D104F06BFD012203A91420C6
:1049EC0001F0EEFA04F064FD01220DF10D01152029
:1049FC0001F0E6FA04F05CFD01220DF10E01162027
:104A0C0001F0DEFA9DF80E2001929DF80D209DF824
:104A1C000C30009240213F4A06A801F06BFD3E4B42
:104A2C003E491B788DF8003006AA3C2304A803F0FD
:104A3C0075FD059C002C69D06368013B6360002BFD
:104A4C0064D1236820469B689847A368013BA36008
:104A5C00002B5BD123682046DB68984756E02C215D
:104A6C0001F06EFE294603460022074606A801F017
:104A7C006BFE069C06A801F0E1FD102200212046E9
:104A8C0005F0FEF9264C01373A46A0702C21284639
:104A9C0001F048FE3A4603462946064606A801F0B0
:104AAC0053FE069F06A801F0C9FD102200213846CE
:104ABC0005F0E6F90136607032462C21284601F0EB
:104ACC0031FE29460346324606A801F03DFE069DFE
:104ADC0006A801F0B3FD10220021284605F0D0F9FC
:104AEC00207004F0E5FC01222146142001F070FA3C
:104AFC0004F0DEFC0122A118152001F069FA04F083
:104B0C00D7FC0122A11C162001F062FA012017B07B
:104B1C00F0BD00BF00A10D00A9E2032031A10D00E2
:104B2C00C8E103200246014803F0E4BBD5820D0026
:104B3C0008B50C490C48FFF7F5FF0C490C48FFF77A
:104B4C00F1FF0C490C48FFF7EDFF0C490C48FFF73F
:104B5C00E9FF0C490C48FFF7E5FF0C490C48FFF73F
:104B6C00E1FF08BD79490D004AA10D0075480D0003
:104B7C005FA10D001D490D0075A10D00D1480D0060
:104B8C008CA10D0051480D00A1A10D00D5490D00BF
:104B9C00C1A10D00024B01221A7001F0B9B900BF7E
:104BAC00A9E20320B0F1804F08B501D304F0F5FC65
:104BBC008000BDE80840FFF768BA38B505460846DE
:104BCC000C4605F0A6F8214602462846BDE83840BA
:104BDC0004F084BB08B50121022004F03FFC012144
:104BEC00032004F03BFC0121042004F037FC0121DC
:104BFC00052004F033FC024B00221A7008BD00BFE4
:104C0C00DCE2032013B504F053FC02220DF1060183
:104C1C00002001F0D5F9BDF806202A492A48FFF7F3
:104C2C004DFABDF8063048F68804A34227D004F0AC
:104C3C003FFC04222549104601F0CAF904F038FC67
:104C4C0004222349082001F0C3F904F031FC0422AA
:104C5C0020490C2001F0BCF904F02AFC04221E4966
:104C6C00102001F0B5F9ADF8064004F021FC0DF16F
:104C7C0006010222002001F0ABF918491CE004F0F7
:104C8C0017FC04221149104601F09AF904F010FCAB
:104C9C0004220F49082001F093F904F009FC0422C6
:104CAC000C490C2001F08CF904F002FC0A49042296
:104CBC00102001F085F90A490348FFF7FFF902B00B
:104CCC0010BD00BFD5A10D00B8E40320E0E1032026
:104CDC00D4E10320D8E10320DCE10320FCA10D008A
:104CEC0035A20D003C2823D00DDC1E281CD004DC82
:104CFC000A2827D0142829D026E0282816D03228B4
:104D0C0022D113487047642816D005DC462811D0F0
:104D1C005A2819D10F48704782280FD08C280FD0F1
:104D2C00782811D10C4870470C4870470C487047D4
:104D3C000C4870470C4870470C4870470C4870473B
:104D4C000C4870470C4870470C4870470C4870472B
:104D5C0093A20D00B2A20D00CFA20D0077A20D0000
:104D6C0088A20D00A2A20D00ABA20D00C1A20D00E5
:104D7C00D8A20D00DEA20D00E3A20D00EBA20D00E7
:104D8C006DA20D0070B50446ADF5227D10EE100A33
:104D9C0016460D4604F0B4FE2346CDE902018DE81B
:104DAC0060000B4A40F26E2106A801F0A3FB094BF0
:104DBC0009491B788DF8003006AA3C2304A803F09F
:104DCC00ADFB05A8FFF730FB0DF5227D70BD00BFD4
:104DDC00F0A20D000CE303203FA30D00024B1B7847
:104DEC000BB1FFF7CFBF7047DCE2032030B5ADF558
:104DFC00257D044610EE100A0D46049204F080FE48
:104E0C002346CDE9020100950C4A40F26E2108A818
:104E1C0001F070FB0A4B0B491B788DF8003008AA87
:104E2C003C2306A803F07AFB07A8FFF7FDFA01F074
:104E3C00B7F8054B18600DF5257D30BD50A30D005E
:104E4C000CE303209DA30D00ACE2032070B52DED07
:104E5C00028B0F4B1B7804460D46B0EE408A16466B
:104E6C009BB101F09DF80B4B1B68C01A40F2DC5350
:104E7C0098420AD9B0EE480ABDEC028B324629465C
:104E8C002046BDE87040FFF7B1BFBDEC028B70BD92
:104E9C00DCE20320ACE2032070B503684569466A86
:104EAC00044653B10436B54204D255F8040BFFF74F
:104EBC00EEF8F8E72068FFF7EAF8204670BD10B569
:104ECC000446FFF7E9FF204610BD70B5036845693D
:104EDC00466A044653B10436B54204D255F8040B65
:104EEC00FFF7D5F8F8E72068FFF7D1F8204670BD3A
:104EFC0010B50446FFF7E9FF204610BD10B5026956
:104F0C008368043A9342044601D004330AE0C06833
:104F1C00FFF7BDF863691A1D62615B68E36003F516
:104F2C0000722261A36010BD2DE9F047624FADF510
:104F3C00267D01F035F83B68C01A604B984240F270
:104F4C00B6800DF1280840F26E220021404604F094
:104F5C0072FE5B4B5B4D0593002440F26D2305A85C
:104F6C0008938DF818400994CDF81C8004F019F9B9
:104F7C00554905A8FFF721FE296804F037F9534974
:104F8C002C6005A8FFF719FE514B197804F016F99F
:104F9C00504905A8FFF711FE054601F001F84E4BEC
:104FAC001968411A284604F033F94C494C4D05A8B0
:104FBC00FFF703FE06462868FFF794FE814604F0CF
:104FCC00A8FE49460246304604F097F945492C6044
:104FDC0005A8FFF7F2FD04F0D8F8434BDFF8189161
:104FEC005D695A6AD969521B9210551E9A69521AF8
:104FFC00921002EBC51219699D68A2464D1B3B4CE1
:10500C0002EBA5051E46AA4537DA099A40F25A2347
:10501C009A4204D936493748FFF767F82DE005A8BE
:10502C0004F0B3F8B368196804F0E0F8D9F8083064
:10503C00196804F0DBF8A368196804F0E9F804F0C7
:10504C0085F82948FFF75AFF2B48FFF757FF2269CD
:10505C00A368043A934201D004330AE0E068FFF7F6
:10506C0016F863691A1D62615B68E36003F50072F0
:10507C002261A3600AF1010AC5E705A804F066F8ED
:10508C0005A804F06CF81D4B1D491B788DF80030F9
:10509C0042463C2303A803F041FA04A8FFF7C4F9E5
:1050AC0041461448FFF721F800F07AFF38600DF5FF
:1050BC00267DBDE8F08700BFE0E20320C027090091
:1050CC0098AD0D0078E20320ABA30D00B9A30D0041
:1050DC0074E20320C5A30D0064E20320D7A30D00E6
:1050EC0044E30320E3A30D00E4E203201CE30320CC
:1050FC00EAA30D00B8E40320B4E203200CE3032080
:10510C00CDA30D002DE9F0470446C809451C03301A
:10511C00082838BF082060600F46FFF743FD66681B
:10512C002060761B760800EB8609804609EB850526
:10513C00CA46554506D94FF40070FEF7A6FF4AF84B
:10514C00040BF6E7C4F8149058F82620E26002F538
:10515C00007323612B1F636255F8043CE36107F075
:10516C007F0703F5007103EB87032162A260A36143
:10517C00BDE8F08710B500210446016041608160F4
:10518C00C160016141618161C16101624162FFF7EE
:10519C00B9FF204610BD2DE9F0470446C809451C4F
:1051AC000330082838BF082060600F46FFF7FAFC70
:1051BC0066682060761B760800EB8609804609EB52
:1051CC008505CA46554506D94FF40070FEF75DFFBC
:1051DC004AF8040BF6E7C4F8149058F82620E2605D
:1051EC0002F5007323612B1F636255F8043CE361E5
:1051FC0007F07F0703F5007103EB87032162A260C0
:10520C00A361BDE8F087F0B50C4690E800508768C4
:10521C00C66805460FC985E80F0084E80050A760F2
:10522C00E660F0BD38B50D4600210160416081603B
:10523C00C160016141618161C161016241620446E9
:10524C00FFF760FF2B689BB105F1080104F1080022
:10525C00FFF7D9FF05F1180104F11800FFF7D3FF90
:10526C0023682A6822602B6063686A6862606B60DE
:10527C00204638BDF0B50C4690E800508768C668EB
:10528C0005460FC985E80F0084E80050A760E6606A
:10529C00F0BD10B50C1A1346A20805D001462246E3
:1052AC00184604F0ADFC0346181910BD091A08B5D0
:1052BC008B08A2EB010305D00A460146184604F000
:1052CC009FFC0346184608BD2DE9F0470E460568BD
:1052DC00416A43684A1BA3EBA202012A044649D83F
:1052EC0040690F1ABF10013707F10108B3EB480FE3
:1052FC0011D9C8EB03035B0805EB8305A84201F148
:10530C00040103D92A46FFF7C4FF21E005EB87020D
:10531C00FFF7CCFF1CE0002B14BF99464FF001099E
:10532C00023399444846FFF73DFCC8EB0905616A16
:10533C006D0800EB850582462A4604316069FFF74B
:10534C00A8FF2068FEF7A3FEC4F800A0C4F80490E0
:10535C0065612B68E36003F50073236107F18043FB
:10536C00013B05EB8302626255F82330E36103F5E0
:10537C00007323624FF40070656AFEF786FE686066
:10538C00A369326803B11A60636A1A1D62625B68B2
:10539C00E36103F500722262A361BDE8F0872DE999
:1053AC00F0470E460568416A43684A1BA3EBA2020C
:1053BC00012A044649D840690F1ABF10013707F17A
:1053CC000108B3EB480F11D9C8EB03035B0805EBDD
:1053DC008305A84201F1040103D92A46FFF759FFBE
:1053EC0021E005EB8702FFF761FF1CE0002B14BFE7
:1053FC0099464FF00109023399444846FFF7D2FB16
:10540C00C8EB0905616A6D0800EB850582462A46E2
:10541C0004316069FFF73DFF2068FEF738FEC4F8E1
:10542C0000A0C4F8049065612B68E36003F5007379
:10543C00236107F18043013B05EB8302626255F85F
:10544C002330E36103F5007323624FF40070656A47
:10545C00FEF71BFE6860A369326803B11A60636AC9
:10546C001A1D62625B68E36103F500722262A3613C
:10547C00BDE8F08738B5046A8269043CA242034651
:10548C0006D0096802B111609A6904329A6138BD7C
:10549C00FFF785FF38BD000030B585B00190009155
:1054AC00114801A9FFF7E6FF69461048FFF7E2FF34
:1054BC0000F076FD0E4B1A68821A0E480392046AAD
:1054CC008169043CA14205461C4605D001B10A6025
:1054DC00AB690433AB6102E003A9FFF7F5FE00F002
:1054EC005FFD206005B030BDE4E20320B4E2032090
:1054FC0010E303201CE3032030B52DED028B89B0A3
:10550C0003A8FEF7DFFF05A89DF80C4000F01CFC7B
:10551C00002102209DED058A03F0B1FF002103203C
:10552C0003F0ADFF0021042003F0A9FF00210520AA
:10553C0003F0A5FF18EE100A04F0E2FA2246CDE9BA
:10554C00000118491848FEF7B9FD00221046B0EECC
:10555C00480A2146FFF77AFCFCEEC87A134B17EE8B
:10556C00902A1B689A4218D914F0F30515D11049EA
:10557C000D48FEF7BAFD2246B0EE480A0121284636
:10558C00FFF72CFC29462846FFF786FF00F008FDA4
:10559C00084B094A1860094B1A6009B0BDEC028B24
:1055AC0030BD00BF33A40D00B8E40320E0E10320BC
:1055BC0070A40D00B0E20320CD550D00E4E10320F2
:1055CC0070B52DED028B8AB005A8FEF77BFF07A8FE
:1055DC009DF81440384D00F0B7FB012102209DEDE1
:1055EC00078A03F04CFF00F0DBFC2B68C01A02901A
:1055FC0018EE100A04F084FA2246CDE900012F4976
:10560C002F48FEF75BFD00F0CBFC2A68B0EE480A91
:10561C00821A21460120FFF719FCFCEEC87A17EE1E
:10562C00903A8BB1274A126893420DD226492448EE
:10563C00FEF75BFD00210120B0EE480A2246FFF781
:10564C00CDFB0121084610E004F0F306022E10D128
:10565C001E491B48FEF749FD00210120B0EE480A07
:10566C002246FFF7BBFB31460120FFF715FF184A16
:10567C001BE000F095FC2B68C01A164B1B68984277
:10568C0015D315490E48FEF730FD2246B0EE480AF8
:10569C0002210120FFF7A2FB03210120FFF7FCFEF2
:1056AC0000F07EFC0D4B0E4A18600E4B1A600AB0CF
:1056BC00BDEC028B70BD00BFB0E20320B0A40D00A6
:1056CC00B8E40320E0E1032002A50D0039A50D008C
:1056DC0005550D00D4E1032074A50D0018E303203B
:1056EC00F5560D00E4E1032070B52DED028B8CB066
:1056FC0005A8FEF7E7FE09A89DF81440414D00F0FF
:10570C0023FB012103209DED098A03F0B8FE00F074
:10571C0047FC2B68C01A029018EE100A04F0F0F93E
:10572C002246CDE9000138493848FEF7C7FC00F0A5
:10573C0037FC2A68B0EE480A821A21460220FFF78D
:10574C0085FBFCEEC87A17EE903AC3B1304A12686A
:10575C00934214D22F492D48FEF7C7FC2246B0EED7
:10576C00480A03210220FFF739FB01210220FFF731
:10577C0093FE00F015FC284B284A18603CE004F01E
:10578C00F306022E0FD126492048FEF7AEFC304618
:10579C00B0EE480A22460021FFF720FB3146304686
:1057AC00FFF77AFE27E000F0FBFB2B68C01A1D4BBD
:1057BC001B68984222D31C491448FEF796FCB0EEA5
:1057CC00480A224600210220FFF708FB0421022090
:1057DC00FFF762FE15490D48FEF75DFD144B154AA7
:1057EC001B788DF8003007A83C23134902F096FE75
:1057FC0008A8FEF719FE114A114B1A600CB0BDEC4B
:10580C00028B70BD18E30320B1A50D00B8E4032092
:10581C00E0E10320FEA50D0014E3032051580D0018
:10582C003FA60D00D8E103207DA60D00C8A60D00F3
:10583C000CE30320D9A60D00E8A60D0005550D00BC
:10584C00E4E1032070B52DED028B8CB005A8FEF7BA
:10585C0039FE09A89DF81440514D00F075FA01214C
:10586C0004209DED098A03F00AFE00F099FB2B68D9
:10587C00C01A029018EE100A04F042F92246CDE943
:10588C00000148494848FEF719FC00F089FB2A68DA
:10589C00B0EE480A821A21460320FFF7D7FAFCEE35
:1058AC00C87A424B17EE902A1B689A4210D940498D
:1058BC003D48FEF71AFC2246B0EE480A02210320AE
:1058CC00FFF78CFA00210320FFF7E6FD394A60E070
:1058DC0004F0F306022E0FD137493348FEF705FCCE
:1058EC00B0EE480A224600210320FFF777FA314632
:1058FC000320FFF7D1FD4BE000F052FB2F4B1B6850
:10590C00C01A2F4B1B6898421AD32E492648FEF713
:10591C00ECFB2246B0EE480A00210320FFF75EFAAA
:10592C0004210320FFF7B8FD27491F48FEF7B3FCFD
:10593C00264B274A1B788DF8003026493C2321E062
:10594C0000F02EFB2B68C01A234B1B68984222D305
:10595C0022491548FEF7C9FB2246B0EE480A002141
:10596C000320FFF73BFA05210320FFF795FD1C49A7
:10597C000D48FEF790FC154B1A4A1B781A498DF806
:10598C0000303C2307A802F0C9FD08A8FEF74CFD27
:10599C00164A174B1A600CB0BDEC028B70BD00BFE1
:1059AC0014E30320F7A60D00B8E40320E0E1032084
:1059BC0045A70D00F5560D008AA70D0018E303202E
:1059CC00D8E10320C9A70D00C8A60D000CE30320E5
:1059DC00D9A60D00E8A60D00DCE103200BA80D00F4
:1059EC0044A80D0056A80D0069A80D0005550D0022
:1059FC00E4E1032070B58AB00AAE364B364D002474
:105A0C0001221A7000F084FA46F8284D21462246ED
:105A1C00304600F0EDFA314B009A1A603046FFF731
:105A2C00A9FB31462E48FFF7FDFB3046FFF734FA51
:105A3C002C4A2D492A4803F08FFD3046FFF79AFB7C
:105A4C0031462A48FFF7EEFB3046FFF725FA254A88
:105A5C002549264803F080FD2146304600940194E8
:105A6C00029403940494059406940794089409945E
:105A7C00FFF791FB214628462C606C60AC60EC6013
:105A8C002C616C61AC61EC612C626C62FFF783FB86
:105A9C00009B8BB102A905F10800FFF7EBFB06A9EF
:105AAC0005F11800FFF7E6FB2B68009A2A600093BB
:105ABC00019A6B6801936A603046FFF706FA094A4F
:105ACC000B49054803F048FD00F06AFA094B1860D1
:105ADC000AB070BD0CE303201CE3032044E3032055
:105AEC00E4E203205CE20320CB4E0D00B4E2032081
:105AFC00FD4E0D0010E3032073B5184D184C194ED4
:105B0C0003F03EF803681B69984720B303F038F89C
:105B1C0003685B699847C2B2A22A04BF00232B60BA
:105B2C002B68162AE05403F101032B6013D194F96E
:105B3C00091094F90A3094F9070094F9082043EA03
:105B4C00012342EA002201930023009269461A467F
:105B5C00306800F0EBFA00F0A9FAD1E7CCE30320AF
:105B6C0050E4032060E4032037B500238022082191
:105B7C00224800F0D3FA0420FEF787FA05460028E5
:105B8C0039D01F49142003F0F9FC044630B100232E
:105B9C000374036043608360C36043742C60A4B1DE
:105BAC00184BA3600023E3604FF44063019300940F
:105BBC00154B16490222201D00F068FA28B9237CE7
:105BCC00CBB9012000F0DCF9F9E700232B6094B18C
:105BDC0025684DB1AB681BB103222946284698476E
:105BEC001021284603F0C6FC1421204603B0BDE862
:105BFC00304003F0BFBC03B030BD00BF60E40320F5
:105C0C00CEAD0D00055B0D00A9410D0088A80D005F
:105C1C000E2910B506D00F294FF0000313D1421CEA
:105C2C000C300AE0024600F10B01002312F8014F80
:105C3C0023448A42DBB2F9D1F1E712F8011F0B447D
:105C4C008242DBB2F9D1184610BD0000F0B5184BFA
:105C5C0085B006466A4603F108076D461868596810
:105C6C00144603C40833BB422246F7D118689988FE
:105C7C009B792060A180A3710F2128468DF80460C8
:105C8C00FFF7C6FF00248DF80D002B5D09490A486B
:105C9C0022460134FEF712FA0F2CF6D102F070FFF7
:105CAC0003682246DB682946984705B0F0BD00BF63
:105CBC0079A80D0096A80D00B8E4032008B502F0F1
:105CCC005FFF00224FF4164102F04CFFE420FFF777
:105CDC00BDFF642002F0F8F9EB20BDE80840FFF7A7
:105CEC00B5BFC36E00F1680204339342C36608BFAC
:105CFC00C066C36E196090F870301A2B06D1836E93
:105D0C0004339A42836608D1806606E05A1C80F8F8
:105D1C00702023B9C36E836601E000207047012018
:105D2C00704790F870308B4202D8C36E1868704779
:105D3C00836E1B1A1A2201EBA30191FBF2F302FBF7
:105D4C00131150F8210070472DE9F0412DED028B15
:105D5C005E4E336813F0010482B005460BD1304619
:105D6C00FEF7A4F938B15A4B30469B66DB6683F8D4
:105D7C007040FEF7A0F9574E336813F001040BD1B5
:105D8C003046FEF793F938B1534B30469B66DB66D1
:105D9C0083F87040FEF78FF9504800231A46694685
:105DAC00006800F0CBF90446002840F0848000998C
:105DBC00474E0029B8BF49423046FFF792FF019980
:105DCC0045480029B8BF4942FFF78BFF96F8703061
:105DDC00192B2ED1DFF81081414E3D48E7B23946E0
:105DEC00FFF79FFF07EE900A98ED008A3A48F8EE0D
:105DFC00E77A394637EE888A013488ED008AFFF756
:105E0C0090FF07EE900A96ED007AF8EEE77A192CDF
:105E1C0077EE877AC6ED007ADFD1B3EE097AC8EE59
:105E2C00076A304BC3ED006AC7EE876AC3ED016A9F
:105E3C0041E01A2B3FD121463046FFF772FF2A4F23
:105E4C0007EE900A97ED008AF8EEE77A19213046B2
:105E5C0038EE678AFFF765FF07EE900AF8EEE77AEF
:105E6C00214637EE888A1C4887ED008AFFF759FFD8
:105E7C001B4E1C4CD6ED008A07EE900AF8EEE77A22
:105E8C001921154878EEE78AFFF74BFFB3EE097A34
:105E9C00C8EE076A07EE900AF8EEE77AC4ED006ADE
:105EAC0077EEA87AC7EE876AC6ED007AC4ED016A70
:105EBC0000F076F8A0600B4B93E8070085E807002C
:105ECC00284602B0BDEC028BBDE8F081BCE3032098
:105EDC00D4E3032048E4032048E3032060E40320D8
:105EEC004CE40320C0E30320D0E3032000F010B8FF
:105EFC0008B5024B1B689B68019308BD6802030040
:105F0C0008B5024B1B68DB68019308BD68020300EF
:105F1C0008B5024B1B681B68019308BD2C020300DB
:105F2C0008B5024B1B689B68019308BD2C0203004B
:105F3C0008B5024B1B68DB68019308BD2C020300FB
:105F4C0008B5024B1B681B69019308BD2C020300AA
:105F5C0008B5024B1B68DB69019308BD30020300D6
:105F6C0008B5024B1B681B6A019308BD3002030085
:105F7C0008B5024B1B685B68019308BD180203004F
:105F8C0008B5024B1B689B68019308BD18020300FF
:105F9C0008B5024B1B68DB68019308BD18020300AF
:105FAC0008B5024B1B685B69019308BD180203001E
:105FBC0008B5024B1B689B6A019308BD18020300CD
:105FCC0008B5024B1B685B6C019308BD18020300FB
:105FDC0008B5024B1B689B6C019308BD18020300AB
:105FEC0008B5024B1B685B6E019308BD34020300BD
:105FFC0008B5024B1B68DB6E019308BD340203002D
:10600C0008B5024B1B689B68019308BD780203001E
:10601C0008B5024B1B681B69019308BD780203008D
:10602C0008B5024B1B685B6F019308BD7802030037
:10603C0008B5024B1B689B6F019308BD78020300E7
:10604C0008B5024B1B68DB6F019308BD7802030097
:10605C0008B5034B1B68D3F88430019308BD0000CE
:10606C007802030008B5034B1B68D3F898300193F2
:10607C0008BD00007802030008B5034B1B68D3F879
:10608C00F030019308BD00007802030008B5024B04
:10609C001B685B68019308BD4802030008B5024BFE
:1060AC001B689B68019308BD4802030008B5024BAE
:1060BC001B68DB68019308BD4802030008B5024B5E
:1060CC001B681B69019308BD4802030008B5024B0D
:1060DC001B685B69019308BD4802030008B5024BBD
:1060EC001B685B6C019308BD4802030008B5024BAA
:1060FC001B689B6C019308BD4802030008B5024B5A
:10610C001B68DB6C019308BD4802030008B5024B09
:10611C001B685B6D019308BD4802030008B5024B78
:10612C001B68DB6D019308BD4802030008B5024BE8
:10613C001B685B6E019308BD4802030008B5024B57
:10614C001B689B6E019308BD4802030008B5024B07
:10615C001B68DB6E019308BD4802030008B5024BB7
:10616C001B685B69019308BD6402030008B5024B10
:10617C001B681B68019308BD3C02030008B5024B69
:10618C001B689B68019308BD3C02030008B5024BD9
:10619C001B68DB68019308BD3C02030008B5024B89
:1061AC001B681B69019308BD3C02030008B5024B38
:1061BC001B685B69019308BD3C02030008B5024BE8
:1061CC001B689B69019308BD3C02030008B5024B98
:1061DC001B68DB69019308BD3C02030008B5024B48
:1061EC001B681B6A019308BD3C02030008B5024BF7
:1061FC001B689B6A019308BD3C02030008B5024B67
:10620C001B68DB6A019308BD3C02030008B5024B16
:10621C001B681B6A019308BD2802030008B5024BDA
:10622C001B685B6A019308BD2802030008B5024B8A
:10623C001B689B6A019308BD2802030008B5024B3A
:10624C001B68DB6A019308BD2802030008B5024BEA
:10625C001B681B6B019308BD2802030008B5024B99
:10626C001B685B6B019308BD2802030008B5024B49
:10627C001B681B6C019308BD2802030008B5024B78
:10628C001B681B68019308BD4C02030008B5024B48
:10629C001B685B68019308BD4C02030008B5024BF8
:1062AC001B689B68019308BD4C02030008B5024BA8
:1062BC001B681B69019308BD4C02030008B5024B17
:1062CC001B685B69019308BD4C02030008B5024BC7
:1062DC001B689B69019308BD4C02030008B5024B77
:1062EC001B68DB69019308BD4C02030008B5024B27
:1062FC001B681B6A019308BD4C02030008B5024BD6
:10630C001B685B6B019308BD6002030008B5024B70
:10631C001B681B6D019308BD6002030008B5024B9E
:10632C001B685B6D019308BD6002030008B5024B4E
:10633C001B68DB6E019308BD6002030008B5024BBD
:10634C001B681B6F019308BD6002030008B5024B6C
:10635C001B685B68019308BD2002030008B5024B63
:10636C001B685B69019308BD2002030008B5024B52
:10637C001B68DB6A019308BD2002030008B5024BC1
:10638C001B68DB6C019308BD2002030008B5024BAF
:10639C001B685B6D019308BD2002030008B5034B1D
:1063AC001B68D3F88830019308BD0000200203005D
:1063BC0008B5034B1B68D3F89430019308BD00005B
:1063CC002002030008B5024B1B685B68019308BDF3
:1063DC004002030008B5024B1B689B68019308BD83
:1063EC004002030008B5024B1B68DB68019308BD33
:1063FC004002030008B5024B1B681B69019308BDE2
:10640C004002030008B5024B1B685B69019308BD91
:10641C004002030008B5024B1B689B69019308BD41
:10642C004002030008B5024B1B68DB69019308BDF1
:10643C004002030008B5024B1B681B6A019308BDA0
:10644C004002030008B5024B1B681B6B019308BD8F
:10645C004002030008B5024B1B685B6B019308BD3F
:10646C004002030008B5024B1B685B68019308BD32
:10647C004402030008B5024B1B685B69019308BD1D
:10648C004402030008B5024B1B681B6A019308BD4C
:10649C004402030008B5024B1B68DB6B019308BD7B
:1064AC004402030008B5024B1B681B6C019308BD2A
:1064BC004402030008B5024B1B681B68019308BD1E
:1064CC001C02030008B5024B1B685B68019308BDF6
:1064DC001C02030008B5024B1B689B68019308BDA6
:1064EC001C02030008B5024B1B68DB68019308BD56
:1064FC001C02030008B5024B1B68DB69019308BD45
:10650C001C02030008B5024B1B685B6A019308BDB3
:10651C001C02030008B5024B1B68DB6A019308BD23
:10652C001C02030008B5024B1B681B6B019308BDD2
:10653C001C020300002211464068FFF77BBF0022BB
:10654C0011464068FFF786BF00224068FFF77ABF0C
:10655C00002281F001014068FFF764BF00231A4656
:10656C0019464068FFF756BF00231A461946406883
:10657C00FFF748BF002211464068FFF73BBF0022DF
:10658C0011464068FFF726BF002202214068FFF742
:10659C0029BF00231A464068FFF714BF024B0322A1
:1065AC005A60024A1A60704764E40320D0A80D00B8
:1065BC0010B5044601700846FFF7CAFC002363605F
:1065CC00204610BD0078FFF7CBBC10B50446006820
:1065DC0018B1FFF777FF0023236010BD10B50446F8
:1065EC00FFF7F3FF204610BD10B5094C00204FF605
:1065FC00FF732060A080A07120816381FFF7A6FE4D
:10660C002046044A0449BDE8104002F0A5BF00BF73
:10661C006CE403205CE20320E9650D0000230360B9
:10662C0043608360037310B50C6804604C6844606D
:10663C008C6884600B604B608B6010BD10B5044699
:10664C000068FFF73FFF204610BD10B504460068F8
:10665C0008B1FFF737FF00232360A360636010BD10
:10666C0038B504460D4600680131FFF733FF10B111
:10667C0084E82100012038BD10B50368044613B12D
:10668C0043688B4207D22046FFF7EAFF20B1A3688C
:10669C000BB922681370012010BD70B50E4611465F
:1066AC0004461546FFF7E8FF18B92046FFF7CDFF63
:1066BC0009E02A463146A560206803F096FA226864
:1066CC00A3680021D154204670BD38B50023044680
:1066DC0003604360836003730D4639B1084603F0D1
:1066EC0018FB294602462046FFF7D7FF204638BD47
:1066FC00884210B50B46044607D0096819B19A6850
:10670C00FFF7CBFF01E0FFF7A0FF204610BD10B54F
:10671C00002304460360436083600373FFF7E8FFC4
:10672C00204610BD10B58368934206D90468A018A2
:10673C0003F0B2FA08B1001B10BD4FF0FF3010BDD2
:10674C000022FFF7EFBF0000F8B59A420F461D4636
:10675C000C4988BF13461446064684BF2C461D467A
:10676C00FFF7B3FFBA6894420AD83968954294BFD0
:10677C00C4EB0502C4EB020221443046FFF78DFF47
:10678C003046F8BD8FAB0D00006808B103F00CBAB1
:10679C00704770470020704710B51421044602F072
:1067AC00E9FE204610BDFDF772BC10B5044600682A
:1067BC0008B1FFF79BFC204610BD000008B50A206D
:1067CC00024A0021FFF79AFD08BD00BF9D5F0D0036
:1067DC0010B5036804469B689847A368013BA36007
:1067EC002BB923682046DB68BDE81040184710BD64
:1067FC0010B500230370044B04461868FFF77EFCA9
:10680C0001232370204610BD80E4032010B50378CB
:10681C0004461BB1024B1868FFF778FC204610BDEC
:10682C0080E40320002202604260704708B5827940
:10683C008B799A4206D1062203F0C8F9B0FA80F09F
:10684C00400908BD002008BD38B5054601B112B994
:10685C000020286238BD1F2A28BF1F22144603F0CF
:10686C00C4F92C62204638BDF0B58BB10024E51C70
:10687C008D420FD8661C055D875D974205D12E446D
:10688C00B14207D31C60681CF0BD01352C44EEE707
:10689C001846F0BD0020F0BD2DE9F74304460E4626
:1068AC001D461746002A3AD00A4601AB016AFFF78B
:1068BC00DBFF9DF82830226A03BBF8B1961C2E44EE
:1068CC00361A1F2E2BD8DDF8048008F10209C8EB0C
:1068DC000202121A00EB080105EB090092B22144E6
:1068EC00204403F08DF96B1C04F808302A46394615
:1068FC0004EB090003F079F9266210E0901C2B18C8
:10690C001F2B0CD86B1CA3542244206239465670A2
:10691C0020442A4603F069F9226A2A442262206A3A
:10692C0003B0BDE8F0831FB50446034600F11F0217
:10693C00002003F8010B93424FF00001F9D104AA97
:10694C00062302F8013D01232162009120461946DD
:10695C00FFF7A2FF204604B010BD73B515461C46C8
:10696C000A4601AB016A0646FFF77EFF034630F08C
:10697C0002000CD0981E844228BF044635B1019900
:10698C00023122463144284603F02FF9204602B04A
:10699C0070BD10B58369C26903EBC20293421846FD
:1069AC0006D0046824888C4203F10803F6D110BD8C
:1069BC00002010BD10B50A6852F8023F03605368FE
:1069CC00436010BD1FB502680B6812881B889A4281
:1069DC000C460CD101466846FFF7ECFF214602A895
:1069EC00FFF7E8FF02A96846FFF720FF00B9002077
:1069FC0004B010BD10B504463420FDF746FB01462B
:106A0C0068B10023036043608360C360036143612A
:106A1C008361C361036243628362C3620363216067
:106A2C0019B90A4A0A20FFF769FC0020FFF7E8FAB7
:106A3C0020B1064A00210A20FFF760FC00222168E1
:106A4C000348FFF719FB204610BD00BF9D5F0D00EA
:106A5C00C16D0D0010B50A4C2368DB070ED420461F
:106A6C00FDF724FB50B10748FFF7C4FF2046FDF7A4
:106A7C0022FB054A0549034802F06EFD014810BD92
:106A8C007CE4032078E403205CE20320A96B0D0076
:106A9C0008460021FFF7BCBA30B585B00024684623
:106AAC000D46FFF7A5FE0C23214601A80194029484
:106ABC00ADF806300394FFF7BBFA214601A8ADF8F8
:106ACC000C50FFF7ADFA04466846FFF79FFE2046D0
:106ADC0005B030BD30B58BB00D4601A81446FFF79C
:106AEC0087FEB5B1ACB1002202A90D480694029202
:106AFC00039204920792089209920595FFF7A0FA67
:106B0C000028B8BF04460298A8BF079CFFF7DAFC20
:106B1C0000E0044C01A8FFF779FE20460BB030BD15
:106B2C002F6F0D00F2FEFFFF0B68036013B15A6864
:106B3C0001325A60704770B504684368054604EB2F
:106B4C00C306A64204D0201DFDF76EFC0834F8E7FE
:106B5C002868FFF7B7FC284670BD70B50468436819
:106B6C00054604EBC306A64204D0201DFDF75CFCD1
:106B7C000834F8E72868FFF7A5FC284670BD10B567
:106B8C00046904F11800FFF7E8FF04F10C00FFF7AB
:106B9C00D2FF2046BDE81040FDF779BAF8B504687D
:106BAC000746C4B1A569E36905EBC306AE4204D040
:106BBC00281DFDF739FC0835F8E7A069FFF782FCC2
:106BCC0004F10C00FFF7C9FF2046FFF7B4FF342196
:106BDC00204602F0CFFC3846F8BD000073B5002506
:106BEC000560456006462420FDF74FFA044678B14F
:106BFC0003464FF6FF7223F8022BC0F802505D607B
:106C0C008572C572C560056145618561C5610562A6
:106C1C00002314200193FDF738FA034628B1012212
:106C2C0042608260084A0260046102A8726840F8FF
:106C3C00042D73603460FDF7F7FB33680BB9FFF775
:106C4C00BDFD304602B070BD04A90D0038B50C680E
:106C5C0003689C4205460CD014B163680133636031
:106C6C00286828B14368013B43600BB9FFF7B0FDBE
:106C7C002C60284638BD884270B515461AD990420A
:106C8C0019D2A1F10806511A0439151F44182B1FEB
:106C9C009E4225D0042C07D055F8043C44F8043C03
:106CAC0029462046FFF740FF2846FDF7BDFB083D6F
:106CBC00083CECE714D00C1D061D231F9D420FD081
:106CCC00042E07D054F8043C46F8043C21463046C8
:106CDC00FFF72AFF2046FDF7A7FB08340836ECE740
:106CEC0070BD2DE9F041046843680546884604EB05
:106CFC00C307A74218D041462046FFF763FE06465D
:106D0C0008B90834F5E78CB1201DFDF78DFB2B6815
:106D1C006A6804F1080103EBC2022046FFF7ABFFDF
:106D2C006B68013B6B6002E0002600E026463046B3
:106D3C00BDE8F081F7B5044651F8043B4768009371
:106D4C0001A8FFF7F1FE6668A3689E4214DB0136CA
:106D5C00002E0BDDF000FFF7ADFB054618B394E8F1
:106D6C00060001EBC202FFF786FF00E00025206859
:106D7C00FFF7A8FB2560A6602668626806EBC705CE
:106D8C0006EBC202294605F10800FFF774FF35B186
:106D9C00009B46F8373001A9281DFFF7C5FE636834
:106DAC0001336360012501A8FDF73EFB284603B0C3
:106DBC00F0BD00002DE9F04104468EB003A80D464D
:106DCC00FFF716FD2368032B02D0042B42D087E07B
:106DDC0004A8FFF703FF049B22891A8062680499B8
:106DEC0052F8083FC1F802305368C1F8063007A8C2
:106DFC00049B069305A9FFF797FE06A905F1180059
:106E0C00FFF798FF044607A8FDF70EFB2023069317
:106E1C0074B9364B009306AA2346354907943220A1
:106E2C00FFF774FA049B21461888FFF71BF90DE055
:106E3C00304A0092002306AA2D4907930120FFF740
:106E4C0065FA6B6A13B1E96A04A8984705A8FDF7BF
:106E5C00EBFA45E021892846FFF79BFD0746002801
:106E6C003ED00468A369E1694FF6FF72228003EB00
:106E7C00C101994203D053F8080B4280F9E7E66848
:106E8C00236906EBC308B04504D0301DFDF7CCFADE
:106E9C000836F8E700232361A669E36906EBC3080B
:106EAC00B04504D0301DFDF7BFFA0836F8E70023D3
:106EBC00E361A372E372AB6A13B1296B384698474E
:106ECC0020230D4A069300920023094907930120C1
:106EDC0006AAFFF71BFA394605F11800FFF701FF68
:106EEC0003A8FFF793FC0EB0BDE8F0817AA90D0062
:106EFC0018A90D00A0A90D00BDA90D0038B50D1ED7
:106F0C00044606DD542169430068FFF7E3FA20B913
:106F1C0038BD0068FFF7D6FA00202060A56001207C
:106F2C0038BD70B55426C0B0054632460C4601A893
:106F3C00002102F080FE03A8FFF7F5FC0CA8FFF778
:106F4C00F2FC2A4601AB52F8100F5168EA8903C3D0
:106F5C002B78A9688DF854300CA8FFF775FCAA891A
:106F6C00696803A8FFF770FCA5691DB1E16901A868
:106F7C00A8473CE0E06898B163692269934239D232
:106F8C005A1C626106FB0300512201A902F02DFE7E
:106F9C00626923699A422DD32846FFF759F829E0F4
:106FAC00324601A916A802F020FE324616A92BA8DB
:106FBC00656802F01AFEA3689D4204DB691C20463A
:106FCC00FFF79CFFB0B163682268542606FB0525C9
:106FDC0006FB0322521B2946A81902F011FE324669
:106FEC002BA9284602F001FE6368013363606369D4
:106FFC000133636140B070BD10B5064C00232046D0
:10700C002360FFF76BF82046034A0449BDE81040A3
:10701C0002F0A2BA80E403205CE20320B7670D0003
:10702C00F8B506460D468F180024BD420CD03368C7
:10703C0015F8011B9B6830469847002801DB044477
:10704C00F3E7002C08BF04462046F8BD70B5054692
:10705C000C46084649B102F05CFE2B6802462146FC
:10706C002846DB68BDE87040184770BD03689B6814
:10707C00184738B50D210546FFF7F8FF0A210446DD
:10708C002846FFF7F3FF204438BD30B58BB00B46D4
:10709C0000218DF82410012A98BF0A220DF1230437
:1070AC00B3FBF2F505FB123303F0FF03092B94BF7E
:1070BC0030333733DBB2214604F801392B46002D2F
:1070CC00EED1FFF7C3FF0BB030BD0CB42DE9F0438C
:1070DC0087B000AF07F13804054654F8049B3C60B8
:1070EC000E4623464A461421381DFFF70BFA132887
:1070FC0005D8391D2846FFF7A9FF044613E000F117
:10710C00080323F00703E846ADEB030D411C2346AF
:10711C004A4668463C60FFF7F5F969462846FFF792
:10712C0095FF0446C5461EB12846FFF7A2FF04444E
:10713C0020461C37BD46BDE8F04302B0704780685E
:10714C000368DB681847704719B10B6808465B6821
:10715C001847704719B10B6808465B6818477047A9
:10716C0070477047704738B504460D4600682E21AD
:10717C0002F0A0FD2368C31A2B6023B1037803B17E
:10718C00013023682060184638BD10B50C21044628
:10719C0002F0F0F9204610BD10B50421044602F0AF
:1071AC00E9F9204610BD10B50421044602F0E2F9BD
:1071BC00204610BD38B50C46054601F009FC84424A
:1071CC000DD001F0DDFC844205D101F0D9FCBDE805
:1071DC00384001F0CEBC21462846FFF7BBFF38BD36
:1071EC0008B502F071FDB0FA80F0400908BD38B561
:1071FC00054608460C4602F08CFD21460246284600
:10720C00BDE8384002F079B80068FEF777BF70B57A
:10721C00044608460D4602F07CFD236802462946CA
:10722C002046DB68BDE87040184713B502AB026816
:10723C0003F8011DD46819460122A04702B010BD05
:10724C002DE9F04F4568076885B0914614225543E7
:10725C000193AB10194D02925D438B463C460123C2
:10726C00002D039323DD029B6E1003FB06F004EB51
:10727C0000084A46B8F804A02058D14528BF524609
:10728C00594602F04EFD039B48B9D14503D1019AF2
:10729C0013703546E4E78CBF0120002000E0C00FDE
:1072AC000028F6D0AE1B08F11404013EF1E7E41BF4
:1072BC000248A410604305B0BDE8F08FCDCCCCCC17
:1072CC00F0B585B003690191067E13B309B304AF21
:1072DC00002347F8043D00F10C041D46394601A873
:1072EC00FFF741FF0146A0B104AB039A03F8055D1B
:1072FC002046FFF7A5FF9DF80B3053B123681424EB
:10730C0004FB0034083434F9023C002BA8BFDEB275
:10731C00E4E7304605B0F0BD10B5094C2368DB0737
:10732C000BD42046FCF7C2FE38B12046FCF7C3FE56
:10733C00044A0549054802F00FF9044810BD00BF86
:10734C0084E403205CE203206F710D00ECE1032068
:10735C0010B5094C2368DB070BD42046FCF7A6FEBE
:10736C0038B12046FCF7A7FE044A0549054802F04F
:10737C00F3F8044810BD00BFB4E403205CE2032022
:10738C006D710D00E8E1032038B500250446056059
:10739C004560856005614561856140F8245FFEF7B5
:1073AC009DFEFFF7B9FFE061FFF7D2FF2573206266
:1073BC00204638BD10B50A4C2368DB070ED4204696
:1073CC00FCF774FE50B10748FFF7DEFF2046FCF7D0
:1073DC0072FE054A0549034802F0BEF8014810BD8B
:1073EC0088E403208CE403205CE203202B780D005E
:1073FC000023024A02490348FEF7A0BF0D770D0097
:10740C009D760D0025760D0000231A461946184668
:10741C00FEF794BF73B502AC8E6851F8043B44F888
:10742C00083D054601A8FFF77FFB2246314628465A
:10743C0001F09AFF01A8FCF7F7FF284602B070BDD7
:10744C0073B502AC0E6951F8043B44F8083D05468F
:10745C0001A8FFF769FB22463146284601F09FFF41
:10746C0001A8FCF7E1FF284602B070BD73B502AC71
:10747C00CE6851F8043B44F8083D054601A8FFF7D7
:10748C0053FB22463146284601F046FF01A8FCF783
:10749C00CBFF284602B070BD30B58BB00D4601460F
:1074AC0004A8FFF7B7FF04A801F03CFEE8B104A95B
:1074BC006846FFF7DBFF0F490298FFF791FE044681
:1074CC0010B12C1C18BF012401A8FCF7ADFF002C37
:1074DC00E9D004A96846FFF7B3FF684601F002FE45
:1074EC00286001A8FCF7A0FFDDE705A8FCF79CFFCE
:1074FC000BB030BDE8AA0D0037B50C462046134939
:10750C00154602F0E1FB40B901F062FA4FF4165156
:10751C0001F04EFA01F05CFA15E00D49204602F03C
:10752C00D3FB78B902A94FF4165341F8043D284611
:10753C00FFF7B2FF01F024FB019901F017FB01F0FA
:10754C001FFB00E0002003B030BD00BFEDAA0D0012
:10755C00F4AA0D0070B5046843681426054606FBB2
:10756C000346A64205D004F10800FFF7F3FF1434DC
:10757C00F7E72868FEF7A6FF284670BD70B50468CB
:10758C004368054604EB0316A64204D02046FFF7D9
:10759C0055F81034F8E72868FEF794FF284670BDBC
:1075AC0010B504460C30FFF7D5FF2046FFF7E6FF79
:1075BC00204610BD10B5044B044640F8043BFFF7C1
:1075CC00EFFF204610BD00BFD8A00D0010B504463B
:1075DC00FFF7F0FF2046242101F0CCFF204610BD20
:1075EC0010B5034B03600446FFF7E4FF204610BDC3
:1075FC00D8AA0D0010B50446FFF7F2FF204624214F
:10760C0001F0B8FF204610BD10B503680446186899
:10761C00FEF77CFD204610BD2DE9F04F9B461B4B21
:10762C005B68C3F3080385B082460E46904653BB95
:10763C00FFF7C0FE044624300390FFF7E5FD237BE3
:10764C00F3B90123237325686368F6B205EB83094C
:10765C004D4513D055F8047B4146381DFFF730FEDD
:10766C008642F5D33B68CDF800B09B689E46384601
:10767C004346324651467746B847E9E70023237321
:10768C0003A8FFF7C1FF05B0BDE8F08F00ED00E0E7
:10769C002DE9F74F9946194B5B68C3F3080307466E
:1076AC008846164633BBFFF785FE0446243001900E
:1076BC00FFF7AAFD237BD3B90123237325686368E5
:1076CC005FFA86FB05EB830A55450ED055F8046B23
:1076DC004946301DFFF7F4FD8345F5D33368424628
:1076EC00DB68394630469847EEE70023237301A840
:1076FC00FFF78AFF03B0BDE8F08F00BF00ED00E09C
:10770C002DE9F341154B5B68C3F308030446884627
:10771C00FBB9FFF74FFE064624300190FFF774FDCE
:10772C0096E8A000462605EB8707AF4207D101A8D3
:10773C00FFF76AFFB442B4BF002001200AE055F8FD
:10774C00040B41460430FFF7BBFD8642A8BF06463A
:10775C00EBE7002002B0BDE8F08100BF00ED00E0D7
:10776C0070B503684268044603EB82029A421846DD
:10777C000ED006680D68AE4203F10403F6D1011D6C
:10778C00521A02F03DFA6368013B6360012070BD40
:10779C00002070BD1FB50446243001910390FFF703
:1077AC0033FD01A92046FFF7DBFF20B903A8FFF743
:1077BC002BFF04B010BD6368002BF7D1FFF724FE3C
:1077CC00F4E770B5056943691826044606FB0356B1
:1077DC00AE4215D005F110012046FFF7C1FF6368DA
:1077EC000BB9FFF711FEE06929690368DB6898475C
:1077FC00696919B1206A0368DB6898471835E7E7AF
:10780C0025696369182606FB0356B54204D0284641
:10781C00FEF714FF1835F8E70023636170BD73B5EC
:10782C00044602ADFFF7F0FD04F1240045F8040D09
:10783C00FFF7EAFC2046FFF7C4FF2846FFF7E4FEFB
:10784C00606A08B1FEF752FC25696369182606FBCD
:10785C000356B54204D02846FEF7F0FE1835F8E77B
:10786C002069FEF72FFE2068FEF72CFE204602B0A2
:10787C0070BD03680A6802600B6043684A68426026
:10788C004B6083688A6882608B60704710B50023F8
:10789C000446036043608360FFF7EBFF204610BD96
:1078AC008842F8B50446164625D9904224D2551A7A
:1078BC00143D2C44A1F11407A2F10C050026A5F1EE
:1078CC0008039F4237D084B155F8083C236035F843
:1078DC00043CA38035F9023CE380A660E660266197
:1078EC00294604F10800FFF7C4FF2846FFF732FED3
:1078FC00143C143DE3E71ED001F108050027A5F167
:10790C0008039E4217D084B155F8083C236035F823
:10791C00043CA38035F9023CE380A760E760276153
:10792C00294604F10800FFF7A4FF2846FFF712FED2
:10793C0014341435E3E7F8BDF8B5456883689D4207
:10794C0004460E4617460EDB0135002D05DDA90059
:10795C000068FEF7BFFD20B9F8BD0068FEF7B2FD68
:10796C0000202060A5602568626805EB860105EBA8
:10797C008202521A081D02F043F945F8267063681A
:10798C00013363600120F8BD37B5044624300D4641
:10799C000190FFF739FC2368616803EB8100834297
:1079AC001A4609D01268AA4203F10403F7D101A8C0
:1079BC00FFF72AFE00250EE02A462046FFF7BCFF03
:1079CC0005460028F3D06368012B01D1FFF710FDA9
:1079DC0001A8FFF719FE284603B030BD8842F8B560
:1079EC0006460C46154614D9904213D2A2F1100546
:1079FC006C1AA1F110070444AF4218D01CB12946EF
:107A0C002046FEF70BFE2846FEF718FE103D103CF4
:107A1C00F2E70CD0AC420AD01EB121463046FEF73C
:107A2C00FDFD2046FEF70AFE10341036F2E7F8BDD5
:107A3C0070B50E1E05460BDD3001FEF73BFD04460E
:107A4C0070B195E8060001EB0212FFF7C7FF00E0EA
:107A5C0000242868FEF736FD2C60AE60012070BD56
:107A6C0070BD2DE9F04F002395B09246462203607D
:107A7C0043608360C3600361436102760291DAF86C
:107A8C00041008939942054609930A9340F39D808C
:107A9C0008A8FFF7CDFF002840F097808EE0214624
:107AAC000BA8FEF7BBFD0BA90FA8099EFEF7B6FDB0
:107ABC0009990A9B9942C0F2CE80013108A8FFF7C0
:107ACC00B7FF002840F0C7800FA8FEF7B7FD0BA842
:107ADC00FEF7B4FD1434A742E1D100260B960C96A8
:107AEC000D96B146099B9E4280F2A8803301089AFC
:107AFC00D3580693002B00F09F8014237343CDF8CA
:107B0C001C9001930BAC07A906A8FFF72CFB0746AA
:107B1C00002800F0918014AB014603F8399D079AB8
:107B2C002046FFF78DFB9DF817800090B8F1000FF1
:107B3C0053D1BDF81C30ADF840304FF6FF730F97A2
:107B4C00ADF84230CDF84480CDF84880CDF84C806B
:107B5C006768A3689F424FDA009BD4F800B0616855
:107B6C00142253430BEB030702FB01B207F1140081
:107B7C0039460393FFF794FEA7B1039B0F9A4BF87A
:107B8C000320BDF84030BB80BDF94230FB80C7F804
:107B9C000890C7F80C90C7F8109011A907F10800CD
:107BAC00FFF767FE63680133636011A8FFF7D2FC2F
:107BBC00B8F1000F11D00BA8FFF7CCFC08A8FFF709
:107BCC00DDFC284615B0BDE8F08FDAF80040DAF895
:107BDC000430142707FB03477DE72368009A14241D
:107BEC0004FB0234069B1B7823BBDAF80030019AA5
:107BFC0013441B7CE3801DE00137002F0FDD1423A1
:107C0C0003FB07F00393FEF755FC834678B194E829
:107C1C000600039B03FB0212FFF742FE00E0C34683
:107C2C002068FEF74FFCC4F800B0A76094E74FF053
:107C3C000108BAE7083466E7013653E708A9284675
:107C4C00FFF717FE0BA905F10C00FFF712FE9DF8CC
:107C5C0008302B76AFE7089B099A03EB061603EB6B
:107C6C000212314606F11000FFF7B8FE1EB10FA943
:107C7C003046FEF7D3FC099B0133099324E700003F
:107C8C007FB50446094B44F8043B05460E4601A853
:107C9C001146FCF740FD01AA31462046FFF7E1FEF4
:107CAC0001A8FCF7F7FC284604B070BDD8A00D0065
:107CBC00F0B50F468BB02B49109C384616461D4626
:107CCC0002F002F828BB002C49D0294601A8FFF786
:107CDC00DDFD2549242001F051FC0546B8B101A970
:107CEC0004A8FFF7D3FD04A907A8FCF714FD07AA05
:107CFC0031462846FFF7C4FF07A8FCF7CBFC1B4B0B
:107D0C002B602C6204A8FCF7C5FC194B2B6001A856
:107D1C001FE01849384601F0D7FFF0B9FCB12946ED
:107D2C0004A8FFF7B3FD1049242001F027FC0546F9
:107D3C0070B104A907A8FCF7EEFC07AA3146284647
:107D4C00FFF79EFF07A8FCF7A5FC084B2B602C62E5
:107D5C0004A8FCF79FFC284602E0002000E0204627
:107D6C000BB0F0BD46AB0D00CEAD0D00D0AB0D0091
:107D7C00D8AA0D004AAB0D00014B024A1A6070479D
:107D8C00B8E403205BAB0D002DE9F047089DD0F85B
:107D9C00209004460E461746984600F019FE814581
:107DAC0005D15A4801F06FF8002840F0AC802B79CF
:107DBC001B0705D56B69564A206A0021FFF785F928
:107DCC00B8F1000F0DD05B212046FFF72EFA41468B
:107DDC002046FFF71CFA23684E49DB680222204636
:107DEC0098472B79D90725D5D5F808802F214046FF
:107DFC0001F0ACFF08B100F1010841462046FFF745
:107E0C0006FA2B799A0709D53A212046FFF70DFA85
:107E1C00EB68414A206A0021FFF757F92B7913F0E0
:107E2C00040F236818BF3D49DB6808BF3C49022298
:107E3C00204698472B795B0718D529690A461346C3
:107E4C0013F8010B38B1202801D1194601E028287C
:107E5C0001D01A46F3E72368521ADB68204698478C
:107E6C0023683049DB6804222046984700213846B5
:107E7C00FEF75CFA01462046FFF7C9F9236828494A
:107E8C00DB680222204698471EB131462046FFF798
:107E9C00BEF92B7913F0300F2DD023682249DB6803
:107EAC002046022298472B79D8060BD523681F4908
:107EBC00DB68072220469847AB691D4A206A0021DF
:107ECC00FFF703F92B79990611D5DA0605D5236846
:107EDC001249DB6802222046984723681549DB6863
:107EEC0020460A229847E9692046FFF790F95D2160
:107EFC002046FFF79AF923680F49DB6820460222D7
:107F0C00BDE8F0471847BDE8F08700BF14E7032031
:107F1C005FAB0D0066AB0D0069AB0D006CAB0D00DB
:107F2C0071AB0D006FAB0D0074AB0D0077AB0D009A
:107F3C007FAB0D0082AB0D008DAB0D002DE9F04336
:107F4C0085B0D0F820800C9C06460F4691461D4605
:107F5C0000F03EFD804505D14A4800F094FF002812
:107F6C0040F08C80336A484A01924FF0000801A817
:107F7C0003938DF8088001F014F941464846FEF74A
:107F8C00D5F942498046012201A801F0A7F94146E2
:107F9C00FFF72DF93FB13E49012201A801F09EF9EE
:107FAC003946FFF724F93DB13A49012201A801F005
:107FBC0095F92946FFF71BF92379DF070ED5A5683C
:107FCC002F21284601F0C2FE00B1451C3249012286
:107FDC0001A801F083F92946FFF709F923799D07D8
:107FEC0007D52E49022201A801F078F9E16801F0C9
:107FFC00FDF82379580716D525692F463B4613F80B
:10800C00012B3AB1202A01D11D4601E0282A01D0CA
:10801C001F46F3E70222224901A801F05FF97A1BFF
:10802C00294601F06AF92379190707D51D49012260
:10803C0001A801F053F9616901F0EAF82379DA0635
:10804C0008D5042218490DEB020001F047F9A1698B
:10805C0001F0CCF823799B0607D51449062201A818
:10806C0001F03CF9E169FFF7C2F801A801F077F8DB
:10807C00306A0F4903680222DB68984705B0BDE8F7
:10808C00F08300BF14E70320C0AA0D00F2AA0D0074
:10809C0005AB0D00C1AB0D006EA40D0090AB0D0037
:1080AC0093AB0D00D5A30D0096AB0D009BAB0D0053
:1080BC008DAB0D00024B1A68024B1A60704700BF63
:1080CC00F0E10320BCE403200021FEF747B910B512
:1080DC008368044613B1032201469847204610BD1D
:1080EC0010B50446FFF7F3FF204610BD13B50B4641
:1080FC00044603C88DE8030093E8030084E80300FA
:10810C009DE8030083E8030002B010BD0348044A55
:10811C0004490023836001F01FBA00BFC0E40320B0
:10812C005CE20320ED800D0008B50C4B33B100F080
:10813C004FFC03681B699847002809DC084B63B1A6
:10814C0000F01EFD03681B699847002803DC08BD7E
:10815C00AFF30080F2E7AFF3008008BD0000000031
:10816C000000000008B5FFF7DFFFFDF719FF014B1A
:10817C00186008BD28E703200248034A0349121A75
:10818C0001F033BD00F4032004F4032080AF0D0094
:10819C0007B5002300931A466FF07701FEF708F934
:1081AC0003B05DF804FB000007B543880A2B08D028
:1081BC00502B09D1094B1B683BB103B05DF804EBA4
:1081CC001847FFF7E5FF06E0002300931A466FF00F
:1081DC007701FEF7EDF803B05DF804FBD0E4032063
:1081EC0038B5104C104D2368AB42104B0CBF01221C
:1081FC0000221A7002D0FFF7BFFF2560FDF7B8FE12
:10820C00044601F021FD0A4B13B12046AFF3008068
:10821C0000210748FEF73EF900210648BDE838402A
:10822C00FEF7BCB800F403201E1C279AD4E40320EC
:10823C0000000000B5810D0070470020704710B59C
:10824C001021044601F096F9204610BD08B508B17E
:10825C00FFF7F5FF08BD0022026010B54FF69C72C7
:10826C008280B1F9044084808A8002680C680460C2
:10827C000A6010BD10B504460068FEF723F92046CD
:10828C0010BD38B5C468F4B12378022B03D104F1C6
:10829C000C00FFF7EFFF656835B12846FFF717FFB5
:1082AC001021284601F066F9A56835B12846FFF77C
:1082BC000EFF1021284601F05DF920461421BDE87F
:1082CC00384001F057B938BD10B588B0044668463F
:1082DC00FEF7FBF9694604A8FEF719FA04A8A047B3
:1082EC00044604A8FEF7AAF96846FEF7A7F920464B
:1082FC0008B010BDF0B5102485B007460E461546E3
:10830C0000212246684601F096FC00226946104680
:10831C00ADF80040029703960195FEF7A3F805B05F
:10832C00F0BD08460021FEF7BDB813B5044691E830
:10833C00050000234B600B602060626001A8019374
:10834C000093FCF771F8204602B010BDF7B50C464F
:10835C0002AD54F8043B45F8083D06460F4601A80B
:10836C002146FEF7E1FB29463046FFF7DEFF01A868
:10837C00FCF75AF82046FCF757F83846082101F06C
:10838C00F9F8304603B0F0BD38B50023044603605D
:10839C0010200D46FBF779FE28B101234360836062
:1083AC00024B0360C5602060204638BD44AC0D0014
:1083BC00826810B50AB901F0F3F8C368BDE8104043
:1083CC00184708B5006800F11001FFF7F1FF08BD70
:1083DC00826810B50AB901F0E3F8C368BDE8104033
:1083EC00184708B5006800F11001FFF7F1FF08BD50
:1083FC0038B5002383608B6804460D462BB10222EE
:10840C009847EB68E360AB68A360204638BD00007A
:10841C00F0B589B004686846FFF71DFF00238DF89E
:10842C0008304FF00202D4E84F3F002B03D1C4E8D0
:10843C00412F0029F7D102D08DF8083063E014F1F8
:10844C000C0503D069462846FFF705FFBFF35F8F85
:10845C0001236370002004F10803BFF35F8F53E81E
:10846C00006F43E80002002AF9D1BFF35F8F002EA2
:10847C0049D0FDF783FF20B129463046FFF798FF1E
:10848C003AE0314602A8FFF7B3FFE068B4F91050A8
:10849C0008B101F023FC06901020ADF81C50FBF73E
:1084AC00F4FD0546E8B1002787601820FBF7EDFDC9
:1084BC00044688B10146876002A8FFF717FE049BAB
:1084CC00A268A360059B049206A9E268E36004F12C
:1084DC0010000592FFF7BFFE0D4BEB600D4B2C60AF
:1084EC00AB6006A8FFF7C6FE02A8FFF7F0FD00225E
:1084FC0029460948FDF74AFF3046FFF7E8FD1021F1
:10850C00304601F037F86846FFF7B4FE09B0F0BD0D
:10851C00CF830D0045860D000D8C0D002DE9F04F1D
:10852C008BB006460F46904699469DF850A0FDF735
:10853C00A1FF07AD834630BB4FF62E73059005A9FE
:10854C002846ADF81830FFF786FE1420FBF79DFD8A
:10855C00044658B10223037001234370C0F804B0E1
:10856C00C0F808B029460C30FFF775FE304621469E
:10857C0040F8044BFFF708FF2846FFF77BFE05A8E1
:10858C00FFF778FE52E000240C2314206C60AC60E2
:10859C000793FBF77AFD014618B1047044704460F0
:1085AC00846004A80391FFF7EFFE224B0893082088
:1085BC00FBF76BFD044628B1039B40F8043B04A970
:1085CC00FEF7B2FA00955FFA8AF34A4641463846FE
:1085DC000994FDF757FF20B9039B5B7803F0FF026A
:1085EC0083B1039B059304A906A8FEF79DFA05A980
:1085FC003046FFF79AFE06A8FBF716FF04A8FBF718
:10860C0013FF13E04FF69C7305A903A80592ADF870
:10861C001830FFF7FDFE05A8FFF72CFE05A80999F9
:10862C00FFF794FE06A8FBF7FFFEDAE730460BB027
:10863C00BDE8F08FB5870D00022AF8B5044606D0C8
:10864C00032A17D0012A22D10B6803601FE01820DF
:10865C000E68FBF71AFD054650B13146FFF7C8FE10
:10866C003069B6F9147008B101F038FB2861AF829B
:10867C0025600CE0046854B104F11000FFF7FAFD1A
:10868C002046FFF724FD1821204600F073FF002040
:10869C00F8BD38B5002383608B6804460D462BB1BA
:1086AC0002229847EB68E360AB68A360204638BDB4
:1086BC00022A70B5044606D0032A11D0012A18D11B
:1086CC000B68036015E014200E68FBF7DEFC054612
:1086DC0020B13146FFF7DDFF337C2B74256008E0B9
:1086EC00046834B12046FFF7F2FC1421204600F058
:1086FC0041FF002070BD0000F0B5002387B00C4690
:10870C00BFF35F8F50E8006F40E80032002AF9D1C8
:10871C00BFF35F8F002E3FD01846FDF72FFE0746A4
:10872C0020B121463046FFF753FE2EE0314601A81A
:10873C00FFF7AFFF23788DF814301020FBF7A5FC62
:10874C000546D0B187601420FBF79FFC044678B136
:10875C008760014601A8FFF7C9FC039BA268A360D0
:10876C00049B0392E268E3609DF814300492237436
:10877C000A4BEB600A4B2C60AB6001A8FFF7A7FC1F
:10878C00002229460748FDF701FE3046FFF79FFC03
:10879C001021304600F0EEFE07B0F0BDEF830D0067
:1087AC00BD860D000D8C0D0030B585B004460D4610
:1087BC0068461146FFF7CAFD7CB124B228460DB1BC
:1087CC0001F08CFA029002A96846ADF80C40FFF754
:1087DC001FFE02A8FFF74EFD1DE000988DF8084023
:1087EC004FF00102D0E84F3FA34203D1C0E8412F24
:1087FC000029F7D102D08DF808300CE010F10C01F3
:10880C004FF0010318BF0373BFF35F8F043000F800
:10881C00033CFFF771FF01A8FBF706FE05B030BD66
:10882C00704710B51821044600F0A4FE204610BD78
:10883C00F0B5037D062B8DB00E4600F104074FF00A
:10884C00000402D000F1080518E00CAD394605F81B
:10885C00304D2F232A460A20FDF780FC284601F0D4
:10886C0058FA33680246DB682946304698470FE0D1
:10887C0024B12E213046FEF7F9FB044415F8011DF6
:10888C000A223046FEF701FCBD420444F0D12046DA
:10889C000DB0F0BD10B5054B0446112240F8043B59
:1088AC00002101F0C8F9204610BD00BF60AC0D00DE
:1088BC000346074A10B543F8042B01F1100251F896
:1088CC00044B43F8044B9142F9D10A781A7010BD4D
:1088DC0060AC0D0010B59DF8084044EA032343EA50
:1088EC00024242EA016104234160037510BD37B5B1
:1088FC000D788B784A78C97800912946FFF7EAFF02
:10890C0003B030BD41747047704708B50021007C3E
:10891C00FDF7DCFC30EA200028BF4FF0FF3008BD2B
:10892C0008B50121007CFDF7D1FC30EA200028BFFE
:10893C004FF0FF3008BD08B5007CFDF7BFFC20EA06
:10894C00E07008BD08B5007CFDF7B0FC20EAE070D3
:10895C0008BD007CFDF7CABC10B51421044600F01C
:10896C0009FE204610BD38B50446007C0D46FDF7C7
:10897C00A5FC002801DC607C28B12946207CFDF791
:10898C00ADFC20EAE07038BD10B5044600236360EE
:10899C004FF47A73A360054B2360012308462174BE
:1089AC0063741146FDF76AFC204610BD74AC0D00D3
:1089BC000022007CFDF76ABC007CFDF76FBC10B593
:1089CC0014220446002101F036F9204610BD0000A7
:1089DC0030B50E4D87B001A8FFF7F1FF296811F0F3
:1089EC00010410D12846FBF761FB60B101AA2146B6
:1089FC000748FFF7C9FF2846FBF75DFB054A064908
:108A0C00034800F0A9FD024807B030BDD8E40320AC
:108A1C00DCE403205CE2032015890D0000221146E2
:108A2C004068FDF7E7BC002211464068FDF702BD27
:108A3C00002211464068FDF70DBD00224068FDF78D
:108A4C0001BD002281F001014068FDF7EBBC002361
:108A5C001A4619464068FDF7DDBC00231A46194634
:108A6C004068FDF7CFBC002211464068FDF7B2BC50
:108A7C00002202214068FDF7B5BC00231A4640686D
:108A8C00FDF7A0BC38B5084C28252A460021204605
:108A9C0001F0D1F84FF0FF336360044B25800422C2
:108AAC005A60034A1A6038BDF8E40320F0E403204E
:108ABC00A4AC0D0070474174704708B5007CFDF7FD
:108ACC0095FB20EAE07008BD08B5007CFDF766FB5D
:108ADC0020EAE07008BD08B5007CFDF76FFB30EABA
:108AEC00200028BF4FF0FF3008BD08B5007CFDF713
:108AFC005DFB30EA200028BF4FF0FF3008BD007C42
:108B0C00FDF764BB10B51421044600F033FD20467C
:108B1C0010BD70B5457C04460E4625B9007CFDF7AA
:108B2C0065FB002805DD3146207CBDE87040FDF773
:108B3C002DBB284670BD000010B5044608461146F2
:108B4C00002262604FF47A72A260054A2260012210
:108B5C00207462741A46FDF709FB204610BD00BF55
:108B6C00D8AC0D000023007CFDF748BB0022FFF7BA
:108B7C00F9BF007CFDF702BB007CFDF72FBB0000AA
:108B8C00F8B5194C25684DB98420FBF77EFA0646DA
:108B9C0018B18422294601F04EF82660134D2E6838
:108BAC004EB98420FBF771FA074618B1842231467E
:108BBC0001F041F82F600E4F396811F0010611D108
:108BCC003846FBF773FA68B122682B6809483146BE
:108BDC00FFF7B2FF3846FBF76EFA074A074905481C
:108BEC0000F0BAFC0348F8BD3CE5032034E5032053
:108BFC0038E5032020E503205CE20320C18A0D0048
:108C0C0010B5836804460BB900F0CAFCC3689847DA
:108C1C00A3681BB103222146204698472046102109
:108C2C00BDE8104000F0A6BC7047F8B506461546E6
:108C3C000C468F18BC4206D0336814F8011B9B6895
:108C4C0030469847F6E72846F8BD0022007CFDF731
:108C5C00DDBA0021007CFDF7E1BA0021007CFDF7B4
:108C6C00E5BA0021007CFDF7E9BA0021007CFDF794
:108C7C00EDBA10B51421044600F07CFC204610BD62
:108C8C0010B50446002363604FF47A73A360044B61
:108C9C002174084623601146FDF7E8FA204610BD02
:108CAC0008AD0D000021007CFDF7D8BA002211465A
:108CBC004068FDF7BFBB002211464068FDF7CABBF8
:108CCC0000224068FDF7BEBB002281F00101406824
:108CDC00FDF7A8BB00231A4601214068FDF79ABB9B
:108CEC0000231A4619464068FDF78CBB002211463A
:108CFC004068FDF77FBB002211464068FDF76ABB58
:108D0C00002202214068FDF76DBB00231A46406823
:108D1C00FDF758BB38B5054688B104684CB1A3685B
:108D2C001BB103222146204698471021204600F013
:108D3C0021FC28461421BDE8384000F01BBC38BD8E
:108D4C0010B103685B681847704710B50368044698
:108D5C00BBB15868FDF7A2F978B923685A7C12B9EF
:108D6C005868FDF7ABF923685868FDF7AFF9206830
:108D7C000023236028B1FFF7CDFF206808B1FFF76F
:108D8C00C9FF204610BD38B50446D0F8C40108B15F
:108D9C00FBF77FF9D4F8C00108B1FDF7A7F9D4F8B7
:108DAC00BC5135B12846FFF7D0FF0421284600F00E
:108DBC00E1FB206808B1FFF7C3FF204638BD000077
:108DCC0010B5044B044640F8083BFFF7DCFF204687
:108DDC0010BD00BF30AD0D0038B50E4C0E4B2360EE
:108DEC000025022304F5E4706360A560C4F8C45147
:108DFC00C4F8C851FDF772F9084BC4F8CC5184F88B
:108E0C00D05123602046064A0649BDE8384000F0A0
:108E1C00A3BB00BF40E5032064AD0D0030AD0D00D9
:108E2C005CE20320CD8D0D0000231A464068FDF74F
:108E3C00C9BA002202214068FDF7D4BA00221146BB
:108E4C004068FDF7C7BA002211464068FDF7D2BA58
:108E5C0000231A4619464068FDF7D4BA00231A4677
:108E6C0019464068FDF7D6BA002281F0010140682E
:108E7C00FDF7D8BA00224068FDF7E4BA002211468B
:108E8C004068FDF7E7BA002211464068FDF7D2BAF8
:108E9C002DE9F043002495B016460D460746FFF722
:108EAC00F9FC214620220CA8009400F0C4FE4023BB
:108EBC000C9321466B460CAA3046FDF721F804466C
:108ECC00002844D1024601216868FDF793FA02217B
:108EDC00804622466868FDF78DFA009E8146214641
:108EEC00002E34D0002932D17368022B02D00A2B09
:108EFC0009D02AE0B8F1000F27D071693846043147
:108F0C00FFF7F5FC20E0B9F1000F1ED074691122B7
:108F1C0001A800F090FE06238DF8143001AD04F189
:108F2C0008031834186859682A4603C20833A34248
:108F3C001546F7D101A906A807ADFFF7B9FC0FCD6F
:108F4C003C1D0FC42B6823700121F669C8E70098FB
:108F5C00FCF7CEFF384615B0BDE8F083024B034A50
:108F6C001A6000225A60704714E7032064AD0D00AC
:108F7C0000F11002012312F8101C0129104604D133
:108F8C0052F8041C03EB410304E0022904BF52F81D
:108F9C00041C5B18013B02F11002ECD170477047C6
:108FAC0010B51421044600F0E5FA204610BD38B582
:108FBC0015460369C2689342044607D2D21A8068E8
:108FCC00AA4228BF2A46184400F00FFE23691D440C
:108FDC00256138BD0EB417B505AB044653F8042B08
:108FEC0001690193E36880689942084434BF591AB7
:108FFC000021019BFDF786FA23691844206103B018
:10900C00BDE8104003B070470EB42DE9F04187B0B5
:10901C0000AF07F13404054654F8046B7C6023461A
:10902C003246102107F10800FDF76CFA0F2816D90B
:10903C0000F1080323F00703E846ADEB030D3246BD
:10904C00411C234668467C60FDF75CFA021E04DD79
:10905C002B6869469B6828469847C54607E030B19F
:10906C002B6802469B6807F10801284698471C3775
:10907C00BD46BDE8F04103B0704713B502AB0268C2
:10908C0003F8011D946819460122A04702B010BDD7
:10909C008368FBB11A78032A1AD8DFE802F00417A8
:1090AC00021D0520704702685B685268D05C2D2851
:1090BC0014D0A0F13003092B10D9742810D06628D5
:1090CC000ED0A0F16E0358425841704706207047ED
:1090DC0000207047184670470420704703207047E3
:1090EC000220704710B50446FFF7D2FF02280DD0BE
:1090FC0016D3042814D82268A36850685B680A2227
:10910C0000211844BDE8104000F0BABE2268A368E4
:10911C0052685B68D05CA0F174035842584110BD92
:10912C00002010BD10B5436904465BB18068E06057
:10913C00013B1030A060206163612BB1FFF718FF79
:10914C00A06001E0184610BD012010BD10B55D21D6
:10915C000446FFF792FF01232371204610BD10B582
:10916C007D210446FFF789FF01232371204610BDA2
:10917C0008B50379012B02D0022B02D008BD2C219B
:10918C0000E03A21FFF779FF08BD10B50446FFF760
:10919C00EFFF20465B21FFF770FF00232371204671
:1091AC0010BD10B50446FFF7E3FF20467B21FFF707
:1091BC0064FF00232371204610BD000038B504461F
:1091CC000D46FFF7D5FF23689B6815B104220549AE
:1091DC0001E00549052220469847012323712046CA
:1091EC0038BD00BFB2AD0D00ACAD0D0038B50446B6
:1091FC000D46FFF7BDFF23680449DB6820462A466D
:10920C00984701232371204638BD00BF69AB0D0080
:10921C0038B504460D46FFF7ABFF23680449DB68FD
:10922C0020462A46984701232371204638BD00BFAB
:10923C00B7AD0D00F8B50D461746222104462F4454
:10924C00FFF71BFF2A462946BA4238D0164616F8B5
:10925C00015B222D03D05C2D01D01F2D2DD823684E
:10926C00521A9B68204698475C212046FFF705FF61
:10927C000C2D19D007D8092D0FD00A2D12D0082D7E
:10928C0014D162210AE0222D05D05C2D03D00D2DC6
:10929C000CD1722102E0294600E074212046FFF730
:1092AC00ECFE09E06E21F9E76621F7E723680A492D
:1092BC00DB682A462046984731463246C4E791423D
:1092CC0004D02368521A9D682046A84722212046C4
:1092DC00FFF7D3FEF8BD00BFC8AD0D0070B5044656
:1092EC000D461646FFF744FF204632462946FFF747
:1092FC00A1FF02232371204670BD70B504460D46B4
:10930C001646FFF735FF204632462946FFF792FFF7
:10931C0001232371204670BD10B500230446036061
:10932C0043601048A060E360D1B10B78032B06D0EA
:10933C00B3B9136858684B68C35C6E2B08D01368BC
:10934C0058684B680344A3608B6849685B1AE360F8
:10935C001146204651F8043B40F8043BFDF776FCDF
:10936C00204610BD8FAB0D00002310B504460360E2
:10937C0043608360C3600361436171B10B78012B5F
:10938C000BD101F110038360CB684361114651F896
:10939C00043B40F8043BFDF759FC204610BD00236C
:1093AC0010B5044603604360816031B1114651F839
:1093BC00043B40F8043BFDF749FC204610BD00007F
:1093CC0008B5024B1B681B68019308BD5C020300C7
:1093DC0008B5024B1B685B68019308BD5C02030077
:1093EC0008B5024B1B689B68019308BD5C02030027
:1093FC0070B5184E316811F0010504460AD130469B
:10940C00FAF754FE30B129461348FDF7D1F830462F
:10941C00FAF751FE1048FDF7D5F828B1A4F10B036B
:10942C00022B01D8002070BD00F070F8FFF73AFC59
:10943C0008B1012CF6D9FFF7A3FBFFF79DFB18B180
:10944C00A4F10903012BEDD9232C8CBF00200120A2
:10945C0070BD00BF1CE7032020E70320232838B58C
:10946C0004460D460AD8FF2908D0FFF7C1FF28B1E2
:10947C0029462046BDE83840FCF752BD38BD38B50A
:10948C0004460D46FCF754FDFF2810D0062804D8DE
:10949C004D2323FA00F0C30709D42046FFF7A8FF99
:1094AC0028B129462046BDE83840FCF749BD38BDF7
:1094BC0010B5074C2368DB0708D42046FAF7F6FDF5
:1094CC0020B1FCF775FD2046FAF7F5FD014810BDFB
:1094DC002CE7032030E7032070B5044614252A46F8
:1094EC00094E002100F0A7FB258020253146A56000
:1094FC002561284600F040F831466060284600F0AF
:10950C003BF8E060204670BDCEAD0D0030B50E4D81
:10951C00296811F0010487B013D12846FAF7C6FD6B
:10952C0078B101A8FFF7D8FF01AA21460748FFF739
:10953C00A7FB2846FAF7BFFD054A0649034800F089
:10954C000BF8024807B030BD34E7032038E703209E
:10955C005CE20320358C0D000B460146184600F0EA
:10956C0027BB0000024B1868BFF35F8F704700BF2A
:10957C004CE70320FAF78BBD00F000B810B50028BB
:10958C0014BF044601242046FCF794FF20B9FFF7D2
:10959C00E9FF08B18047F6E710BD08B5FCF7BAFF44
:1095AC0008B5FCF7B7FF0000184B1A68D1075CBF71
:1095BC0001221A60164B1A68D2075CBF01221A608E
:1095CC00144B1A68D0075CBF01221A60124B1A6840
:1095DC00D1075CBF01221A60104B1A68D2075CBF1E
:1095EC0001221A600E4B1A68D0075CBF01221A6068
:1095FC000C4B1A68D1075CBF01221A600A4B1A681F
:10960C00D2075CBF01221A60704700BF6CE70320D1
:10961C0068E7032064E7032060E703205CE703208E
:10962C0058E7032054E7032050E70320244B1A6823
:10963C00D0075CBF01221A60224B1A68D1075CBFAD
:10964C0001221A60204B1A68D2075CBF01221A60F3
:10965C001E4B1A68D0075CBF01221A601C4B1A689B
:10966C00D1075CBF01221A601A4B1A68D2075CBF83
:10967C0001221A60184B1A68D0075CBF01221A60CD
:10968C00164B1A68D1075CBF01221A60144B1A687A
:10969C00D2075CBF01221A60124B1A68D0075CBF5C
:1096AC0001221A60104B1A68D1075CBF01221A60A4
:1096BC000E4B1A68D2075CBF01221A60704700BFBC
:1096CC009CE7032098E7032094E7032090E703200E
:1096DC008CE7032088E7032084E7032080E703203E
:1096EC007CE7032078E7032074E7032070E703206E
:1096FC00244B1A68D0075CBF01221A60224B1A68EF
:10970C00D1075CBF01221A60204B1A68D2075CBFDC
:10971C0001221A601E4B1A68D0075CBF01221A6026
:10972C001C4B1A68D1075CBF01221A601A4B1A68CD
:10973C00D2075CBF01221A60184B1A68D0075CBFB5
:10974C0001221A60164B1A68D1075CBF01221A60FD
:10975C00144B1A68D2075CBF01221A60124B1A68AC
:10976C00D0075CBF01221A60104B1A68D1075CBF8E
:10977C0001221A600E4B1A68D2075CBF01221A60D4
:10978C00704700BFCCE70320C8E70320C4E70320E1
:10979C00C0E70320BCE70320B8E70320B4E70320AD
:1097AC00B0E70320ACE70320A8E70320A4E70320DD
:1097BC00A0E70320184B1A68D1075CBF01221A607E
:1097CC00164B1A68D2075CBF01221A60144B1A6838
:1097DC00D0075CBF01221A60124B1A68D1075CBF1C
:1097EC0001221A60104B1A68D2075CBF01221A6062
:1097FC000E4B1A68D0075CBF01221A600C4B1A681A
:10980C00D1075CBF01221A600A4B1A68D2075CBFF1
:10981C0001221A60704700BFECE70320E8E7032041
:10982C00E4E70320E0E70320DCE70320D8E703208C
:10983C00D4E70320D0E7032081F0004102E000BF11
:10984C0083F0004330B54FEA41044FEA430594EAF4
:10985C00050F08BF90EA020F1FBF54EA000C55EA2F
:10986C00020C7FEA645C7FEA655C00F0E2804FEA00
:10987C005454D4EB5555B8BF6D420CDD2C4480EAE2
:10988C00020281EA030382EA000083EA010180EA12
:10989C00020281EA0303362D88BF30BD11F0004F60
:1098AC004FEA01314FF4801C4CEA113102D0404296
:1098BC0061EB410113F0004F4FEA03334CEA1333D1
:1098CC0002D0524263EB430394EA050F00F0A780E9
:1098DC00A4F10104D5F1200E0DDB02FA0EFC22FAE4
:1098EC0005F2801841F1000103FA0EF2801843FAD8
:1098FC0005F359410EE0A5F120050EF1200E012AC9
:10990C0003FA0EFC28BF4CF0020C43FA05F3C01806
:10991C0051EBE37101F0004507D54FF0000EDCF17F
:10992C00000C7EEB00006EEB0101B1F5801F1BD328
:10993C00B1F5001F0CD349085FEA30004FEA3C0C2C
:10994C0004F101044FEA445212F5800F80F09A8022
:10995C00BCF1004F08BF5FEA500C50F1000041EB26
:10996C00045141EA050130BD5FEA4C0C404141EB2A
:10997C00010111F4801FA4F10104E9D191F0000F51
:10998C0004BF01460020B1FA81F308BF2033A3F1D4
:10999C000B03B3F120020CDA0C3208DD02F1140CCB
:1099AC00C2F10C0201FA0CF021FA02F10CE002F106
:1099BC001402D8BFC2F1200C01FA02F120FA0CFCFF
:1099CC00DCBF41EA0C019040E41AA2BF01EB045148
:1099DC00294330BD6FEA04041F3C1CDA0C340EDC46
:1099EC0004F11404C4F1200220FA04F001FA02F389
:1099FC0040EA030021FA04F345EA030130BDC4F147
:109A0C000C04C4F1200220FA02F001FA04F340EA3B
:109A1C000300294630BD21FA04F0294630BD94F0EC
:109A2C00000F83F4801306BF81F480110134013DD3
:109A3C004EE77FEA645C18BF7FEA655C29D094EA44
:109A4C00050F08BF90EA020F05D054EA000C04BFC2
:109A5C001946104630BD91EA030F1EBF00210020AD
:109A6C0030BD5FEA545C05D14000494128BF41F04C
:109A7C00004130BD14F580043CBF01F5801130BDB0
:109A8C0001F0004545F0FE4141F470014FF000003B
:109A9C0030BD7FEA645C1ABF194610467FEA655CEC
:109AAC001CBF0B46024650EA013406BF52EA03358E
:109ABC0091EA030F41F4002130BD00BF90F0000F7C
:109ACC0004BF0021704730B54FF4806404F13204B8
