:02000002D0002C
:1040000000400D002C790D00000006000C00050199
:084010000401DB0700000000C1
:0440180038740D00EB
:10401C0009480A49884208B505D0094A824202D0AB
:10402C00121A03F0B5F80748074A0021121A03F0D8
:10403C00D7F8014808BD00BFC0E5032094780D00F7
:10404C0030E6032030E60320F0E7032070B5074E7E
:10405C00074C01F0B1FFA41BA4080025A54200D118
:10406C0070BD56F8043B98470135F7E76C780D00A6
:10407C0090780D0000F0E4B808B500F07BF9BDE8CD
:10408C00084001F05BBF00F043BD00F041BD00F003
:10409C0047BD000008B5034A00210C2000F074FC59
:1040AC00FEE700BFE5460D000078B0FA80F040094D
:1040BC0070470123037070477047006A0368DB6820
:1040CC0018470000014B01221A70704735E6032097
:1040DC00014B01221A70704778E6032003681847D9
:1040EC00012A03D0022A03D0002070470160FBE7AD
:1040FC000B680360F8E7436913B183690C30184708
:10410C00704713B500210446084600F0FDFA002361
:10411C00204601A9019300F00FFB019C0CB1012377
:10412C0023710021012000F0EFFA2CB12368204606
:10413C009B6898470023237102B010BD0A4B10B541
:10414C000446036001F034F8214601F036FA02F01F
:10415C00FFFA02F0F1FA2046044B40F8043B01F060
:10416C0019F9204610BD00BFF0740D00D8740D0075
:10417C0010B50446FFF7E2FF2046242102F0F1FFC0
:10418C00204610BD10B58368044613B103220146C6
:10419C009847204610BD07B58068002338B1CDE99B
:1041AC000013022100F0D0FAB0FA80F0400903B0FD
:1041BC005DF804FB38B5104B036083680446A3B16B
:1041CC006FF000410022FFF7E6FFA068002100F02D
:1041DC00E3FA237903F0FF0513B100F08DFAF8E749
:1041EC00A068294600F0A0FAA56004F10C00FFF7C6
:1041FC00C9FF204638BD00BFC4740D0010B504467D
:10420C00FFF7D8FF20461C2102F0ABFF204610BD63
:10421C000EB410B58DB00FAA016852F8044B03927E
:10422C0000232020CDE90403CDE900421E2004AA7E
:10423C0000F0B2FB0DB0BDE8104003B070470000B9
:10424C0008B53C210A4801F055FF0121062002F077
:10425C0019FF0021072002F015FF064A06490748FE
:10426C0001F037FF06490748FFF7D2FF08BD00BF32
:10427C00D4E703204C740D00A1430D00B3600D0076
:10428C0057740D00A4E6032038B5046805467CB1CC
:10429C006368013B63605BB9236820469B68984761
:1042AC00A368013BA3601BB923682046DB689847D1
:1042BC00284638BD1FB513491348FFF7A9FF134B08
:1042CC0013491B788DF8003000223C2302A801F022
:1042DC00F7FF03A8FFF7D8FF0021062002F0E3FE4A
:1042EC00082002F0BCFA00226FF000410948FFF7E9
:1042FC0052FF072002F082FA074B00221A7005B019
:10430C005DF804FB5E740D00A4E6032034E6032084
:10431C006E740D005CE6032035E603201FB51049D2
:10432C001048FFF775FF104B10491B788DF80030C3
:10433C0000223C2302A801F0C3FF03A8FFF7A4FF4F
:10434C000021062002F0AFFE082002F088FA0720B8
:10435C0002F054FA064B00221A7005B05DF804FB0B
:10436C007D740D00A4E6032034E603208E740D004A
:10437C0078E60320054B1B780BB1FFF79BBF044B72
:10438C001B780BB1FFF7CABF704700BF35E603209F
:10439C0078E6032030B5204985B000F008FD0246D0
:1043AC0078B91E4B1E491B788DF8003002A83C23AF
:1043BC0001F086FF03A8FFF767FF4FF0FF3005B051
:1043CC0030BD0024174D184900944FF0FF330122E3
:1043DC00072002F0E9F9224621462846FFF7DBFECA
:1043EC00A86840B16FF00043009301942346224625
:1043FC00214600F0A9F90121062002F054FE00220A
:10440C001421082002F014FA08480949FFF700FFAC
:10441C00FFF7B0FF0120D2E79E740D0034E60320B5
:10442C00A2740D005CE60320D1400D00A4E603202D
:10443C00B0740D0070B5D0E900531426044606FB89
:10444C000356AE4204D0284600F010FC1435F8E7B1
:10445C00206800F065FB204670BD8842F8B5044624
:10446C000D46164616D9904215D2A2F11406751AAD
:10447C00A1F114072C44B7421CD02CB13146204674
:10448C0000F070FC337C2374304600F0EFFB143EDC
:10449C00143CF0E70ED0B5420CD02CB12946204686
:1044AC0000F060FC2B7C2374284600F0DFFB1435F5
:1044BC001434F0E7F8BD2DE9F0410023C0E90033D6
:1044CC0083604F689F4204460E4623DD4FF014086C
:1044DC0008FB07F000F01CFB0546D8B1D4E900122C
:1044EC0008FB0212FFF7B9FF206800F019FB2560EA
:1044FC00A760D6E9007308FB0378B84508D03946A5
:10450C00284600F049FC3B7C2B7414371435F4E737
:10451C00736863602046BDE8F08100002DE9F0432C
:10452C003B4B3C4CDFF81C9191B001221A703A4B7A
:10453C000C930CAD95E80300384B236009AE04F1E5
:10454C000C0386E8030093E8030085E8030096E873
:10455C00030083E80300324B6361A3690F930027C8
:10456C00304B2771A760A36141F288312346CDE916
:10457C00002704F108002C4A0E9700F0CDF82846CD
:10458C00FFF700FE4A462949204602F0E5FDCDE939
:10459C000377059702F0DCF8254C074603A906A81B
:1045AC00FFF789FFA04606A93046FFF784FF214B91
:1045BC0048F8043B31462846FFF77DFF2A46322156
:1045CC00404601F04DF92846FFF734FF3046FFF71F
:1045DC0031FF194B2360276206A8FFF72BFF174BFF
:1045EC00236002F0B5F84FF4165102F0A1F800F078
:1045FC00DFFD214601F0C6F803A8FFF71BFF1049A9
:10460C004A46204602F0A8FD11B0BDE8F08300BF79
:10461C0034E603205CE60320DD400D00C4740D007D
:10462C00ED400D00E9400D000F410D00C1410D00A2
:10463C0038E60320D8740D00CC750D00F0740D0015
:10464C0049410D0030E6032008B5024B1B689B68FE
:10465C00019308BD6802030008B5024B1B68DB68B8
:10466C00019308BD6802030008B5024B1B685B6828
:10467C00019308BD2C02030008B5024B1B689B6814
:10468C00019308BD2C02030008B5024B1B68DB68C4
:10469C00019308BD2C02030008B5024B1B681B6973
:1046AC00019308BD2C02030008B5024B1B689B69E3
:1046BC00019308BD2C02030008B5024B1B68DB6993
:1046CC00019308BD2C02030008B5024B1B685B6804
:1046DC00019308BD1802030008B5024B1B68DB6888
:1046EC00019308BD1802030008B5024B1B685B69F7
:1046FC00019308BD1802030008B5024B1B68DB6868
:10470C00019308BD4802030008B5024B1B68DB6926
:10471C00019308BD4802030008B5024B1B681B6AD5
:10472C00019308BD4802030008B5024B1B685B6A85
:10473C00019308BD4802030008B5024B1B689B6A35
:10474C00019308BD4802030008B5024B1B68DB6AE5
:10475C00019308BD4802030008B5024B1B685B6C53
:10476C00019308BD4802030008B5024B1B689B6C03
:10477C00019308BD4802030008B5024B1B68DB6CB3
:10478C00019308BD4802030008B5024B1B685B6D22
:10479C00019308BD4802030008B5024B1B681B6F50
:1047AC00019308BD4802030008B5024B1B685B6906
:1047BC00019308BD6402030008B5024B1B681B681B
:1047CC00019308BD3C02030008B5024B1B689B68B3
:1047DC00019308BD3C02030008B5024B1B68DB6863
:1047EC00019308BD3C02030008B5024B1B681B6912
:1047FC00019308BD3C02030008B5024B1B685B69C2
:10480C00019308BD3C02030008B5024B1B689B6971
:10481C00019308BD3C02030008B5024B1B68DB6921
:10482C00019308BD3C02030008B5024B1B681B6AD0
:10483C00019308BD3C02030008B5024B1B689B6A40
:10484C00019308BD3C02030008B5024B1B68DB6AF0
:10485C00019308BD3C02030008B5024B1B681B6AA0
:10486C00019308BD2802030008B5024B1B685B6A64
:10487C00019308BD2802030008B5024B1B689B6A14
:10488C00019308BD2802030008B5024B1B68DB6AC4
:10489C00019308BD2802030008B5024B1B681B6B73
:1048AC00019308BD2802030008B5024B1B685B6B23
:1048BC00019308BD2802030008B5024B1B681B6C52
:1048CC00019308BD2802030008B5024B1B68DB6985
:1048DC00019308BD3002030008B5024B1B681B6A2C
:1048EC00019308BD3002030008B5024B1B681B681E
:1048FC00019308BD2402030008B5024B1B685B68DA
:10490C00019308BD2402030008B5024B1B681B6809
:10491C00019308BD4C02030008B5024B1B685B6891
:10492C00019308BD4C02030008B5024B1B689B6841
:10493C00019308BD4C02030008B5024B1B681B69B0
:10494C00019308BD4C02030008B5024B1B685B6960
:10495C00019308BD4C02030008B5024B1B689B6910
:10496C00019308BD4C02030008B5024B1B68DB69C0
:10497C00019308BD4C02030008B5024B1B681B6A6F
:10498C00019308BD4C02030008B5024B1B685B6B1E
:10499C00019308BD6002030008B5024B1B685B6DF8
:1049AC00019308BD6002030008B5024B1B68DB6E67
:1049BC00019308BD6002030008B5024B1B681B6F16
:1049CC00019308BD6002030008B5024B1B685B68CD
:1049DC00019308BD2002030008B5024B1B68DB6C79
:1049EC00019308BD2002030008B5024B1B685B6DE8
:1049FC00019308BD2002030008B5034B1B68D3F8D4
:104A0C008830019308BD00002002030008B5034B59
:104A1C001B68D3F89430019308BD000020020300FA
:104A2C0008B5024B1B685B68019308BD400203008C
:104A3C0008B5024B1B689B68019308BD400203003C
:104A4C0008B5024B1B68DB68019308BD40020300EC
:104A5C0008B5024B1B681B69019308BD400203009B
:104A6C0008B5024B1B685B69019308BD400203004B
:104A7C0008B5024B1B689B69019308BD40020300FB
:104A8C0008B5024B1B68DB69019308BD40020300AB
:104A9C0008B5024B1B681B6A019308BD400203005A
:104AAC0008B5024B1B681B6B019308BD4002030049
:104ABC0008B5024B1B685B6B019308BD40020300F9
:104ACC0008B5024B1B685B68019308BD44020300E8
:104ADC0008B5024B1B685B69019308BD44020300D7
:104AEC0008B5024B1B681B6A019308BD4402030006
:104AFC0008B5024B1B68DB6B019308BD4402030035
:104B0C0008B5024B1B681B6C019308BD44020300E3
:104B1C0008B5024B1B681B68019308BD1C020300FF
:104B2C0008B5024B1B685B68019308BD1C020300AF
:104B3C0008B5024B1B689B68019308BD1C0203005F
:104B4C0008B5024B1B685B6A019308BD1C0203008D
:104B5C0008B5024B1B68DB6A019308BD1C020300FD
:104B6C0008B5024B1B681B6B019308BD1C020300AC
:104B7C0008B5024B1B685B6C019308BD1C0203005B
:104B8C00002240681146FFF783BF0022406811469F
:104B9C00FFF78EBF40680022FFF782BF40680022FB
:104BAC0081F00101FFF76CBF002340681A461946DB
:104BBC00FFF75EBF002340681A461946FFF750BF47
:104BCC00002240681146FFF743BF0022406811469F
:104BDC00FFF72EBF406800220221FFF731BF0023F0
:104BEC0040681A46FFF71CBF024B03225A60024A68
:104BFC001A6070477CE6032008750D0010B504465A
:104C0C0008462170FFF760FE00236360204610BD4C
:104C1C0010B50446006818B1FFF782FF002323602B
:104C2C0010BD10B50446FFF7F3FF204610BD000081
:104C3C0010B5094B094C022200201A60084B206069
:104C4C00A080A071A360FFF7BFFE2046054A06496D
:104C5C00BDE8104002F080BA90E6032084E6032001
:104C6C000000FFFF30E603202F4C0D0010B504466A
:104C7C000068FFF755FF204610BD10B504460068CC
:104C8C0008B1FFF74DFF0023C4E90133236010BDC9
:104C9C0038B504460D4600680131FFF749FF10B1E5
:104CAC00C4E90005012038BD10B50368044623B1E2
:104CBC0043688B4201D3012010BD2046FFF7E8FF6B
:104CCC000028F9D0A368002BF5D122681370F2E705
:104CDC0037B50D46114601920446FFF7E5FF019AE0
:104CEC0028B92046FFF7C9FF204603B030BDA260AB
:104CFC002946206802F04CFA2268A3680021D1549E
:104D0C00F2E7002313B5C0E9003304468360037354
:104D1C0041B10846019102F0D6FA019902462046AB
:104D2C00FFF7D6FF204602B010BD38B50546006827
:104D3C000C4668B16A688B689A4207D3096802F01E
:104D4C009CFAA368AB600023A36038BDFFF7E8FEB4
:104D5C0023682B6063686B60A368AB600023C4E9B5
:104D6C000033F1E710B50023C0E90033044683603B
:104D7C000373FFF7DAFF204610BD884210B50446D6
:104D8C0005D00B682BB18A681946FFF7A1FF2046A6
:104D9C0010BDFFF772FFFAE710B500230446C0E917
:104DAC00003383600373FFF7E8FF204610BD08B59E
:104DBC0082683AB921B10878B0FA80F0400900E075
:104DCC00012008BD006809B90078F5E702F04BFA3C
:104DDC00F2E710B50446006808B1FFF7C5FC2046A1
:104DEC0010BD0B68036013B15A6801325A607047EA
:104DFC0010B5064C002320462360FFF7ADFC20467F
:104E0C00034A0449BDE8104002F0A6B994E6032019
:104E1C0030E60320DF4D0D00F8B506460D468F1821
:104E2C000024BD420CD0336815F8011B9B6830463A
:104E3C009847031E01DB1C44F3E7002C08BF1C46FB
:104E4C002046F8BD13B50446084659B1019102F04D
:104E5C003AFA23680199DB680246204602B0BDE8A5
:104E6C001040184702B010BD03689B68184738B54E
:104E7C000D210546FFF7F8FF0A2104462846FFF7E7
:104E8C00F3FF204438BD30B58BB000238DF82430AF
:104E9C00012A98BF0A2209AC0D46B1FBF2F101FBC5
:104EAC00125303F0FF03092B94BF30333733DBB2BB
:104EBC00AA4204F8013DEFD92146FFF7C3FF0BB01E
:104ECC0030BD2DE9F04186B000AF05460E46381DC9
:104EDC00142114463B60FFF733FE13280ED8391DFE
:104EEC002846FFF7AFFF04461EB12846FFF7BFFF69
:104EFC00044420461837BD46BDE8F08100F1080394
:104F0C0023F00703E846ADEB030D2246411C3B683A
:104F1C006846FFF715FE69462846FFF793FF0446DF
:104F2C00C546E1E780680368DB68184770470846A8
:104F3C0011B10B685B681847704770477047704732
:104F4C0038B504460D4600682E2102F082F923681C
:104F5C00C31A2B6023B1037803B10130236820609E
:104F6C00184638BD10B50C21044602F0FAF820465C
:104F7C0010BD10B50421044602F0F3F8204610BD14
:104F8C0010B50421044602F0ECF8204610BD08B51B
:104F9C0002F069F9B0FA80F0400908BD10B50C4672
:104FAC0001F0D6FB844210D001F0CAFC844205D13A
:104FBC0001F0C6FCBDE8104001F0BFBC2CB1236869
:104FCC0020465B68BDE81040184710BD13B5044679
:104FDC000846019102F077F901990246204602B089
:104FEC00BDE8104002F000B813B504460846019124
:104FFC0002F069F923680199DB680246204602B089
:10500C00BDE81040184707B503688DF80710DB683A
:10501C0001220DF10701984703B05DF804FB0EB4B3
:10502C0003B503AB002153F8042B006A0193FFF77F
:10503C0048FF02B05DF804EB03B070472DE9F74F61
:10504C00D0E900954FF0140808FB05F50093AB1060
:10505C00184D17465D434C46002D23DD6E1008FBA2
:10506C0006F004EB000A3A46BAF804B02058019155
:10507C005F4528BF5A4602F02EF90199012378B9F1
:10508C005F4503D1009A13703546E5E78CBF0120CC
:10509C0000200028F8D0AE1B0AF11404013EF3E7FF
:1050AC00C00FF6E7A4EB09040248A410604303B058
:1050BC00BDE8F08FCDCCCCCC7FB50369067E0191D9
:1050CC000BB301B3002500F10C04039503A901A84F
:1050DC00FFF736FF0146B0B10DF10B03039A8DF8C3
:1050EC000B502046FFF7AAFF9DF80B305BB12468EC
:1050FC00142303FB004000F10804B0F90630002B28
:10510C00A8BFDEB2E2E7304604B070BD10B50A4C61
:10511C002378BFF35B8FDB070BD42046FEF7C4FF6D
:10512C0038B12046FEF7C5FF044A0549054802F090
:10513C0013F8044810BD00BF9CE6032030E60320A2
:10514C00494F0D00C0E5032010B50A4C2378BFF37E
:10515C005B8FDB070BD42046FEF7A6FF38B1204649
:10516C00FEF7A7FF044A0549054801F0F5FF04487E
:10517C0010BD00BFA0E6032030E60320474F0D0012
:10518C00C4E5032038B500250446C0E90055C0E944
:10519C0004558560856140F8245FFFF7DDFAFFF761
:1051AC00B5FFE061FFF7D0FF25732062204638BDC4
:1051BC0010B50B4C2378BFF35B8FDB070ED4204666
:1051CC00FEF772FF50B10748FFF7DCFF2046FEF7F1
:1051DC0070FF054A0549034801F0BEFF014810BDA8
:1051EC0098E60320A8E6032030E6032051560D0074
:1051FC00024A034903480023FFF7DEBB2D550D007F
:10520C00B9540D0039540D0000231A46194618469E
:10521C00FFF7D2BB37B50D6951F8043B0093044638
:10522C0001A8FFF7DEFD6A462946204601F086FDFF
:10523C0001A8FFF729F8204603B030BD37B58D68BB
:10524C0051F8043B0093044601A8FFF7CAFD6A46D7
:10525C002946204601F0EEFD01A8FFF715F820467F
:10526C0003B030BD37B5CD6851F8043B009304460C
:10527C0001A8FFF7B6FD6A462946204601F0B6FDA7
:10528C0001A8FFF701F8204603B030BD70B58AB015
:10529C000D46014604A8FFF7D1FF144E04A801F0F7
:1052AC00E1FDE8B104A96846FFF7DCFF029831463E
:1052BC00FFF76DFE044610B12C1E18BF012401A887
:1052CC00FEF7E2FF002CE9D004A96846FFF7A2FF25
:1052DC00684601F069FD286001A8FEF7D5FFDDE7FF
:1052EC0005A8FEF7D1FF0AB070BD00BF34750D00E4
:1052FC0037B50C4620461249154601F0B4FF48B9A3
:10530C0001F026FA4FF4165101F012FA01F020FACE
:10531C0003B030BD0B49204601F0A5FF70B94FF426
:10532C00165301A928460193FFF7B0FF01F008FBC3
:10533C00019901F0FFFA01F003FBE9E70020E7E730
:10534C0039750D0040750D0070B5D0E90053142669
:10535C00044606FB0356AE4205D005F10800FFF7E4
:10536C00F3FF1435F7E72068FFF7DAFB204670BD32
:10537C0070B5D0E90053044605EB0316AE4204D0D9
:10538C002846FFF773FC1035F8E72068FFF7C8FBD9
:10539C00204670BD10B504460C30FFF7D5FF2046F3
:1053AC00FFF7E6FF204610BD10B5044B044640F84D
:1053BC00043BFFF7EFFF204610BD00BFD8740D0073
:1053CC0010B50446FFF7F0FF2046242101F0C9FE7A
:1053DC00204610BD10B5034B03600446FFF7E4FFF5
:1053EC00204610BDE4750D0010B50446FFF7F2FF22
:1053FC002046242101F0B5FE204610BD0022C0E954
:10540C00002210B582600C6804604C6844608C68A3
:10541C000A604A6084608A6010BD10B50368044657
:10542C001868FFF7B1F9204610BD00002DE9F04FC8
:10543C0087B0804603931C4B5B68C3F30803894613
:10544C0016466BB9FFF7B4FE044600F12403406A1C
:10545C000593FFF791F9237B2BB105A8FFF7DDFF2F
:10546C0007B0BDE8F08F01232373D4E900535FFA32
:10547C0089F905EB830AAA4512D055F8047B31460D
:10548C00381DFFF719FE8145F5D33B68039A00924E
:10549C00D3F808B04A46334641463846D847EAE77F
:1054AC0000232373D9E700BF00ED00E02DE9F74F8F
:1054BC009B461A4B5B68C3F3080380468946164625
:1054CC006BB9FFF775FE044600F12403406A0193A3
:1054DC00FFF752F9237B2BB101A8FFF79EFF03B016
:1054EC00BDE8F08F01232373D4E90053F6B205EB2A
:1054FC00830A55450ED055F8047B5946381DFFF7E5
:10550C00DBFD8642F5D33B684A46DB6841463846AC
:10551C009847EEE700232373DEE700BF00ED00E0C1
:10552C002DE9F341164B5B68C3F3080305460F46A0
:10553C001BBBFFF73DFE00F124030446406A0193B8
:10554C00FFF71AF9D4E90063462406EB8308B0454B
:10555C0009D101A8FFF761FFA542B4BF00200120CB
:10556C0002B0BDE8F08156F8040B39460430FFF761
:10557C00A3FD8442A8BF0446E9E70020F0E700BF82
:10558C0000ED00E070B50446D0E900020B4600EBDC
:10559C008202824207D001461D6851F8046BAE426C
:1055AC0003D00846F5E7002070BD521A01F0FEFD4D
:1055BC006368013B63600120F6E71FB500F124032B
:1055CC000446406A01910393FFF7D6F801A92046DF
:1055DC00FFF7D8FF18B163680BB9FFF715FE03A8E6
:1055EC00FFF71BFF04B010BD70B5D0E904561823AB
:1055FC00044603FB0656AE4215D005F110012046B9
:10560C00FFF7C0FF63680BB9FFF7FEFDE06929697E
:10561C000368DB689847696919B1206A0368DB681D
:10562C0098471835E7E7D4E90453182606FB0356C8
:10563C00AE4204D02846FFF719FB1835F8E70023D3
:10564C00636170BD73B50446FFF7DEFD04F12403FE
:10565C00606A0193FFF790F82046FFF7C5FF01A899
:10566C00FFF7DBFE606A08B1FFF77EF8D4E904535C
:10567C00182606FB0356AE4204D02846FFF7F6FA6E
:10568C001835F8E72069FFF74BFA2068FFF748FA5E
:10569C00204602B070BD8842F8B506460C46154649
:1056AC0027D9904226D2A2F114056C1AA1F1140745
:1056BC0004440026AF423DD0A4B12B682360AB88D4
:1056CC00A380B5F90630E380C4E902662661AB68B5
:1056DC00A360AE60E368EA68E260EB6023692A6964
:1056EC0022612B6105F10800FFF72EFE143D143CDE
:1056FC00E0E71FD00027AC421CD0A6B12368336072
:10570C00A388B380B4F90630F380C6E90277376119
:10571C00A368B360A760F368E268F260E360336982
:10572C0022693261236104F10800FFF70DFE143485
:10573C001436E0E7F8BDF8B5D0E901539D420446B4
:10574C000E4617460DDB0135002D006804DDA9005F
:10575C00FFF7EEF918B9F8BDFFF7E2F90020206069
:10576C00A5602568626805EB86019200A2EB8602B3
:10577C00081D01F01BFD45F826706368013363605A
:10578C000120E8E737B500F124030446406A019391
:10579C000D46FEF7F1FFD4E9003103EB81008342A3
:1057AC001A460BD01268AA4203F10403F7D101A8E0
:1057BC00FFF733FE0025284603B030BD2A462046AD
:1057CC00FFF7B9FF05460028F1D06368012B01D122
:1057DC00FFF70EFD01A8FFF720FEECE78842F8B5B5
:1057EC0004460D46164614D9904213D2A2F1100667
:1057FC00751AA1F110072C44B74218D01CB13146D0
:10580C002046FFF7AFFA3046FFF730FA103E103C57
:10581C00F2E70CD0B5420AD01CB129462046FFF75E
:10582C00A1FA2846FFF722FA10351034F2E7F8BD3A
:10583C0070B50E1E054611DD3001FFF769F90446FF
:10584C0058B1D5E9001201EB0212FFF7C7FF286827
:10585C00FFF766F92C60AE60012070BD0024F6E7FE
:10586C002DE9F04F914697B000230391D9F804101D
:10587C000C9346229942C0E90033C0E90233C0E9D7
:10588C000433CDE90A330446027623DCD9E9005708
:10589C00142303FB0757AF423BD029460DA8FFF753
:1058AC0061FA0DA911A80B9EFFF75CFADDE90B1349
:1058BC0099421BDA0A9B0B9A03EB061603EB0212B6
:1058CC00314606F11000FFF789FFEEB90B9B01334F
:1058DC000B9311E00AA8FFF7ABFF0028D6D10AA85A
:1058EC00FFF746FD204617B0BDE8F08F01310AA83E
:1058FC00FFF79EFF0028DDD111A8FFF7B7F90DA81F
:10590C00FFF7B4F91435C6E711A93046FFF72AFAA8
:10591C00DCE70026CDE90D660F9637464FF0140AEA
:10592C00DDE90A239E4280F297803301D358089315
:10593C000BB90136F4E70AFB06F3099702930DAD98
:10594C0009A908A8FFF7FCFA83460028F1D0014604
:10595C00099A8DF81F700DF11F032846FFF76EFB97
:10596C009DF81F800190B8F1000F66D1BDF824306E
:10597C00ADF84830CDE913884FF6FF73CDF844B03D
:10598C00ADF84A30CDF85480D5E9013293421ADB98
:10599C0003F1010BBBF1000F4ADD0AFB0BF0FFF723
:1059AC00B7F80490002845D0D5E900120AFB021282
:1059BC00FFF771FE049B28680493FFF7B1F8049B72
:1059CC002B60C5F808B0019BD5F800B06A680AFBDB
:1059DC0003F30BEB030101F114000AFB02B2049177
:1059EC000593FFF758FE0499A9B1059B119A4BF842
:1059FC000320BDF848308B80BDF94A30CB80C1E91B
:105A0C0002770F61139B8B60149B1397CB60159BD4
:105A1C0014970B6115976B6801336B6013A8FFF734
:105A2C0093FCB8F1000F08D00DA8FFF78DFC56E7DA
:105A3C004346C0E74FF00108F0E7019B2D680AFBD5
:105A4C000355089B1B782BB9D9F80030029A1344E4
:105A5C001B7CEB80083573E7216822606268636009
:105A6C00A3680B920C9A0C93E368A2600D9A0D93A9
:105A7C002369E2600E9A0E93636922610F9A0F9369
:105A8C00039B0A9162612376CEE700007FB5054641
:105A9C00094B45F8043B04460E4601A81146FEF797
:105AAC000AFD01AA31462846FFF7DAFE01A8FEF7E7
:105ABC00C1FC204604B070BDD8740D00F0B50F4683
:105ACC0087B026490C9C384616461D4601F0CBFB88
:105ADC0000BBE4B129466846FFF790FC204924201E
:105AEC0001F041FB054670B1694603A8FEF7E3FCE3
:105AFC0003AA31462846FFF7C9FF03A8FEF79AFC14
:105B0C00184B2C622B606846FEF794FC2C46204602
:105B1C0007B0F0BD1449384601F0A5FBE0B9002CE4
:105B2C00F5D029466846FFF769FC0D49242001F0A1
:105B3C001AFB05460028E6D0694603A8FEF7BBFC15
:105B4C0003AA31462846FFF7A1FF03A8FEF772FC13
:105B5C00064B2B602C62D6E70024D8E748750D0065
:105B6C0069770D00E4750D004C750D00CC750D00BA
:105B7C00014B024A1A607047A4E603205D750D00C4
:105B8C002DE9F047089DD0F8209004460E461746A4
:105B9C00984600F0DDFD81454CD02B79190704D5D2
:105BAC006A6954492046FFF73AFAB8F1000F0DD054
:105BBC005B212046FFF727FA41462046FFF714FAEF
:105BCC0023684D49DB680222204698472B79DA0777
:105BDC0023D5D5F808802F21404601F08EFB08B163
:105BEC0000F1010841462046FFF7FEF92B799B078F
:105BFC0008D53A212046FFF706FAEA683F492046C5
:105C0C00FFF70DFA2A79236812F0040FDB6814BF32
:105C1C003B493C490222204698472B7958071DD511
:105C2C0029690B461A4613F8010B60B1202808D1DC
:105C3C001946F7E7344800F086FF0028ADD0BDE8E0
:105C4C00F0872828EED12368521ADB682046984743
:105C5C0023682E49DB6804222046984700213846E9
:105C6C00FEF7A2FE01462046FFF7BEF92368254940
:105C7C00DB680222204698471EB131462046FFF7CA
:105C8C00B3F92B7913F0300F2CD023682049DB6843
:105C9C000222204698472B79D9060AD523681D493C
:105CAC00DB68072220469847AA691B492046FFF764
:105CBC00B6F92B799A0611D5DB0605D52368104960
:105CCC00DB6802222046984723681449DB6820468B
:105CDC000A229847E9692046FFF786F95D2120469C
:105CEC00FFF791F923680E49DB6820460222BDE8D4
:105CFC00F047184761750D0068750D006B750D0048
:105D0C006E750D0073750D00BCE7032071750D00E9
:105D1C0076750D0079750D0081750D0084750D007B
:105D2C008F750D002DE9F04385B0D0F820900C9CB8
:105D3C0005460F4690461E4600F00AFD814505D1EA
:105D4C00494800F000FF002840F08A802B6A474A3F
:105D5C0001924FF0000901A803938DF8089001F00F
:105D6C00AAF849464046FEF71FFE414980460122EB
:105D7C0001A801F029F94146FFF728F93FB13D4947
:105D8C00012201A801F020F93946FFF71FF93EB1B5
:105D9C003949012201A801F017F93146FFF716F92C
:105DAC002379DF070ED5A6682F21304601F0A5FA1E
:105DBC0000B1461C3149012201A801F005F9314618
:105DCC00FFF704F923799E0707D52D49022201A874
:105DDC0001F0FAF8E16801F07BF82379580714D543
:105DEC00266933461F4613F8012B2AB1202A01D10C
:105DFC001E46F7E7282AF5D12249022201A801F014
:105E0C00E3F8BA1B314601F0EFF82379190707D5EF
:105E1C001D49012201A801F0D7F8616901F06AF867
:105E2C002379DA0608D5042218490DEB020001F09B
:105E3C00CBF8A16901F04CF823799B0607D51449DE
:105E4C00062201A801F0C0F8E169FFF7BFF801A82C
:105E5C0001F01BF8286A0F4903680222DB68984797
:105E6C0005B0BDE8F08300BFBCE70320B4750D009E
:105E7C003E750D0055740D0092750D0094750D0056
:105E8C0096750D0099750D009C750D009E750D0095
:105E9C00A3750D008F750D00024B1A68024B1A602A
:105EAC00704700BFC8E50320D0E6032010B50446B8
:105EBC00FEF768F9204610BD13B50B460246D0E933
:105ECC0000016C4684E8030093E8030082E80300B9
:105EDC0094E8030083E8030002B010BD0348044AB1
:105EEC0004490023836001F037B900BFD4E60320D6
:105EFC0030E60320B95E0D00014B1860704700BFFF
:105F0C00CCE5032008B50B4B43B100F021FC036832
:105F1C001B699847002801DDAFF30080064B43B1A5
:105F2C0000F00EFD03681B699847002801DDAFF3F4
:105F3C00008008BD000000000000000008B5FFF75D
:105F4C00E1FFFEF7D1FB014B186008BDD0E7032041
:105F5C000248034A0349121A01F01AB900F403204B
:105F6C0004F4032090780D0007B5002300931A4623
:105F7C006FF07701FEF74AFD03B05DF804FB0000FB
:105F8C0007B543880A2B08D0502B0BD1094B1B6843
:105F9C004BB103B05DF804EB1847FFF7E5FF03B016
:105FAC005DF804FB002300931A466FF07701FEF7AF
:105FBC002DFDF4E7E8E6032038B5124C1248134DDA
:105FCC000021FEF7D5FD2368AB42114B0CBF01221B
:105FDC0000221A7002D0FFF7BBFF2560FEF774FB9E
:105FEC00044601F005F90B4B13B12046AFF30080CA
:105FFC0000210848FEF77CFDBDE83840064800212A
:10600C00FEF7FABC00F40320055F0D001E1C279A56
:10601C00E4E60320000000008D5F0D0070470020B7
:10602C00704710B51021044601F09BF8204610BDB6
:10603C0008B5FFF7F6FF08BD30B500224FF69C748B
:10604C00026084808D888C800C68858004600A6076
:10605C0030BD10B504460068FEF762FD204610BD49
:10606C0038B5C468F4B12378022B03D104F10C00C9
:10607C00FFF7EFFF656835B12846FEF783F810216E
:10608C00284601F06EF8A56835B12846FEF77AF877
:10609C001021284601F065F820461421BDE838404F
:1060AC0001F05FB838BD10B588B004466846FEF7FD
:1060BC0028FE694604A8FEF76FFE04A8A047044614
:1060CC0004A8FEF7D3FD6846FEF7D0FD204608B0C5
:1060DC0010BD1FB50023CDE90201019210241A4610
:1060EC0069461846ADF80230ADF80040FEF7E8FC02
:1060FC0004B010BD08460021FEF702BD73B50E4674
:10610C00044656F8043B00930D4601A83146FEF7B1
:10611C0068FE019A009B6260236001A80023019332
:10612C000093FEF7B1F83046FEF7AEF8284608218A
:10613C0001F017F8204602B070BD826810B50AB99C
:10614C0001F015F8BDE81040C368184708B50068A1
:10615C0000F11001FFF7F1FF08BD826810B50AB914
:10616C0001F005F8BDE81040C368184708B5006891
:10617C0000F11001FFF7F1FF08BD000038B5002356
:10618C000446036010200D46FDF77DFF28B1012366
:10619C00C0E90133024B0360C5602060204638BD66
:1061AC0048760D0038B5002383608B6804460D4695
:1061BC002BB102229847EB68E360AB68A3602046E2
:1061CC0038BD0000F0B589B004686846FFF734FFAD
:1061DC004FF00203D4E84F2F002A03D1C4E8413F0B
:1061EC000029F7D125D104F10C0569462846FFF7A3
:1061FC0023FFBFF35B8F01236370002004F10803BE
:10620C00BFF35B8F53E8006F43E80002002AF9D11B
:10621C00BFF35B8F6EB1FEF7DFFB78B129463046DA
:10622C00FFF78BFF3046FDF7ADFF1021304600F035
:10623C0098FF6846FFF70DFF09B0F0BD314602A884
:10624C00FFF7B0FFE068B4F9105008B101F01EF888
:10625C0006901020ADF81C50FDF715FF0546E8B16F
:10626C00002787601820FDF70EFF044688B1014611
:10627C00876002A8FFF720FE049BA268A360059B21
:10628C00049206A9E268E36004F110000592FFF79E
:10629C00D3FE084BEB60084B2C60AB6006A8FFF7F5
:1062AC00D8FE02A8FDF76EFF002229460348FEF730
:1062BC009BFBB7E759610D00F1630D00D5690D002B
:1062CC002DE9F0478AB005469DF848900C461746D4
:1062DC009846FEF7FDFB07AE824638BB4FF62E7391
:1062EC00059005A93046ADF81830FFF7A5FE14202F
:1062FC00FDF7C9FE044648B1022303700123C0E92F
:10630C0001AA437031460C30FFF796FE2846214611
:10631C0040F8044BFFF732FF3046FFF79AFE05A812
:10632C00FFF797FE28460AB0BDE8F0870C234FF024
:10633C00000A1420CDE908AA0793FDF7A4FE014634
:10634C0028B1C0E901AA80F800A080F801A004A837
:10635C000391FFF713FF224B08930820FDF793FEE0
:10636C00824628B1039B40F8043B04A9FEF739FD93
:10637C0000965FFA89F3424639462046CDF824A0B0
:10638C00FEF7AEFBB8B9039B5B7803F0FF0293B941
:10639C004FF69C7305A903A80592ADF81830FFF7CA
:1063AC0011FF05A8FFF755FE05A80999FFF7A6FEF2
:1063BC0006A8FDF769FF039B059304A906A8FEF741
:1063CC0010FD059B069A2B606A60002306A80693B5
:1063DC000593FDF759FF04A8FDF756FFA2E700BF90
:1063EC00B5640D00022AF8B5054607D0032A18D06B
:1063FC00012A01D10B6803600020F8BD18200E683B
:10640C00FDF741FE044650B13146FFF7CBFE306933
:10641C00B6F9147008B100F039FF2061A7822C6026
:10642C00EAE70468002CE7D004F11000FFF711FE36
:10643C002046FDF7A7FE1821204600F092FEDBE770
:10644C0038B5002383608B6804460D462BB10222BD
:10645C009847EB68E360AB68A360204638BD022A1E
:10646C0070B5044607D0032A12D0012A01D10B685B
:10647C000360002070BD14200E68FDF704FE054675
:10648C0020B13146FFF7DCFF337C2B742560F0E73D
:10649C000468002CEDD02046FDF774FE1421204634
:1064AC0000F05FFEE5E70000F0B589B004460D464C
:1064BC0001A81146FFF722FEA4B124B21DB1284653
:1064CC0000F0E4FE054601A803A90395ADF81040C1
:1064DC00FFF778FE03A8FFF7BCFD02A8FDF7D4FE7A
:1064EC0009B0F0BD019D0123D5E84F2F002A03D13F
:1064FC00C5E8413F0029F7D1EFD12B73BFF35B8F78
:10650C006B702B1DBFF35B8F53E8006F43E80042A9
:10651C00002AF9D1BFF35B8F002EDED02046FEF7A8
:10652C005BFA074660B105F10C013046FFF715FE2A
:10653C003046FDF727FE1021304600F012FECCE766
:10654C00314603A8FFF77CFF2B7B8DF81C30102005
:10655C00FDF799FD0546D0B187601420FDF793FD3A
:10656C00044678B18760014603A8FFF7A5FC059B9C
:10657C00A268A360069B0592E268E3609DF81C305C
:10658C0006922374064BEB60064B2C60AB6003A8A1
:10659C00FDF7F8FD002229460348FEF725FAC7E768
:1065AC0079610D006B640D00D5690D00704710B555
:1065BC001821044600F0D5FD204610BDF0B5037D32
:1065CC00062B8DB00E4600F104074FF0000412D0DC
:1065DC0000F1080515F8011D0A223046FEF753FCA0
:1065EC00AF42044419D0002CF4D02E213046FEF7D3
:1065FC003BFC0444EEE72F236A4639460A208DF80B
:10660C000040FEF7D1F8684600F05DFE33680246A4
:10661C00DB68694630469847044620460DB0F0BD0D
:10662C0010B5054B0446112240F8043B002100F044
:10663C00D7FD204610BD00BF64760D000346074A07
:10664C0010B543F8042B01F1100251F8044B43F838
:10665C00044B9142F9D10A781A7010BD64760D0082
:10666C0010B59DF8084044EA032343EA024242EA8B
:10667C00016104234160037510BD13B5CB78009301
:10668C008B784A780978FFF7EBFF02B010BD4174A4
:10669C007047704708B50021007CFEF75DF940EAB1
:1066AC00E07008BD08B50121007CFEF755F940EA01
:1066BC00E07008BD08B5007CFEF746F920EAE070F2
:1066CC0008BD08B5007CFEF737F920EAE07008BD7C
:1066DC0013B50446007C0191FEF736F900280199A8
:1066EC0001DC607C20B1207CFEF73EF920EAE070F2
:1066FC0002B010BD007CFEF73FB910B51421044662
:10670C0000F02FFD204610BD10B54FF47A730446EF
:10671C0008460021C4E90113044B236001232074B3
:10672C0063741146FEF7F0F8204610BD78760D0024
:10673C00007C0022FEF7F0B8007CFEF7F5B810B52F
:10674C0014220446002100F04BFD204610BD000031
:10675C0010B5104C88B003A8FFF7F1FF2178BFF3F8
:10676C005B8F11F0010111D120460191FDF79CFCCA
:10677C00019958B103AA0848FFF7C6FF2046FDF758
:10678C0098FC064A0649044800F0E6FC024808B0AA
:10679C0010BD00BFECE60320F0E6032030E603203A
:1067AC009F660D00004700002DE9FF4100241D46A7
:1067BC000F4690460646FDF77FFFA5424FF00403B7
:1067CC00ADF80D408DF80C308DF80F40A2BF9DF840
:1067DC0028308DF80E3003AC0749009443463A46F6
:1067EC003046A8BF8DF80D50FDF75EFFB0FA80F073
:1067FC00400904B0BDE8F081B1670D00F8B504465E
:10680C00FDF75AFF054670B9084F57F8246046B19A
:10681C003046FDF7B7FC1021304600F0A2FC47F8DB
:10682C002450012000E00020F8BD00BF04E7032045
:10683C00F8B587B2044638460D46164600F0E4FB20
:10684C0060B102213846FDF70FFF022806D132460F
:10685C0029462046BDE8F840FEF746B8F8BD38B5E5
:10686C0085B20446284600F0CFFB50B102212846E1
:10687C00FDF7FAFE022804D12046BDE83840FEF7A9
:10688C003BB838BD70474174704708B5007CFDF7C4
:10689C00D3FF20EAE07008BD08B5007CFDF7A4FF2B
:1068AC0020EAE07008BD08B5007CFDF7ADFF40EABA
:1068BC00E07008BD08B5007CFDF79EFF40EAE07073
:1068CC0008BD007CFDF7A8BF37B5457C04462DB14B
:1068DC00207C03B0BDE83040FDF77EBF007C019109
:1068EC00FDF7AAFF00280199F2DC284603B030BD61
:1068FC0010B51421044600F034FC204610BD0000F5
:10690C0010B54FF0000C0446084611464FF47A724D
:10691C00C4E901C2044A22600122207462741A463E
:10692C00FDF74AFF204610BDA8760D00007C002321
:10693C00FDF78ABF0022FFF7F9BF007CFDF744BFCB
:10694C00F7B51B4C26684EB98420FDF79CFB054619
:10695C0018B18422314600F043FC2560154D2F6898
:10696C004FB98420FDF78FFB064618B184223946B7
:10697C0000F036FC2E60104E3178BFF35B8F11F0B7
:10698C00010112D130460191FDF78EFB019960B1E6
:10699C0022682B680948FFF7B3FF3046FDF789FBE7
:1069AC00074A0849054800F0D7FB044803B0F0BD7E
:1069BC0098E703209CE7032094E70320A0E703203B
:1069CC0030E6032091680D0010B5836804460BB9BE
:1069DC0000F0CDFBC3689847A3681BB10322214686
:1069EC002046984720461021BDE8104000F0B9BB66
:1069FC007047F8B5064615460C468F18BC4206D0B3
:106A0C00336814F8011B9B6830469847F6E7284614
:106A1C00F8BD007C0022FDF71FBF007C0021FDF7B4
:106A2C0023BF007C0021FDF727BF007C0021FDF770
:106A3C002BBF007C0021FDF72FBF10B5142104469D
:106A4C0000F08FFB204610BD10B54FF47A7304464E
:106A5C0008460021C4E90113034B2360207411463E
:106A6C00FDF72AFF204610BDD8760D0000224068A5
:106A7C001146FDF7EDBF002240681146FEF708B83D
:106A8C00002240681146FEF713B840680022FEF75A
:106A9C0007B84068002281F00101FDF7F1BF002327
:106AAC0040681A461946FDF7E3BF002340681A46B2
:106ABC001946FDF7D5BF002240681146FDF7B8BF57
:106ACC00406800220221FDF7BBBF002340681A4634
:106ADC00FDF7A6BF024B04225A60024A1A607047A7
:106AEC00B4E7032000770D00002340681A46FDF739
:106AFC0097BF406800220221FDF7A2BF0022406828
:106B0C001146FDF795BF002240681146FDF7A0BF66
:106B1C00002340681A461946FDF7A2BF00234068BF
:106B2C001A461946FDF7A4BF4068002281F0010106
:106B3C00FDF7A6BF40680022FDF7B2BF00224068F7
:106B4C001146FDF7B5BF002240681146FDF7A0BF06
:106B5C002DE9F043002495B016460D460746FFF785
:106B6C005FFD214618220EA8009400F039FB40234B
:106B7C00CDE90C3421466B460CAA3046FDF76CFD72
:106B8C000446002846D1024601216868FDF760FFE3
:106B9C000221804622466868FDF75AFF009E814616
:106BAC002146002E36D0002934D17368022B03D035
:106BBC000A2B0BD0F669F4E7B8F1000F04D0716919
:106BCC0038460431FFF759FD4146F3E7B9F1000FA0
:106BDC0001D14946EEE77469102201A800F000FBD0
:106BEC0006238DF8143001AD04F10803183418682D
:106BFC0059682A4603C20833A3421546F7D101A9A6
:106C0C0006A807ADFFF71AFD0FCD3C1D0FC42B686E
:106C1C002370DEE70098FDF717FD384615B0BDE888
:106C2C00F0830000024B034A1A6000225A6070473E
:106C3C00BCE7032034770D0000F11003012213F898
:106C4C00101C0129184608D153F8041C02EB410210
:106C5C00013A03F11003F2D17047022904BF53F833
:106C6C00041C5218F4E70EB4F0B588B000AF07F16D
:106C7C003405102155F8042B7A6004462B467818FD
:106C8C00FD60FDF75DFF0F287A681AD900F1080343
:106C9C0023F007036E46ADEB030D411C2B466846F3
:106CAC00FD60FDF74DFF021E04DD236869469B68FD
:106CBC0020469847B5462037BD46BDE8F04003B0A6
:106CCC0070470028F7D0236802469B6807F1100133
:106CDC0020469847EFE710B5036804469B68984731
:106CEC00A368013BA3602BB923682046DB68BDE891
:106CFC001040184710BD07B503688DF807109B6846
:106D0C0001220DF10701984703B05DF804FB38B57B
:106D1C000B6803604D6843689D4204460CD015B166
:106D2C006B6801336B60606828B14368013B43605A
:106D3C000BB9FFF7D0FF6560204638BD0B461146F6
:106D4C00002210B5C0E90022044683600BB920462E
:106D5C0010BDFFF7DCFFFAE78368EBB11A78032A62
:106D6C001AD8DFE802F00417021B052070470268EE
:106D7C005B685268D05C2D2812D0A0F13003092B2F
:106D8C000ED974280ED066280CD0A0F16E03584290
:106D9C005841704706207047002070470420704708
:106DAC00032070470220704710B50446FFF7D4FF4C
:106DBC0002280ED0C31EDBB2012B14D82268A368A4
:106DCC0050685B68BDE810400A220021184400F0AE
:106DDC0023BB2268A36852685B68D05CA0F1740383
:106DEC005842584110BD0020FCE7000038B5002384
:106DFC00C0E9003304460E48C4E90203A9B10B787C
:106E0C00032B06D08BB9136858684B68C35C6E2B88
:106E1C0007D013684D6858688B6828445B1BA060CA
:106E2C00E36011462046FFF772FF204638BD00BFD5
:106E3C0091750D0038B500250B46C0E90055C0E929
:106E4C000255C0E90455044611464BB11A78012A83
:106E5C0006D103F11002DB6882604361FFF757FF34
:106E6C00204638BD10B54369044663B18068E060C4
:106E7C00013B1030A0602061636113B1FFF7DCFEB1
:106E8C00A060012000E0184610BD10B57D2104461D
:106E9C00FFF731FF01232371204610BD08B503799C
:106EAC00012B02D0022B04D008BD2C21FFF723FFAD
:106EBC00FAE73A21FAE710B50446FFF7EFFF204650
:106ECC007B21FFF718FF00232371204610BD000023
:106EDC0013B504460191FFF7E1FF2368019ADB68C3
:106EEC0003492046984701232046237102B010BD68
:106EFC006B750D0013B504460191FFF7CFFF2368A6
:106F0C00019ADB68034920469847012320462371E8
:106F1C0002B010BD60770D002DE9F0410D4617460B
:106F2C002221DFF8A08004462F44FFF7E4FE294617
:106F3C00BD422A4638D015F8016B222E03D05C2EA8
:106F4C0001D01F2EF4D82368521A9B68204698470C
:106F5C005C212046FFF7CFFE0D2E0AD8072E1CD938
:106F6C00A6F10803052B18D8DFE803F00D0F111755
:106F7C001315222E01D05C2E0FD131462046FFF77F
:106F8C00BAFE2946D4E76221F8E77421F6E76E21B0
:106F9C00F4E76621F2E77221F0E723683246DB68FA
:106FAC00414620469847ECE78D4204D023686A1A84
:106FBC009B682046984722212046FFF79CFEBDE89F
:106FCC00F08100BF63770D0013B50446CDE90021B5
:106FDC00FFF764FF2046DDE90021FFF79DFF022348
:106FEC002046237102B010BD13B50446CDE9002133
:106FFC00FFF754FF2046DDE90021FFF78DFF012349
:10700C002046237102B010BD232813B502D90020ED
:10701C0002B010BDA0F10B03022B1AD8174C21782B
:10702C00BFF35B8F11F001010BD120460191FDF7ED
:10703C003BF8019928B11248FDF7E0FD2046FDF719
:10704C0038F80F4B1878FDF747FC0028DFD10120EA
:10705C00DEE7012809D800F057F80021007CFDF785
:10706C0023FC80F00100C0B2D2E709380128EED829
:10707C00FFF766FC007CFDF7D7FBF2E7C4E70320C3
:10708C00C8E70320232838B504460D460AD8FF2943
:10709C0008D0FFF7B9FF28B129462046BDE8384093
:1070AC00FDF7EABA38BD38B504460D46FDF7ECFAE3
:1070BC00FF2810D0062804D84D2323FA00F0C3076C
:1070CC0009D42046FFF7A0FF28B129462046BDE889
:1070DC003840FDF7E1BA38BD38B500232025438090
:1070EC00142304460380856005610649284600F098
:1070FC003CF804496060284600F037F8E060204610
:10710C0038BD00BF69770D0030B50F4D2978BFF33E
:10711C005B8F11F0010487B013D12846FCF7C4FF34
:10712C0078B101A8FFF7D8FF01AA21460748FFF75D
:10713C008BFC2846FCF7BDFF054A0649034800F0C6
:10714C000BF8024807B030BDD8E70320DCE703207A
:10715C0030E60320FD690D000B460146184600F091
:10716C0009B8FCF794BFFCF78EBFFCF78EBF08B5CF
:10717C00FDF7EEFC10B5054C13462CB10A46014642
:10718C000220AFF3008010BD2046FCE70000000099
:10719C000A44914200F1FF3300D1704710B511F849
:1071AC00014B03F8014F9142F9D110BD884210B543
:1071BC0001EB020402D98442234607D8431EA142A4
:1071CC0008D011F8012B03F8012FF8E7024401460F
:1071DC008A4200D110BD13F8014D02F8014DF7E7BA
:1071EC0002440346934200D1704703F8011BF9E7B0
:1071FC0038B50D4B1D68AB6B04467BB91820FDF7F9
:10720C0087FC0A4A0A4BA863C0E90023094B836038
:10721C000B23838101220023C0E90423AB6B0022E2
:10722C001C615A6138BD00BFCCE503200E33CDABD9
:10723C0034126DE6ECDE0500C9B2034610F8012BE2
:10724C001AB18A42F9D118467047002918BF002399
:10725C00F9E710B50446FFF7EFFF18B9204600F028
:10726C0032F8204410BD10F8012B11F8013B012A13
:10727C0028BF9A42F7D0D01A7047034611F8012B59
:10728C0003F8012B002AF9D170470000024B01468C
:10729C00186800F003B800BFCCE5032037B50446EE
:1072AC0008460D4600F00FF8421C1146204601928C
:1072BC00FDF756FC044618B1019A2946FFF768FF02
:1072CC00204603B030BD034613F8012B002AFBD136
:1072DC00181A0138704710B56AB10139841810F8C2
:1072EC00013B11F8012F934203D1A04201D0002B96
:1072FC00F5D1981A10BD1046FCE738B503460C467C
:10730C0069B9BDE83840FFF797BF431C05462146D5
:10731C001846FFF791FF0028F7D1284638BD002505
:10732C00F5E700002DE9F0473A4E86468C4660465C
:10733C001CF8014BA55D15F00805F8D12D2C33D1A7
:10734C009CF800404FF0010800F1020C002B5CD0BF
:10735C00102B0CD1302C0AD19CF8000000F0DF006F
:10736C0058284DD19CF8014010230CF1020C08F167
:10737C000047013F0026B7FBF3F9304603FB197AAF
:10738C00A4F13005092D18D82C46A34224DD751C18
:10739C0007D081451DD301D1A2451ADB00FB034068
:1073AC0001261CF8014BEBE72B2C08BF9CF8004086
:1073BC00A84608BF00F1020CC8E7A4F14105192D3D
:1073CC0001D8373CE1E7A4F16105192D04D8573CED
:1073DC00DBE74FF0FF36E4E7731C06D12223CEF82F
:1073EC000030384642B9BDE8F087B8F1000F00D044
:1073FC004042002AF7D00EB10CF1FF311160F2E7D8
:10740C003024002BB3D10823B1E7302CA4D00A23AD
:10741C00ADE700BF6B770D0013460A4601460248E4
:10742C000068FFF77FBF00BFCCE503201D400D00B7
:10743C0059400D0081400D0085400D0000000000FA
:10744C00736F756E64416C61726D00536574757009
:10745C002100427574746F6E20707265737365646D
:10746C002100627574746F6E2D7072657373656430
:10747C000054696D65722073757270617373656405
:10748C00210074696D65722D73757270617373650B
:10749C00640072756E0077726F6E672D636F6D6D21
:1074AC00616E640052756E6E696E6721000000009B
:1074BC000000000000000000C1410D0009420D0059
:1074CC0003410D000000000000000000000000005F
:1074DC0000000000A1400D00C5400D0000000000A0
:1074EC000000000049410D007D410D008D5B0D0039
:1074FC00C7400D000000000000000000EB4B0D0029
:10750C00E14B0D00D74B0D00CD4B0D00C14B0D00C9
:10751C00B54B0D00A94B0D00A14B0D00974B0D0069
:10752C008D4B0D005D6B0D006261756400536572CF
:10753C0069616C0053657269616C31004A534F4E3E
:10754C0053747265616D4C6F6748616E646C6572E3
:10755C000061707000253031307520005D200025F1
:10756C0064002C200028293A2000205B00636F6403
:10757C0065203D200025690064657461696C732089
:10758C003D20000D0A00630066006C6E00666E0004
:10759C007400636F64650064657461696C0000005D
:1075AC0000000000000000004B4F0D00714F0D005B
:1075BC00314F0D00736C0D00000000000000000046
:1075CC00B5530D00CD530D008D5B0D00C7400D0064
:1075DC000000000000000000E1530D00F5530D0009
:1075EC00315D0D00394F0D0000000000000000005F
:1075FC00494F0D007F4F0D00C95A0D003B4F0D0038
:10760C000000000000000000474F0D008D4F0D00E2
:10761C00FD520D00A94F0D0025592D256D2D25640A
:10762C005425483A254D3A2553257A0061736374E5
:10763C00696D6500000000000000000029600D006D
:10764C002F600D006D600D003D600D002B600D0076
:10765C000000000000000000C9650D00B9650D00B8
:10766C00BB650D0000000000000000009F660D00CF
:10767C0007670D00DD660D00254E0D00CF660D0071
:10768C00A1660D00B1660D0001670D00C1660D000D
:10769C009B660D00000000000000000091680D00CA
:1076AC00FD680D00D5680D00254E0D00A5680D0078
:1076BC00C1680D00B3680D00CF680D0093680D0014
:1076CC0097680D000000000000000000FD690D002F
:1076DC00476A0D001F6A0D00FF690D00276A0D0037
:1076EC002F6A0D00376A0D003F6A0D000000000084
:1076FC0000000000D76A0D00CD6A0D00C36A0D00B2
:10770C00796A0D00B76A0D00AB6A0D009F6A0D0017
:10771C00976A0D008D6A0D00836A0D005D6B0D007C
:10772C000000000000000000F56A0D00FF6A0D006B
:10773C00096B0D00136B0D001D6B0D00296B0D00FB
:10774C00356B0D00416B0D00496B0D00536B0D003B
:10775C005D6B0D0025750075253034780000002018
:10776C0020202020202020202828282828202020E5
:10777C002020202020202020202020202020208895
:10778C0010101010101010101010101010101004F9
:10779C000404040404040404041010101010101049
:1077AC00414141414141010101010101010101013D
:1077BC000101010101010101010110101010101053
:1077CC00424242424242020202020202020202020D
:1077DC000202020202020202020210101010200029
:1077EC00000000000000000000000000000000008D
:1077FC00000000000000000000000000000000007D
:10780C00000000000000000000000000000000006C
:10781C00000000000000000000000000000000005C
:10782C00000000000000000000000000000000004C
:10783C00000000000000000000000000000000003C
:10784C00000000000000000000000000000000002C
:10785C00000000000000000000000000000000001C
:10786C0029450D00F54B0D003D4C0D00FD4D0D0057
:10787C007D5B0D00A55E0D00E95E0D00E16A0D005B
:04788C00316C0D004E
:0478900000000000F4
:10789400FC750D0014760D0038760D00D0E503203C
:1078A40000000000000000000000000000000000D4
:1078B40000000000000000000000000000000000C4
:1078C40000000000000000000000000000000000B4
:1078D40000000000000000000000000000000000A4
:1078E4000000000000000000000000000000000094
:1078F4000000000000000000000000000000000084
:10790400FFFFFFFF00000102030405060708090A40
:107914000B0C0D0E0F101112131415161718191A3B
:087924001B1C1D1E1F20280082
:04792C007856341243
:04000003D000401CCD
:00000001FF
