:02000002D0002C
:1040000000400D00245D0D00000006000C000501BD
:084010000401DB0700000000C1
:04401800785A0D00C5
:10401C0009480A49884208B505D0094A824202D0AB
:10402C00121A01F0B9FC0748074A0021121A01F0D4
:10403C00C1FC014808BD00BF20E60320945C0D00C4
:10404C0088E6032088E60320F0E7032070B5074ECE
:10405C00074C00F0DBFDA41BA4080025A54200D1F1
:10406C0070BD56F8043B98470135F7E7685C0D00C6
:10407C008C5C0D0000F0C0B808B500F051F9BDE83B
:10408C00084000F085BD00F08BBB00F089BB00F050
:10409C008FBB0078B0FA80F04009704701230370A1
:1040AC00704703681847012A03D0022A03D0002066
:1040BC0070470160FBE70B680360F8E708B5052063
:1040CC0001F0BEF90021062001F0F3FB014B0222A6
:1040DC001A6008BD90E60320436913B183690C3064
:1040EC001847704713B500210446084600F0B4F990
:1040FC000023204601A9019300F0C6F9019C0CB1E4
:10410C00012323710021012000F0A6F92CB12368B2
:10411C0020469B6898470023237102B010BD000015
:10412C0013B5064B1B788DF8003000223C23044657
:10413C0000F0F0FE204602B010BD00BF8CE603205C
:10414C0010B58368044613B10322014698472046F4
:10415C0010BD07B58068002338B1CDE900130221EA
:10416C0000F09AF9B0FA80F0400903B05DF804FB56
:10417C0038B5104B036083680446A3B16FF000415F
:10418C000022FFF7E6FFA068002100F09DF92379DB
:10419C0003F0FF0513B100F057F9F8E7A0682946C2
:1041AC0000F06AF9A56004F10C00FFF7C9FF204686
:1041BC0038BD00BFE45A0D0010B50446FFF7D8FF18
:1041CC0020461C2101F0D3FB204610BD08B505206C
:1041DC0001F036F90021062001F06BFB00220448A7
:1041EC006FF00041FFF7B5FF024B01221A6008BDCA
:1041FC0094E6032090E6032008B53C21084800F023
:10420C00A3FD084A0849094800F08DFD002105204E
:10421C0001F03EFBBDE808400121062001F038BB4F
:10422C00D4E703208C5A0D0069420D00074D0D0098
:10423C0038B5046805467CB16368013B63605BB9C3
:10424C00236820469B689847A368013BA3601BB971
:10425C0023682046DB689847284638BD30B5194995
:10426C0085B000F0BCFB50B9174902A8FFF758FF06
:10427C0003A8FFF7DDFF4FF0FF3005B030BD002481
:10428C004FF0FF3301221149114D0094052001F02C
:10429C00ADF80121062001F00CFB224621462846F0
:1042AC00FFF757FFA86840B16FF0004300930194EB
:1042BC0023462246214600F0EFF8064B03221A60F3
:1042CC000120DAE7985A0D009C5A0D00D9410D00D7
:1042DC0094E6032090E6032013B50D4C23685BB1E4
:1042EC002368012B0AD10B496846FFF719FF01A877
:1042FC00FFF79EFF0023236002B010BD2368022B42
:10430C0001D10549F0E72368032BF5D10349EBE70D
:10431C0090E60320AA5A0D00B95A0D00CB5A0D0095
:10432C00FFF7DABF70B51B4A1B4C88B00023137023
:10433C001A4A049204AD95E80300194A226002AEB1
:10434C0004F10C0286E8030092E8030085E8030000
:10435C0096E8030082E80300124A6261A2692371A5
:10436C00A3600693079201930F4AA26101230F4A9F
:10437C00009341F28831234604F1080000F074F8F0
:10438C002846FFF7DDFE0A4A0A49204601F0EAFA00
:10439C0008B070BD8CE6032094E60320C9400D00E4
:1043AC00E45A0D00B3400D00AF400D00F1400D007C
:1043BC0088E603207D410D0008B5024B1B689B6805
:1043CC00019308BD6802030008B5024B1B68DB684B
:1043DC00019308BD6802030008B5024B1B689B687B
:1043EC00019308BD2C02030008B5024B1B68DB6867
:1043FC00019308BD2C02030008B5024B1B681B6916
:10440C00019308BD2C02030008B5024B1B689B6985
:10441C00019308BD2C02030008B5024B1B68DB6935
:10442C00019308BD2C02030008B5024B1B685B68A6
:10443C00019308BD1802030008B5024B1B685B69A9
:10444C00019308BD1802030008B5024B1B68DB681A
:10445C00019308BD4802030008B5024B1B68DB69D9
:10446C00019308BD4802030008B5024B1B681B6A88
:10447C00019308BD4802030008B5024B1B685B6A38
:10448C00019308BD4802030008B5024B1B689B6AE8
:10449C00019308BD4802030008B5024B1B68DB6A98
:1044AC00019308BD4802030008B5024B1B685B6C06
:1044BC00019308BD4802030008B5024B1B689B6CB6
:1044CC00019308BD4802030008B5024B1B681B6F23
:1044DC00019308BD4802030008B5024B1B685B69D9
:1044EC00019308BD6402030008B5024B1B681B68EE
:1044FC00019308BD3C02030008B5024B1B68DB6846
:10450C00019308BD3C02030008B5024B1B681B69F4
:10451C00019308BD3C02030008B5024B1B685B69A4
:10452C00019308BD3C02030008B5024B1B689B6954
:10453C00019308BD3C02030008B5024B1B68DB6904
:10454C00019308BD3C02030008B5024B1B681B6AB3
:10455C00019308BD3C02030008B5024B1B689B6A23
:10456C00019308BD3C02030008B5024B1B681B6A93
:10457C00019308BD2802030008B5024B1B685B6A57
:10458C00019308BD2802030008B5024B1B689B6A07
:10459C00019308BD2802030008B5024B1B68DB6AB7
:1045AC00019308BD2802030008B5024B1B681B6B66
:1045BC00019308BD2802030008B5024B1B685B6B16
:1045CC00019308BD2802030008B5024B1B681B6C45
:1045DC00019308BD2802030008B5024B1B68DB6978
:1045EC00019308BD3002030008B5024B1B681B6A1F
:1045FC00019308BD3002030008B5024B1B681B6811
:10460C00019308BD4C02030008B5024B1B681B69E3
:10461C00019308BD4C02030008B5024B1B685B6993
:10462C00019308BD4C02030008B5024B1B689B6943
:10463C00019308BD4C02030008B5024B1B68DB69F3
:10464C00019308BD4C02030008B5024B1B681B6AA2
:10465C00019308BD4C02030008B5024B1B685B6854
:10466C00019308BD2002030008B5024B1B68DB6CEC
:10467C00019308BD2002030008B5024B1B685B6D5B
:10468C00019308BD2002030008B5034B1B68D3F847
:10469C008830019308BD00002002030008B5034BCD
:1046AC001B68D3F89430019308BD0000200203006E
:1046BC0008B5024B1B685B68019308BD4002030000
:1046CC0008B5024B1B689B68019308BD40020300B0
:1046DC0008B5024B1B68DB68019308BD4002030060
:1046EC0008B5024B1B681B69019308BD400203000F
:1046FC0008B5024B1B685B69019308BD40020300BF
:10470C0008B5024B1B689B69019308BD400203006E
:10471C0008B5024B1B68DB69019308BD400203001E
:10472C0008B5024B1B681B6A019308BD40020300CD
:10473C0008B5024B1B681B6B019308BD40020300BC
:10474C0008B5024B1B685B6B019308BD400203006C
:10475C0008B5024B1B685B68019308BD440203005B
:10476C0008B5024B1B685B69019308BD440203004A
:10477C0008B5024B1B681B6A019308BD4402030079
:10478C0008B5024B1B68DB6B019308BD44020300A8
:10479C0008B5024B1B681B6C019308BD4402030057
:1047AC0008B5024B1B681B68019308BD1C02030073
:1047BC0008B5024B1B685B68019308BD1C02030023
:1047CC0008B5024B1B689B68019308BD1C020300D3
:1047DC0008B5024B1B68DB6A019308BD1C02030081
:1047EC0008B5024B1B681B6B019308BD1C02030030
:1047FC0008B5024B1B685B6C019308BD1C020300DF
:10480C00002240681146FFF78BBF0022406811461A
:10481C00FFF796BF40680022FFF78ABF406800226E
:10482C0081F00101FFF774BF002340681A46194656
:10483C00FFF766BF002340681A461946FFF758BFBA
:10484C00002240681146FFF74BBF0022406811461A
:10485C00FFF736BF406800220221FFF739BF002363
:10486C0040681A46FFF724BF024B03225A60024AE3
:10487C001A607047B0E60320F85A0D0010B50446D4
:10488C0008462170FFF7A8FE00236360204610BD88
:10489C0010B50446006818B1FFF78AFF00232360A7
:1048AC0010BD10B50446FFF7F3FF204610BD000005
:1048BC0010B5094B094C022200201A60084B2060ED
:1048CC00A080A071A360FFF7C7FE2046054A0649E9
:1048DC00BDE8104001F046B8C4E60320B8E603205A
:1048EC000000FFFF88E60320AF480D0010B504461A
:1048FC000068FFF75DFF204610BD10B50446006848
:10490C0008B1FFF755FF0023C4E90133236010BD44
:10491C0038B504460D4600680131FFF751FF10B160
:10492C00C4E90005012038BD10B50368044623B165
:10493C0043688B4201D3012010BD2046FFF7E8FFEE
:10494C000028F9D0A368002BF5D122681370F2E788
:10495C0037B50D46114601920446FFF7E5FF019A63
:10496C0028B92046FFF7C9FF204603B030BDA2602E
:10497C002946206801F010F82268A3680021D15460
:10498C00F2E7002313B5C0E90033044683600373D8
:10499C0041B10846019101F060F8019902462046A8
:1049AC00FFF7D6FF204602B010BD884210B5044672
:1049BC0005D00B682BB18A681946FFF7C9FF204652
:1049CC0010BDFFF79AFFFAE710B500230446C0E9C3
:1049DC00003383600373FFF7E8FF204610BD08B572
:1049EC0082683AB921B10878B0FA80F0400900E049
:1049FC00012008BD006809B90078F5E701F006F858
:104A0C00F2E710B50446006808B1FFF755FD2046E3
:104A1C0010BD0B68036013B15A6801325A607047BD
:104A2C0010B5064C002320462360FFF73DFD2046C1
:104A3C00034A0449BDE8104000F094BFC8E60320C7
:104A4C0088E603200F4A0D00F8B506460D468F1870
:104A5C000024BD420CD0336815F8011B9B6830460E
:104A6C009847031E01DB1C44F3E7002C08BF1C46CF
:104A7C002046F8BD13B50446084659B1019100F023
:104A8C00ECFF23680199DB680246204602B0BDE8C2
:104A9C001040184702B010BD03689B68184730B52A
:104AAC008BB000238DF82430012A98BF0A2209AC60
:104ABC000D46B1FBF2F101FB125303F0FF03092B7E
:104ACC0094BF30333733DBB2AA4204F8013DEFD93F
:104ADC002146FFF7CFFF0BB030BD0000014B024A5F
:104AEC001A607047CCE60320245B0D00024B1A6859
:104AFC00024B1A60704700BF20E60320D0E603206B
:104B0C0010B50446FFF71CFB204610BD13B50B4631
:104B1C000246D0E900016C4684E8030093E80300E8
:104B2C0082E8030094E8030083E8030002B010BDA0
:104B3C000348044A04490023836000F013BF00BFFC
:104B4C00D4E6032088E603200D4B0D00014B1860C2
:104B5C00704700BF24E6032008B50B4B43B100F0AF
:104B6C0019FC03681B699847002801DDAFF300802E
:104B7C00064B43B100F0D2FC03681B699847002830
:104B8C0001DDAFF3008008BD000000000000000054
:104B9C0008B5FFF7E1FFFFF74FFC014B186008BDAC
:104BAC00D0E703200248034A0349121A00F0F4BE6E
:104BBC0000F4032004F40320905C0D0007B50023DF
:104BCC0000931A466FF07701FFF768FD03B05DF8AC
:104BDC0004FB000007B543880A2B08D0502B0BD1DF
:104BEC00094B1B684BB103B05DF804EB1847FFF79A
:104BFC00E5FF03B05DF804FB002300931A466FF049
:104C0C007701FFF74BFDF4E7E8E6032038B5124CCB
:104C1C001248134D0021FFF7EBFD2368AB42114BFB
:104C2C000CBF012200221A7002D0FFF7BBFF2560D7
:104C3C00FFF7FAFB044600F0C5FE0B4B13B1204600
:104C4C00AFF3008000210848FFF79AFDBDE838401B
:104C5C0006480021FFF718BD00F40320594B0D0046
:104C6C001E1C279AE4E6032000000000E14B0D0017
:104C7C0070470020704710B51021044600F077FEF5
:104C8C00204610BD08B5FFF7F6FF08BD30B5002271
:104C9C004FF69C74026084808D888C800C688580B3
:104CAC0004600A6030BD10B504460068FFF780FD53
:104CBC00204610BD38B5C468F4B12378022B03D15B
:104CCC0004F10C00FFF7EFFF656835B12846FFF7DC
:104CDC0037FA1021284600F04AFEA56835B128465F
:104CEC00FFF72EFA1021284600F041FE2046142131
:104CFC00BDE8384000F03BBE38BD10B588B0044666
:104D0C006846FFF73EFE694604A8FFF75DFE04A85F
:104D1C00A047044604A8FFF7E9FD6846FFF7E6FD47
:104D2C00204608B010BD1FB50023CDE90201019249
:104D3C0010241A4669461846ADF80230ADF800400A
:104D4C00FFF706FD04B010BD08460021FFF720BD9B
:104D5C0073B50E46044656F8043B00930D4601A865
:104D6C003146FFF756FE019A009B6260236001A852
:104D7C00002301930093FFF75BFA3046FFF758FAD4
:104D8C002846082100F0F3FD204602B070BD826871
:104D9C0010B50AB900F0EFFDBDE81040C368184724
:104DAC0008B5006800F11001FFF7F1FF08BD82683B
:104DBC0010B50AB900F0DFFDBDE81040C368184714
:104DCC0008B5006800F11001FFF7F1FF08BD000005
:104DDC0038B500230446036010200D46FFF753F945
:104DEC0028B10123C0E90133024B0360C560206088
:104DFC00204638BD4C5B0D0038B5002383608B68B2
:104E0C0004460D462BB102229847EB68E360AB6871
:104E1C00A360204638BD0000F0B589B00468684630
:104E2C00FFF734FF4FF00203D4E84F2F002A03D1D1
:104E3C00C4E8413F0029F7D125D104F10C0569469E
:104E4C002846FFF723FFBFF35B8F0123637000201D
:104E5C0004F10803BFF35B8F53E8006F43E80002D3
:104E6C00002AF9D1BFF35B8F6EB1FFF7FDFB78B170
:104E7C0029463046FFF78BFF3046FFF761F91021CA
:104E8C00304600F074FD6846FFF70DFF09B0F0BD29
:104E9C00314602A8FFF7B0FFE068B4F9105008B132
:104EAC0000F0BEFD06901020ADF81C50FFF7EBF89B
:104EBC000546E8B1002787601820FFF7E4F80446A0
:104ECC0088B10146876002A8FFF720FE049BA26808
:104EDC00A360059B049206A9E268E36004F110004C
:104EEC000592FFF7D3FE084BEB60084B2C60AB60D0
:104EFC0006A8FFF7D8FE02A8FFF722F900222946E0
:104F0C000348FFF7B9FBB7E7AD4D0D0045500D0059
:104F1C00B1550D002DE9F0478AB005469DF8489033
:104F2C000C4617469846FFF71BFC07AE824638BB6B
:104F3C004FF62E73059005A93046ADF81830FFF7E3
:104F4C00A5FE1420FFF79FF8044648B10223037016
:104F5C000123C0E901AA437031460C30FFF796FEDD
:104F6C002846214640F8044BFFF732FF3046FFF746
:104F7C009AFE05A8FFF797FE28460AB0BDE8F08711
:104F8C000C234FF0000A1420CDE908AA0793FFF771
:104F9C007AF8014628B1C0E901AA80F800A080F88F
:104FAC0001A004A80391FFF713FF224B08930820DC
:104FBC00FFF769F8824628B1039B40F8043B04A92B
:104FCC00FFF727FD00965FFA89F3424639462046E3
:104FDC00CDF824A0FFF7CCFBB8B9039B5B7803F0AA
:104FEC00FF0293B94FF69C7305A903A80592ADF87F
:104FFC001830FFF711FF05A8FFF755FE05A8099912
:10500C00FFF7A6FE06A8FFF713F9039B059304A967
:10501C0006A8FFF7FEFC059B069A2B606A6000232E
:10502C0006A806930593FFF703F904A8FFF700F908
:10503C00A2E700BF09510D00022AF8B5054607D0BA
:10504C00032A18D0012A01D10B6803600020F8BD97
:10505C0018200E68FFF717F8044650B13146FFF7D9
:10506C00CBFE3069B6F9147008B100F0D9FC2061A0
:10507C00A7822C60EAE70468002CE7D004F110004A
:10508C00FFF711FE2046FFF75BF81821204600F0D1
:10509C006EFCDBE738B5002383608B6804460D4655
:1050AC002BB102229847EB68E360AB68A360204603
:1050BC0038BD022A70B5044607D0032A12D0012A43
:1050CC0001D10B680360002070BD14200E68FEF740
:1050DC00DAFF054620B13146FFF7DCFF337C2B7439
:1050EC002560F0E70468002CEDD02046FFF728F887
:1050FC001421204600F03BFCE5E70000F0B589B038
:10510C0004460D4601A81146FFF722FEA4B124B2B5
:10511C001DB1284600F084FC054601A803A903959F
:10512C00ADF81040FFF778FE03A8FFF7BCFD02A80E
:10513C00FFF77EF809B0F0BD019D0123D5E84F2F94
:10514C00002A03D1C5E8413F0029F7D1EFD12B73D9
:10515C00BFF35B8F6B702B1DBFF35B8F53E8006F3E
:10516C0043E80042002AF9D1BFF35B8F002EDED05A
:10517C002046FFF779FA074660B105F10C0130467D
:10518C00FFF715FE3046FEF7DBFF1021304600F02E
:10519C00EEFBCCE7314603A8FFF77CFF2B7B8DF8A9
:1051AC001C301020FEF76FFF0546D0B1876014202D
:1051BC00FEF769FF044678B18760014603A8FFF744
:1051CC00A5FC059BA268A360069B0592E268E360C0
:1051DC009DF81C3006922374064BEB60064B2C603A
:1051EC00AB6003A8FEF7ACFF002229460348FFF78B
:1051FC0043FAC7E7CD4D0D00BF500D00B1550D0062
:10520C00704710B51821044600F0B1FB204610BDC4
:10521C00F0B5037D062B8DB00E4600F104074FF060
:10522C00000412D000F1080515F8011D0A223046C1
:10523C00FFF735FCAF42044419D0002CF4D02E21DA
:10524C003046FFF729FC0444EEE72F236A46394623
:10525C000A208DF80040FFF73FF9684600F0FDFB8F
:10526C0033680246DB686946304698470446204658
:10527C000DB0F0BD10B5054B0446112240F8043BAF
:10528C00002100F097FB204610BD00BF685B0D00AD
:10529C000346074A10B543F8042B01F1100251F8EC
:1052AC00044B43F8044B9142F9D10A781A7010BDA3
:1052BC00685B0D0010B59DF8084044EA032343EAEF
:1052CC00024242EA016104234160037510BD13B52B
:1052DC00CB7800938B784A780978FFF7EBFF02B014
:1052EC0010BD41747047704708B50021007CFFF772
:1052FC009BF940EAE07008BD08B50121007CFFF77E
:10530C0093F940EAE07008BD08B5007CFFF784F91A
:10531C0020EAE07008BD08B5007CFFF775F920EABB
:10532C00E07008BD13B50446007C0191FFF774F9D9
:10533C000028019901DC607C20B1207CFFF77CF90E
:10534C0020EAE07002B010BD007CFFF77DB910B50B
:10535C001421044600F00BFB204610BD10B54FF491
:10536C007A73044608460021C4E90113044B2360F8
:10537C000123207463741146FFF73EF9204610BDDB
:10538C007C5B0D0010B514220446002100F012FBCA
:10539C00204610BD10B5104C88B003A8FFF7F2FFE3
:1053AC002178BFF35B8F11F0010111D120460191DF
:1053BC00FEF76FFE019958B103AA0848FFF7CEFF1C
:1053CC002046FEF76BFE064A0649044800F0CAFA6E
:1053DC00024808B010BD00BFECE60320F0E6032045
:1053EC0088E60320F3520D00004700002DE9FF4131
:1053FC0000241D460F4690460646FFF70DF8A542C1
:10540C004FF00403ADF80D408DF80C308DF80F40C3
:10541C00A2BF9DF828308DF80E3003AC07490094DC
:10542C0043463A463046A8BF8DF80D50FEF7ECFFC8
:10543C00B0FA80F0400904B0BDE8F081F5530D00DE
:10544C00F8B50446FEF7E8FF054670B9084F57F863
:10545C00246046B13046FEF773FE1021304600F052
:10546C0086FA47F82450012000E00020F8BD00BF68
:10547C0004E7032070474174704708B5007CFFF7C0
:10548C006BF820EAE07008BD08B5007CFFF73CF82B
:10549C0020EAE07008BD08B5007CFFF745F840EA4B
:1054AC00E07008BD08B5007CFFF736F840EAE07004
:1054BC0008BD007CFFF740B837B5457C04462DB1DC
:1054CC00207C03B0BDE83040FFF716B8007C01919A
:1054DC00FFF742F800280199F2DC284603B030BDF2
:1054EC0010B51421044600F042FA204610BD00000D
:1054FC0010B54FF0000C0446084611464FF47A7272
:10550C00C4E901C2044A22600122207462741A4662
:10551C00FEF7EAFF204610BDAC5B0D00F7B51B4C47
:10552C0026684EB98420FEF7AEFD054618B18422DC
:10553C00314600F03FFA2560154D2F684FB9842095
:10554C00FEF7A1FD064618B18422394600F032FA66
:10555C002E60104E3178BFF35B8F11F0010112D128
:10556C0030460191FEF795FD019960B122682B68D8
:10557C000948FFF7BDFF3046FEF790FD074A084982
:10558C00054800F0EFF9044803B0F0BD98E703209C
:10559C009CE7032094E70320A0E7032088E6032080
:1055AC0081540D0010B5836804460BB900F0E3F983
:1055BC00C3689847A3681BB103222146204698472D
:1055CC0020461021BDE8104000F0D1B97047F8B565
:1055DC00064615460C468F18BC4206D0336814F8A4
:1055EC00011B9B6830469847F6E72846F8BD007CBF
:1055FC000022FEF7B9BF007C0021FEF7BDBF007C86
:10560C000021FEF7C1BF007C0021FEF7C5BF007C66
:10561C000021FEF7C9BF10B51421044600F0A7F90C
:10562C00204610BD10B54FF47A730446084600218D
:10563C00C4E90113034B236020741146FEF7C4FF29
:10564C00204610BDDC5B0D00002240681146FFF7C0
:10565C0047B8002240681146FFF762B80022406844
:10566C001146FFF76DB840680022FFF761B840683B
:10567C00002281F00101FFF74BB8002340681A4665
:10568C001946FFF73DB8002340681A461946FFF744
:10569C002FB8002240681146FFF712B8406800226C
:1056AC000221FFF715B8002340681A46FFF700B82F
:1056BC00024B04225A60024A1A607047B4E7032076
:1056CC00045C0D00002340681A46FEF7F1BF4068E9
:1056DC0000220221FEF7FCBF002240681146FEF7B3
:1056EC00EFBF002240681146FEF7FABF0023406866
:1056FC001A461946FEF7FCBF002340681A461946A5
:10570C00FEF7FEBF4068002281F00101FFF700B8F0
:10571C0040680022FFF70CB8002240681146FFF7E2
:10572C000FB8002240681146FEF7FABF2DE9F0438E
:10573C00002495B016460D460746FFF79BFD214603
:10574C0018220EA8009400F035F94023CDE90C3452
:10575C0021466B460CAA3046FEF736FE044600285E
:10576C0046D1024601216868FEF7BAFF0221804645
:10577C0022466868FEF7B4FF009E81462146002E43
:10578C0036D0002934D17368022B03D00A2B0BD0EE
:10579C00F669F4E7B8F1000F04D0716938460431AA
:1057AC00FFF795FD4146F3E7B9F1000F01D14946EA
:1057BC00EEE77469102201A800F0FCF806238DF8BE
:1057CC00143001AD04F108031834186859682A46DE
:1057DC0003C20833A3421546F7D101A906A807ADA9
:1057EC00FFF756FD0FCD3C1D0FC42B682370DEE771
:1057FC000098FEF7E1FD384615B0BDE8F0830000D7
:10580C00024B034A1A6000225A607047BCE703201F
:10581C00385C0D00232813B502D9002002B010BD4E
:10582C00A0F10B03022B1AD8174C2178BFF35B8F16
:10583C0011F001010BD120460191FEF72AFC0199D0
:10584C0028B11248FFF71AF82046FEF727FC0F4B39
:10585C001878FEF7C9FE0028DFD10120DEE7012809
:10586C0009D800F057F80021007CFEF7A5FE80F067
:10587C000100C0B2D2E709380128EED8FFF74EFE7E
:10588C00007CFEF761FEF2E7C4E70320C8E70320C3
:10589C00232838B504460D460AD8FF2908D0FFF74F
:1058AC00B9FF28B129462046BDE83840FEF794BD23
:1058BC0038BD38B504460D46FEF796FDFF2810D0CE
:1058CC00062804D84D2323FA00F0C30709D4204638
:1058DC00FFF7A0FF28B129462046BDE83840FEF767
:1058EC008BBD38BD38B500232025438014230446D6
:1058FC000380856005610649284600F03AF80449A2
:10590C006060284600F035F8E060204638BD00BFE6
:10591C00645C0D0030B50F4D2978BFF35B8F11F02F
:10592C00010487B013D12846FEF7B3FB78B101A868
:10593C00FFF7D8FF01AA21460748FFF773FE284658
:10594C00FEF7ACFB054A0649034800F00BF8024889
:10595C0007B030BDD8E70320DCE7032088E603203E
:10596C00D9550D000B460146184600F007B8FEF756
:10597C008EBBFEF78ABB08B5FEF72AFF10B5054CA7
:10598C0013462CB10A4601460220AFF3008010BD2D
:10599C002046FCE7000000000A44914200F1FF336E
:1059AC0000D1704710B511F8014B03F8014F91422B
:1059BC00F9D110BD02440346934200D1704703F85D
:1059CC00011BF9E738B50D4B1D68AB6B04467BB971
:1059DC001820FEF7E5FE0A4A0A4BA863C0E900232B
:1059EC00094B83600B23838101220023C0E904232C
:1059FC00AB6B00221C615A6138BD00BF24E603204A
:105A0C000E33CDAB34126DE6ECDE050010F8012B35
:105A1C0011F8013B012A28BF9A42F7D0D01A7047DF
:105A2C00024B0146186800F003B800BF24E60320BF
:105A3C0037B5044608460D4600F00FF8421C1146D7
:105A4C0020460192FEF7CCFE044618B1019A294675
:105A5C00FFF7A2FF204603B030BD034613F8012B1D
:105A6C00002AFBD1181A0138704700001D400D00A8
:105A7C0059400D0081400D0085400D0000000000D4
:105A8C00536F756E6420416C61726D0072756E009F
:105A9C0077726F6E672D636F6D6D616E64006275EA
:105AAC0074746F6E2D7072657373656400657363C7
:105ABC00616C6174652D726573706F6E73650061D6
:105ACC006C61726D2D736F756E64656400000000FF
:105ADC0000000000000000007D410D00C5410D00DC
:105AEC00E5400D0000000000000000006B480D00B8
:105AFC0061480D0057480D004D480D0041480D0000
:105B0C0035480D0029480D0021480D0017480D009F
:105B1C000D480D0039570D006170700025592D2569
:105B2C006D2D25645425483A254D3A2553257A0088
:105B3C0061736374696D6500000000000000000073
:105B4C007D4C0D00834C0D00C14C0D00914C0D0093
:105B5C007F4C0D0000000000000000001D520D00E5
:105B6C000D520D000F520D0000000000000000004F
:105B7C00F3520D005B530D0031530D00554A0D00CF
:105B8C0023530D00F5520D0005530D0055530D0018
:105B9C0015530D00EF520D00000000000000000036
:105BAC0081540D00ED540D00C5540D00554A0D00E7
:105BBC0095540D00B1540D00A3540D00BF540D00AD
:105BCC0083540D0087540D000000000000000000FD
:105BDC00D9550D0023560D00FB550D00DB550D005E
:105BEC0003560D000B560D0013560D001B560D00E1
:105BFC000000000000000000B3560D00A9560D0077
:105C0C009F560D0055560D0093560D0087560D00EE
:105C1C007B560D0073560D0069560D005F560D0036
:105C2C0039570D000000000000000000D1560D0097
:105C3C00DB560D00E5560D00EF560D00F9560D0024
:105C4C0005570D0011570D001D570D0025570D0060
:105C5C002F570D0039570D000000000031430D0087
:105C6C0075480D00BD480D002D4A0D00E94A0D0088
:105C7C00F94A0D003D4B0D00BD560D000D580D00A1
:045C8C000000000014
:045C90000000000010
:105C94003C5B0D0028E6032000000000000000002B
:105CA40000000000000000000000000000000000F0
:105CB40000000000000000000000000000000000E0
:105CC40000000000000000000000000000000000D0
:105CD40000000000000000000000000000000000C0
:105CE40000000000000000000000000000000000B0
:085CF4000000000000000000A8
:105CFC00FFFFFFFF00000102030405060708090A65
:105D0C000B0C0D0E0F101112131415161718191A5F
:085D1C001B1C1D1E1F202800A6
:045D24007856341267
:04000003D000401CCD
:00000001FF
