:02000002D0002C
:1040000000400D00EC770D00000006000C000501DB
:084010000401DB0700000000C1
:0440180014730D0010
:10401C0009480A49884208B505D0094A824202D0AB
:10402C00121A03F023F80748074A0021121A03F06A
:10403C0045F8014808BD00BF50E6032054770D0039
:10404C00C0E60320C0E60320F0E7032070B5074E5E
:10405C00074C01F079FFA41BA4080025A54200D150
:10406C0070BD56F8043B98470135F7E72C770D00E7
:10407C0050770D0000F07EB908B500F039F9BDE8B5
:10408C00084001F023BF00F0FDBC00F0FBBC00F0C9
:10409C0001BD000008B5034A00210C2000F02EFCE5
:1040AC00FEE700BF59460D000078B0FA80F04009D9
:1040BC0070470123037070477047006A0368DB6820
:1040CC0018470000014B01221A707047C5E6032007
:1040DC00014B01221A70704708E703200368184748
:1040EC00012A03D0022A03D0002070470160FBE7AD
:1040FC000B680360F8E7436913B183690C30184708
:10410C00704713B500210446084600F0B7FA0023A7
:10411C00204601A9019300F0C9FA019C0CB10123BE
:10412C0023710021012000F0A9FA2CB1236820464C
:10413C009B6898470023237102B010BD10B503682B
:10414C0004469B689847A368013BA3602BB923687E
:10415C002046DB68BDE81040184710BD0A4B10B56F
:10416C000446036000F0E8FF214601F0EAF902F092
:10417C008FFA02F081FA2046044B40F8043B01F020
:10418C00CDF8204610BD00BFB0730D0098730D0024
:10419C0010B50446FFF7E2FF2046242102F04FFF42
:1041AC00204610BD10B58368044613B103220146A6
:1041BC009847204610BD07B58068002338B1CDE97B
:1041CC000013022100F07AFAB0FA80F0400903B033
:1041DC005DF804FB38B5104B036083680446A3B14B
:1041EC006FF000410022FFF7E6FFA068002100F00D
:1041FC008DFA237903F0FF0513B100F037FAF8E7D5
:10420C00A068294600F04AFAA56004F10C00FFF7FB
:10421C00C9FF204638BD00BF84730D0010B504469D
:10422C00FFF7D8FF20461C2102F009FF204610BDE5
:10423C000EB410B58DB00FAA016852F8044B03925E
:10424C0000232020CDE90403CDE900421E2004AA5E
:10425C0000F05CFB0DB0BDE8104003B070470000EF
:10426C001FB50D490D48FFF7E3FF0D4B0D491B78AA
:10427C008DF8003002A83C23002201F0C1FF039806
:10428C0028B14368013B43600BB9FFF757FF062089
:10429C0002F06BFAFEE700BF28730D0034E7032031
:1042AC00C4E6032038730D001FB50D490D48FFF708
:1042BC00BFFF0D4B0D491B788DF8003002A83C2335
:1042CC00002201F09DFF039828B14368013B436035
:1042DC000BB9FFF733FF062002F047FAFEE700BFE9
:1042EC0047730D0034E70320C4E6032058730D0018
:1042FC0008B5054B1B780BB1FFF7B2FF034B1B78CE
:10430C000BB1FFF7D1FF08BDC5E6032008E703207A
:10431C0037B50024134D144900944FF0FF3301229C
:10432C00072002F0E1F9224621462846FFF743FF19
:10433C00A86840B16FF000430093019423462246D5
:10434C00214600F0BBF900224FF4DC61062002F09C
:10435C00F5F906490648FFF76BFFFFF7C9FF012087
:10436C0003B030BDECE60320D1400D0068730D00A6
:10437C0034E703201FB53C210F4801F05CFE0121FE
:10438C00062002F005FE0021072002F001FE41F29A
:10439C00883001F04FFD09490948FFF749FF0949E9
:1043AC00684600F068FC6846FFF7B2FF684600F00C
:1043BC0017FC05B05DF804FBD4E7032071730D0006
:1043CC0034E7032078730D0070B5D0E90053142640
:1043DC00044606FB0356AE4204D0284600F000FC0F
:1043EC001435F8E7206800F055FB204670BD884274
:1043FC00F8B504460D46164616D9904215D2A2F1D0
:10440C001406751AA1F114072C44B7421CD02CB118
:10441C003146204600F060FC337C2374304600F0BB
:10442C00DFFB143E143CF0E70ED0B5420CD02CB19F
:10443C002946204600F050FC2B7C2374284600F0C3
:10444C00CFFB14351434F0E7F8BD2DE9F04100230F
:10445C00C0E9003383604F689F4204460E4623DD5B
:10446C004FF0140808FB07F000F00CFB0546D8B120
:10447C00D4E9001208FB0212FFF7B9FF206800F024
:10448C0009FB2560A760D6E9007308FB0378B845E3
:10449C0008D03946284600F039FC3B7C2B74143785
:1044AC001435F4E7736863602046BDE8F0810000C2
:1044BC002DE9F0433B4B3C4CDFF81C9191B00122B1
:1044CC001A703A4B0C930CAD95E80300384B2360F3
:1044DC0009AE04F10C0386E8030093E8030085E8B9
:1044EC00030096E8030083E80300324B6361A36981
:1044FC000F930027304B2771A760A36141F28831DD
:10450C002346CDE9002704F108002C4A0E9700F051
:10451C00BDF82846FFF746FE4A462949204602F0D8
:10452C0089FDCDE90377059702F0B2F8254C0746D3
:10453C0003A906A8FFF789FFA04606A93046FFF796
:10454C0084FF214B48F8043B31462846FFF77DFF9A
:10455C002A461E21404601F047F92846FFF734FF52
:10456C003046FFF731FF194B2360276206A8FFF78F
:10457C002BFF174B236002F08BF84FF4165102F00F
:10458C0077F800F0D9FD214601F0C0F803A8FFF739
:10459C001BFF10494A46204602F04CFD11B0BDE805
:1045AC00F08300BFC4E60320ECE60320DD400D00E1
:1045BC0084730D00ED400D00E9400D000F410D001E
:1045CC00E1410D00C8E6032098730D008C740D00BA
:1045DC00B0730D0069410D00C0E6032008B5024B15
:1045EC001B689B68019308BD6802030008B5024B69
:1045FC001B68DB68019308BD6802030008B5024B19
:10460C001B685B68019308BD2C02030008B5024BC4
:10461C001B689B68019308BD2C02030008B5024B74
:10462C001B689B69019308BD2C02030008B5024B63
:10463C001B68DB69019308BD2C02030008B5024B13
:10464C001B685B68019308BD1802030008B5024B98
:10465C001B68DB68019308BD1802030008B5024B08
:10466C001B685B69019308BD1802030008B5024B77
:10467C001B68DB68019308BD4802030008B5024BB8
:10468C001B68DB69019308BD4802030008B5024BA7
:10469C001B681B6A019308BD4802030008B5024B56
:1046AC001B685B6A019308BD4802030008B5024B06
:1046BC001B689B6A019308BD4802030008B5024BB6
:1046CC001B68DB6A019308BD4802030008B5024B66
:1046DC001B685B6C019308BD4802030008B5024BD4
:1046EC001B689B6C019308BD4802030008B5024B84
:1046FC001B68DB6C019308BD4802030008B5024B34
:10470C001B685B6D019308BD4802030008B5024BA2
:10471C001B681B6F019308BD4802030008B5024BD0
:10472C001B685B69019308BD6402030008B5024B6A
:10473C001B681B68019308BD3C02030008B5024BC3
:10474C001B689B68019308BD3C02030008B5024B33
:10475C001B68DB68019308BD3C02030008B5024BE3
:10476C001B681B69019308BD3C02030008B5024B92
:10477C001B685B69019308BD3C02030008B5024B42
:10478C001B689B69019308BD3C02030008B5024BF2
:10479C001B68DB69019308BD3C02030008B5024BA2
:1047AC001B681B6A019308BD3C02030008B5024B51
:1047BC001B689B6A019308BD3C02030008B5024BC1
:1047CC001B68DB6A019308BD3C02030008B5024B71
:1047DC001B681B6A019308BD2802030008B5024B35
:1047EC001B685B6A019308BD2802030008B5024BE5
:1047FC001B689B6A019308BD2802030008B5024B95
:10480C001B68DB6A019308BD2802030008B5024B44
:10481C001B681B6B019308BD2802030008B5024BF3
:10482C001B685B6B019308BD2802030008B5024BA3
:10483C001B681B6C019308BD2802030008B5024BD2
:10484C001B68DB69019308BD3002030008B5024BFD
:10485C001B681B6A019308BD3002030008B5024BAC
:10486C001B681B68019308BD2402030008B5024BAA
:10487C001B685B68019308BD2402030008B5024B5A
:10488C001B681B68019308BD4C02030008B5024B62
:10489C001B685B68019308BD4C02030008B5024B12
:1048AC001B689B68019308BD4C02030008B5024BC2
:1048BC001B681B69019308BD4C02030008B5024B31
:1048CC001B685B69019308BD4C02030008B5024BE1
:1048DC001B689B69019308BD4C02030008B5024B91
:1048EC001B68DB69019308BD4C02030008B5024B41
:1048FC001B681B6A019308BD4C02030008B5024BF0
:10490C001B685B6B019308BD6002030008B5024B8A
:10491C001B685B6D019308BD6002030008B5024B78
:10492C001B68DB6E019308BD6002030008B5024BE7
:10493C001B681B6F019308BD6002030008B5024B96
:10494C001B685B68019308BD2002030008B5024B8D
:10495C001B685B69019308BD2002030008B5024B7C
:10496C001B68DB6C019308BD2002030008B5024BE9
:10497C001B685B6D019308BD2002030008B5034B57
:10498C001B68D3F88830019308BD00002002030097
:10499C0008B5034B1B68D3F89430019308BD000095
:1049AC002002030008B5024B1B685B68019308BD2D
:1049BC004002030008B5024B1B689B68019308BDBD
:1049CC004002030008B5024B1B68DB68019308BD6D
:1049DC004002030008B5024B1B681B69019308BD1C
:1049EC004002030008B5024B1B685B69019308BDCC
:1049FC004002030008B5024B1B689B69019308BD7C
:104A0C004002030008B5024B1B68DB69019308BD2B
:104A1C004002030008B5024B1B681B6A019308BDDA
:104A2C004002030008B5024B1B681B6B019308BDC9
:104A3C004002030008B5024B1B685B6B019308BD79
:104A4C004002030008B5024B1B685B69019308BD6B
:104A5C004402030008B5024B1B681B6A019308BD96
:104A6C004402030008B5024B1B68DB6B019308BDC5
:104A7C004402030008B5024B1B681B6C019308BD74
:104A8C004402030008B5024B1B681B68019308BD68
:104A9C001C02030008B5024B1B685B68019308BD40
:104AAC001C02030008B5024B1B689B68019308BDF0
:104ABC001C02030008B5024B1B685B6A019308BD1E
:104ACC001C02030008B5024B1B68DB6A019308BD8E
:104ADC001C02030008B5024B1B681B6B019308BD3D
:104AEC001C02030008B5024B1B685B6C019308BDEC
:104AFC001C020300002240681146FFF78BBF002206
:104B0C0040681146FFF796BF40680022FFF78ABF46
:104B1C004068002281F00101FFF774BF0023406858
:104B2C001A461946FFF766BF002340681A46194615
:104B3C00FFF758BF002240681146FFF74BBF002219
:104B4C0040681146FFF736BF406800220221FFF78C
:104B5C0039BF002340681A46FFF724BF024B0322DB
:104B6C005A60024A1A6070470CE70320C8730D00A4
:104B7C0010B5044608462170FFF760FE0023636001
:104B8C00204610BD10B50446006818B1FFF782FF2F
:104B9C000023236010BD10B50446FFF7F3FF204639
:104BAC0010BD000010B5094B094C022200201A6000
:104BBC00084B2060A080A071A360FFF7BFFE2046C9
:104BCC00054A0649BDE8104002F034BA20E703203C
:104BDC0014E703200000FFFFC0E60320A34B0D00E9
:104BEC0010B504460068FFF755FF204610BD10B500
:104BFC000446006808B1FFF74DFF0023C4E90133F8
:104C0C00236010BD38B504460D4600680131FFF72E
:104C1C0049FF10B1C4E90005012038BD10B5036887
:104C2C00044623B143688B4201D3012010BD2046BA
:104C3C00FFF7E8FF0028F9D0A368002BF5D1226814
:104C4C001370F2E737B50D46114601920446FFF793
:104C5C00E5FF019A28B92046FFF7C9FF204603B0AB
:104C6C0030BDA2602946206802F000FA2268A368D1
:104C7C000021D154F2E7002313B5C0E900330446F8
:104C8C008360037341B10846019102F08AFA0199DD
:104C9C0002462046FFF7D6FF204602B010BD38B5BD
:104CAC00054600680C4668B16A688B689A4207D35F
:104CBC00096802F050FAA368AB600023A36038BD0A
:104CCC00FFF7E8FE23682B6063686B60A368AB603A
:104CDC000023C4E90033F1E710B50023C0E9003329
:104CEC00044683600373FFF7DAFF204610BD884249
:104CFC0010B5044605D00B682BB18A681946FFF72E
:104D0C00A1FF204610BDFFF772FFFAE710B5002394
:104D1C000446C0E9003383600373FFF7E8FF2046C5
:104D2C0010BD10B5036804469B689847A368013B07
:104D3C00A3602BB923682046DB68BDE810401847F8
:104D4C0010BD10B50446006808B1FFF7C7FC20463B
:104D5C0010BD0B68036013B15A6801325A6070477A
:104D6C0010B50446006828B14368013B43600BB999
:104D7C00FFF7D7FF204610BD10B5064C0023204688
:104D8C002360FFF7A3FC2046034A0449BDE810400A
:104D9C0002F050B924E70320C0E603204F4D0D006C
:104DAC00F8B506460D468F180024BD420CD033686A
:104DBC0015F8011B9B6830469847031E01DB1C4409
:104DCC00F3E7002C08BF1C462046F8BD13B504467B
:104DDC00084659B1019102F0E4F923680199DB68A6
:104DEC000246204602B0BDE81040184702B010BD84
:104DFC0003689B68184738B50D210546FFF7F8FF87
:104E0C000A2104462846FFF7F3FF204438BD30B58D
:104E1C008BB000238DF82430012A98BF0A2209ACEC
:104E2C000D46B1FBF2F101FB125303F0FF03092B0A
:104E3C0094BF30333733DBB2AA4204F8013DEFD9CB
:104E4C002146FFF7C3FF0BB030BD2DE9F04186B012
:104E5C0000AF05460E46381D142114463B60FFF783
:104E6C0029FE13280ED8391D2846FFF7AFFF04463C
:104E7C001EB12846FFF7BFFF044420461837BD4635
:104E8C00BDE8F08100F1080323F00703E846ADEB21
:104E9C00030D2246411C3B686846FFF70BFE694632
:104EAC002846FFF793FF0446C546E1E78068036890
:104EBC00DB6818477047084611B10B685B681847E8
:104ECC00704770477047704738B504460D46006808
:104EDC002E2102F02CF92368C31A2B6023B103781E
:104EEC0003B1013023682060184638BD10B50C2181
:104EFC00044602F0A4F8204610BD10B50421044667
:104F0C0002F09DF8204610BD10B50421044602F0B5
:104F1C0096F8204610BD08B502F013F9B0FA80F0EF
:104F2C00400908BD10B50C4601F0B2FB844210D00C
:104F3C0001F08CFC844205D101F088FCBDE81040E6
:104F4C0001F081BC2CB1236820465B68BDE81040A1
:104F5C00184710BD13B504460846019102F021F91B
:104F6C0001990246204602B0BDE8104001F0C2BFD4
:104F7C0013B504460846019102F013F92368019910
:104F8C00DB680246204602B0BDE81040184707B562
:104F9C0003688DF80710DB6801220DF107019847B3
:104FAC0003B05DF804FB0EB403B503AB002153F85A
:104FBC00042B006A0193FFF748FF02B05DF804EB85
:104FCC0003B070472DE9F74FD0E900954FF0140866
:104FDC0008FB05F50093AB10184D17465D434C4686
:104FEC00002D23DD6E1008FB06F004EB000A3A4698
:104FFC00BAF804B0205801915F4528BF5A4602F018
:10500C00D8F80199012378B95F4503D1009A137040
:10501C003546E5E78CBF012000200028F8D0AE1BF8
:10502C000AF11404013EF3E7C00FF6E7A4EB090400
:10503C000248A410604303B0BDE8F08FCDCCCCCCBB
:10504C007FB50369067E01910BB301B3002500F116
:10505C000C04039503A901A8FFF736FF0146B0B174
:10506C000DF10B03039A8DF80B502046FFF7AAFFA6
:10507C009DF80B305BB12468142303FB004000F156
:10508C000804B0F90630002BA8BFDEB2E2E73046C8
:10509C0004B070BD10B50A4C2378BFF35B8FDB07EF
:1050AC000BD42046FFF700F838B12046FFF701F883
:1050BC00044A0549054801F0BDFF044810BD00BF76
:1050CC002CE70320C0E60320D14E0D0050E6032050
:1050DC0010B50A4C2378BFF35B8FDB070BD420464B
:1050EC00FEF7E2FF38B12046FEF7E3FF044A05491C
:1050FC00054801F09FFF044810BD00BF30E70320B6
:10510C00C0E60320CF4E0D0054E6032038B5002531
:10511C000446C0E90055C0E904558560856140F836
:10512C00245FFFF7D3FAFFF7B5FFE061FFF7D0FF7D
:10513C0025732062204638BD10B50B4C2378BFF385
:10514C005B8FDB070ED42046FEF7AEFF50B107484D
:10515C00FFF7DCFF2046FEF7ACFF054A0549034884
:10516C0001F068FF014810BD28E7032038E7032051
:10517C00C0E60320D9550D00024A03490348002319
:10518C00FFF7D4BBB5540D0041540D00C1530D00B5
:10519C0000231A4619461846FFF7C8BB37B50D69E8
:1051AC0051F8043B0093044601A8FFF7D2FD6A4670
:1051BC002946204601F048FD01A8FFF7D1FD204605
:1051CC0003B030BD37B58D6851F8043B00930446ED
:1051DC0001A8FFF7BEFD6A462946204601F0B0FD46
:1051EC0001A8FFF7BDFD204603B030BD37B5CD6833
:1051FC0051F8043B0093044601A8FFF7AAFD6A4648
:10520C002946204601F078FD01A8FFF7A9FD2046AC
:10521C0003B030BD70B58AB00D46014604A8FFF747
:10522C00D1FF144E04A801F0A3FDE8B104A968460F
:10523C00FFF7DCFF02983146FFF76DFE044610B114
:10524C002C1E18BF012401A8FFF78AFD002CE9D001
:10525C0004A96846FFF7A2FF684601F02BFD286001
:10526C0001A8FFF77DFDDDE705A8FFF779FD0AB082
:10527C0070BD00BFF4730D0037B50C4620461249C3
:10528C00154601F05EFF48B901F002FA4FF41651D1
:10529C0001F0EEF901F0FCF903B030BD0B492046EA
:1052AC0001F04FFF70B94FF4165301A92846019332
:1052BC00FFF7B0FF01F0CAFA019901F0C1FA01F051
:1052CC00C5FAE9E70020E7E7F9730D0000740D005B
:1052DC0070B5D0E900531426044606FB0356AE42C3
:1052EC0005D005F10800FFF7F3FF1435F7E7206848
:1052FC00FFF7D0FB204670BD70B5D0E900530446D3
:10530C0005EB0316AE4204D02846FFF769FC1035B6
:10531C00F8E72068FFF7BEFB204670BD10B50446C9
:10532C000C30FFF7D5FF2046FFF7E6FF204610BDF7
:10533C0010B5044B044640F8043BFFF7EFFF204642
:10534C0010BD00BF98730D0010B50446FFF7F0FFB9
:10535C002046242101F073FE204610BD10B5034BEE
:10536C0003600446FFF7E4FF204610BDA4740D0053
:10537C0010B50446FFF7F2FF2046242101F05FFE32
:10538C00204610BD0022C0E9002210B582600C68D6
:10539C0004604C6844608C680A604A6084608A606F
:1053AC0010BD10B5036804461868FFF7A7F920462E
:1053BC0010BD00002DE9F04F87B0804603931C4BC5
:1053CC005B68C3F30803894616466BB9FFF7B4FE56
:1053DC00044600F12403406A0593FFF787F9237B09
:1053EC002BB105A8FFF7DDFF07B0BDE8F08F012357
:1053FC002373D4E900535FFA89F905EB830AAA45B4
:10540C0012D055F8047B3146381DFFF719FE814543
:10541C00F5D33B68039A0092D3F808B04A4633465A
:10542C0041463846D847EAE700232373D9E700BF43
:10543C0000ED00E02DE9F74F9B461A4B5B68C3F378
:10544C0008038046894616466BB9FFF775FE04467D
:10545C0000F12403406A0193FFF748F9237B2BB139
:10546C0001A8FFF79EFF03B0BDE8F08F0123237363
:10547C00D4E90053F6B205EB830A55450ED055F826
:10548C00047B5946381DFFF7DBFD8642F5D33B689C
:10549C004A46DB68414638469847EEE700232373BB
:1054AC00DEE700BF00ED00E02DE9F341164B5B6831
:1054BC00C3F3080305460F461BBBFFF73DFE00F187
:1054CC0024030446406A0193FFF710F9D4E9006302
:1054DC00462406EB8308B04509D101A8FFF761FF0C
:1054EC00A542B4BF0020012002B0BDE8F08156F8FF
:1054FC00040B39460430FFF7A3FD8442A8BF0446D1
:10550C00E9E70020F0E700BF00ED00E070B50446CD
:10551C00D0E900020B4600EB8202824207D0014622
:10552C001D6851F8046BAE4203D00846F5E7002025
:10553C0070BD521A01F0A8FD6368013B6360012045
:10554C00F6E71FB500F124030446406A019103936A
:10555C00FFF7CCF801A92046FFF7D8FF18B1636814
:10556C000BB9FFF715FE03A8FFF71BFF04B010BD26
:10557C0070B5D0E904561823044603FB0656AE4218
:10558C0015D005F110012046FFF7C0FF63680BB979
:10559C00FFF7FEFDE06929690368DB6898476969D4
:1055AC0019B1206A0368DB6898471835E7E7D4E936
:1055BC000453182606FB0356AE4204D02846FFF7C8
:1055CC000FFB1835F8E70023636170BD73B5044613
:1055DC00FFF7DEFD04F12403606A0193FFF786F800
:1055EC002046FFF7C5FF01A8FFF7DBFE606A08B194
:1055FC00FFF774F8D4E90453182606FB0356AE42A1
:10560C0004D02846FFF7ECFA1835F8E72069FFF7C5
:10561C0041FA2068FFF73EFA204602B070BD88427E
:10562C00F8B506460C46154627D9904226D2A2F16B
:10563C0014056C1AA1F1140704440026AF423DD0A6
:10564C00A4B12B682360AB88A380B5F90630E38046
:10565C00C4E902662661AB68A360AE60E368EA68E1
:10566C00E260EB6023692A6922612B6105F1080075
:10567C00FFF72EFE143D143CE0E71FD00027AC4290
:10568C001CD0A6B123683360A388B380B4F906306C
:10569C00F380C6E902773761A368B360A760F3684B
:1056AC00E268F260E360336922693261236104F1DC
:1056BC000800FFF70DFE14341436E0E7F8BDF8B51A
:1056CC00D0E901539D4204460E4617460DDB0135C9
:1056DC00002D006804DDA900FFF7E4F918B9F8BD46
:1056EC00FFF7D8F900202060A5602568626805EBFB
:1056FC0086019200A2EB8602081D01F0C5FC45F85C
:10570C0026706368013363600120E8E737B500F168
:10571C0024030446406A01930D46FEF7E7FFD4E9E3
:10572C00003103EB810083421A460BD01268AA4267
:10573C0003F10403F7D101A8FFF733FE0025284637
:10574C0003B030BD2A462046FFF7B9FF05460028B6
:10575C00F1D06368012B01D1FFF70EFD01A8FFF713
:10576C0020FEECE78842F8B504460D46164614D9DF
:10577C00904213D2A2F11006751AA1F110072C4415
:10578C00B74218D01CB131462046FFF7A5FA304677
:10579C00FFF726FA103E103CF2E70CD0B5420AD0C7
:1057AC001CB129462046FFF797FA2846FFF718FA4E
:1057BC0010351034F2E7F8BD70B50E1E054611DD3C
:1057CC003001FFF75FF9044658B1D5E9001201EB3F
:1057DC000212FFF7C7FF2868FFF75CF92C60AE6078
:1057EC00012070BD0024F6E72DE9F04F914697B0EB
:1057FC0000230391D9F804100C9346229942C0E976
:10580C000033C0E90233C0E90433CDE90A3304465E
:10581C00027623DCD9E90057142303FB0757AF4268
:10582C003BD029460DA8FFF757FA0DA911A80B9EDE
:10583C00FFF752FADDE90B1399421BDA0A9B0B9A1C
:10584C0003EB061603EB0212314606F11000FFF7CC
:10585C0089FFEEB90B9B01330B9311E00AA8FFF7FC
:10586C00ABFF0028D6D10AA8FFF746FD204617B09B
:10587C00BDE8F08F01310AA8FFF79EFF0028DDD1AB
:10588C0011A8FFF7ADF90DA8FFF7AAF91435C6E773
:10589C0011A93046FFF720FADCE70026CDE90D66AA
:1058AC000F9637464FF0140ADDE90A239E4280F228
:1058BC0097803301D35808930BB90136F4E70AFBF0
:1058CC0006F3099702930DAD09A908A8FFF7FCFA96
:1058DC0083460028F1D00146099A8DF81F700DF10E
:1058EC001F032846FFF76EFB9DF81F800190B8F14F
:1058FC00000F66D1BDF82430ADF84830CDE91388DF
:10590C004FF6FF73CDF844B0ADF84A30CDF8548063
:10591C00D5E9013293421ADB03F1010BBBF1000F05
:10592C004ADD0AFB0BF0FFF7ADF80490002845D0D8
:10593C00D5E900120AFB0212FFF771FE049B2868DE
:10594C000493FFF7A7F8049B2B60C5F808B0019BE4
:10595C00D5F800B06A680AFB03F30BEB030101F105
:10596C0014000AFB02B204910593FFF758FE049948
:10597C00A9B1059B119A4BF80320BDF848308B80D8
:10598C00BDF94A30CB80C1E902770F61139B8B6064
:10599C00149B1397CB60159B14970B6115976B6831
:1059AC0001336B6013A8FFF793FCB8F1000F08D01C
:1059BC000DA8FFF78DFC56E74346C0E74FF00108F2
:1059CC00F0E7019B2D680AFB0355089B1B782BB94C
:1059DC00D9F80030029A13441B7CEB80083573E72E
:1059EC002168226062686360A3680B920C9A0C9326
:1059FC00E368A2600D9A0D932369E2600E9A0E93F0
:105A0C00636922610F9A0F93039B0A91626123765B
:105A1C00CEE700007FB50546094B45F8043B04462C
:105A2C000E4601A81146FEF710FD01AA3146284684
:105A3C00FFF7DAFE01A8FEF7C7FC204604B070BDE4
:105A4C0098730D00F0B50F4687B026490C9C38466C
:105A5C0016461D4601F075FB00BBE4B129466846AD
:105A6C00FFF790FC2049242001F0EBFA054670B1B9
:105A7C00694603A8FEF7E9FC03AA31462846FFF75E
:105A8C00C9FF03A8FEF7A0FC184B2C622B606846DC
:105A9C00FEF79AFC2C46204607B0F0BD1449384658
:105AAC0001F04FFBE0B9002CF5D029466846FFF712
:105ABC0069FC0D49242001F0C4FA05460028E6D003
:105ACC00694603A8FEF7C1FC03AA31462846FFF736
:105ADC00A1FF03A8FEF778FC064B2B602C62D6E7DF
:105AEC000024D8E708740D0029760D00A4740D006D
:105AFC000C740D008C740D00014B024A1A60704737
:105B0C0034E703201D740D002DE9F047089DD0F8F3
:105B1C00209004460E461746984600F0B9FD814584
:105B2C004CD02B79190704D56A6954492046FFF7E4
:105B3C003AFAB8F1000F0DD05B212046FFF727FA97
:105B4C0041462046FFF714FA23684D49DB680222D0
:105B5C00204698472B79DA0723D5D5F808802F21D2
:105B6C00404601F038FB08B100F1010841462046DF
:105B7C00FFF7FEF92B799B0708D53A212046FFF752
:105B8C0006FAEA683F492046FFF70DFA2A7923689E
:105B9C0012F0040FDB6814BF3B493C49022220463B
:105BAC0098472B7958071DD529690B461A4613F8C7
:105BBC00010B60B1202808D11946F7E7344800F0F2
:105BCC0048FF0028ADD0BDE8F0872828EED1236827
:105BDC00521ADB682046984723682E49DB6804225A
:105BEC002046984700213846FEF798FE014620468D
:105BFC00FFF7BEF923682549DB6802222046984747
:105C0C001EB131462046FFF7B3F92B7913F0300F54
:105C1C002CD023682049DB680222204698472B7938
:105C2C00D9060AD523681D49DB6807222046984708
:105C3C00AA691B492046FFF7B6F92B799A0611D5AC
:105C4C00DB0605D523681049DB68022220469847FD
:105C5C0023681449DB6820460A229847E9692046E4
:105C6C00FFF786F95D212046FFF791F923680E496D
:105C7C00DB6820460222BDE8F047184721740D006E
:105C8C0028740D002B740D002E740D0033740D0050
:105C9C00BCE7032031740D0036740D0039740D000F
:105CAC0041740D0044740D004F740D002DE9F04348
:105CBC0085B0D0F820900C9C05460F4690461E46A9
:105CCC0000F0E6FC814505D1494800F0C2FE0028F1
:105CDC0040F08A802B6A474A01924FF0000901A8D4
:105CEC0003938DF8089001F06CF849464046FEF796
:105CFC0015FE41498046012201A801F0EBF841460E
:105D0C00FFF728F93FB13D49012201A801F0E2F863
:105D1C003946FFF71FF93EB13949012201A801F0BC
:105D2C00D9F83146FFF716F92379DF070ED5A668A7
:105D3C002F21304601F04FFA00B1461C31490122A7
:105D4C0001A801F0C7F83146FFF704F923799E0743
:105D5C0007D52D49022201A801F0BCF8E16801F039
:105D6C003DF82379580714D5266933461F4613F896
:105D7C00012B2AB1202A01D11E46F7E7282AF5D19A
:105D8C002249022201A801F0A5F8BA1B314601F004
:105D9C00B1F82379190707D51D49012201A801F093
:105DAC0099F8616901F02CF82379DA0608D50422F8
:105DBC0018490DEB020001F08DF8A16901F00EF805
:105DCC0023799B0607D51449062201A801F082F815
:105DDC00E169FFF7BFF801A800F0DDFF286A0F4961
:105DEC0003680222DB68984705B0BDE8F08300BF6A
:105DFC00BCE7032074740D00FE730D0052740D008B
:105E0C0054740D0056740D0058740D005B740D0025
:105E1C005E740D0060740D0065740D004F740D0000
:105E2C00024B1A68024B1A60704700BF58E60320F9
:105E3C0060E703200021FEF789BD10B50446FEF78C
:105E4C00B1F9204610BD13B50B460246D0E900014E
:105E5C006C4684E8030093E8030082E8030094E8AE
:105E6C00030083E8030002B010BD00000348044A9D
:105E7C0004490023836001F0DDB800BF64E7032010
:105E8C00C0E60320475E0D00014B1860704700BF51
:105E9C005CE6032008B50B4B43B100F0F9FB03683B
:105EAC001B699847002801DDAFF30080064B43B116
:105EBC0000F0CCFC03681B699847002801DDAFF3A8
:105ECC00008008BD000000000000000008B5FFF7CE
:105EDC00E1FFFEF7C3FB014B186008BDD0E70320C0
:105EEC000248034A0349121A01F0C0B800F4032017
:105EFC0004F4032050770D0007B5002300931A46D5
:105F0C006FF07701FEF744FD03B05DF804FB000071
:105F1C0007B543880A2B08D0502B0BD1094B1B68B3
:105F2C004BB103B05DF804EB1847FFF7E5FF03B086
:105F3C005DF804FB002300931A466FF07701FEF71F
:105F4C0027FDF4E778E7032038B5124C1248134DBF
:105F5C000021FEF7C7FD2368AB42114B0CBF012299
:105F6C0000221A7002D0FFF7BBFF2560FEF766FB1C
:105F7C00044601F0ABF80B4B13B12046AFF3008095
:105F8C0000210848FEF76EFDBDE8384006480021A8
:105F9C00FEF7F4BC00F40320955E0D001E1C279A3E
:105FAC0074E70320000000001D5F0D007047002007
:105FBC00704710B51021044601F041F8204610BD81
:105FCC0008B5FFF7F6FF08BD30B500224FF69C74FC
:105FDC00026084808D888C800C68858004600A60E7
:105FEC0030BD10B504460068FEF754FD204610BDC8
:105FFC0038B5C468F4B12378022B03D104F10C003A
:10600C00FFF7EFFF656835B12846FEF7CBF8102196
:10601C00284601F014F8A56835B12846FEF7C2F8F9
:10602C001021284601F00BF820461421BDE8384019
:10603C0001F005B838BD08460021FEF71BBD73B54D
:10604C000E46044656F8043B00930D4601A8314613
:10605C00FEF77FFE019A009B6260236001A800237B
:10606C0001930093FEF77CFE3046FEF779FE28463E
:10607C00082100F0E4FF204602B070BD826810B524
:10608C000AB900F0E2FFBDE81040C368184708B534
:10609C00006800F11001FFF7F1FF08BD826810B530
:1060AC000AB900F0D2FFBDE81040C368184708B524
:1060BC00006800F11001FFF7F1FF08BD38B50023AF
:1060CC000446036010200D46FDF7DDFF28B10123C7
:1060DC00C0E90133024B0360C5602060204638BD27
:1060EC0008750D0038B5002383608B6804460D4697
:1060FC002BB102229847EB68E360AB68A3602046A3
:10610C0038BD0000F0B589B004686846FFF75CFF45
:10611C004FF00203D4E84F2F002A03D1C4E8413FCB
:10612C000029F7D125D104F10C0569462846FFF763
:10613C004BFFBFF35B8F01236370002004F1080356
:10614C00BFF35B8F53E8006F43E80002002AF9D1DC
:10615C00BFF35B8F6EB1FEF701FC78B12946304678
:10616C00FFF78CFF3046FEF71DF81021304600F08B
:10617C0066FF6846FFF735FF09B0F0BD314602A84F
:10618C00FFF7B0FFE068B4F9105008B100F0ECFF75
:10619C0006901020ADF81C50FDF775FF0546E8B1D0
:1061AC00002787601820FDF76EFF044688B1014672
:1061BC00876002A8FFF747FE049BA268A360059BBB
:1061CC00049206A9E268E36004F110000592FFF75F
:1061DC00FBFE084BEB60084B2C60AB6006A8FFF78E
:1061EC0000FF02A8FDF7DEFF002229460348FEF758
:1061FC00BDFBB7E79B600D0031630D00E1680D003E
:10620C002DE9F0478AB005469DF848900C46174694
:10621C009846FEF717FC07AE824638BB4FF62E7336
:10622C00059005A93046ADF81830FFF7CDFE1420C7
:10623C00FDF729FF044648B1022303700123C0E98E
:10624C0001AA437031460C30FFF7BEFE28462146AA
:10625C0040F8044BFFF732FF3046FFF7C2FE05A8AB
:10626C00FFF7BFFE28460AB0BDE8F0870C234FF0BD
:10627C00000A1420CDE908AA0793FDF704FF014694
:10628C0028B1C0E901AA80F800A080F801A004A8F8
:10629C000391FFF713FF224B08930820FDF7F3FE41
:1062AC00824628B1039B40F8043B04A9FEF751FD3C
:1062BC0000965FFA89F3424639462046CDF824A071
:1062CC00FEF7C8FBB8B9039B5B7803F0FF0293B9E8
:1062DC004FF69C7305A903A80592ADF81830FFF78B
:1062EC0011FF05A8FFF77DFE05A80999FFF7A7FE8A
:1062FC0006A8FEF735FD039B059304A906A8FEF737
:10630C0028FD059B069A2B606A60002306A806935D
:10631C000593FEF725FD04A8FEF722FDA2E700BFBA
:10632C00F5630D00022AF8B5054607D0032A18D0EC
:10633C00012A01D10B6803600020F8BD18200E68FB
:10634C00FDF7A1FE044650B13146FFF7CBFE306994
:10635C00B6F9147008B100F007FF2061A7822C6019
:10636C00EAE70468002CE7D004F11000FFF739FECF
:10637C002046FDF717FF1821204600F060FEDBE7F2
:10638C0038B5002383608B6804460D462BB102227E
:10639C009847EB68E360AB68A360204638BD022ADF
:1063AC0070B5044607D0032A12D0012A01D10B681C
:1063BC000360002070BD14200E68FDF764FE0546D6
:1063CC0020B13146FFF7DCFF337C2B742560F0E7FE
:1063DC000468002CEDD02046FDF7E4FE1421204685
:1063EC0000F02DFEE5E70000F0B589B004460D463F
:1063FC0001A81146FFF723FEA4B124B21DB1284613
:10640C0000F0B2FE054601A803A90395ADF81040B3
:10641C00FFF778FE03A8FFF7E4FD02A8FEF7A0FC47
:10642C0009B0F0BD019D0123D5E84F2F002A03D1FF
:10643C00C5E8413F0029F7D1EFD12B73BFF35B8F38
:10644C006B702B1DBFF35B8F53E8006F43E800426A
:10645C00002AF9D1BFF35B8F002EDED02046FEF769
:10646C007DFA074660B105F10C013046FFF716FEC8
:10647C003046FDF797FE1021304600F0E0FDCCE7EA
:10648C00314603A8FFF77CFF2B7B8DF81C301020C6
:10649C00FDF7F9FD0546D0B187601420FDF7F3FD3B
:1064AC00044678B18760014603A8FFF7CCFC059B36
:1064BC00A268A360069B0592E268E3609DF81C301D
:1064CC0006922374064BEB60064B2C60AB6003A862
:1064DC00FDF768FE002229460348FEF747FAC7E796
:1064EC00BB600D00AB630D00E1680D00704710B58B
:1064FC001821044600F0A3FD204610BDF0B5037D25
:10650C00062B8DB00E4600F104074FF0000412D09C
:10651C0000F1080515F8011D0A223046FEF777FC3C
:10652C00AF42044419D0002CF4D02E213046FEF793
:10653C005FFC0444EEE72F236A4639460A208DF8A7
:10654C000040FEF7EBF8684600F02BFE336802467D
:10655C00DB68694630469847044620460DB0F0BDCE
:10656C0010B5054B0446112240F8043B002100F005
:10657C00A5FD204610BD00BF24750D000346074A3B
:10658C0010B543F8042B01F1100251F8044B43F8F9
:10659C00044B9142F9D10A781A7010BD24750D0084
:1065AC0010B59DF8084044EA032343EA024242EA4C
:1065BC00016104234160037510BD13B5CB780093C2
:1065CC008B784A780978FFF7EBFF02B010BD417465
:1065DC007047704708B50021007CFEF777F940EA58
:1065EC00E07008BD08B50121007CFEF76FF940EAA8
:1065FC00E07008BD08B5007CFEF760F920EAE07099
:10660C0008BD08B5007CFEF751F920EAE07008BD22
:10661C0013B50446007C0191FEF750F9002801994E
:10662C0001DC607C20B1207CFEF758F920EAE07098
:10663C0002B010BD007CFEF759B910B51421044608
:10664C0000F0FDFC204610BD10B54FF47A730446E3
:10665C0008460021C4E90113044B23600123207474
:10666C0063741146FEF70AF9204610BD38750D000B
:10667C00007C0022FEF70AB9007CFEF70FB910B5BA
:10668C0014220446002100F019FD204610BD000024
:10669C0010B5104C88B003A8FFF7F1FF2178BFF3B9
:1066AC005B8F11F0010111D120460191FDF7FCFC2B
:1066BC00019958B103AA0848FFF7C6FF2046FDF719
:1066CC00F8FC064A0649044800F0B4FC024808B03D
:1066DC0010BD00BF7CE7032080E70320C0E6032049
:1066EC00DF650D00004700002DE9FF4100241D4629
:1066FC000F4690460646FDF799FFA5424FF004035E
:10670C00ADF80D408DF80C308DF80F40A2BF9DF800
:10671C0028308DF80E3003AC0749009443463A46B6
:10672C003046A8BF8DF80D50FDF778FFB0FA80F019
:10673C00400904B0BDE8F081F1660D00F8B587B2F0
:10674C00044638460D46164600F0E4FB60B10221C3
:10675C003846FDF753FF022806D13246294620461B
:10676C00BDE8F840FEF77AB8F8BD38B585B20446F6
:10677C00284600F0CFFB50B102212846FDF73EFF22
:10678C00022804D12046BDE83840FEF76FB838BD6A
:10679C0070474174704708B5007CFEF707F820EA93
:1067AC00E07008BD08B5007CFDF7D8FF20EAE0706A
:1067BC0008BD08B5007CFDF7E1FF40EAE07008BDBC
:1067CC0008B5007CFDF7D2FF40EAE07008BD007C04
:1067DC00FDF7DCBF37B5457C04462DB1207C03B0FA
:1067EC00BDE83040FDF7B2BF007C0191FDF7DEFF44
:1067FC0000280199F2DC284603B030BD10B51421F5
:10680C00044600F01CFC204610BD000010B54FF0F3
:10681C00000C0446084611464FF47A72C4E901C2D2
:10682C00044A22600122207462741A46FDF77EFF2E
:10683C00204610BD68750D00007C0023FDF7BEBF1F
:10684C000022FFF7F9BF007CFDF778BFF7B51B4CB2
:10685C0026684EB98420FDF716FC054618B1842233
:10686C00314600F02BFC2560154D2F684FB9842064
:10687C00FDF709FC064618B18422394600F01EFCCF
:10688C002E60104E3178BFF35B8F11F0010112D1E5
:10689C0030460191FDF708FC019960B122682B6824
:1068AC000948FFF7B3FF3046FDF703FC074A0849D8
:1068BC00054800F0BFFB044803B0F0BD98E7032087
:1068CC009CE7032094E70320A0E70320C0E6032005
:1068DC009D670D0010B5836804460BB900F0B5FB3D
:1068EC00C3689847A3681BB10322214620469847EA
:1068FC0020461021BDE8104000F0A1BB7047F8B550
:10690C00064615460C468F18BC4206D0336814F860
:10691C00011B9B6830469847F6E72846F8BD007C7B
:10692C000022FDF753BF007C0021FDF757BF007C10
:10693C000021FDF75BBF007C0021FDF75FBF007CF1
:10694C000021FDF763BF10B51421044600F077FB5E
:10695C00204610BD10B54FF47A730446084600214A
:10696C00C4E90113034B236020741146FDF75EFF4D
:10697C00204610BD98750D00002240681146FEF7A8
:10698C0029B8002240681146FEF744B8002240683E
:10699C001146FEF74FB840680022FEF743B8406836
:1069AC00002281F00101FEF72DB8002340681A4641
:1069BC001946FEF71FB8002340681A461946FEF721
:1069CC0011B8002240681146FDF7F4BF4068002260
:1069DC000221FDF7F7BF002340681A46FDF7E2BF1E
:1069EC00024B04225A60024A1A607047B4E7032033
:1069FC00C0750D00002340681A46FDF7D3BF4068F0
:106A0C0000220221FDF7DEBF002240681146FDF78F
:106A1C00D1BF002240681146FDF7DCBF002340685F
:106A2C001A461946FDF7DEBF002340681A46194680
:106A3C00FDF7E0BF4068002281F00101FDF7E2BFE5
:106A4C0040680022FDF7EEBF002240681146FDF7BA
:106A5C00F1BF002240681146FDF7DCBF2DE9F04381
:106A6C00002495B016460D460746FFF779FD2146E2
:106A7C0018220EA8009400F021FB4023CDE90C3421
:106A8C0021466B460CAA3046FDF7B0FD04460028A3
:106A9C0046D1024601216868FDF79CFF0221804621
:106AAC0022466868FDF796FF009E81462146002E1F
:106ABC0036D0002934D17368022B03D00A2B0BD0AB
:106ACC00F669F4E7B8F1000F04D071693846043167
:106ADC00FFF773FD4146F3E7B9F1000F01D14946C9
:106AEC00EEE77469102201A800F0E8FA06238DF88D
:106AFC00143001AD04F108031834186859682A469B
:106B0C0003C20833A3421546F7D101A906A807AD65
:106B1C00FFF734FD0FCD3C1D0FC42B682370DEE74F
:106B2C000098FDF75BFD384615B0BDE8F08300001A
:106B3C00024B034A1A6000225A607047BCE70320DC
:106B4C00F4750D0000F11003012213F8101C01293B
:106B5C00184608D153F8041C02EB4102013A03F128
:106B6C001003F2D17047022904BF53F8041C5218C9
:106B7C00F4E70EB4F0B588B000AF07F1340510217E
:106B8C0055F8042B7A6004462B467818FD60FDF707
:106B9C0091FF0F287A681AD900F1080323F0070334
:106BAC006E46ADEB030D411C2B466846FD60FDF7B0
:106BBC0081FF021E04DD236869469B6820469847C6
:106BCC00B5462037BD46BDE8F04003B070470028FD
:106BDC00F7D0236802469B6807F1100120469847BE
:106BEC00EFE710B5036804469B689847A368013B20
:106BFC00A3602BB923682046DB68BDE8104018471A
:106C0C0010BD07B503688DF807109B6801220DF1C4
:106C1C000701984703B05DF804FB38B50B680360B7
:106C2C004D6843689D4204460CD015B16B68013326
:106C3C006B60606828B14368013B43600BB9FFF798
:106C4C00D0FF6560204638BD0B461146002210B5BA
:106C5C00C0E90022044683600BB9204610BDFFF743
:106C6C00DCFFFAE78368EBB11A78032A1AD8DFE85D
:106C7C0002F00417021B0520704702685B6852681B
:106C8C00D05C2D2812D0A0F13003092B0ED974281A
:106C9C000ED066280CD0A0F16E03584258417047B4
:106CAC00062070470020704704207047032070476F
:106CBC000220704710B50446FFF7D4FF02280ED00F
:106CCC00C31EDBB2012B14D82268A36850685B6822
:106CDC00BDE810400A220021184400F00BBB2268CA
:106CEC00A36852685B68D05CA0F1740358425841A9
:106CFC0010BD0020FCE7000038B50023C0E90033CC
:106D0C0004460E48C4E90203A9B10B78032B06D044
:106D1C008BB9136858684B68C35C6E2B07D013682B
:106D2C004D6858688B6828445B1BA060E360114673
:106D3C002046FFF772FF204638BD00BF51740D008E
:106D4C0038B500250B46C0E90055C0E90255C0E92D
:106D5C000455044611464BB11A78012A06D103F1A9
:106D6C001002DB6882604361FFF757FF204638BD95
:106D7C0010B54369044663B18068E060013B103094
:106D8C00A0602061636113B1FFF7DCFEA0600120FD
:106D9C0000E0184610BD10B57D210446FFF731FF09
:106DAC0001232371204610BD08B50379012B02D0B5
:106DBC00022B04D008BD2C21FFF723FFFAE73A2160
:106DCC00FAE710B50446FFF7EFFF20467B21FFF7EB
:106DDC0018FF00232371204610BD000013B5044694
:106DEC000191FFF7E1FF2368019ADB680349204614
:106DFC00984701232046237102B010BD2B740D005F
:106E0C0013B504460191FFF7CFFF2368019ADB68A5
:106E1C0003492046984701232046237102B010BD38
:106E2C0020760D002DE9F0410D4617462221DFF8A2
:106E3C00A08004462F44FFF7E4FE2946BD422A46B3
:106E4C0038D015F8016B222E03D05C2E01D01F2EEA
:106E5C00F4D82368521A9B68204698475C21204638
:106E6C00FFF7CFFE0D2E0AD8072E1CD9A6F108036A
:106E7C00052B18D8DFE803F00D0F11171315222E70
:106E8C0001D05C2E0FD131462046FFF7BAFE2946C1
:106E9C00D4E76221F8E77421F6E76E21F4E7662166
:106EAC00F2E77221F0E723683246DB684146204660
:106EBC009847ECE78D4204D023686A1A9B682046F9
:106ECC00984722212046FFF79CFEBDE8F08100BFC9
:106EDC0023760D0013B50446CDE90021FFF764FFBE
:106EEC002046DDE90021FFF79DFF02232046237198
:106EFC0002B010BD13B50446CDE90021FFF754FFD5
:106F0C002046DDE90021FFF78DFF01232046237188
:106F1C0002B010BD232813B502D9002002B010BD59
:106F2C00A0F10B03022B1AD8174C2178BFF35B8FFF
:106F3C0011F001010BD120460191FDF7B5F8019933
:106F4C0028B11248FDF714FE2046FDF7B2F80F4B9E
:106F5C001878FDF77BFC0028DFD10120DEE7012843
:106F6C0009D800F03FF80021007CFDF757FC80F0B9
:106F7C000100C0B2D2E709380128EED8FFF766FC51
:106F8C00007CFDF70BFCF2E7C4E70320C8E7032005
:106F9C00232838B504460D460AD8FF2908D0FFF738
:106FAC00B9FF28B129462046BDE83840FDF72EBB75
:106FBC0038BD000038B50023202543801423044637
:106FCC000380856005610649284600F03CF80449B9
:106FDC006060284600F037F8E060204638BD00BFFE
:106FEC0029760D0030B50F4D2978BFF35B8F11F06A
:106FFC00010487B013D12846FDF756F878B101A8E3
:10700C00FFF7D8FF01AA21460748FFF7A3FC284643
:10701C00FDF74FF8054A0649034800F00BF8024803
:10702C0007B030BDD8E70320DCE70320C0E603201F
:10703C0009690D000B460146184600F009B8FDF72A
:10704C0026B8FDF720B8FDF720B808B5FDF73AFDD6
:10705C0010B5054C13462CB10A4601460220AFF37D
:10706C00008010BD2046FCE7000000000A4491425D
:10707C0000F1FF3300D1704710B511F8014B03F844
:10708C00014F9142F9D110BD884210B501EB0204B9
:10709C0002D98442234607D8431EA14208D011F8D6
:1070AC00012B03F8012FF8E7024401468A4200D174
:1070BC0010BD13F8014D02F8014DF7E702440346E9
:1070CC00934200D1704703F8011BF9E738B50D4B1B
:1070DC001D68AB6B04467BB91820FDF7D3FC0A4A3C
:1070EC000A4BA863C0E90023094B83600B238381FF
:1070FC0001220023C0E90423AB6B00221C615A61FE
:10710C0038BD00BF5CE603200E33CDAB34126DE608
:10711C00ECDE0500C9B2034610F8012B1AB18A4205
:10712C00F9D118467047002918BF0023F9E710B5AC
:10713C000446FFF7EFFF18B9204600F032F8204460
:10714C0010BD10F8012B11F8013B012A28BF9A42FF
:10715C00F7D0D01A7047034611F8012B03F8012B16
:10716C00002AF9D170470000024B0146186800F064
:10717C0003B800BF5CE6032037B5044608460D464D
:10718C0000F00FF8421C114620460192FDF7A2FCBC
:10719C00044618B1019A2946FFF768FF204603B050
:1071AC0030BD034613F8012B002AFBD1181A013805
:1071BC00704710B56AB10139841810F8013B11F809
:1071CC00012F934203D1A04201D0002BF5D1981A84
:1071DC0010BD1046FCE738B503460C4669B9BDE84E
:1071EC003840FFF797BF431C054621461846FFF76A
:1071FC0091FF0028F7D1284638BD0025F5E700009F
:10720C002DE9F0473A4E86468C4660461CF8014BF9
:10721C00A55D15F00805F8D12D2C33D19CF8004054
:10722C004FF0010800F1020C002B5CD0102B0CD19C
:10723C00302C0AD19CF8000000F0DF0058284DD10A
:10724C009CF8014010230CF1020C08F10047013F9F
:10725C000026B7FBF3F9304603FB197AA4F130058D
:10726C00092D18D82C46A34224DD751C07D0814566
:10727C001DD301D1A2451ADB00FB034001261CF8EB
:10728C00014BEBE72B2C08BF9CF80040A84608BF2D
:10729C0000F1020CC8E7A4F14105192D01D8373CC7
:1072AC00E1E7A4F16105192D04D8573CDBE74FF059
:1072BC00FF36E4E7731C06D12223CEF800303846A3
:1072CC0042B9BDE8F087B8F1000F00D04042002A67
:1072DC00F7D00EB10CF1FF311160F2E73024002B26
:1072EC00B3D10823B1E7302CA4D00A23ADE700BFFB
:1072FC002B760D0013460A46014602480068FFF73C
:10730C007FBF00BF5CE603201D400D0059400D00FF
:10731C0081400D0085400D00000000004275747422
:10732C006F6E20707265737365642100627574747E
:10733C006F6E2D707265737365640054696D657240
:10734C0020737572706173736564210074696D6567
:10735C00722D7375727061737365640052756E6E05
:10736C00696E6721005365747570210072756E002B
:10737C000000000000000000E1410D0029420D005A
:10738C0003410D00000000000000000000000000A0
:10739C0000000000A1400D00C5400D0000000000E1
:1073AC000000000069410D009D410D00155B0D00B2
:1073BC00C7400D0000000000000000005F4B0D00F6
:1073CC00554B0D004B4B0D00414B0D00354B0D003B
:1073DC00294B0D001D4B0D00154B0D000B4B0D00DB
:1073EC00014B0D00696A0D00626175640053657292
:1073FC0069616C0053657269616C31004A534F4E80
:10740C0053747265616D4C6F6748616E646C657224
:10741C000061707000253031307520005D20002532
:10742C0064002C200028293A2000205B00636F6444
:10743C0065203D200025690064657461696C7320CA
:10744C003D20000D0A006D00630066006C6E006646
:10745C006E007400636F64650064657461696C0030
:10746C000000000000000000D34E0D00F94E0D008E
:10747C00B94E0D007F6B0D000000000000000000F5
:10748C003D530D0055530D00155B0D00C7400D000D
:10749C00000000000000000069530D007D530D003A
:1074AC00B95C0D00C14E0D00000000000000000092
:1074BC00D14E0D00074F0D00515A0D00C34E0D005B
:1074CC000000000000000000CF4E0D00154F0D0015
:1074DC0085520D00314F0D0025592D256D2D25643C
:1074EC005425483A254D3A2553257A006173637427
:1074FC00696D65000000000000000000B95F0D0020
:10750C00BF5F0D00FD5F0D00CD5F0D00BB5F0D007B
:10751C00000000000000000009650D00F9640D007A
:10752C00FB640D000000000000000000DF650D0092
:10753C0047660D001D660D00AD4D0D000F660D006C
:10754C00E1650D00F1650D0041660D0001660D0051
:10755C00DB650D0000000000000000009D670D00C1
:10756C0009680D00E1670D00AD4D0D00B1670D0010
:10757C00CD670D00BF670D00DB670D009F670D0029
:10758C00A3670D00000000000000000009690D0059
:10759C0053690D002B690D000B690D0033690D004B
:1075AC003B690D0043690D004B690D0000000000A4
:1075BC0000000000E3690D00D9690D00CF690D00D2
:1075CC0085690D00C3690D00B7690D00AB690D002D
:1075DC00A3690D0099690D008F690D00696A0D0092
:1075EC000000000000000000016A0D000B6A0D0095
:1075FC00156A0D001F6A0D00296A0D00356A0D0011
:10760C00416A0D004D6A0D00556A0D005F6A0D0050
:10761C00696A0D002575007525303478000000204E
:10762C002020202020202020282828282820202026
:10763C0020202020202020202020202020202088D6
:10764C00101010101010101010101010101010043A
:10765C00040404040404040404101010101010108A
:10766C00414141414141010101010101010101017E
:10767C000101010101010101010110101010101094
:10768C00424242424242020202020202020202024E
:10769C00020202020202020202021010101020006A
:1076AC0000000000000000000000000000000000CE
:1076BC0000000000000000000000000000000000BE
:1076CC0000000000000000000000000000000000AE
:1076DC00000000000000000000000000000000009E
:1076EC00000000000000000000000000000000008E
:1076FC00000000000000000000000000000000007E
:10770C00000000000000000000000000000000006D
:10771C00000000000000000000000000000000005D
:10772C00BD440D00694B0D00B14B0D00854D0D0096
:10773C00055B0D002D5E0D00795E0D00ED690D00F1
:04774C003D6B0D0084
:047750000000000035
:10775400BC740D00D4740D00F8740D0060E60320B1
:107764000000000000000000000000000000000015
:107774000000000000000000000000000000000005
:1077840000000000000000000000000000000000F5
:1077940000000000000000000000000000000000E5
:1077A40000000000000000000000000000000000D5
:1077B40000000000000000000000000000000000C5
:1077C400FFFFFFFF00000102030405060708090A82
:1077D4000B0C0D0E0F101112131415161718191A7D
:0877E4001B1C1D1E1F202800C4
:0477EC007856341285
:04000003D000401CCD
:00000001FF
