:02000002D0002C
:1040000000400D0030770D00000006000C00050197
:084010000401DB0700000000C1
:0440180054720D00D1
:10401C0009480A49884208B505D0094A824202D0AB
:10402C00121A02F0C3FF0748074A0021121A02F0C5
:10403C00E5FF014808BD00BF6CE6032094760D0037
:10404C00E0E60320E0E60320F0E7032070B5074E1E
:10405C00074C01F02BFFA41BA4080025A54200D19E
:10406C0070BD56F8043B98470135F7E768760D00AC
:10407C008C760D0000F098B908B500F02DF9BDE86C
:10408C00084001F0D5BE00F0C3BC00F0C1BC00F08C
:10409C00C7BC000008B5034A00210C2000F0F4FB5B
:1040AC00FEE700BF05460D000078B0FA80F040092D
:1040BC0070470123037070477047006A0368DB6820
:1040CC00184703681847012A03D0022A03D000209E
:1040DC0070470160FBE70B680360F8E7436913B1B5
:1040EC0083690C301847704713B500210446084605
:1040FC0000F09AFA0023204601A9019300F0ACFAD3
:10410C00019C0CB1012323710021012000F08CFAD9
:10411C002CB1236820469B6898470023237102B07A
:10412C0010BD10B5036804469B689847A368013B13
:10413C00A3602BB923682046DB68BDE81040184704
:10414C0010BD00000A4B10B50446036000F0A6FF3A
:10415C00214601F0A8F902F04DFA02F03FFA204690
:10416C00044B40F8043B01F08BF8204610BD00BF17
:10417C00EC720D00D4720D0010B50446FFF7E2FF8F
:10418C002046242102F0FBFE204610BD10B58368AA
:10419C00044613B1032201469847204610BD07B5CB
:1041AC008068002338B1CDE90013022100F05CFADD
:1041BC00B0FA80F0400903B05DF804FB38B5104B41
:1041CC00036083680446A3B16FF000410022FFF73F
:1041DC00E6FFA068002100F06FFA237903F0FF05D9
:1041EC0013B100F019FAF8E7A068294600F02CFA90
:1041FC00A56004F10C00FFF7C9FF204638BD00BFD5
:10420C00C0720D0010B50446FFF7D8FF20461C21E4
:10421C0002F0B5FE204610BD0EB410B58DB00FAA3D
:10422C00016852F8044B039200232020CDE90403CB
:10423C00CDE900421E2004AA00F02EFB0DB0BDE813
:10424C00104003B0704700001FB50D490D48FFF733
:10425C00E3FF0D4B0D491B788DF8003002A83C2371
:10426C00002201F07FFF039828B14368013B4360B3
:10427C000BB9FFF756FF0021062002F022FEFEE7E5
:10428C0068720D0034E70320E4E6032078720D0019
:10429C001FB50D490D48FFF7BFFF0D4B0D491B789E
:1042AC008DF8003002A83C23002201F05BFF03983C
:1042BC0028B14368013B43600BB9FFF732FF002183
:1042CC00062002F0FEFDFEE787720D0034E70320A6
:1042DC00E4E6032098720D007047000030B591B0F1
:1042EC000024284900944FF0FF330122082002F0EB
:1042FC00ADF9254B059305AD95E80300234B0993C8
:10430C0003AA0CAB82E8030093E8030085E80300E2
:10431C0092E8030083E803001D4B0E930F9B089358
:10432C001C4B0F931C490194012300931B4A0968F1
:10433C008DF8284009AB0BA80B94079400F07CF97E
:10434C002846FFF723FF2246214609A8FFF727FF3F
:10435C000B9840B16FF00043009301942346224622
:10436C00214600F081F90121062002F0AAFD0C493A
:10437C000C48FFF751FF09A8FFF720FF012011B0EF
:10438C0030BD00BF55420D009D420D00C0720D00A6
:10439C00D3400D00CF400D006CE60320F5400D001E
:1043AC00A8720D0034E7032008B53C210B4801F03E
:1043BC00F4FD0121062002F073FD0021082002F01B
:1043CC006FFD41F2883001F0E7FC05490548FFF725
:1043DC0023FFBDE80840FFF781BF00BFD4E70320EF
:1043EC00B1720D0034E7032070B5D0E900531426E8
:1043FC00044606FB0356AE4204D0284600F0B6FB3A
:10440C001435F8E7206800F00BFB204670BD88429D
:10441C00F8B504460D46164616D9904215D2A2F1AF
:10442C001406751AA1F114072C44B7421CD02CB1F8
:10443C003146204600F002FC337C2374304600F0F9
:10444C0095FB143E143CF0E70ED0B5420CD02CB1C9
:10445C002946204600F0F2FB2B7C2374284600F002
:10446C0085FB14351434F0E7F8BD2DE9F041002339
:10447C00C0E9003383604F689F4204460E4623DD3B
:10448C004FF0140808FB07F000F0C2FA0546D8B14B
:10449C00D4E9001208FB0212FFF7B9FF206800F004
:1044AC00BFFA2560A760D6E9007308FB0378B8450E
:1044BC0008D03946284600F0DBFB3B7C2B741437C4
:1044CC001435F4E7736863602046BDE8F0810000A2
:1044DC0070B5224B224C8CB001221A700023CDE90E
:1044EC000033029302F086F86946054603A8FFF7ED
:1044FC00BCFF264603A906A8FFF7B7FF194B46F8E1
:10450C00043B06A909A8FFF7B0FF09AA1E213046F3
:10451C0001F01CF909A8FFF767FF06A8FFF764FF75
:10452C00114B236003A82562FFF75EFF0F4B23603E
:10453C0002F060F84FF4165102F04CF800F0AEFDAA
:10454C00214601F095F86846FFF74EFF084A0949E5
:10455C00204602F00FFD0CB070BD00BFE4E6032056
:10456C00E8E60320D4720D00C8730D00EC720D0048
:10457C00E0E6032051410D0008B5024B1B689B6817
:10458C00019308BD6802030008B5024B1B68DB6889
:10459C00019308BD6802030008B5024B1B689B68B9
:1045AC00019308BD2C02030008B5024B1B68DB68A5
:1045BC00019308BD2C02030008B5024B1B681B6954
:1045CC00019308BD2C02030008B5024B1B689B69C4
:1045DC00019308BD2C02030008B5024B1B68DB6974
:1045EC00019308BD2C02030008B5024B1B685B68E5
:1045FC00019308BD1802030008B5024B1B68DB6869
:10460C00019308BD1802030008B5024B1B685B69D7
:10461C00019308BD1802030008B5024B1B68DB6848
:10462C00019308BD4802030008B5024B1B68DB6907
:10463C00019308BD4802030008B5024B1B681B6AB6
:10464C00019308BD4802030008B5024B1B685B6A66
:10465C00019308BD4802030008B5024B1B689B6A16
:10466C00019308BD4802030008B5024B1B68DB6AC6
:10467C00019308BD4802030008B5024B1B685B6C34
:10468C00019308BD4802030008B5024B1B689B6CE4
:10469C00019308BD4802030008B5024B1B68DB6C94
:1046AC00019308BD4802030008B5024B1B685B6D03
:1046BC00019308BD4802030008B5024B1B681B6F31
:1046CC00019308BD4802030008B5024B1B685B69E7
:1046DC00019308BD6402030008B5024B1B681B68FC
:1046EC00019308BD3C02030008B5024B1B689B6894
:1046FC00019308BD3C02030008B5024B1B68DB6844
:10470C00019308BD3C02030008B5024B1B681B69F2
:10471C00019308BD3C02030008B5024B1B685B69A2
:10472C00019308BD3C02030008B5024B1B689B6952
:10473C00019308BD3C02030008B5024B1B68DB6902
:10474C00019308BD3C02030008B5024B1B681B6AB1
:10475C00019308BD3C02030008B5024B1B689B6A21
:10476C00019308BD3C02030008B5024B1B68DB6AD1
:10477C00019308BD3C02030008B5024B1B681B6A81
:10478C00019308BD2802030008B5024B1B685B6A45
:10479C00019308BD2802030008B5024B1B689B6AF5
:1047AC00019308BD2802030008B5024B1B68DB6AA5
:1047BC00019308BD2802030008B5024B1B681B6B54
:1047CC00019308BD2802030008B5024B1B685B6B04
:1047DC00019308BD2802030008B5024B1B681B6C33
:1047EC00019308BD2802030008B5024B1B68DB6966
:1047FC00019308BD3002030008B5024B1B681B6A0D
:10480C00019308BD3002030008B5024B1B681B68FE
:10481C00019308BD4C02030008B5024B1B685B6892
:10482C00019308BD4C02030008B5024B1B689B6842
:10483C00019308BD4C02030008B5024B1B681B69B1
:10484C00019308BD4C02030008B5024B1B685B6961
:10485C00019308BD4C02030008B5024B1B689B6911
:10486C00019308BD4C02030008B5024B1B68DB69C1
:10487C00019308BD4C02030008B5024B1B681B6A70
:10488C00019308BD4C02030008B5024B1B685B6B1F
:10489C00019308BD6002030008B5024B1B685B6DF9
:1048AC00019308BD6002030008B5024B1B68DB6E68
:1048BC00019308BD6002030008B5024B1B681B6F17
:1048CC00019308BD6002030008B5024B1B685B68CE
:1048DC00019308BD2002030008B5024B1B685B69FD
:1048EC00019308BD2002030008B5024B1B68DB6C6A
:1048FC00019308BD2002030008B5024B1B685B6DD9
:10490C00019308BD2002030008B5034B1B68D3F8C4
:10491C008830019308BD00002002030008B5034B4A
:10492C001B68D3F89430019308BD000020020300EB
:10493C0008B5024B1B685B68019308BD400203007D
:10494C0008B5024B1B689B68019308BD400203002D
:10495C0008B5024B1B68DB68019308BD40020300DD
:10496C0008B5024B1B681B69019308BD400203008C
:10497C0008B5024B1B685B69019308BD400203003C
:10498C0008B5024B1B689B69019308BD40020300EC
:10499C0008B5024B1B68DB69019308BD400203009C
:1049AC0008B5024B1B681B6A019308BD400203004B
:1049BC0008B5024B1B681B6B019308BD400203003A
:1049CC0008B5024B1B685B6B019308BD40020300EA
:1049DC0008B5024B1B685B69019308BD44020300D8
:1049EC0008B5024B1B681B6A019308BD4402030007
:1049FC0008B5024B1B68DB6B019308BD4402030036
:104A0C0008B5024B1B681B6C019308BD44020300E4
:104A1C0008B5024B1B681B68019308BD1C02030000
:104A2C0008B5024B1B685B68019308BD1C020300B0
:104A3C0008B5024B1B689B68019308BD1C02030060
:104A4C0008B5024B1B685B6A019308BD1C0203008E
:104A5C0008B5024B1B68DB6A019308BD1C020300FE
:104A6C0008B5024B1B681B6B019308BD1C020300AD
:104A7C0008B5024B1B685B6C019308BD1C0203005C
:104A8C00002240681146FFF78BBF00224068114698
:104A9C00FFF796BF40680022FFF78ABF40680022EC
:104AAC0081F00101FFF774BF002340681A461946D4
:104ABC00FFF766BF002340681A461946FFF758BF38
:104ACC00002240681146FFF74BBF00224068114698
:104ADC00FFF736BF406800220221FFF739BF0023E1
:104AEC0040681A46FFF724BF024B03225A60024A61
:104AFC001A6070470CE7032004730D0010B50446D0
:104B0C0008462170FFF770FE00236360204610BD3D
:104B1C0010B50446006818B1FFF782FF002323602C
:104B2C0010BD10B50446FFF7F3FF204610BD000082
:104B3C0010B5094B094C022200201A60084B20606A
:104B4C00A080A071A360FFF7BFFE2046054A06496E
:104B5C00BDE8104002F00EBA20E7032014E7032052
:104B6C000000FFFFE0E603202F4B0D0010B50446BC
:104B7C000068FFF755FF204610BD10B504460068CD
:104B8C0008B1FFF74DFF0023C4E90133236010BDCA
:104B9C0038B504460D4600680131FFF749FF10B1E6
:104BAC00C4E90005012038BD10B50368044623B1E3
:104BBC0043688B4201D3012010BD2046FFF7E8FF6C
:104BCC000028F9D0A368002BF5D122681370F2E706
:104BDC0037B50D46114601920446FFF7E5FF019AE1
:104BEC0028B92046FFF7C9FF204603B030BDA260AC
:104BFC002946206802F0DAF92268A3680021D15412
:104C0C00F2E738B5054600680C4668B16A688B68EF
:104C1C009A4207D3096802F03EFAA368AB600023FE
:104C2C00A36038BDFFF7FCFE23682B6063686B60E4
:104C3C00A368AB600023C4E90033F1E710B500238F
:104C4C00C0E90033044683600373FFF7DAFF2046A4
:104C5C0010BD884210B5044605D00B682BB18A688C
:104C6C001946FFF7B5FF204610BDFFF786FFFAE7A0
:104C7C0010B500230446C0E9003383600373FFF7CB
:104C8C00E8FF204610BD10B5036804469B689847A2
:104C9C00A368013BA3602BB923682046DB68BDE801
:104CAC001040184710BD10B50446006808B1FFF756
:104CBC00EBFC204610BD0B68036013B15A6801323F
:104CCC005A60704710B50446006828B14368013B30
:104CDC0043600BB9FFF7D7FF204610BD10B5064C4B
:104CEC00002320462360FFF7C7FC2046034A0449F3
:104CFC00BDE8104002F03EB924E70320E0E60320B3
:104D0C00B34C0D00F8B506460D468F180024BD4275
:104D1C000CD0336815F8011B9B6830469847031E6E
:104D2C0001DB1C44F3E7002C08BF1C462046F8BDF1
:104D3C0013B50446084659B1019102F0D2F9236823
:104D4C000199DB680246204602B0BDE810401847C6
:104D5C0002B010BD03689B68184738B50D21054695
:104D6C00FFF7F8FF0A2104462846FFF7F3FF20441B
:104D7C0038BD30B58BB000238DF82430012A98BF94
:104D8C000A2209AC0D46B1FBF2F101FB125303F000
:104D9C00FF03092B94BF30333733DBB2AA4204F83C
:104DAC00013DEFD92146FFF7C3FF0BB030BD2DE914
:104DBC00F04186B000AF05460E46381D142114464E
:104DCC003B60FFF73DFE13280ED8391D2846FFF730
:104DDC00AFFF04461EB12846FFF7BFFF0444204630
:104DEC001837BD46BDE8F08100F1080323F0070336
:104DFC00E846ADEB030D2246411C3B686846FFF7C5
:104E0C001FFE69462846FFF793FF0446C546E1E7B7
:104E1C0080680368DB6818477047084611B10B6857
:104E2C005B681847704770477047704738B5044641
:104E3C000D4600682E2102F01AF92368C31A2B6064
:104E4C0023B1037803B1013023682060184638BDC4
:104E5C0010B50C21044602F092F8204610BD10B596
:104E6C000421044602F08BF8204610BD10B5042135
:104E7C00044602F084F8204610BD08B502F001F992
:104E8C00B0FA80F0400908BD10B50C4601F0B2FB39
:104E9C00844210D001F062FC844205D101F05EFC2A
:104EAC00BDE8104001F057BC2CB1236820465B686C
:104EBC00BDE81040184710BD13B5044608460191D3
:104ECC0002F00FF901990246204602B0BDE81040ED
:104EDC0001F098BF13B504460846019102F001F9A0
:104EEC0023680199DB680246204602B0BDE81040F9
:104EFC00184707B503688DF80710DB6801220DF120
:104F0C000701984703B05DF804FB0EB403B503AB7F
:104F1C00002153F8042B006A0193FFF748FF02B0FD
:104F2C005DF804EB03B070472DE9F74FD0E900951D
:104F3C004FF0140808FB05F50093AB10184D1746FD
:104F4C005D434C46002D23DD6E1008FB06F004EB90
:104F5C00000A3A46BAF804B0205801915F4528BFC0
:104F6C005A4602F0C6F80199012378B95F4503D17E
:104F7C00009A13703546E5E78CBF0120002000280D
:104F8C00F8D0AE1B0AF11404013EF3E7C00FF6E7AC
:104F9C00A4EB09040248A410604303B0BDE8F08FF1
:104FAC00CDCCCCCC7FB50369067E01910BB301B39C
:104FBC00002500F10C04039503A901A8FFF736FFA7
:104FCC000146B0B10DF10B03039A8DF80B5020463E
:104FDC00FFF7AAFF9DF80B305BB12468142303FB89
:104FEC00004000F10804B0F90630002BA8BFDEB277
:104FFC00E2E7304604B070BD10B50A4C2378BFF31D
:10500C005B8FDB070BD42046FFF74EF838B12046F8
:10501C00FFF74FF8044A0549054801F0ABFF044877
:10502C0010BD00BF2CE70320E0E60320354E0D0039
:10503C0070E6032010B50A4C2378BFF35B8FDB07B7
:10504C000BD42046FFF730F838B12046FFF731F883
:10505C00044A0549054801F08DFF044810BD00BF06
:10506C0030E70320E0E60320334E0D0074E6032006
:10507C0038B500250446C0E90055C0E904558560E3
:10508C00856140F8245FFFF7F7FAFFF7B5FFE061A1
:10509C00FFF7D0FF25732062204638BD10B50B4CAE
:1050AC002378BFF35B8FDB070ED42046FEF7FCFFA3
:1050BC0050B10748FFF7DCFF2046FEF7FAFF054A20
:1050CC000549034801F056FF014810BD28E70320AD
:1050DC0038E70320E0E603203D550D00024A034962
:1050EC0003480023FFF7E8BB19540D00A5530D002E
:1050FC0025530D0000231A4619461846FFF7DCBB52
:10510C0037B50D6951F8043B0093044601A8FFF72D
:10511C00D2FD6A462946204601F01EFD01A8FFF784
:10512C00D1FD204603B030BD37B58D6851F8043B36
:10513C000093044601A8FFF7BEFD6A4629462046A7
:10514C0001F086FD01A8FFF7BDFD204603B030BD80
:10515C0037B5CD6851F8043B0093044601A8FFF71E
:10516C00AAFD6A462946204601F04EFD01A8FFF72C
:10517C00A9FD204603B030BD70B58AB00D4601467E
:10518C0004A8FFF7D1FF144E04A801F079FDE8B193
:10519C0004A96846FFF7DCFF02983146FFF76DFE65
:1051AC00044610B12C1E18BF012401A8FFF78AFD7C
:1051BC00002CE9D004A96846FFF7A2FF684601F06D
:1051CC0001FD286001A8FFF77DFDDDE705A8FFF7CD
:1051DC0079FD0AB070BD00BF30730D0037B50C46B9
:1051EC0020461249154601F04CFF48B901F002FA6D
:1051FC004FF4165101F0EEF901F0FCF903B030BD9B
:10520C000B49204601F03DFF70B94FF4165301A92C
:10521C0028460193FFF7B0FF01F0A0FA019901F0C5
:10522C0097FA01F09BFAE9E70020E7E735730D00E8
:10523C003C730D0070B5D0E900531426044606FBF0
:10524C000356AE4205D005F10800FFF7F3FF143505
:10525C00F7E72068FFF7E4FB204670BD70B5D0E996
:10526C000053044605EB0316AE4204D02846FFF764
:10527C007DFC1035F8E72068FFF7D2FB204670BDA7
:10528C0010B504460C30FFF7D5FF2046FFF7E6FFBC
:10529C00204610BD10B5044B044640F8043BFFF704
:1052AC00EFFF204610BD00BFD4720D0010B50446B0
:1052BC00FFF7F0FF2046242101F061FE204610BDCF
:1052CC0010B5034B03600446FFF7E4FF204610BD06
:1052DC00E0730D0010B50446FFF7F2FF20462421C1
:1052EC0001F04DFE204610BD0022C0E9002210B591
:1052FC0082600C6804604C6844608C680A604A6088
:10530C0084608A6010BD10B5036804461868FFF706
:10531C00CBF9204610BD00002DE9F04F87B0804638
:10532C0003931C4B5B68C3F30803894616466BB9A1
:10533C00FFF7B4FE044600F12403406A0593FFF71F
:10534C00ABF9237B2BB105A8FFF7DDFF07B0BDE858
:10535C00F08F01232373D4E900535FFA89F905EB2D
:10536C00830AAA4512D055F8047B3146381DFFF745
:10537C0019FE8145F5D33B68039A0092D3F808B027
:10538C004A46334641463846D847EAE7002323735A
:10539C00D9E700BF00ED00E02DE9F74F9B461A4B13
:1053AC005B68C3F308038046894616466BB9FFF762
:1053BC0075FE044600F12403406A0193FFF76CF973
:1053CC00237B2BB101A8FFF79EFF03B0BDE8F08F44
:1053DC0001232373D4E90053F6B205EB830A554538
:1053EC000ED055F8047B5946381DFFF7DBFD86427D
:1053FC00F5D33B684A46DB68414638469847EEE7AA
:10540C0000232373DEE700BF00ED00E02DE9F3413C
:10541C00164B5B68C3F3080305460F461BBBFFF72F
:10542C003DFE00F124030446406A0193FFF734F972
:10543C00D4E90063462406EB8308B04509D101A8E2
:10544C00FFF761FFA542B4BF0020012002B0BDE808
:10545C00F08156F8040B39460430FFF7A3FD844263
:10546C00A8BF0446E9E70020F0E700BF00ED00E02C
:10547C0070B50446D0E900020B4600EB8202824272
:10548C0007D001461D6851F8046BAE4203D00846A4
:10549C00F5E7002070BD521A01F096FD6368013BE0
:1054AC0063600120F6E71FB500F124030446406A4F
:1054BC0001910393FFF7F0F801A92046FFF7D8FFFD
:1054CC0018B163680BB9FFF715FE03A8FFF71BFFB4
:1054DC0004B010BD70B5D0E904561823044603FB84
:1054EC000656AE4215D005F110012046FFF7C0FF5D
:1054FC0063680BB9FFF7FEFDE06929690368DB6897
:10550C009847696919B1206A0368DB6898471835B0
:10551C00E7E7D4E90453182606FB0356AE4204D041
:10552C002846FFF723FB1835F8E70023636170BDAD
:10553C0073B50446FFF7DEFD04F12403606A0193A2
:10554C00FFF7AAF82046FFF7C5FF01A8FFF7DBFE1F
:10555C00606A08B1FFF798F8D4E90453182606FBE3
:10556C000356AE4204D02846FFF700FB1835F8E787
:10557C002069FFF755FA2068FFF752FA204602B06F
:10558C0070BD8842F8B506460C46154627D99042A0
:10559C0026D2A2F114056C1AA1F1140704440026BA
:1055AC00AF423DD0A4B12B682360AB88A380B5F982
:1055BC000630E380C4E902662661AB68A360AE6086
:1055CC00E368EA68E260EB6023692A6922612B6177
:1055DC0005F10800FFF72EFE143D143CE0E71FD048
:1055EC000027AC421CD0A6B123683360A388B380DB
:1055FC00B4F90630F380C6E902773761A368B3606B
:10560C00A760F368E268F260E36033692269326193
:10561C00236104F10800FFF70DFE14341436E0E7A3
:10562C00F8BDF8B5D0E901539D4204460E46174625
:10563C000DDB0135002D006804DDA900FFF7F8F93A
:10564C0018B9F8BDFFF7ECF900202060A5602568BB
:10565C00626805EB86019200A2EB8602081D01F040
:10566C00B3FC45F826706368013363600120E8E7FA
:10567C0037B500F124030446406A01930D46FFF749
:10568C000BF8D4E9003103EB810083421A460BD0AE
:10569C001268AA4203F10403F7D101A8FFF733FE05
:1056AC000025284603B030BD2A462046FFF7B9FF37
:1056BC0005460028F1D06368012B01D1FFF70EFDE0
:1056CC0001A8FFF720FEECE78842F8B504460D462A
:1056DC00164614D9904213D2A2F11006751AA1F1F4
:1056EC0010072C44B74218D01CB131462046FFF7A6
:1056FC00A5FA3046FFF73AFA103E103CF2E70CD010
:10570C00B5420AD01CB129462046FFF797FA284625
:10571C00FFF72CFA10351034F2E7F8BD70B50E1EF9
:10572C00054611DD3001FFF773F9044658B1D5E990
:10573C00001201EB0212FFF7C7FF2868FFF770F9A0
:10574C002C60AE60012070BD0024F6E72DE9F04F0F
:10575C00914697B000230391D9F804100C9346227C
:10576C009942C0E90033C0E90233C0E90433CDE902
:10577C000A330446027623DCD9E90057142303FBD1
:10578C000757AF423BD029460DA8FFF757FA0DA992
:10579C0011A80B9EFFF752FADDE90B1399421BDAA5
:1057AC000A9B0B9A03EB061603EB0212314606F129
:1057BC001000FFF789FFEEB90B9B01330B9311E03F
:1057CC000AA8FFF7ABFF0028D6D10AA8FFF746FDC1
:1057DC00204617B0BDE8F08F01310AA8FFF79EFFF5
:1057EC000028DDD111A8FFF7C1F90DA8FFF7BEF90C
:1057FC001435C6E711A93046FFF720FADCE700267E
:10580C00CDE90D660F9637464FF0140ADDE90A23F1
:10581C009E4280F297803301D35808930BB901361E
:10582C00F4E70AFB06F3099702930DAD09A908A842
:10583C00FFF7FCFA83460028F1D00146099A8DF84F
:10584C001F700DF11F032846FFF76EFB9DF81F809C
:10585C000190B8F1000F66D1BDF82430ADF8483096
:10586C00CDE913884FF6FF73CDF844B0ADF84A304C
:10587C00CDF85480D5E9013293421ADB03F1010BC8
:10588C00BBF1000F4ADD0AFB0BF0FFF7C1F80490E7
:10589C00002845D0D5E900120AFB0212FFF771FE71
:1058AC00049B28680493FFF7BBF8049B2B60C5F896
:1058BC0008B0019BD5F800B06A680AFB03F30BEB48
:1058CC00030101F114000AFB02B204910593FFF7E6
:1058DC0058FE0499A9B1059B119A4BF80320BDF809
:1058EC0048308B80BDF94A30CB80C1E902770F611B
:1058FC00139B8B60149B1397CB60159B14970B61B8
:10590C0015976B6801336B6013A8FFF793FCB8F124
:10591C00000F08D00DA8FFF78DFC56E74346C0E7F3
:10592C004FF00108F0E7019B2D680AFB0355089B1B
:10593C001B782BB9D9F80030029A13441B7CEB80EE
:10594C00083573E72168226062686360A3680B9274
:10595C000C9A0C93E368A2600D9A0D932369E26094
:10596C000E9A0E93636922610F9A0F93039B0A910F
:10597C0062612376CEE700007FB50546094B45F8FA
:10598C00043B04460E4601A81146FEF76EFD01AA23
:10599C0031462846FFF7DAFE01A8FEF725FD204622
:1059AC0004B070BDD4720D00F0B50F4687B0264917
:1059BC000C9C384616461D4601F063FB00BBE4B157
:1059CC0029466846FFF790FC2049242001F0D9FABB
:1059DC00054670B1694603A8FEF747FD03AA314698
:1059EC002846FFF7C9FF03A8FEF7FEFC184B2C62F4
:1059FC002B606846FEF7F8FC2C46204607B0F0BD3D
:105A0C001449384601F03DFBE0B9002CF5D029468D
:105A1C006846FFF769FC0D49242001F0B2FA0546EF
:105A2C000028E6D0694603A8FEF71FFD03AA3146FD
:105A3C002846FFF7A1FF03A8FEF7D6FC064B2B6008
:105A4C002C62D6E70024D8E744730D0065750D0071
:105A5C00E0730D0048730D00C8730D00014B024A32
:105A6C001A60704734E7032059730D002DE9F04795
:105A7C00089DD0F8209004460E461746984600F034
:105A8C00B9FD81454CD02B79190704D56A69544965
:105A9C002046FFF73AFAB8F1000F0DD05B212046F3
:105AAC00FFF727FA41462046FFF714FA23684D49C1
:105ABC00DB680222204698472B79DA0723D5D5F8E4
:105ACC0008802F21404601F026FB08B100F10108A7
:105ADC0041462046FFF7FEF92B799B0708D53A2162
:105AEC002046FFF706FAEA683F492046FFF70DFA11
:105AFC002A79236812F0040FDB6814BF3B493C4938
:105B0C000222204698472B7958071DD529690B4648
:105B1C001A4613F8010B60B1202808D11946F7E793
:105B2C00344800F01EFF0028ADD0BDE8F0872828CF
:105B3C00EED12368521ADB682046984723682E4919
:105B4C00DB6804222046984700213846FEF7ACFE5D
:105B5C0001462046FFF7BEF923682549DB6802227F
:105B6C00204698471EB131462046FFF7B3F92B79F2
:105B7C0013F0300F2CD023682049DB68022220461A
:105B8C0098472B79D9060AD523681D49DB6807226B
:105B9C0020469847AA691B492046FFF7B6F92B798E
:105BAC009A0611D5DB0605D523681049DB6802225D
:105BBC002046984723681449DB6820460A229847F8
:105BCC00E9692046FFF786F95D212046FFF791F938
:105BDC0023680E49DB6820460222BDE8F0471847CF
:105BEC005D730D0064730D0067730D006A730D0017
:105BFC006F730D00BCE703206D730D0072730D0005
:105C0C0075730D007D730D0080730D008B730D008B
:105C1C002DE9F04385B0D0F820900C9C05460F463A
:105C2C0090461E4600F0E6FC814505D1494800F03F
:105C3C0098FE002840F08A802B6A474A01924FF068
:105C4C00000901A803938DF8089001F042F8494629
:105C5C004046FEF729FE41498046012201A801F089
:105C6C00C1F84146FFF728F93FB13D49012201A88F
:105C7C0001F0B8F83946FFF71FF93EB13949012256
:105C8C0001A801F0AFF83146FFF716F92379DF07C9
:105C9C000ED5A6682F21304601F03DFA00B1461C06
:105CAC003149012201A801F09DF83146FFF704F9B2
:105CBC0023799E0707D52D49022201A801F092F8FD
:105CCC00E16801F013F82379580714D52669334697
:105CDC001F4613F8012B2AB1202A01D11E46F7E7E3
:105CEC00282AF5D12249022201A801F07BF8BA1B1F
:105CFC00314601F087F82379190707D51D49012290
:105D0C0001A801F06FF8616901F002F82379DA0655
:105D1C0008D5042218490DEB020001F063F8A169C3
:105D2C0000F0E4FF23799B0607D51449062201A84D
:105D3C0001F058F8E169FFF7BFF801A800F0B3FFD4
:105D4C00286A0F4903680222DB68984705B0BDE852
:105D5C00F08300BFBCE70320B0730D003A730D0055
:105D6C008E730D0090730D0092730D0094730D00E3
:105D7C0097730D009A730D009C730D00A1730D00A9
:105D8C008B730D00024B1A68024B1A60704700BFF0
:105D9C0078E6032060E703200021FEF79DBD10B5D7
:105DAC000446FEF7F3F9204610BD13B50B46024628
:105DBC00D0E900016C4684E8030093E8030082E814
:105DCC00030094E8030083E8030002B010BD000058
:105DDC000348044A04490023836001F0CBB800BF98
:105DEC0064E70320E0E60320AB5D0D00014B186077
:105DFC00704700BF7CE6032008B50B4B43B100F0A5
:105E0C00F9FB03681B699847002801DDAFF300809C
:105E1C00064B43B100F0A2FC03681B6998470028AD
:105E2C0001DDAFF3008008BD0000000000000000A1
:105E3C0008B5FFF7E1FFFEF7E7FB014B186008BD63
:105E4C00D0E703200248034A0349121A01F0AEB806
:105E5C0000F4032004F4032090760D0007B5002312
:105E6C0000931A466FF07701FEF758FD03B05DF80A
:105E7C0004FB000007B543880A2B08D0502B0BD12C
:105E8C00094B1B684BB103B05DF804EB1847FFF7E7
:105E9C00E5FF03B05DF804FB002300931A466FF096
:105EAC007701FEF73BFDF4E778E7032038B5124C99
:105EBC001248134D0021FEF7DBFD2368AB42114B5A
:105ECC000CBF012200221A7002D0FFF7BBFF256025
:105EDC00FEF78AFB044601F099F80B4B13B12046F0
:105EEC00AFF3008000210848FEF782FDBDE8384082
:105EFC0006480021FEF708BD00F40320F95D0D00F3
:105F0C001E1C279A74E7032000000000815E0D0020
:105F1C0070470020704710B51021044601F02FF88F
:105F2C00204610BD08B5FFF7F6FF08BD30B50022BE
:105F3C004FF69C74026084808D888C800C68858000
:105F4C0004600A6030BD10B504460068FEF768FDB9
:105F5C00204610BD38B5C468F4B12378022B03D1A8
:105F6C0004F10C00FFF7EFFF656835B12846FEF72A
:105F7C000DF91021284601F002F8A56835B1284624
:105F8C00FEF704F91021284600F0F9FF20461421F1
:105F9C00BDE8384000F0F3BF38BD08460021FEF7DD
:105FAC002FBD73B50E46044656F8043B00930D46C0
:105FBC0001A83146FEF77FFE019A009B62602360C8
:105FCC0001A8002301930093FEF77CFE3046FEF7F8
:105FDC0079FE2846082100F0D2FF204602B070BDA1
:105FEC00826810B50AB900F0D0FFBDE81040C36854
:105FFC00184708B5006800F11001FFF7F1FF08BD64
:10600C00826810B50AB900F0C0FFBDE81040C36843
:10601C00184708B5006800F11001FFF7F1FF08BD43
:10602C0038B500230446036010200D46FEF72BF80C
:10603C0028B10123C0E90133024B0360C560206025
:10604C00204638BD44740D0038B5002383608B683E
:10605C0004460D462BB102229847EB68E360AB680F
:10606C00A360204638BD0000F0B589B004686846CE
:10607C00FFF75CFF4FF00203D4E84F2F002A03D147
:10608C00C4E8413F0029F7D125D104F10C0569463C
:10609C002846FFF74BFFBFF35B8F01236370002093
:1060AC0004F10803BFF35B8F53E8006F43E8000271
:1060BC00002AF9D1BFF35B8F6EB1FEF715FC78B1F6
:1060CC0029463046FFF78CFF3046FEF75FF810216B
:1060DC00304600F054FF6846FFF735FF09B0F0BDBD
:1060EC00314602A8FFF7B0FFE068B4F9105008B1D0
:1060FC0000F0DAFF06901020ADF81C50FDF7C3FF3E
:10610C000546E8B1002787601820FDF7BCFF044660
:10611C0088B10146876002A8FFF747FE049BA2687E
:10612C00A360059B049206A9E268E36004F11000E9
:10613C000592FFF7FBFE084BEB60084B2C60AB6045
:10614C0006A8FFF700FF02A8FEF720F80022294658
:10615C000348FEF7D1FBB7E7FF5F0D0095620D001A
:10616C00F1670D002DE9F0478AB005469DF848907F
:10617C000C4617469846FEF72BFC07AE824638BBFA
:10618C004FF62E73059005A93046ADF81830FFF781
:10619C00CDFE1420FDF777FF044648B102230370AF
:1061AC000123C0E901AA437031460C30FFF7BEFE53
:1061BC002846214640F8044BFFF732FF3046FFF7E4
:1061CC00C2FE05A8FFF7BFFE28460AB0BDE8F0875F
:1061DC000C234FF0000A1420CDE908AA0793FDF711
:1061EC0052FF014628B1C0E901AA80F800A080F84E
:1061FC0001A004A80391FFF713FF224B089308207A
:10620C00FDF741FF824628B1039B40F8043B04A9EB
:10621C00FEF751FD00965FFA89F342463946204657
:10622C00CDF824A0FEF7DCFBB8B9039B5B7803F038
:10623C00FF0293B94FF69C7305A903A80592ADF81C
:10624C001830FFF711FF05A8FFF77DFE05A8099987
:10625C00FFF7A7FE06A8FEF735FD039B059304A9DF
:10626C0006A8FEF728FD059B069A2B606A600023A2
:10627C0006A806930593FEF725FD04A8FEF722FD5C
:10628C00A2E700BF59630D00022AF8B5054607D0F6
:10629C00032A18D0012A01D10B6803600020F8BD35
:1062AC0018200E68FDF7EFFE044650B13146FFF79B
:1062BC00CBFE3069B6F9147008B100F0F5FE206120
:1062CC00A7822C60EAE70468002CE7D004F11000E8
:1062DC00FFF739FE2046FDF759FF1821204600F044
:1062EC004EFEDBE738B5002383608B6804460D4611
:1062FC002BB102229847EB68E360AB68A3602046A1
:10630C0038BD022A70B5044607D0032A12D0012AE0
:10631C0001D10B680360002070BD14200E68FDF7DE
:10632C00B2FE054620B13146FFF7DCFF337C2B74FF
:10633C002560F0E70468002CEDD02046FDF726FF21
:10634C001421204600F01BFEE5E70000F0B589B0F3
:10635C0004460D4601A81146FFF723FEA4B124B252
:10636C001DB1284600F0A0FE054601A803A903951F
:10637C00ADF81040FFF778FE03A8FFF7E4FD02A884
:10638C00FEF7A0FC09B0F0BD019D0123D5E84F2F0D
:10639C00002A03D1C5E8413F0029F7D1EFD12B7377
:1063AC00BFF35B8F6B702B1DBFF35B8F53E8006FDC
:1063BC0043E80042002AF9D1BFF35B8F002EDED0F8
:1063CC002046FEF791FA074660B105F10C01304604
:1063DC00FFF716FE3046FDF7D9FE1021304600F0CF
:1063EC00CEFDCCE7314603A8FFF77CFF2B7B8DF865
:1063FC001C301020FDF747FE0546D0B187601420F5
:10640C00FDF741FE044678B18760014603A8FFF70B
:10641C00CCFC059BA268A360069B0592E268E36036
:10642C009DF81C3006922374064BEB60064B2C60D7
:10643C00AB6003A8FDF7AAFE002229460348FEF72D
:10644C005BFAC7E71F600D000F630D00F1670D00CD
:10645C00704710B51821044600F091FD204610BD80
:10646C00F0B5037D062B8DB00E4600F104074FF0FE
:10647C00000412D000F1080515F8011D0A2230465F
:10648C00FEF777FCAF42044419D0002CF4D02E2137
:10649C003046FEF75FFC0444EEE72F236A4639468C
:1064AC000A208DF80040FEF70FF9684600F019FE3F
:1064BC0033680246DB6869463046984704462046F6
:1064CC000DB0F0BD10B5054B0446112240F8043B4D
:1064DC00002100F093FD204610BD00BF60740D003C
:1064EC000346074A10B543F8042B01F1100251F88A
:1064FC00044B43F8044B9142F9D10A781A7010BD41
:10650C0060740D0010B59DF8084044EA032343EA7B
:10651C00024242EA016104234160037510BD13B5C8
:10652C00CB7800938B784A780978FFF7EBFF02B0B1
:10653C0010BD41747047704708B50021007CFEF710
:10654C008BF940EAE07008BD08B50121007CFEF72C
:10655C0083F940EAE07008BD08B5007CFEF774F9D9
:10656C0020EAE07008BD08B5007CFEF765F920EA6A
:10657C00E07008BD13B50446007C0191FEF764F988
:10658C000028019901DC607C20B1207CFEF76CF9BD
:10659C0020EAE07002B010BD007CFEF76DB910B5BA
:1065AC001421044600F0EBFC204610BD10B54FF44E
:1065BC007A73044608460021C4E90113044B236096
:1065CC000123207463741146FEF71EF9204610BD9A
:1065DC0074740D00007C0022FEF71EB9007CFEF7DF
:1065EC0023B910B514220446002100F007FD204603
:1065FC0010BD000010B5104C88B003A8FFF7F1FFD8
:10660C002178BFF35B8F11F0010111D1204601916C
:10661C00FDF74AFD019958B103AA0848FFF7C6FFD8
:10662C002046FDF746FD064A0649044800F0A2FC48
:10663C00024808B010BD00BF7CE7032080E70320B0
:10664C00E0E6032043650D00004700002DE9FF4103
:10665C0000241D460F4690460646FDF7BDFFA54299
:10666C004FF00403ADF80D408DF80C308DF80F4051
:10667C00A2BF9DF828308DF80E3003AC074900946A
:10668C0043463A463046A8BF8DF80D50FDF79CFFA7
:10669C00B0FA80F0400904B0BDE8F08155660D00F9
:1066AC0070474174704708B5007CFEF755F820EA36
:1066BC00E07008BD08B5007CFEF726F820EAE07013
:1066CC0008BD08B5007CFEF72FF840EAE07008BD65
:1066DC0008B5007CFEF720F840EAE07008BD007CAD
:1066EC00FEF72AB837B5457C04462DB1207C03B0A3
:1066FC00BDE83040FEF700B8007C0191FEF72CF8A5
:10670C0000280199F2DC284603B030BD10B51421E5
:10671C00044600F034FC204610BD000010B54FF0CC
:10672C00000C0446084611464FF47A72C4E901C2C3
:10673C00044A22600122207462741A46FDF7CCFFD1
:10674C00204610BDA4740D00007C0023FEF70CB88D
:10675C000022FFF7F9BF007CFDF7C6BFF7B51B4C55
:10676C0026684EB98420FDF78EFC054618B18422AC
:10677C00314600F043FC2560154D2F684FB984203D
:10678C00FDF781FC064618B18422394600F036FC30
:10679C002E60104E3178BFF35B8F11F0010112D1D6
:1067AC0030460191FDF780FC019960B122682B689D
:1067BC000948FFF7B3FF3046FDF77BFC074A084951
:1067CC00054800F0D7FB044803B0F0BD98E7032060
:1067DC009CE7032094E70320A0E70320E0E60320D6
:1067EC00AD660D0010B5836804460BB900F0CDFB07
:1067FC00C3689847A3681BB10322214620469847DB
:10680C0020461021BDE8104000F0B9BB7047F8B528
:10681C00064615460C468F18BC4206D0336814F851
:10682C00011B9B6830469847F6E72846F8BD007C6C
:10683C000022FDF7A1BF007C0021FDF7A5BF007C65
:10684C000021FDF7A9BF007C0021FDF7ADBF007C46
:10685C000021FDF7B1BF10B51421044600F08FFBE9
:10686C00204610BD10B54FF47A730446084600213B
:10687C00C4E90113034B236020741146FDF7ACFFF0
:10688C00204610BDD4740D00002240681146FEF75E
:10689C0067B8002240681146FEF782B800224068B3
:1068AC001146FEF78DB840680022FEF781B84068AB
:1068BC00002281F00101FEF76BB8002340681A46F4
:1068CC001946FEF75DB8002340681A461946FEF7D4
:1068DC004FB8002240681146FEF732B840680022DB
:1068EC000221FEF735B8002340681A46FEF720B89F
:1068FC00024B04225A60024A1A607047B4E7032024
:10690C00FC740D00002340681A46FEF711B840686D
:10691C0000220221FEF71CB8002240681146FEF747
:10692C000FB8002240681146FEF71AB800234068E1
:10693C001A461946FEF71CB8002340681A46194639
:10694C00FEF71EB84068002281F00101FEF720B866
:10695C0040680022FEF72CB8002240681146FEF772
:10696C002FB8002240681146FEF71AB82DE9F04303
:10697C00002495B016460D460746FFF7A3FD2146A9
:10698C0018220EA8009400F039FB4023CDE90C34FA
:10699C0021466B460CAA3046FDF7F6FD044600284E
:1069AC0046D1024601216868FDF7DAFF02218046D4
:1069BC0022466868FDF7D4FF009E81462146002ED2
:1069CC0036D0002934D17368022B03D00A2B0BD09C
:1069DC00F669F4E7B8F1000F04D071693846043158
:1069EC00FFF79DFD4146F3E7B9F1000F01D1494690
:1069FC00EEE77469102201A800F000FB06238DF865
:106A0C00143001AD04F108031834186859682A468B
:106A1C0003C20833A3421546F7D101A906A807AD56
:106A2C00FFF75EFD0FCD3C1D0FC42B682370DEE716
:106A3C000098FDF7A1FD384615B0BDE8F0830000C5
:106A4C00024B034A1A6000225A607047BCE70320CD
:106A5C0030750D0000F11003012213F8101C0129F0
:106A6C00184608D153F8041C02EB4102013A03F119
:106A7C001003F2D17047022904BF53F8041C5218BA
:106A8C00F4E70EB4F0B588B000AF07F1340510216F
:106A9C0055F8042B7A6004462B467818FD60FDF7F8
:106AAC00CFFF0F287A681AD900F1080323F00703E7
:106ABC006E46ADEB030D411C2B466846FD60FDF7A1
:106ACC00BFFF021E04DD236869469B682046984779
:106ADC00B5462037BD46BDE8F04003B070470028EE
:106AEC00F7D0236802469B6807F1100120469847AF
:106AFC00EFE710B5036804469B689847A368013B11
:106B0C00A3602BB923682046DB68BDE8104018470A
:106B1C0010BD07B503688DF807109B6801220DF1B5
:106B2C000701984703B05DF804FB38B50B680360A8
:106B3C004D6843689D4204460CD015B16B68013317
:106B4C006B60606828B14368013B43600BB9FFF789
:106B5C00D0FF6560204638BD0B461146002210B5AB
:106B6C00C0E90022044683600BB9204610BDFFF734
:106B7C00DCFFFAE78368EBB11A78032A1AD8DFE84E
:106B8C0002F00417021B0520704702685B6852680C
:106B9C00D05C2D2812D0A0F13003092B0ED974280B
:106BAC000ED066280CD0A0F16E03584258417047A5
:106BBC000620704700207047042070470320704760
:106BCC000220704710B50446FFF7D4FF02280ED000
:106BDC00C31EDBB2012B14D82268A36850685B6813
:106BEC00BDE810400A220021184400F023BB2268A3
:106BFC00A36852685B68D05CA0F17403584258419A
:106C0C0010BD0020FCE7000038B50023C0E90033BC
:106C1C0004460E48C4E90203A9B10B78032B06D035
:106C2C008BB9136858684B68C35C6E2B07D013681C
:106C3C004D6858688B6828445B1BA060E360114664
:106C4C002046FFF772FF204638BD00BF8D730D0044
:106C5C0038B500250B46C0E90055C0E90255C0E91E
:106C6C000455044611464BB11A78012A06D103F19A
:106C7C001002DB6882604361FFF757FF204638BD86
:106C8C0010B54369044663B18068E060013B103085
:106C9C00A0602061636113B1FFF7DCFEA0600120EE
:106CAC0000E0184610BD10B57D210446FFF731FFFA
:106CBC0001232371204610BD08B50379012B02D0A6
:106CCC00022B04D008BD2C21FFF723FFFAE73A2151
:106CDC00FAE710B50446FFF7EFFF20467B21FFF7DC
:106CEC0018FF00232371204610BD000013B5044685
:106CFC000191FFF7E1FF2368019ADB680349204605
:106D0C00984701232046237102B010BD67730D0014
:106D1C0013B504460191FFF7CFFF2368019ADB6896
:106D2C0003492046984701232046237102B010BD29
:106D3C005C750D002DE9F0410D4617462221DFF858
:106D4C00A08004462F44FFF7E4FE2946BD422A46A4
:106D5C0038D015F8016B222E03D05C2E01D01F2EDB
:106D6C00F4D82368521A9B68204698475C21204629
:106D7C00FFF7CFFE0D2E0AD8072E1CD9A6F108035B
:106D8C00052B18D8DFE803F00D0F11171315222E61
:106D9C0001D05C2E0FD131462046FFF7BAFE2946B2
:106DAC00D4E76221F8E77421F6E76E21F4E7662157
:106DBC00F2E77221F0E723683246DB684146204651
:106DCC009847ECE78D4204D023686A1A9B682046EA
:106DDC00984722212046FFF79CFEBDE8F08100BFBA
:106DEC005F750D0013B50446CDE90021FFF764FF74
:106DFC002046DDE90021FFF79DFF02232046237189
:106E0C0002B010BD13B50446CDE90021FFF754FFC5
:106E1C002046DDE90021FFF78DFF01232046237179
:106E2C0002B010BD232813B502D9002002B010BD4A
:106E3C00A0F10B03022B1AD8174C2178BFF35B8FF0
:106E4C0011F001010BD120460191FDF72DF90199AB
:106E5C0028B11248FDF752FE2046FDF72AF90F4BD8
:106E6C001878FDF7C9FC0028DFD10120DEE70128E6
:106E7C0009D800F057F80021007CFDF7A5FC80F044
:106E8C000100C0B2D2E709380128EED8FFF766FC42
:106E9C00007CFDF759FCF2E7C4E70320C8E70320A8
:106EAC00232838B504460D460AD8FF2908D0FFF729
:106EBC00B9FF28B129462046BDE83840FDF76CBB28
:106ECC0038BD38B504460D46FDF76EFBFF2810D0D3
:106EDC00062804D84D2323FA00F0C30709D4204612
:106EEC00FFF7A0FF28B129462046BDE83840FDF742
:106EFC0063BB38BD38B500232025438014230446DA
:106F0C000380856005610649284600F03CF8044979
:106F1C006060284600F037F8E060204638BD00BFBE
:106F2C0065750D0030B50F4D2978BFF35B8F11F0EF
:106F3C00010487B013D12846FDF7B6F878B101A843
:106F4C00FFF7D8FF01AA21460748FFF78BFC28461C
:106F5C00FDF7AFF8054A0649034800F00BF8024864
:106F6C0007B030BDD8E70320DCE70320E0E60320C0
:106F7C0019680D000B460146184600F009B8FDF7DC
:106F8C0086B8FDF780B8FDF780B808B5FDF760FD51
:106F9C0010B5054C13462CB10A4601460220AFF33E
:106FAC00008010BD2046FCE7000000000A4491421E
:106FBC0000F1FF3300D1704710B511F8014B03F805
:106FCC00014F9142F9D110BD884210B501EB02047A
:106FDC0002D98442234607D8431EA14208D011F897
:106FEC00012B03F8012FF8E7024401468A4200D135
:106FFC0010BD13F8014D02F8014DF7E702440346AA
:10700C00934200D1704703F8011BF9E738B50D4BDB
:10701C001D68AB6B04467BB91820FDF7F9FC0A4AD6
:10702C000A4BA863C0E90023094B83600B238381BF
:10703C0001220023C0E90423AB6B00221C615A61BE
:10704C0038BD00BF7CE603200E33CDAB34126DE6A9
:10705C00ECDE0500C9B2034610F8012B1AB18A42C6
:10706C00F9D118467047002918BF0023F9E710B56D
:10707C000446FFF7EFFF18B9204600F032F8204421
:10708C0010BD10F8012B11F8013B012A28BF9A42C0
:10709C00F7D0D01A7047034611F8012B03F8012BD7
:1070AC00002AF9D170470000024B0146186800F025
:1070BC0003B800BF7CE6032037B5044608460D46EE
:1070CC0000F00FF8421C114620460192FDF7C8FC57
:1070DC00044618B1019A2946FFF768FF204603B011
:1070EC0030BD034613F8012B002AFBD1181A0138C6
:1070FC00704710B56AB10139841810F8013B11F8CA
:10710C00012F934203D1A04201D0002BF5D1981A44
:10711C0010BD1046FCE738B503460C4669B9BDE80E
:10712C003840FFF797BF431C054621461846FFF72A
:10713C0091FF0028F7D1284638BD0025F5E700005F
:10714C002DE9F0473A4E86468C4660461CF8014BBA
:10715C00A55D15F00805F8D12D2C33D19CF8004015
:10716C004FF0010800F1020C002B5CD0102B0CD15D
:10717C00302C0AD19CF8000000F0DF0058284DD1CB
:10718C009CF8014010230CF1020C08F10047013F60
:10719C000026B7FBF3F9304603FB197AA4F130054E
:1071AC00092D18D82C46A34224DD751C07D0814527
:1071BC001DD301D1A2451ADB00FB034001261CF8AC
:1071CC00014BEBE72B2C08BF9CF80040A84608BFEE
:1071DC0000F1020CC8E7A4F14105192D01D8373C88
:1071EC00E1E7A4F16105192D04D8573CDBE74FF01A
:1071FC00FF36E4E7731C06D12223CEF80030384664
:10720C0042B9BDE8F087B8F1000F00D04042002A27
:10721C00F7D00EB10CF1FF311160F2E73024002BE6
:10722C00B3D10823B1E7302CA4D00A23ADE700BFBB
:10723C0067750D0013460A46014602480068FFF7C1
:10724C007FBF00BF7CE603201D400D0059400D00A0
:10725C0081400D0085400D000000000042757474E3
:10726C006F6E20707265737365642100627574743F
:10727C006F6E2D707265737365640054696D657201
:10728C0020737572706173736564210074696D6528
:10729C00722D7375727061737365640052756E6EC6
:1072AC00696E672100536574757021000000000041
:1072BC0000000000C9410D0011420D00E9400D0015
:1072CC0000000000000000000000000000000000B2
:1072DC00A1400D00C5400D000000000000000000A2
:1072EC0051410D0085410D00795A0D00C7400D002C
:1072FC000000000000000000EB4A0D00E14A0D0008
:10730C00D74A0D00CD4A0D00C14A0D00B54A0D00FB
:10731C00A94A0D00A14A0D00974A0D008D4A0D0097
:10732C0079690D00626175640053657269616C0066
:10733C0053657269616C31004A534F4E53747265D8
:10734C00616D4C6F6748616E646C65720061707042
:10735C0000253031307520005D20002564002C2084
:10736C000028293A2000205B00636F6465203D20D3
:10737C000025690064657461696C73203D20000D03
:10738C000A006D00630066006C6E00666E0074008F
:10739C00636F64650064657461696C0000000000D3
:1073AC0000000000374E0D005D4E0D001D4E0D000F
:1073BC008F6A0D000000000000000000A1520D00BB
:1073CC00B9520D00795A0D00C7400D0000000000A5
:1073DC0000000000CD520D00E1520D001D5C0D00AF
:1073EC00254E0D000000000000000000354E0D0081
:1073FC006B4E0D00B5590D00274E0D00000000001E
:10740C0000000000334E0D00794E0D00E9510D00C7
:10741C00954E0D0025592D256D2D25645425483A82
:10742C00254D3A2553257A0061736374696D6500A7
:10743C0000000000000000001D5F0D00235F0D0028
:10744C00615F0D00315F0D001F5F0D00000000003B
:10745C00000000006D640D005D640D005F640D00A4
:10746C00000000000000000043650D00AB650D003E
:10747C0081650D00114D0D0073650D0045650D0006
:10748C0055650D00A5650D0065650D003F650D008A
:10749C000000000000000000AD660D0019670D0033
:1074AC00F1660D00114D0D00C1660D00DD660D007D
:1074BC00CF660D00EB660D00AF660D00B3660D00D8
:1074CC00000000000000000019680D0063680D004A
:1074DC003B680D001B680D0043680D004B680D00E8
:1074EC0053680D005B680D000000000000000000F8
:1074FC00F3680D00E9680D00DF680D0095680D005C
:10750C00D3680D00C7680D00BB680D00B3680D0093
:10751C00A9680D009F680D0079690D00000000003E
:10752C000000000011690D001B690D0025690D009C
:10753C002F690D0039690D0045690D0051690D0069
:10754C005D690D0065690D006F690D0079690D00AD
:10755C00257500752530347800000020202020206F
:10756C0020202020282828282820202020202020E7
:10757C0020202020202020202020208810101010D7
:10758C00101010101010101010101004040404042B
:10759C000404040404101010101010104141414157
:1075AC00414101010101010101010101010101013F
:1075BC000101010101011010101010104242424251
:1075CC00424202020202020202020202020202020F
:1075DC000202020202021010101020000000000033
:1075EC00000000000000000000000000000000008F
:1075FC00000000000000000000000000000000007F
:10760C00000000000000000000000000000000006E
:10761C00000000000000000000000000000000005E
:10762C00000000000000000000000000000000004E
:10763C00000000000000000000000000000000003E
:10764C00000000000000000000000000000000002E
:10765C00000000000000000000000000DD440D00F0
:10766C00F54A0D003D4B0D00E94C0D00695A0D001B
:10767C00915D0D00DD5D0D00FD680D004D6A0D0086
:04768C0000000000FA
:0476900000000000F6
:1076940010270000F8730D0010740D0034740D00F1
:1076A40080E603200000000000000000000000004D
:1076B40000000000000000000000000000000000C6
:1076C40000000000000000000000000000000000B6
:1076D40000000000000000000000000000000000A6
:1076E4000000000000000000000000000000000096
:1076F4000000000000000000000000000000000086
:047704000000000081
:10770800FFFFFFFF00000102030405060708090A3E
:107718000B0C0D0E0F101112131415161718191A39
:087728001B1C1D1E1F20280080
:047730007856341241
:04000003D000401CCD
:00000001FF
